{
	"contracts/userranking.sol": {
		"UserRanking": {
			"abi": [
				{
					"inputs": [
						{
							"internalType": "uint16",
							"name": "initialKFactor",
							"type": "uint16"
						}
					],
					"stateMutability": "nonpayable",
					"type": "constructor"
				},
				{
					"anonymous": false,
					"inputs": [
						{
							"indexed": false,
							"internalType": "uint16",
							"name": "newKFactor",
							"type": "uint16"
						}
					],
					"name": "KFactorUpdated",
					"type": "event"
				},
				{
					"anonymous": false,
					"inputs": [
						{
							"indexed": false,
							"internalType": "string",
							"name": "userId",
							"type": "string"
						},
						{
							"indexed": false,
							"internalType": "uint16",
							"name": "rank",
							"type": "uint16"
						}
					],
					"name": "RankingUpdated",
					"type": "event"
				},
				{
					"inputs": [],
					"name": "K_FACTOR",
					"outputs": [
						{
							"internalType": "uint16",
							"name": "",
							"type": "uint16"
						}
					],
					"stateMutability": "view",
					"type": "function"
				},
				{
					"inputs": [
						{
							"internalType": "string",
							"name": "userId",
							"type": "string"
						}
					],
					"name": "getRanking",
					"outputs": [
						{
							"internalType": "uint16",
							"name": "",
							"type": "uint16"
						}
					],
					"stateMutability": "view",
					"type": "function"
				},
				{
					"inputs": [
						{
							"internalType": "string",
							"name": "",
							"type": "string"
						}
					],
					"name": "rankings",
					"outputs": [
						{
							"internalType": "uint16",
							"name": "",
							"type": "uint16"
						}
					],
					"stateMutability": "view",
					"type": "function"
				},
				{
					"inputs": [
						{
							"internalType": "uint16",
							"name": "newKFactor",
							"type": "uint16"
						}
					],
					"name": "setKFactor",
					"outputs": [],
					"stateMutability": "nonpayable",
					"type": "function"
				},
				{
					"inputs": [
						{
							"internalType": "string",
							"name": "userId",
							"type": "string"
						},
						{
							"internalType": "uint16",
							"name": "rank",
							"type": "uint16"
						}
					],
					"name": "setRanking",
					"outputs": [],
					"stateMutability": "nonpayable",
					"type": "function"
				},
				{
					"inputs": [
						{
							"internalType": "string",
							"name": "userId",
							"type": "string"
						},
						{
							"internalType": "uint16",
							"name": "networkEloRating",
							"type": "uint16"
						},
						{
							"internalType": "bool",
							"name": "isAbuser",
							"type": "bool"
						}
					],
					"name": "updateRanking",
					"outputs": [],
					"stateMutability": "nonpayable",
					"type": "function"
				}
			],
			"devdoc": {
				"kind": "dev",
				"methods": {},
				"version": 1
			},
			"evm": {
				"assembly": "    /* \"contracts/userranking.sol\":110:2628  contract UserRanking {... */\n  mstore(0x40, 0x80)\n    /* \"contracts/userranking.sol\":315:392  constructor(uint16 initialKFactor) {... */\n  callvalue\n  dup1\n  iszero\n  tag_1\n  jumpi\n  0x00\n  dup1\n  revert\ntag_1:\n  pop\n  mload(0x40)\n  sub(codesize, bytecodeSize)\n  dup1\n  bytecodeSize\n  dup4\n  codecopy\n  dup2\n  dup2\n  add\n  0x40\n  mstore\n  dup2\n  add\n  swap1\n  tag_2\n  swap2\n  swap1\n  tag_3\n  jump\t// in\ntag_2:\n    /* \"contracts/userranking.sol\":371:385  initialKFactor */\n  dup1\n    /* \"contracts/userranking.sol\":360:368  K_FACTOR */\n  0x01\n  0x00\n    /* \"contracts/userranking.sol\":360:385  K_FACTOR = initialKFactor */\n  0x0100\n  exp\n  dup2\n  sload\n  dup2\n  0xffff\n  mul\n  not\n  and\n  swap1\n  dup4\n  0xffff\n  and\n  mul\n  or\n  swap1\n  sstore\n  pop\n    /* \"contracts/userranking.sol\":315:392  constructor(uint16 initialKFactor) {... */\n  pop\n    /* \"contracts/userranking.sol\":110:2628  contract UserRanking {... */\n  jump(tag_6)\n    /* \"#utility.yul\":88:205   */\ntag_8:\n    /* \"#utility.yul\":197:198   */\n  0x00\n    /* \"#utility.yul\":194:195   */\n  dup1\n    /* \"#utility.yul\":187:199   */\n  revert\n    /* \"#utility.yul\":334:423   */\ntag_10:\n    /* \"#utility.yul\":370:377   */\n  0x00\n    /* \"#utility.yul\":410:416   */\n  0xffff\n    /* \"#utility.yul\":403:408   */\n  dup3\n    /* \"#utility.yul\":399:417   */\n  and\n    /* \"#utility.yul\":388:417   */\n  swap1\n  pop\n    /* \"#utility.yul\":334:423   */\n  swap2\n  swap1\n  pop\n  jump\t// out\n    /* \"#utility.yul\":429:549   */\ntag_11:\n    /* \"#utility.yul\":501:524   */\n  tag_19\n    /* \"#utility.yul\":518:523   */\n  dup2\n    /* \"#utility.yul\":501:524   */\n  tag_10\n  jump\t// in\ntag_19:\n    /* \"#utility.yul\":494:499   */\n  dup2\n    /* \"#utility.yul\":491:525   */\n  eq\n    /* \"#utility.yul\":481:543   */\n  tag_20\n  jumpi\n    /* \"#utility.yul\":539:540   */\n  0x00\n    /* \"#utility.yul\":536:537   */\n  dup1\n    /* \"#utility.yul\":529:541   */\n  revert\n    /* \"#utility.yul\":481:543   */\ntag_20:\n    /* \"#utility.yul\":429:549   */\n  pop\n  jump\t// out\n    /* \"#utility.yul\":555:696   */\ntag_12:\n    /* \"#utility.yul\":611:616   */\n  0x00\n    /* \"#utility.yul\":642:648   */\n  dup2\n    /* \"#utility.yul\":636:649   */\n  mload\n    /* \"#utility.yul\":627:649   */\n  swap1\n  pop\n    /* \"#utility.yul\":658:690   */\n  tag_22\n    /* \"#utility.yul\":684:689   */\n  dup2\n    /* \"#utility.yul\":658:690   */\n  tag_11\n  jump\t// in\ntag_22:\n    /* \"#utility.yul\":555:696   */\n  swap3\n  swap2\n  pop\n  pop\n  jump\t// out\n    /* \"#utility.yul\":702:1051   */\ntag_3:\n    /* \"#utility.yul\":771:777   */\n  0x00\n    /* \"#utility.yul\":820:822   */\n  0x20\n    /* \"#utility.yul\":808:817   */\n  dup3\n    /* \"#utility.yul\":799:806   */\n  dup5\n    /* \"#utility.yul\":795:818   */\n  sub\n    /* \"#utility.yul\":791:823   */\n  slt\n    /* \"#utility.yul\":788:907   */\n  iszero\n  tag_24\n  jumpi\n    /* \"#utility.yul\":826:905   */\n  tag_25\n  tag_8\n  jump\t// in\ntag_25:\n    /* \"#utility.yul\":788:907   */\ntag_24:\n    /* \"#utility.yul\":946:947   */\n  0x00\n    /* \"#utility.yul\":971:1034   */\n  tag_26\n    /* \"#utility.yul\":1026:1033   */\n  dup5\n    /* \"#utility.yul\":1017:1023   */\n  dup3\n    /* \"#utility.yul\":1006:1015   */\n  dup6\n    /* \"#utility.yul\":1002:1024   */\n  add\n    /* \"#utility.yul\":971:1034   */\n  tag_12\n  jump\t// in\ntag_26:\n    /* \"#utility.yul\":961:1034   */\n  swap2\n  pop\n    /* \"#utility.yul\":917:1044   */\n  pop\n    /* \"#utility.yul\":702:1051   */\n  swap3\n  swap2\n  pop\n  pop\n  jump\t// out\n    /* \"contracts/userranking.sol\":110:2628  contract UserRanking {... */\ntag_6:\n  dataSize(sub_0)\n  dup1\n  dataOffset(sub_0)\n  0x00\n  codecopy\n  0x00\n  return\nstop\n\nsub_0: assembly {\n        /* \"contracts/userranking.sol\":110:2628  contract UserRanking {... */\n      mstore(0x40, 0x80)\n      callvalue\n      dup1\n      iszero\n      tag_1\n      jumpi\n      0x00\n      dup1\n      revert\n    tag_1:\n      pop\n      jumpi(tag_2, lt(calldatasize, 0x04))\n      shr(0xe0, calldataload(0x00))\n      dup1\n      0x1f5bc0cf\n      eq\n      tag_3\n      jumpi\n      dup1\n      0x2a641fdb\n      eq\n      tag_4\n      jumpi\n      dup1\n      0x46e7a1dc\n      eq\n      tag_5\n      jumpi\n      dup1\n      0x77519b73\n      eq\n      tag_6\n      jumpi\n      dup1\n      0x950b409b\n      eq\n      tag_7\n      jumpi\n      dup1\n      0xfdf3f74d\n      eq\n      tag_8\n      jumpi\n    tag_2:\n      0x00\n      dup1\n      revert\n        /* \"contracts/userranking.sol\":529:674  function setRanking(string memory userId, uint16 rank) public {... */\n    tag_3:\n      tag_9\n      0x04\n      dup1\n      calldatasize\n      sub\n      dup2\n      add\n      swap1\n      tag_10\n      swap2\n      swap1\n      tag_11\n      jump\t// in\n    tag_10:\n      tag_12\n      jump\t// in\n    tag_9:\n      stop\n        /* \"contracts/userranking.sol\":398:523  function setKFactor(uint16 newKFactor) public {... */\n    tag_4:\n      tag_13\n      0x04\n      dup1\n      calldatasize\n      sub\n      dup2\n      add\n      swap1\n      tag_14\n      swap2\n      swap1\n      tag_15\n      jump\t// in\n    tag_14:\n      tag_16\n      jump\t// in\n    tag_13:\n      stop\n        /* \"contracts/userranking.sol\":680:791  function getRanking(string memory userId) public view returns (uint16) {... */\n    tag_5:\n      tag_17\n      0x04\n      dup1\n      calldatasize\n      sub\n      dup2\n      add\n      swap1\n      tag_18\n      swap2\n      swap1\n      tag_19\n      jump\t// in\n    tag_18:\n      tag_20\n      jump\t// in\n    tag_17:\n      mload(0x40)\n      tag_21\n      swap2\n      swap1\n      tag_22\n      jump\t// in\n    tag_21:\n      mload(0x40)\n      dup1\n      swap2\n      sub\n      swap1\n      return\n        /* \"contracts/userranking.sol\":286:308  uint16 public K_FACTOR */\n    tag_6:\n      tag_23\n      tag_24\n      jump\t// in\n    tag_23:\n      mload(0x40)\n      tag_25\n      swap2\n      swap1\n      tag_22\n      jump\t// in\n    tag_25:\n      mload(0x40)\n      dup1\n      swap2\n      sub\n      swap1\n      return\n        /* \"contracts/userranking.sol\":1467:2626  function updateRanking(... */\n    tag_7:\n      tag_26\n      0x04\n      dup1\n      calldatasize\n      sub\n      dup2\n      add\n      swap1\n      tag_27\n      swap2\n      swap1\n      tag_28\n      jump\t// in\n    tag_27:\n      tag_29\n      jump\t// in\n    tag_26:\n      stop\n        /* \"contracts/userranking.sol\":138:179  mapping(string => uint16) public rankings */\n    tag_8:\n      tag_30\n      0x04\n      dup1\n      calldatasize\n      sub\n      dup2\n      add\n      swap1\n      tag_31\n      swap2\n      swap1\n      tag_19\n      jump\t// in\n    tag_31:\n      tag_32\n      jump\t// in\n    tag_30:\n      mload(0x40)\n      tag_33\n      swap2\n      swap1\n      tag_22\n      jump\t// in\n    tag_33:\n      mload(0x40)\n      dup1\n      swap2\n      sub\n      swap1\n      return\n        /* \"contracts/userranking.sol\":529:674  function setRanking(string memory userId, uint16 rank) public {... */\n    tag_12:\n        /* \"contracts/userranking.sol\":620:624  rank */\n      dup1\n        /* \"contracts/userranking.sol\":601:609  rankings */\n      0x00\n        /* \"contracts/userranking.sol\":610:616  userId */\n      dup4\n        /* \"contracts/userranking.sol\":601:617  rankings[userId] */\n      mload(0x40)\n      tag_35\n      swap2\n      swap1\n      tag_36\n      jump\t// in\n    tag_35:\n      swap1\n      dup2\n      mstore\n      0x20\n      add\n      mload(0x40)\n      dup1\n      swap2\n      sub\n      swap1\n      keccak256\n      0x00\n        /* \"contracts/userranking.sol\":601:624  rankings[userId] = rank */\n      0x0100\n      exp\n      dup2\n      sload\n      dup2\n      0xffff\n      mul\n      not\n      and\n      swap1\n      dup4\n      0xffff\n      and\n      mul\n      or\n      swap1\n      sstore\n      pop\n        /* \"contracts/userranking.sol\":639:667  RankingUpdated(userId, rank) */\n      0x60823246bd9724a87f737174a65e2a1c68a909f877c4005413c10764f781b8f1\n        /* \"contracts/userranking.sol\":654:660  userId */\n      dup3\n        /* \"contracts/userranking.sol\":662:666  rank */\n      dup3\n        /* \"contracts/userranking.sol\":639:667  RankingUpdated(userId, rank) */\n      mload(0x40)\n      tag_37\n      swap3\n      swap2\n      swap1\n      tag_38\n      jump\t// in\n    tag_37:\n      mload(0x40)\n      dup1\n      swap2\n      sub\n      swap1\n      log1\n        /* \"contracts/userranking.sol\":529:674  function setRanking(string memory userId, uint16 rank) public {... */\n      pop\n      pop\n      jump\t// out\n        /* \"contracts/userranking.sol\":398:523  function setKFactor(uint16 newKFactor) public {... */\n    tag_16:\n        /* \"contracts/userranking.sol\":465:475  newKFactor */\n      dup1\n        /* \"contracts/userranking.sol\":454:462  K_FACTOR */\n      0x01\n      0x00\n        /* \"contracts/userranking.sol\":454:475  K_FACTOR = newKFactor */\n      0x0100\n      exp\n      dup2\n      sload\n      dup2\n      0xffff\n      mul\n      not\n      and\n      swap1\n      dup4\n      0xffff\n      and\n      mul\n      or\n      swap1\n      sstore\n      pop\n        /* \"contracts/userranking.sol\":490:516  KFactorUpdated(newKFactor) */\n      0x02c29147f9dbc311a4ccf9949488a20725c70e7f7ef01e2f436c86cdabc2d2d8\n        /* \"contracts/userranking.sol\":505:515  newKFactor */\n      dup2\n        /* \"contracts/userranking.sol\":490:516  KFactorUpdated(newKFactor) */\n      mload(0x40)\n      tag_40\n      swap2\n      swap1\n      tag_22\n      jump\t// in\n    tag_40:\n      mload(0x40)\n      dup1\n      swap2\n      sub\n      swap1\n      log1\n        /* \"contracts/userranking.sol\":398:523  function setKFactor(uint16 newKFactor) public {... */\n      pop\n      jump\t// out\n        /* \"contracts/userranking.sol\":680:791  function getRanking(string memory userId) public view returns (uint16) {... */\n    tag_20:\n        /* \"contracts/userranking.sol\":743:749  uint16 */\n      0x00\n        /* \"contracts/userranking.sol\":768:776  rankings */\n      dup1\n        /* \"contracts/userranking.sol\":777:783  userId */\n      dup3\n        /* \"contracts/userranking.sol\":768:784  rankings[userId] */\n      mload(0x40)\n      tag_42\n      swap2\n      swap1\n      tag_36\n      jump\t// in\n    tag_42:\n      swap1\n      dup2\n      mstore\n      0x20\n      add\n      mload(0x40)\n      dup1\n      swap2\n      sub\n      swap1\n      keccak256\n      0x00\n      swap1\n      sload\n      swap1\n      0x0100\n      exp\n      swap1\n      div\n      0xffff\n      and\n        /* \"contracts/userranking.sol\":761:784  return rankings[userId] */\n      swap1\n      pop\n        /* \"contracts/userranking.sol\":680:791  function getRanking(string memory userId) public view returns (uint16) {... */\n      swap2\n      swap1\n      pop\n      jump\t// out\n        /* \"contracts/userranking.sol\":286:308  uint16 public K_FACTOR */\n    tag_24:\n      0x01\n      0x00\n      swap1\n      sload\n      swap1\n      0x0100\n      exp\n      swap1\n      div\n      0xffff\n      and\n      dup2\n      jump\t// out\n        /* \"contracts/userranking.sol\":1467:2626  function updateRanking(... */\n    tag_29:\n        /* \"contracts/userranking.sol\":1623:1624  0 */\n      0x00\n        /* \"contracts/userranking.sol\":1603:1611  rankings */\n      dup1\n        /* \"contracts/userranking.sol\":1612:1618  userId */\n      dup5\n        /* \"contracts/userranking.sol\":1603:1619  rankings[userId] */\n      mload(0x40)\n      tag_44\n      swap2\n      swap1\n      tag_36\n      jump\t// in\n    tag_44:\n      swap1\n      dup2\n      mstore\n      0x20\n      add\n      mload(0x40)\n      dup1\n      swap2\n      sub\n      swap1\n      keccak256\n      0x00\n      swap1\n      sload\n      swap1\n      0x0100\n      exp\n      swap1\n      div\n      0xffff\n      and\n        /* \"contracts/userranking.sol\":1603:1624  rankings[userId] == 0 */\n      0xffff\n      and\n      sub\n        /* \"contracts/userranking.sol\":1599:1753  if (rankings[userId] == 0) {... */\n      tag_45\n      jumpi\n        /* \"contracts/userranking.sol\":1659:1663  1000 */\n      0x03e8\n        /* \"contracts/userranking.sol\":1640:1648  rankings */\n      0x00\n        /* \"contracts/userranking.sol\":1649:1655  userId */\n      dup5\n        /* \"contracts/userranking.sol\":1640:1656  rankings[userId] */\n      mload(0x40)\n      tag_46\n      swap2\n      swap1\n      tag_36\n      jump\t// in\n    tag_46:\n      swap1\n      dup2\n      mstore\n      0x20\n      add\n      mload(0x40)\n      dup1\n      swap2\n      sub\n      swap1\n      keccak256\n      0x00\n        /* \"contracts/userranking.sol\":1640:1663  rankings[userId] = 1000 */\n      0x0100\n      exp\n      dup2\n      sload\n      dup2\n      0xffff\n      mul\n      not\n      and\n      swap1\n      dup4\n      0xffff\n      and\n      mul\n      or\n      swap1\n      sstore\n      pop\n        /* \"contracts/userranking.sol\":1677:1688  uint16 rank */\n      0x00\n        /* \"contracts/userranking.sol\":1691:1695  1000 */\n      0x03e8\n        /* \"contracts/userranking.sol\":1677:1695  uint16 rank = 1000 */\n      swap1\n      pop\n        /* \"contracts/userranking.sol\":1714:1742  RankingUpdated(userId, rank) */\n      0x60823246bd9724a87f737174a65e2a1c68a909f877c4005413c10764f781b8f1\n        /* \"contracts/userranking.sol\":1729:1735  userId */\n      dup5\n        /* \"contracts/userranking.sol\":1737:1741  rank */\n      dup3\n        /* \"contracts/userranking.sol\":1714:1742  RankingUpdated(userId, rank) */\n      mload(0x40)\n      tag_47\n      swap3\n      swap2\n      swap1\n      tag_38\n      jump\t// in\n    tag_47:\n      mload(0x40)\n      dup1\n      swap2\n      sub\n      swap1\n      log1\n        /* \"contracts/userranking.sol\":1626:1753  {... */\n      pop\n        /* \"contracts/userranking.sol\":1599:1753  if (rankings[userId] == 0) {... */\n    tag_45:\n        /* \"contracts/userranking.sol\":1762:1776  uint16 userElo */\n      0x00\n        /* \"contracts/userranking.sol\":1779:1787  rankings */\n      dup1\n        /* \"contracts/userranking.sol\":1788:1794  userId */\n      dup5\n        /* \"contracts/userranking.sol\":1779:1795  rankings[userId] */\n      mload(0x40)\n      tag_48\n      swap2\n      swap1\n      tag_36\n      jump\t// in\n    tag_48:\n      swap1\n      dup2\n      mstore\n      0x20\n      add\n      mload(0x40)\n      dup1\n      swap2\n      sub\n      swap1\n      keccak256\n      0x00\n      swap1\n      sload\n      swap1\n      0x0100\n      exp\n      swap1\n      div\n      0xffff\n      and\n        /* \"contracts/userranking.sol\":1762:1795  uint16 userElo = rankings[userId] */\n      swap1\n      pop\n        /* \"contracts/userranking.sol\":1824:1828  1000 */\n      0x03e8\n        /* \"contracts/userranking.sol\":1813:1820  userElo */\n      dup2\n        /* \"contracts/userranking.sol\":1813:1828  userElo <= 1000 */\n      0xffff\n      and\n      gt\n      iszero\n        /* \"contracts/userranking.sol\":1805:1849  require(userElo <= 1000, \"Invalid user Elo\") */\n      tag_49\n      jumpi\n      mload(0x40)\n      0x08c379a000000000000000000000000000000000000000000000000000000000\n      dup2\n      mstore\n      0x04\n      add\n      tag_50\n      swap1\n      tag_51\n      jump\t// in\n    tag_50:\n      mload(0x40)\n      dup1\n      swap2\n      sub\n      swap1\n      revert\n    tag_49:\n        /* \"contracts/userranking.sol\":1860:1873  int16 eloDiff */\n      0x00\n        /* \"contracts/userranking.sol\":1899:1915  networkEloRating */\n      dup4\n        /* \"contracts/userranking.sol\":1882:1889  userElo */\n      dup3\n        /* \"contracts/userranking.sol\":1876:1916  int16(userElo) - int16(networkEloRating) */\n      tag_52\n      swap2\n      swap1\n      tag_53\n      jump\t// in\n    tag_52:\n        /* \"contracts/userranking.sol\":1860:1916  int16 eloDiff = int16(userElo) - int16(networkEloRating) */\n      swap1\n      pop\n        /* \"contracts/userranking.sol\":1926:1946  int128 expectedScore */\n      0x00\n        /* \"contracts/userranking.sol\":1949:1980  calculateExpectedScore(eloDiff) */\n      tag_54\n        /* \"contracts/userranking.sol\":1972:1979  eloDiff */\n      dup3\n        /* \"contracts/userranking.sol\":1949:1971  calculateExpectedScore */\n      tag_55\n        /* \"contracts/userranking.sol\":1949:1980  calculateExpectedScore(eloDiff) */\n      jump\t// in\n    tag_54:\n        /* \"contracts/userranking.sol\":1926:1980  int128 expectedScore = calculateExpectedScore(eloDiff) */\n      swap1\n      pop\n        /* \"contracts/userranking.sol\":1991:2009  int128 actualScore */\n      0x00\n        /* \"contracts/userranking.sol\":2012:2020  isAbuser */\n      dup5\n        /* \"contracts/userranking.sol\":2012:2074  isAbuser ? ABDKMath64x64.fromInt(0) : ABDKMath64x64.fromInt(1) */\n      tag_56\n      jumpi\n        /* \"contracts/userranking.sol\":2050:2074  ABDKMath64x64.fromInt(1) */\n      tag_57\n        /* \"contracts/userranking.sol\":2072:2073  1 */\n      0x01\n        /* \"contracts/userranking.sol\":2050:2071  ABDKMath64x64.fromInt */\n      tag_58\n        /* \"contracts/userranking.sol\":2050:2074  ABDKMath64x64.fromInt(1) */\n      jump\t// in\n    tag_57:\n        /* \"contracts/userranking.sol\":2012:2074  isAbuser ? ABDKMath64x64.fromInt(0) : ABDKMath64x64.fromInt(1) */\n      jump(tag_59)\n    tag_56:\n        /* \"contracts/userranking.sol\":2023:2047  ABDKMath64x64.fromInt(0) */\n      tag_60\n        /* \"contracts/userranking.sol\":2045:2046  0 */\n      0x00\n        /* \"contracts/userranking.sol\":2023:2044  ABDKMath64x64.fromInt */\n      tag_58\n        /* \"contracts/userranking.sol\":2023:2047  ABDKMath64x64.fromInt(0) */\n      jump\t// in\n    tag_60:\n        /* \"contracts/userranking.sol\":2012:2074  isAbuser ? ABDKMath64x64.fromInt(0) : ABDKMath64x64.fromInt(1) */\n    tag_59:\n        /* \"contracts/userranking.sol\":1991:2074  int128 actualScore = isAbuser ? ABDKMath64x64.fromInt(0) : ABDKMath64x64.fromInt(1) */\n      swap1\n      pop\n        /* \"contracts/userranking.sol\":2085:2104  int16 eloAdjustment */\n      0x00\n        /* \"contracts/userranking.sol\":2126:2333  ABDKMath64x64.toInt(... */\n      tag_61\n        /* \"contracts/userranking.sol\":2163:2319  ABDKMath64x64.mul(... */\n      tag_62\n        /* \"contracts/userranking.sol\":2202:2234  ABDKMath64x64.fromUInt(K_FACTOR) */\n      tag_63\n        /* \"contracts/userranking.sol\":2225:2233  K_FACTOR */\n      0x01\n      0x00\n      swap1\n      sload\n      swap1\n      0x0100\n      exp\n      swap1\n      div\n      0xffff\n      and\n        /* \"contracts/userranking.sol\":2202:2234  ABDKMath64x64.fromUInt(K_FACTOR) */\n      0xffff\n      and\n        /* \"contracts/userranking.sol\":2202:2224  ABDKMath64x64.fromUInt */\n      tag_64\n        /* \"contracts/userranking.sol\":2202:2234  ABDKMath64x64.fromUInt(K_FACTOR) */\n      jump\t// in\n    tag_63:\n        /* \"contracts/userranking.sol\":2256:2301  ABDKMath64x64.sub(actualScore, expectedScore) */\n      tag_65\n        /* \"contracts/userranking.sol\":2274:2285  actualScore */\n      dup6\n        /* \"contracts/userranking.sol\":2287:2300  expectedScore */\n      dup8\n        /* \"contracts/userranking.sol\":2256:2273  ABDKMath64x64.sub */\n      tag_66\n        /* \"contracts/userranking.sol\":2256:2301  ABDKMath64x64.sub(actualScore, expectedScore) */\n      jump\t// in\n    tag_65:\n        /* \"contracts/userranking.sol\":2163:2180  ABDKMath64x64.mul */\n      tag_67\n        /* \"contracts/userranking.sol\":2163:2319  ABDKMath64x64.mul(... */\n      jump\t// in\n    tag_62:\n        /* \"contracts/userranking.sol\":2126:2145  ABDKMath64x64.toInt */\n      tag_68\n        /* \"contracts/userranking.sol\":2126:2333  ABDKMath64x64.toInt(... */\n      jump\t// in\n    tag_61:\n        /* \"contracts/userranking.sol\":2085:2343  int16 eloAdjustment = int16(... */\n      swap1\n      pop\n        /* \"contracts/userranking.sol\":2354:2366  int16 newElo */\n      0x00\n        /* \"contracts/userranking.sol\":2386:2399  eloAdjustment */\n      dup2\n        /* \"contracts/userranking.sol\":2375:2382  userElo */\n      dup7\n        /* \"contracts/userranking.sol\":2369:2399  int16(userElo) + eloAdjustment */\n      tag_69\n      swap2\n      swap1\n      tag_70\n      jump\t// in\n    tag_69:\n        /* \"contracts/userranking.sol\":2354:2399  int16 newElo = int16(userElo) + eloAdjustment */\n      swap1\n      pop\n        /* \"contracts/userranking.sol\":2422:2426  1000 */\n      0x03e8\n        /* \"contracts/userranking.sol\":2413:2419  newElo */\n      dup2\n        /* \"contracts/userranking.sol\":2413:2426  newElo > 1000 */\n      0x01\n      signextend\n      sgt\n        /* \"contracts/userranking.sol\":2409:2523  if (newElo > 1000) {... */\n      iszero\n      tag_71\n      jumpi\n        /* \"contracts/userranking.sol\":2451:2455  1000 */\n      0x03e8\n        /* \"contracts/userranking.sol\":2442:2455  newElo = 1000 */\n      swap1\n      pop\n        /* \"contracts/userranking.sol\":2409:2523  if (newElo > 1000) {... */\n      jump(tag_72)\n    tag_71:\n        /* \"contracts/userranking.sol\":2485:2486  0 */\n      0x00\n        /* \"contracts/userranking.sol\":2476:2482  newElo */\n      dup2\n        /* \"contracts/userranking.sol\":2476:2486  newElo < 0 */\n      0x01\n      signextend\n      slt\n        /* \"contracts/userranking.sol\":2472:2523  if (newElo < 0) {... */\n      iszero\n      tag_73\n      jumpi\n        /* \"contracts/userranking.sol\":2511:2512  0 */\n      0x00\n        /* \"contracts/userranking.sol\":2502:2512  newElo = 0 */\n      swap1\n      pop\n        /* \"contracts/userranking.sol\":2472:2523  if (newElo < 0) {... */\n    tag_73:\n        /* \"contracts/userranking.sol\":2409:2523  if (newElo > 1000) {... */\n    tag_72:\n        /* \"contracts/userranking.sol\":2559:2565  newElo */\n      dup1\n        /* \"contracts/userranking.sol\":2533:2541  rankings */\n      0x00\n        /* \"contracts/userranking.sol\":2542:2548  userId */\n      dup11\n        /* \"contracts/userranking.sol\":2533:2549  rankings[userId] */\n      mload(0x40)\n      tag_74\n      swap2\n      swap1\n      tag_36\n      jump\t// in\n    tag_74:\n      swap1\n      dup2\n      mstore\n      0x20\n      add\n      mload(0x40)\n      dup1\n      swap2\n      sub\n      swap1\n      keccak256\n      0x00\n        /* \"contracts/userranking.sol\":2533:2566  rankings[userId] = uint16(newElo) */\n      0x0100\n      exp\n      dup2\n      sload\n      dup2\n      0xffff\n      mul\n      not\n      and\n      swap1\n      dup4\n      0xffff\n      and\n      mul\n      or\n      swap1\n      sstore\n      pop\n        /* \"contracts/userranking.sol\":2581:2619  RankingUpdated(userId, uint16(newElo)) */\n      0x60823246bd9724a87f737174a65e2a1c68a909f877c4005413c10764f781b8f1\n        /* \"contracts/userranking.sol\":2596:2602  userId */\n      dup10\n        /* \"contracts/userranking.sol\":2611:2617  newElo */\n      dup3\n        /* \"contracts/userranking.sol\":2581:2619  RankingUpdated(userId, uint16(newElo)) */\n      mload(0x40)\n      tag_75\n      swap3\n      swap2\n      swap1\n      tag_38\n      jump\t// in\n    tag_75:\n      mload(0x40)\n      dup1\n      swap2\n      sub\n      swap1\n      log1\n        /* \"contracts/userranking.sol\":1589:2626  {... */\n      pop\n      pop\n      pop\n      pop\n      pop\n      pop\n        /* \"contracts/userranking.sol\":1467:2626  function updateRanking(... */\n      pop\n      pop\n      pop\n      jump\t// out\n        /* \"contracts/userranking.sol\":138:179  mapping(string => uint16) public rankings */\n    tag_32:\n      0x00\n      dup2\n      dup1\n      mload\n      0x20\n      dup2\n      add\n      dup3\n      add\n      dup1\n      mload\n      dup5\n      dup3\n      mstore\n      0x20\n      dup4\n      add\n      0x20\n      dup6\n      add\n      keccak256\n      dup2\n      dup4\n      mstore\n      dup1\n      swap6\n      pop\n      pop\n      pop\n      pop\n      pop\n      pop\n      0x00\n      swap2\n      pop\n      sload\n      swap1\n      0x0100\n      exp\n      swap1\n      div\n      0xffff\n      and\n      dup2\n      jump\t// out\n        /* \"contracts/userranking.sol\":797:1461  function calculateExpectedScore(int16 eloDiff) internal pure returns (int128) {... */\n    tag_55:\n        /* \"contracts/userranking.sol\":867:873  int128 */\n      0x00\n        /* \"contracts/userranking.sol\":885:904  int128 eloDiffFixed */\n      dup1\n        /* \"contracts/userranking.sol\":907:937  ABDKMath64x64.fromInt(eloDiff) */\n      tag_77\n        /* \"contracts/userranking.sol\":929:936  eloDiff */\n      dup4\n        /* \"contracts/userranking.sol\":907:937  ABDKMath64x64.fromInt(eloDiff) */\n      0x01\n      signextend\n        /* \"contracts/userranking.sol\":907:928  ABDKMath64x64.fromInt */\n      tag_58\n        /* \"contracts/userranking.sol\":907:937  ABDKMath64x64.fromInt(eloDiff) */\n      jump\t// in\n    tag_77:\n        /* \"contracts/userranking.sol\":885:937  int128 eloDiffFixed = ABDKMath64x64.fromInt(eloDiff) */\n      swap1\n      pop\n        /* \"contracts/userranking.sol\":947:958  int128 ln10 */\n      0x00\n        /* \"contracts/userranking.sol\":961:1005  ABDKMath64x64.ln(ABDKMath64x64.fromUInt(10)) */\n      tag_78\n        /* \"contracts/userranking.sol\":978:1004  ABDKMath64x64.fromUInt(10) */\n      tag_79\n        /* \"contracts/userranking.sol\":1001:1003  10 */\n      0x0a\n        /* \"contracts/userranking.sol\":978:1000  ABDKMath64x64.fromUInt */\n      tag_64\n        /* \"contracts/userranking.sol\":978:1004  ABDKMath64x64.fromUInt(10) */\n      jump\t// in\n    tag_79:\n        /* \"contracts/userranking.sol\":961:977  ABDKMath64x64.ln */\n      tag_80\n        /* \"contracts/userranking.sol\":961:1005  ABDKMath64x64.ln(ABDKMath64x64.fromUInt(10)) */\n      jump\t// in\n    tag_78:\n        /* \"contracts/userranking.sol\":947:1005  int128 ln10 = ABDKMath64x64.ln(ABDKMath64x64.fromUInt(10)) */\n      swap1\n      pop\n        /* \"contracts/userranking.sol\":1015:1030  int128 exponent */\n      0x00\n        /* \"contracts/userranking.sol\":1033:1204  ABDKMath64x64.neg(... */\n      tag_81\n        /* \"contracts/userranking.sol\":1064:1194  ABDKMath64x64.div(... */\n      tag_82\n        /* \"contracts/userranking.sol\":1099:1136  ABDKMath64x64.mul(eloDiffFixed, ln10) */\n      tag_83\n        /* \"contracts/userranking.sol\":1117:1129  eloDiffFixed */\n      dup6\n        /* \"contracts/userranking.sol\":1131:1135  ln10 */\n      dup6\n        /* \"contracts/userranking.sol\":1099:1116  ABDKMath64x64.mul */\n      tag_67\n        /* \"contracts/userranking.sol\":1099:1136  ABDKMath64x64.mul(eloDiffFixed, ln10) */\n      jump\t// in\n    tag_83:\n        /* \"contracts/userranking.sol\":1154:1180  ABDKMath64x64.fromInt(400) */\n      tag_84\n        /* \"contracts/userranking.sol\":1176:1179  400 */\n      0x0190\n        /* \"contracts/userranking.sol\":1154:1175  ABDKMath64x64.fromInt */\n      tag_58\n        /* \"contracts/userranking.sol\":1154:1180  ABDKMath64x64.fromInt(400) */\n      jump\t// in\n    tag_84:\n        /* \"contracts/userranking.sol\":1064:1081  ABDKMath64x64.div */\n      tag_85\n        /* \"contracts/userranking.sol\":1064:1194  ABDKMath64x64.div(... */\n      jump\t// in\n    tag_82:\n        /* \"contracts/userranking.sol\":1033:1050  ABDKMath64x64.neg */\n      tag_86\n        /* \"contracts/userranking.sol\":1033:1204  ABDKMath64x64.neg(... */\n      jump\t// in\n    tag_81:\n        /* \"contracts/userranking.sol\":1015:1204  int128 exponent = ABDKMath64x64.neg(... */\n      swap1\n      pop\n        /* \"contracts/userranking.sol\":1214:1229  int128 expValue */\n      0x00\n        /* \"contracts/userranking.sol\":1232:1259  ABDKMath64x64.exp(exponent) */\n      tag_87\n        /* \"contracts/userranking.sol\":1250:1258  exponent */\n      dup3\n        /* \"contracts/userranking.sol\":1232:1249  ABDKMath64x64.exp */\n      tag_88\n        /* \"contracts/userranking.sol\":1232:1259  ABDKMath64x64.exp(exponent) */\n      jump\t// in\n    tag_87:\n        /* \"contracts/userranking.sol\":1214:1259  int128 expValue = ABDKMath64x64.exp(exponent) */\n      swap1\n      pop\n        /* \"contracts/userranking.sol\":1269:1289  int128 expectedScore */\n      0x00\n        /* \"contracts/userranking.sol\":1292:1424  ABDKMath64x64.div(... */\n      tag_89\n        /* \"contracts/userranking.sol\":1323:1347  ABDKMath64x64.fromInt(1) */\n      tag_90\n        /* \"contracts/userranking.sol\":1345:1346  1 */\n      0x01\n        /* \"contracts/userranking.sol\":1323:1344  ABDKMath64x64.fromInt */\n      tag_58\n        /* \"contracts/userranking.sol\":1323:1347  ABDKMath64x64.fromInt(1) */\n      jump\t// in\n    tag_90:\n        /* \"contracts/userranking.sol\":1361:1414  ABDKMath64x64.add(ABDKMath64x64.fromInt(1), expValue) */\n      tag_91\n        /* \"contracts/userranking.sol\":1379:1403  ABDKMath64x64.fromInt(1) */\n      tag_92\n        /* \"contracts/userranking.sol\":1401:1402  1 */\n      0x01\n        /* \"contracts/userranking.sol\":1379:1400  ABDKMath64x64.fromInt */\n      tag_58\n        /* \"contracts/userranking.sol\":1379:1403  ABDKMath64x64.fromInt(1) */\n      jump\t// in\n    tag_92:\n        /* \"contracts/userranking.sol\":1405:1413  expValue */\n      dup6\n        /* \"contracts/userranking.sol\":1361:1378  ABDKMath64x64.add */\n      tag_93\n        /* \"contracts/userranking.sol\":1361:1414  ABDKMath64x64.add(ABDKMath64x64.fromInt(1), expValue) */\n      jump\t// in\n    tag_91:\n        /* \"contracts/userranking.sol\":1292:1309  ABDKMath64x64.div */\n      tag_85\n        /* \"contracts/userranking.sol\":1292:1424  ABDKMath64x64.div(... */\n      jump\t// in\n    tag_89:\n        /* \"contracts/userranking.sol\":1269:1424  int128 expectedScore = ABDKMath64x64.div(... */\n      swap1\n      pop\n        /* \"contracts/userranking.sol\":1441:1454  expectedScore */\n      dup1\n        /* \"contracts/userranking.sol\":1434:1454  return expectedScore */\n      swap6\n      pop\n      pop\n      pop\n      pop\n      pop\n      pop\n        /* \"contracts/userranking.sol\":797:1461  function calculateExpectedScore(int16 eloDiff) internal pure returns (int128) {... */\n      swap2\n      swap1\n      pop\n      jump\t// out\n        /* \"abdk-libraries-solidity/ABDKMath64x64.sol\":1218:1404  function fromInt (int256 x) internal pure returns (int128) {... */\n    tag_58:\n        /* \"abdk-libraries-solidity/ABDKMath64x64.sol\":1269:1275  int128 */\n      0x00\n        /* \"abdk-libraries-solidity/ABDKMath64x64.sol\":1315:1334  -0x8000000000000000 */\n      0xffffffffffffffffffffffffffffffffffffffffffffffff8000000000000000\n        /* \"abdk-libraries-solidity/ABDKMath64x64.sol\":1310:1311  x */\n      dup3\n        /* \"abdk-libraries-solidity/ABDKMath64x64.sol\":1310:1334  x >= -0x8000000000000000 */\n      slt\n      iszero\n        /* \"abdk-libraries-solidity/ABDKMath64x64.sol\":1310:1361  x >= -0x8000000000000000 && x <= 0x7FFFFFFFFFFFFFFF */\n      dup1\n      iszero\n      tag_95\n      jumpi\n      pop\n        /* \"abdk-libraries-solidity/ABDKMath64x64.sol\":1343:1361  0x7FFFFFFFFFFFFFFF */\n      0x7fffffffffffffff\n        /* \"abdk-libraries-solidity/ABDKMath64x64.sol\":1338:1339  x */\n      dup3\n        /* \"abdk-libraries-solidity/ABDKMath64x64.sol\":1338:1361  x <= 0x7FFFFFFFFFFFFFFF */\n      sgt\n      iszero\n        /* \"abdk-libraries-solidity/ABDKMath64x64.sol\":1310:1361  x >= -0x8000000000000000 && x <= 0x7FFFFFFFFFFFFFFF */\n    tag_95:\n        /* \"abdk-libraries-solidity/ABDKMath64x64.sol\":1301:1362  require (x >= -0x8000000000000000 && x <= 0x7FFFFFFFFFFFFFFF) */\n      tag_96\n      jumpi\n      0x00\n      dup1\n      revert\n    tag_96:\n        /* \"abdk-libraries-solidity/ABDKMath64x64.sol\":1390:1392  64 */\n      0x40\n        /* \"abdk-libraries-solidity/ABDKMath64x64.sol\":1385:1386  x */\n      dup3\n        /* \"abdk-libraries-solidity/ABDKMath64x64.sol\":1385:1392  x << 64 */\n      swap1\n      shl\n        /* \"abdk-libraries-solidity/ABDKMath64x64.sol\":1370:1393  return int128 (x << 64) */\n      swap1\n      pop\n        /* \"abdk-libraries-solidity/ABDKMath64x64.sol\":1218:1404  function fromInt (int256 x) internal pure returns (int128) {... */\n      swap2\n      swap1\n      pop\n      jump\t// out\n        /* \"abdk-libraries-solidity/ABDKMath64x64.sol\":1958:2127  function fromUInt (uint256 x) internal pure returns (int128) {... */\n    tag_64:\n        /* \"abdk-libraries-solidity/ABDKMath64x64.sol\":2011:2017  int128 */\n      0x00\n        /* \"abdk-libraries-solidity/ABDKMath64x64.sol\":2057:2075  0x7FFFFFFFFFFFFFFF */\n      0x7fffffffffffffff\n        /* \"abdk-libraries-solidity/ABDKMath64x64.sol\":2052:2053  x */\n      dup3\n        /* \"abdk-libraries-solidity/ABDKMath64x64.sol\":2052:2075  x <= 0x7FFFFFFFFFFFFFFF */\n      gt\n      iszero\n        /* \"abdk-libraries-solidity/ABDKMath64x64.sol\":2043:2076  require (x <= 0x7FFFFFFFFFFFFFFF) */\n      tag_98\n      jumpi\n      0x00\n      dup1\n      revert\n    tag_98:\n        /* \"abdk-libraries-solidity/ABDKMath64x64.sol\":2112:2114  64 */\n      0x40\n        /* \"abdk-libraries-solidity/ABDKMath64x64.sol\":2107:2108  x */\n      dup3\n        /* \"abdk-libraries-solidity/ABDKMath64x64.sol\":2107:2114  x << 64 */\n      swap1\n      shl\n        /* \"abdk-libraries-solidity/ABDKMath64x64.sol\":2084:2116  return int128 (int256 (x << 64)) */\n      swap1\n      pop\n        /* \"abdk-libraries-solidity/ABDKMath64x64.sol\":1958:2127  function fromUInt (uint256 x) internal pure returns (int128) {... */\n      swap2\n      swap1\n      pop\n      jump\t// out\n        /* \"abdk-libraries-solidity/ABDKMath64x64.sol\":3949:4168  function sub (int128 x, int128 y) internal pure returns (int128) {... */\n    tag_66:\n        /* \"abdk-libraries-solidity/ABDKMath64x64.sol\":4006:4012  int128 */\n      0x00\n        /* \"abdk-libraries-solidity/ABDKMath64x64.sol\":4038:4051  int256 result */\n      dup1\n        /* \"abdk-libraries-solidity/ABDKMath64x64.sol\":4066:4067  y */\n      dup3\n        /* \"abdk-libraries-solidity/ABDKMath64x64.sol\":4054:4067  int256(x) - y */\n      0x0f\n      signextend\n        /* \"abdk-libraries-solidity/ABDKMath64x64.sol\":4061:4062  x */\n      dup5\n        /* \"abdk-libraries-solidity/ABDKMath64x64.sol\":4054:4063  int256(x) */\n      0x0f\n      signextend\n        /* \"abdk-libraries-solidity/ABDKMath64x64.sol\":4054:4067  int256(x) - y */\n      sub\n        /* \"abdk-libraries-solidity/ABDKMath64x64.sol\":4038:4067  int256 result = int256(x) - y */\n      swap1\n      pop\n        /* \"abdk-libraries-solidity/ABDKMath64x64.sol\":805:840  -0x80000000000000000000000000000000 */\n      0xffffffffffffffffffffffffffffffff80000000000000000000000000000000\n        /* \"abdk-libraries-solidity/ABDKMath64x64.sol\":4084:4103  result >= MIN_64x64 */\n      0x0f\n      signextend\n        /* \"abdk-libraries-solidity/ABDKMath64x64.sol\":4084:4090  result */\n      dup2\n        /* \"abdk-libraries-solidity/ABDKMath64x64.sol\":4084:4103  result >= MIN_64x64 */\n      slt\n      iszero\n        /* \"abdk-libraries-solidity/ABDKMath64x64.sol\":4084:4126  result >= MIN_64x64 && result <= MAX_64x64 */\n      dup1\n      iszero\n      tag_100\n      jumpi\n      pop\n        /* \"abdk-libraries-solidity/ABDKMath64x64.sol\":958:992  0x7FFFFFFFFFFFFFFFFFFFFFFFFFFFFFFF */\n      0x7fffffffffffffffffffffffffffffff\n        /* \"abdk-libraries-solidity/ABDKMath64x64.sol\":4107:4126  result <= MAX_64x64 */\n      0x0f\n      signextend\n        /* \"abdk-libraries-solidity/ABDKMath64x64.sol\":4107:4113  result */\n      dup2\n        /* \"abdk-libraries-solidity/ABDKMath64x64.sol\":4107:4126  result <= MAX_64x64 */\n      sgt\n      iszero\n        /* \"abdk-libraries-solidity/ABDKMath64x64.sol\":4084:4126  result >= MIN_64x64 && result <= MAX_64x64 */\n    tag_100:\n        /* \"abdk-libraries-solidity/ABDKMath64x64.sol\":4075:4127  require (result >= MIN_64x64 && result <= MAX_64x64) */\n      tag_101\n      jumpi\n      0x00\n      dup1\n      revert\n    tag_101:\n        /* \"abdk-libraries-solidity/ABDKMath64x64.sol\":4150:4156  result */\n      dup1\n        /* \"abdk-libraries-solidity/ABDKMath64x64.sol\":4135:4157  return int128 (result) */\n      swap2\n      pop\n      pop\n        /* \"abdk-libraries-solidity/ABDKMath64x64.sol\":3949:4168  function sub (int128 x, int128 y) internal pure returns (int128) {... */\n      swap3\n      swap2\n      pop\n      pop\n      jump\t// out\n        /* \"abdk-libraries-solidity/ABDKMath64x64.sol\":4395:4620  function mul (int128 x, int128 y) internal pure returns (int128) {... */\n    tag_67:\n        /* \"abdk-libraries-solidity/ABDKMath64x64.sol\":4452:4458  int128 */\n      0x00\n        /* \"abdk-libraries-solidity/ABDKMath64x64.sol\":4484:4497  int256 result */\n      dup1\n        /* \"abdk-libraries-solidity/ABDKMath64x64.sol\":4517:4519  64 */\n      0x40\n        /* \"abdk-libraries-solidity/ABDKMath64x64.sol\":4512:4513  y */\n      dup4\n        /* \"abdk-libraries-solidity/ABDKMath64x64.sol\":4500:4513  int256(x) * y */\n      0x0f\n      signextend\n        /* \"abdk-libraries-solidity/ABDKMath64x64.sol\":4507:4508  x */\n      dup6\n        /* \"abdk-libraries-solidity/ABDKMath64x64.sol\":4500:4509  int256(x) */\n      0x0f\n      signextend\n        /* \"abdk-libraries-solidity/ABDKMath64x64.sol\":4500:4513  int256(x) * y */\n      mul\n        /* \"abdk-libraries-solidity/ABDKMath64x64.sol\":4500:4519  int256(x) * y >> 64 */\n      swap1\n      sar\n        /* \"abdk-libraries-solidity/ABDKMath64x64.sol\":4484:4519  int256 result = int256(x) * y >> 64 */\n      swap1\n      pop\n        /* \"abdk-libraries-solidity/ABDKMath64x64.sol\":805:840  -0x80000000000000000000000000000000 */\n      0xffffffffffffffffffffffffffffffff80000000000000000000000000000000\n        /* \"abdk-libraries-solidity/ABDKMath64x64.sol\":4536:4555  result >= MIN_64x64 */\n      0x0f\n      signextend\n        /* \"abdk-libraries-solidity/ABDKMath64x64.sol\":4536:4542  result */\n      dup2\n        /* \"abdk-libraries-solidity/ABDKMath64x64.sol\":4536:4555  result >= MIN_64x64 */\n      slt\n      iszero\n        /* \"abdk-libraries-solidity/ABDKMath64x64.sol\":4536:4578  result >= MIN_64x64 && result <= MAX_64x64 */\n      dup1\n      iszero\n      tag_103\n      jumpi\n      pop\n        /* \"abdk-libraries-solidity/ABDKMath64x64.sol\":958:992  0x7FFFFFFFFFFFFFFFFFFFFFFFFFFFFFFF */\n      0x7fffffffffffffffffffffffffffffff\n        /* \"abdk-libraries-solidity/ABDKMath64x64.sol\":4559:4578  result <= MAX_64x64 */\n      0x0f\n      signextend\n        /* \"abdk-libraries-solidity/ABDKMath64x64.sol\":4559:4565  result */\n      dup2\n        /* \"abdk-libraries-solidity/ABDKMath64x64.sol\":4559:4578  result <= MAX_64x64 */\n      sgt\n      iszero\n        /* \"abdk-libraries-solidity/ABDKMath64x64.sol\":4536:4578  result >= MIN_64x64 && result <= MAX_64x64 */\n    tag_103:\n        /* \"abdk-libraries-solidity/ABDKMath64x64.sol\":4527:4579  require (result >= MIN_64x64 && result <= MAX_64x64) */\n      tag_104\n      jumpi\n      0x00\n      dup1\n      revert\n    tag_104:\n        /* \"abdk-libraries-solidity/ABDKMath64x64.sol\":4602:4608  result */\n      dup1\n        /* \"abdk-libraries-solidity/ABDKMath64x64.sol\":4587:4609  return int128 (result) */\n      swap2\n      pop\n      pop\n        /* \"abdk-libraries-solidity/ABDKMath64x64.sol\":4395:4620  function mul (int128 x, int128 y) internal pure returns (int128) {... */\n      swap3\n      swap2\n      pop\n      pop\n      jump\t// out\n        /* \"abdk-libraries-solidity/ABDKMath64x64.sol\":1616:1729  function toInt (int128 x) internal pure returns (int64) {... */\n    tag_68:\n        /* \"abdk-libraries-solidity/ABDKMath64x64.sol\":1665:1670  int64 */\n      0x00\n        /* \"abdk-libraries-solidity/ABDKMath64x64.sol\":1715:1717  64 */\n      0x40\n        /* \"abdk-libraries-solidity/ABDKMath64x64.sol\":1710:1711  x */\n      dup3\n        /* \"abdk-libraries-solidity/ABDKMath64x64.sol\":1710:1717  x >> 64 */\n      0x0f\n      signextend\n      swap1\n      sar\n        /* \"abdk-libraries-solidity/ABDKMath64x64.sol\":1696:1718  return int64 (x >> 64) */\n      swap1\n      pop\n        /* \"abdk-libraries-solidity/ABDKMath64x64.sol\":1616:1729  function toInt (int128 x) internal pure returns (int64) {... */\n      swap2\n      swap1\n      pop\n      jump\t// out\n        /* \"abdk-libraries-solidity/ABDKMath64x64.sol\":15150:15371  function ln (int128 x) internal pure returns (int128) {... */\n    tag_80:\n        /* \"abdk-libraries-solidity/ABDKMath64x64.sol\":15196:15202  int128 */\n      0x00\n        /* \"abdk-libraries-solidity/ABDKMath64x64.sol\":15241:15242  0 */\n      dup1\n        /* \"abdk-libraries-solidity/ABDKMath64x64.sol\":15237:15238  x */\n      dup3\n        /* \"abdk-libraries-solidity/ABDKMath64x64.sol\":15237:15242  x > 0 */\n      0x0f\n      signextend\n      sgt\n        /* \"abdk-libraries-solidity/ABDKMath64x64.sol\":15228:15243  require (x > 0) */\n      tag_107\n      jumpi\n      0x00\n      dup1\n      revert\n    tag_107:\n        /* \"abdk-libraries-solidity/ABDKMath64x64.sol\":15355:15358  128 */\n      0x80\n        /* \"abdk-libraries-solidity/ABDKMath64x64.sol\":15317:15351  0xB17217F7D1CF79ABC9E3B39803F2F6AF */\n      0xb17217f7d1cf79abc9e3b39803f2f6af\n        /* \"abdk-libraries-solidity/ABDKMath64x64.sol\":15303:15312  log_2 (x) */\n      tag_108\n        /* \"abdk-libraries-solidity/ABDKMath64x64.sol\":15310:15311  x */\n      dup5\n        /* \"abdk-libraries-solidity/ABDKMath64x64.sol\":15303:15308  log_2 */\n      tag_109\n        /* \"abdk-libraries-solidity/ABDKMath64x64.sol\":15303:15312  log_2 (x) */\n      jump\t// in\n    tag_108:\n        /* \"abdk-libraries-solidity/ABDKMath64x64.sol\":15295:15313  int256 (log_2 (x)) */\n      0x0f\n      signextend\n        /* \"abdk-libraries-solidity/ABDKMath64x64.sol\":15286:15351  uint256 (int256 (log_2 (x))) * 0xB17217F7D1CF79ABC9E3B39803F2F6AF */\n      mul\n        /* \"abdk-libraries-solidity/ABDKMath64x64.sol\":15286:15358  uint256 (int256 (log_2 (x))) * 0xB17217F7D1CF79ABC9E3B39803F2F6AF >> 128 */\n      swap1\n      shr\n        /* \"abdk-libraries-solidity/ABDKMath64x64.sol\":15252:15360  return int128 (int256 (... */\n      swap1\n      pop\n        /* \"abdk-libraries-solidity/ABDKMath64x64.sol\":15150:15371  function ln (int128 x) internal pure returns (int128) {... */\n      swap2\n      swap1\n      pop\n      jump\t// out\n        /* \"abdk-libraries-solidity/ABDKMath64x64.sol\":7038:7290  function div (int128 x, int128 y) internal pure returns (int128) {... */\n    tag_85:\n        /* \"abdk-libraries-solidity/ABDKMath64x64.sol\":7095:7101  int128 */\n      0x00\n        /* \"abdk-libraries-solidity/ABDKMath64x64.sol\":7141:7142  0 */\n      dup1\n        /* \"abdk-libraries-solidity/ABDKMath64x64.sol\":7136:7137  y */\n      dup3\n        /* \"abdk-libraries-solidity/ABDKMath64x64.sol\":7136:7142  y != 0 */\n      0x0f\n      signextend\n      sub\n        /* \"abdk-libraries-solidity/ABDKMath64x64.sol\":7127:7143  require (y != 0) */\n      tag_111\n      jumpi\n      0x00\n      dup1\n      revert\n    tag_111:\n        /* \"abdk-libraries-solidity/ABDKMath64x64.sol\":7151:7164  int256 result */\n      0x00\n        /* \"abdk-libraries-solidity/ABDKMath64x64.sol\":7188:7189  y */\n      dup3\n        /* \"abdk-libraries-solidity/ABDKMath64x64.sol\":7167:7189  (int256 (x) << 64) / y */\n      0x0f\n      signextend\n        /* \"abdk-libraries-solidity/ABDKMath64x64.sol\":7182:7184  64 */\n      0x40\n        /* \"abdk-libraries-solidity/ABDKMath64x64.sol\":7176:7177  x */\n      dup6\n        /* \"abdk-libraries-solidity/ABDKMath64x64.sol\":7168:7178  int256 (x) */\n      0x0f\n      signextend\n        /* \"abdk-libraries-solidity/ABDKMath64x64.sol\":7168:7184  int256 (x) << 64 */\n      swap1\n      shl\n        /* \"abdk-libraries-solidity/ABDKMath64x64.sol\":7167:7189  (int256 (x) << 64) / y */\n      dup2\n      tag_112\n      jumpi\n      tag_113\n      tag_114\n      jump\t// in\n    tag_113:\n    tag_112:\n      sdiv\n        /* \"abdk-libraries-solidity/ABDKMath64x64.sol\":7151:7189  int256 result = (int256 (x) << 64) / y */\n      swap1\n      pop\n        /* \"abdk-libraries-solidity/ABDKMath64x64.sol\":805:840  -0x80000000000000000000000000000000 */\n      0xffffffffffffffffffffffffffffffff80000000000000000000000000000000\n        /* \"abdk-libraries-solidity/ABDKMath64x64.sol\":7206:7225  result >= MIN_64x64 */\n      0x0f\n      signextend\n        /* \"abdk-libraries-solidity/ABDKMath64x64.sol\":7206:7212  result */\n      dup2\n        /* \"abdk-libraries-solidity/ABDKMath64x64.sol\":7206:7225  result >= MIN_64x64 */\n      slt\n      iszero\n        /* \"abdk-libraries-solidity/ABDKMath64x64.sol\":7206:7248  result >= MIN_64x64 && result <= MAX_64x64 */\n      dup1\n      iszero\n      tag_115\n      jumpi\n      pop\n        /* \"abdk-libraries-solidity/ABDKMath64x64.sol\":958:992  0x7FFFFFFFFFFFFFFFFFFFFFFFFFFFFFFF */\n      0x7fffffffffffffffffffffffffffffff\n        /* \"abdk-libraries-solidity/ABDKMath64x64.sol\":7229:7248  result <= MAX_64x64 */\n      0x0f\n      signextend\n        /* \"abdk-libraries-solidity/ABDKMath64x64.sol\":7229:7235  result */\n      dup2\n        /* \"abdk-libraries-solidity/ABDKMath64x64.sol\":7229:7248  result <= MAX_64x64 */\n      sgt\n      iszero\n        /* \"abdk-libraries-solidity/ABDKMath64x64.sol\":7206:7248  result >= MIN_64x64 && result <= MAX_64x64 */\n    tag_115:\n        /* \"abdk-libraries-solidity/ABDKMath64x64.sol\":7197:7249  require (result >= MIN_64x64 && result <= MAX_64x64) */\n      tag_116\n      jumpi\n      0x00\n      dup1\n      revert\n    tag_116:\n        /* \"abdk-libraries-solidity/ABDKMath64x64.sol\":7272:7278  result */\n      dup1\n        /* \"abdk-libraries-solidity/ABDKMath64x64.sol\":7257:7279  return int128 (result) */\n      swap2\n      pop\n      pop\n        /* \"abdk-libraries-solidity/ABDKMath64x64.sol\":7038:7290  function div (int128 x, int128 y) internal pure returns (int128) {... */\n      swap3\n      swap2\n      pop\n      pop\n      jump\t// out\n        /* \"abdk-libraries-solidity/ABDKMath64x64.sol\":9082:9213  function neg (int128 x) internal pure returns (int128) {... */\n    tag_86:\n        /* \"abdk-libraries-solidity/ABDKMath64x64.sol\":9129:9135  int128 */\n      0x00\n        /* \"abdk-libraries-solidity/ABDKMath64x64.sol\":805:840  -0x80000000000000000000000000000000 */\n      0xffffffffffffffffffffffffffffffff80000000000000000000000000000000\n        /* \"abdk-libraries-solidity/ABDKMath64x64.sol\":9170:9184  x != MIN_64x64 */\n      0x0f\n      signextend\n        /* \"abdk-libraries-solidity/ABDKMath64x64.sol\":9170:9171  x */\n      dup3\n        /* \"abdk-libraries-solidity/ABDKMath64x64.sol\":9170:9184  x != MIN_64x64 */\n      0x0f\n      signextend\n      sub\n        /* \"abdk-libraries-solidity/ABDKMath64x64.sol\":9161:9185  require (x != MIN_64x64) */\n      tag_118\n      jumpi\n      0x00\n      dup1\n      revert\n    tag_118:\n        /* \"abdk-libraries-solidity/ABDKMath64x64.sol\":9201:9202  x */\n      dup2\n        /* \"abdk-libraries-solidity/ABDKMath64x64.sol\":9200:9202  -x */\n      0x00\n      sub\n        /* \"abdk-libraries-solidity/ABDKMath64x64.sol\":9193:9202  return -x */\n      swap1\n      pop\n        /* \"abdk-libraries-solidity/ABDKMath64x64.sol\":9082:9213  function neg (int128 x) internal pure returns (int128) {... */\n      swap2\n      swap1\n      pop\n      jump\t// out\n        /* \"abdk-libraries-solidity/ABDKMath64x64.sol\":22569:22865  function exp (int128 x) internal pure returns (int128) {... */\n    tag_88:\n        /* \"abdk-libraries-solidity/ABDKMath64x64.sol\":22616:22622  int128 */\n      0x00\n        /* \"abdk-libraries-solidity/ABDKMath64x64.sol\":22661:22681  0x400000000000000000 */\n      0x400000000000000000\n        /* \"abdk-libraries-solidity/ABDKMath64x64.sol\":22657:22658  x */\n      dup3\n        /* \"abdk-libraries-solidity/ABDKMath64x64.sol\":22657:22681  x < 0x400000000000000000 */\n      0x0f\n      signextend\n      slt\n        /* \"abdk-libraries-solidity/ABDKMath64x64.sol\":22648:22682  require (x < 0x400000000000000000) */\n      tag_120\n      jumpi\n      0x00\n      dup1\n      revert\n    tag_120:\n        /* \"abdk-libraries-solidity/ABDKMath64x64.sol\":22711:22732  -0x400000000000000000 */\n      0xffffffffffffffffffffffffffffffffffffffffffffffc00000000000000000\n        /* \"abdk-libraries-solidity/ABDKMath64x64.sol\":22707:22708  x */\n      dup3\n        /* \"abdk-libraries-solidity/ABDKMath64x64.sol\":22707:22732  x < -0x400000000000000000 */\n      0x0f\n      signextend\n      slt\n        /* \"abdk-libraries-solidity/ABDKMath64x64.sol\":22703:22742  if (x < -0x400000000000000000) return 0 */\n      iszero\n      tag_121\n      jumpi\n        /* \"abdk-libraries-solidity/ABDKMath64x64.sol\":22741:22742  0 */\n      0x00\n        /* \"abdk-libraries-solidity/ABDKMath64x64.sol\":22734:22742  return 0 */\n      swap1\n      pop\n      jump(tag_119)\n        /* \"abdk-libraries-solidity/ABDKMath64x64.sol\":22703:22742  if (x < -0x400000000000000000) return 0 */\n    tag_121:\n        /* \"abdk-libraries-solidity/ABDKMath64x64.sol\":22771:22854  exp_2 (... */\n      tag_122\n        /* \"abdk-libraries-solidity/ABDKMath64x64.sol\":22849:22852  128 */\n      0x80\n        /* \"abdk-libraries-solidity/ABDKMath64x64.sol\":22810:22845  0x171547652B82FE1777D0FFDA0D23A7D12 */\n      0x0171547652b82fe1777d0ffda0d23a7d12\n        /* \"abdk-libraries-solidity/ABDKMath64x64.sol\":22805:22806  x */\n      dup5\n        /* \"abdk-libraries-solidity/ABDKMath64x64.sol\":22797:22807  int256 (x) */\n      0x0f\n      signextend\n        /* \"abdk-libraries-solidity/ABDKMath64x64.sol\":22797:22845  int256 (x) * 0x171547652B82FE1777D0FFDA0D23A7D12 */\n      mul\n        /* \"abdk-libraries-solidity/ABDKMath64x64.sol\":22797:22852  int256 (x) * 0x171547652B82FE1777D0FFDA0D23A7D12 >> 128 */\n      swap1\n      sar\n        /* \"abdk-libraries-solidity/ABDKMath64x64.sol\":22771:22776  exp_2 */\n      tag_123\n        /* \"abdk-libraries-solidity/ABDKMath64x64.sol\":22771:22854  exp_2 (... */\n      jump\t// in\n    tag_122:\n        /* \"abdk-libraries-solidity/ABDKMath64x64.sol\":22764:22854  return exp_2 (... */\n      swap1\n      pop\n        /* \"abdk-libraries-solidity/ABDKMath64x64.sol\":22569:22865  function exp (int128 x) internal pure returns (int128) {... */\n    tag_119:\n      swap2\n      swap1\n      pop\n      jump\t// out\n        /* \"abdk-libraries-solidity/ABDKMath64x64.sol\":3517:3736  function add (int128 x, int128 y) internal pure returns (int128) {... */\n    tag_93:\n        /* \"abdk-libraries-solidity/ABDKMath64x64.sol\":3574:3580  int128 */\n      0x00\n        /* \"abdk-libraries-solidity/ABDKMath64x64.sol\":3606:3619  int256 result */\n      dup1\n        /* \"abdk-libraries-solidity/ABDKMath64x64.sol\":3634:3635  y */\n      dup3\n        /* \"abdk-libraries-solidity/ABDKMath64x64.sol\":3622:3635  int256(x) + y */\n      0x0f\n      signextend\n        /* \"abdk-libraries-solidity/ABDKMath64x64.sol\":3629:3630  x */\n      dup5\n        /* \"abdk-libraries-solidity/ABDKMath64x64.sol\":3622:3631  int256(x) */\n      0x0f\n      signextend\n        /* \"abdk-libraries-solidity/ABDKMath64x64.sol\":3622:3635  int256(x) + y */\n      add\n        /* \"abdk-libraries-solidity/ABDKMath64x64.sol\":3606:3635  int256 result = int256(x) + y */\n      swap1\n      pop\n        /* \"abdk-libraries-solidity/ABDKMath64x64.sol\":805:840  -0x80000000000000000000000000000000 */\n      0xffffffffffffffffffffffffffffffff80000000000000000000000000000000\n        /* \"abdk-libraries-solidity/ABDKMath64x64.sol\":3652:3671  result >= MIN_64x64 */\n      0x0f\n      signextend\n        /* \"abdk-libraries-solidity/ABDKMath64x64.sol\":3652:3658  result */\n      dup2\n        /* \"abdk-libraries-solidity/ABDKMath64x64.sol\":3652:3671  result >= MIN_64x64 */\n      slt\n      iszero\n        /* \"abdk-libraries-solidity/ABDKMath64x64.sol\":3652:3694  result >= MIN_64x64 && result <= MAX_64x64 */\n      dup1\n      iszero\n      tag_125\n      jumpi\n      pop\n        /* \"abdk-libraries-solidity/ABDKMath64x64.sol\":958:992  0x7FFFFFFFFFFFFFFFFFFFFFFFFFFFFFFF */\n      0x7fffffffffffffffffffffffffffffff\n        /* \"abdk-libraries-solidity/ABDKMath64x64.sol\":3675:3694  result <= MAX_64x64 */\n      0x0f\n      signextend\n        /* \"abdk-libraries-solidity/ABDKMath64x64.sol\":3675:3681  result */\n      dup2\n        /* \"abdk-libraries-solidity/ABDKMath64x64.sol\":3675:3694  result <= MAX_64x64 */\n      sgt\n      iszero\n        /* \"abdk-libraries-solidity/ABDKMath64x64.sol\":3652:3694  result >= MIN_64x64 && result <= MAX_64x64 */\n    tag_125:\n        /* \"abdk-libraries-solidity/ABDKMath64x64.sol\":3643:3695  require (result >= MIN_64x64 && result <= MAX_64x64) */\n      tag_126\n      jumpi\n      0x00\n      dup1\n      revert\n    tag_126:\n        /* \"abdk-libraries-solidity/ABDKMath64x64.sol\":3718:3724  result */\n      dup1\n        /* \"abdk-libraries-solidity/ABDKMath64x64.sol\":3703:3725  return int128 (result) */\n      swap2\n      pop\n      pop\n        /* \"abdk-libraries-solidity/ABDKMath64x64.sol\":3517:3736  function add (int128 x, int128 y) internal pure returns (int128) {... */\n      swap3\n      swap2\n      pop\n      pop\n      jump\t// out\n        /* \"abdk-libraries-solidity/ABDKMath64x64.sol\":14134:14972  function log_2 (int128 x) internal pure returns (int128) {... */\n    tag_109:\n        /* \"abdk-libraries-solidity/ABDKMath64x64.sol\":14183:14189  int128 */\n      0x00\n        /* \"abdk-libraries-solidity/ABDKMath64x64.sol\":14228:14229  0 */\n      dup1\n        /* \"abdk-libraries-solidity/ABDKMath64x64.sol\":14224:14225  x */\n      dup3\n        /* \"abdk-libraries-solidity/ABDKMath64x64.sol\":14224:14229  x > 0 */\n      0x0f\n      signextend\n      sgt\n        /* \"abdk-libraries-solidity/ABDKMath64x64.sol\":14215:14230  require (x > 0) */\n      tag_128\n      jumpi\n      0x00\n      dup1\n      revert\n    tag_128:\n        /* \"abdk-libraries-solidity/ABDKMath64x64.sol\":14239:14249  int256 msb */\n      0x00\n        /* \"abdk-libraries-solidity/ABDKMath64x64.sol\":14261:14270  int256 xc */\n      dup1\n        /* \"abdk-libraries-solidity/ABDKMath64x64.sol\":14273:14274  x */\n      dup4\n        /* \"abdk-libraries-solidity/ABDKMath64x64.sol\":14261:14274  int256 xc = x */\n      0x0f\n      signextend\n      swap1\n      pop\n        /* \"abdk-libraries-solidity/ABDKMath64x64.sol\":14292:14311  0x10000000000000000 */\n      0x010000000000000000\n        /* \"abdk-libraries-solidity/ABDKMath64x64.sol\":14286:14288  xc */\n      dup2\n        /* \"abdk-libraries-solidity/ABDKMath64x64.sol\":14286:14311  xc >= 0x10000000000000000 */\n      slt\n        /* \"abdk-libraries-solidity/ABDKMath64x64.sol\":14282:14338  if (xc >= 0x10000000000000000) { xc >>= 64; msb += 64; } */\n      tag_129\n      jumpi\n        /* \"abdk-libraries-solidity/ABDKMath64x64.sol\":14322:14324  64 */\n      0x40\n        /* \"abdk-libraries-solidity/ABDKMath64x64.sol\":14315:14324  xc >>= 64 */\n      dup2\n      swap1\n      sar\n      swap1\n      pop\n        /* \"abdk-libraries-solidity/ABDKMath64x64.sol\":14333:14335  64 */\n      0x40\n        /* \"abdk-libraries-solidity/ABDKMath64x64.sol\":14326:14335  msb += 64 */\n      dup3\n      add\n      swap2\n      pop\n        /* \"abdk-libraries-solidity/ABDKMath64x64.sol\":14282:14338  if (xc >= 0x10000000000000000) { xc >>= 64; msb += 64; } */\n    tag_129:\n        /* \"abdk-libraries-solidity/ABDKMath64x64.sol\":14355:14366  0x100000000 */\n      0x0100000000\n        /* \"abdk-libraries-solidity/ABDKMath64x64.sol\":14349:14351  xc */\n      dup2\n        /* \"abdk-libraries-solidity/ABDKMath64x64.sol\":14349:14366  xc >= 0x100000000 */\n      slt\n        /* \"abdk-libraries-solidity/ABDKMath64x64.sol\":14345:14393  if (xc >= 0x100000000) { xc >>= 32; msb += 32; } */\n      tag_130\n      jumpi\n        /* \"abdk-libraries-solidity/ABDKMath64x64.sol\":14377:14379  32 */\n      0x20\n        /* \"abdk-libraries-solidity/ABDKMath64x64.sol\":14370:14379  xc >>= 32 */\n      dup2\n      swap1\n      sar\n      swap1\n      pop\n        /* \"abdk-libraries-solidity/ABDKMath64x64.sol\":14388:14390  32 */\n      0x20\n        /* \"abdk-libraries-solidity/ABDKMath64x64.sol\":14381:14390  msb += 32 */\n      dup3\n      add\n      swap2\n      pop\n        /* \"abdk-libraries-solidity/ABDKMath64x64.sol\":14345:14393  if (xc >= 0x100000000) { xc >>= 32; msb += 32; } */\n    tag_130:\n        /* \"abdk-libraries-solidity/ABDKMath64x64.sol\":14410:14417  0x10000 */\n      0x010000\n        /* \"abdk-libraries-solidity/ABDKMath64x64.sol\":14404:14406  xc */\n      dup2\n        /* \"abdk-libraries-solidity/ABDKMath64x64.sol\":14404:14417  xc >= 0x10000 */\n      slt\n        /* \"abdk-libraries-solidity/ABDKMath64x64.sol\":14400:14444  if (xc >= 0x10000) { xc >>= 16; msb += 16; } */\n      tag_131\n      jumpi\n        /* \"abdk-libraries-solidity/ABDKMath64x64.sol\":14428:14430  16 */\n      0x10\n        /* \"abdk-libraries-solidity/ABDKMath64x64.sol\":14421:14430  xc >>= 16 */\n      dup2\n      swap1\n      sar\n      swap1\n      pop\n        /* \"abdk-libraries-solidity/ABDKMath64x64.sol\":14439:14441  16 */\n      0x10\n        /* \"abdk-libraries-solidity/ABDKMath64x64.sol\":14432:14441  msb += 16 */\n      dup3\n      add\n      swap2\n      pop\n        /* \"abdk-libraries-solidity/ABDKMath64x64.sol\":14400:14444  if (xc >= 0x10000) { xc >>= 16; msb += 16; } */\n    tag_131:\n        /* \"abdk-libraries-solidity/ABDKMath64x64.sol\":14461:14466  0x100 */\n      0x0100\n        /* \"abdk-libraries-solidity/ABDKMath64x64.sol\":14455:14457  xc */\n      dup2\n        /* \"abdk-libraries-solidity/ABDKMath64x64.sol\":14455:14466  xc >= 0x100 */\n      slt\n        /* \"abdk-libraries-solidity/ABDKMath64x64.sol\":14451:14491  if (xc >= 0x100) { xc >>= 8; msb += 8; } */\n      tag_132\n      jumpi\n        /* \"abdk-libraries-solidity/ABDKMath64x64.sol\":14477:14478  8 */\n      0x08\n        /* \"abdk-libraries-solidity/ABDKMath64x64.sol\":14470:14478  xc >>= 8 */\n      dup2\n      swap1\n      sar\n      swap1\n      pop\n        /* \"abdk-libraries-solidity/ABDKMath64x64.sol\":14487:14488  8 */\n      0x08\n        /* \"abdk-libraries-solidity/ABDKMath64x64.sol\":14480:14488  msb += 8 */\n      dup3\n      add\n      swap2\n      pop\n        /* \"abdk-libraries-solidity/ABDKMath64x64.sol\":14451:14491  if (xc >= 0x100) { xc >>= 8; msb += 8; } */\n    tag_132:\n        /* \"abdk-libraries-solidity/ABDKMath64x64.sol\":14508:14512  0x10 */\n      0x10\n        /* \"abdk-libraries-solidity/ABDKMath64x64.sol\":14502:14504  xc */\n      dup2\n        /* \"abdk-libraries-solidity/ABDKMath64x64.sol\":14502:14512  xc >= 0x10 */\n      slt\n        /* \"abdk-libraries-solidity/ABDKMath64x64.sol\":14498:14537  if (xc >= 0x10) { xc >>= 4; msb += 4; } */\n      tag_133\n      jumpi\n        /* \"abdk-libraries-solidity/ABDKMath64x64.sol\":14523:14524  4 */\n      0x04\n        /* \"abdk-libraries-solidity/ABDKMath64x64.sol\":14516:14524  xc >>= 4 */\n      dup2\n      swap1\n      sar\n      swap1\n      pop\n        /* \"abdk-libraries-solidity/ABDKMath64x64.sol\":14533:14534  4 */\n      0x04\n        /* \"abdk-libraries-solidity/ABDKMath64x64.sol\":14526:14534  msb += 4 */\n      dup3\n      add\n      swap2\n      pop\n        /* \"abdk-libraries-solidity/ABDKMath64x64.sol\":14498:14537  if (xc >= 0x10) { xc >>= 4; msb += 4; } */\n    tag_133:\n        /* \"abdk-libraries-solidity/ABDKMath64x64.sol\":14554:14557  0x4 */\n      0x04\n        /* \"abdk-libraries-solidity/ABDKMath64x64.sol\":14548:14550  xc */\n      dup2\n        /* \"abdk-libraries-solidity/ABDKMath64x64.sol\":14548:14557  xc >= 0x4 */\n      slt\n        /* \"abdk-libraries-solidity/ABDKMath64x64.sol\":14544:14582  if (xc >= 0x4) { xc >>= 2; msb += 2; } */\n      tag_134\n      jumpi\n        /* \"abdk-libraries-solidity/ABDKMath64x64.sol\":14568:14569  2 */\n      0x02\n        /* \"abdk-libraries-solidity/ABDKMath64x64.sol\":14561:14569  xc >>= 2 */\n      dup2\n      swap1\n      sar\n      swap1\n      pop\n        /* \"abdk-libraries-solidity/ABDKMath64x64.sol\":14578:14579  2 */\n      0x02\n        /* \"abdk-libraries-solidity/ABDKMath64x64.sol\":14571:14579  msb += 2 */\n      dup3\n      add\n      swap2\n      pop\n        /* \"abdk-libraries-solidity/ABDKMath64x64.sol\":14544:14582  if (xc >= 0x4) { xc >>= 2; msb += 2; } */\n    tag_134:\n        /* \"abdk-libraries-solidity/ABDKMath64x64.sol\":14599:14602  0x2 */\n      0x02\n        /* \"abdk-libraries-solidity/ABDKMath64x64.sol\":14593:14595  xc */\n      dup2\n        /* \"abdk-libraries-solidity/ABDKMath64x64.sol\":14593:14602  xc >= 0x2 */\n      slt\n        /* \"abdk-libraries-solidity/ABDKMath64x64.sol\":14589:14612  if (xc >= 0x2) msb += 1 */\n      tag_135\n      jumpi\n        /* \"abdk-libraries-solidity/ABDKMath64x64.sol\":14611:14612  1 */\n      0x01\n        /* \"abdk-libraries-solidity/ABDKMath64x64.sol\":14604:14612  msb += 1 */\n      dup3\n      add\n      swap2\n      pop\n        /* \"abdk-libraries-solidity/ABDKMath64x64.sol\":14589:14612  if (xc >= 0x2) msb += 1 */\n    tag_135:\n        /* \"abdk-libraries-solidity/ABDKMath64x64.sol\":14653:14666  int256 result */\n      0x00\n        /* \"abdk-libraries-solidity/ABDKMath64x64.sol\":14681:14683  64 */\n      0x40\n        /* \"abdk-libraries-solidity/ABDKMath64x64.sol\":14675:14677  64 */\n      dup1\n        /* \"abdk-libraries-solidity/ABDKMath64x64.sol\":14669:14672  msb */\n      dup5\n        /* \"abdk-libraries-solidity/ABDKMath64x64.sol\":14669:14677  msb - 64 */\n      sub\n        /* \"abdk-libraries-solidity/ABDKMath64x64.sol\":14669:14683  msb - 64 << 64 */\n      swap1\n      shl\n        /* \"abdk-libraries-solidity/ABDKMath64x64.sol\":14653:14683  int256 result = msb - 64 << 64 */\n      swap1\n      pop\n        /* \"abdk-libraries-solidity/ABDKMath64x64.sol\":14691:14701  uint256 ux */\n      0x00\n        /* \"abdk-libraries-solidity/ABDKMath64x64.sol\":14743:14746  msb */\n      dup4\n        /* \"abdk-libraries-solidity/ABDKMath64x64.sol\":14737:14740  127 */\n      0x7f\n        /* \"abdk-libraries-solidity/ABDKMath64x64.sol\":14737:14746  127 - msb */\n      sub\n        /* \"abdk-libraries-solidity/ABDKMath64x64.sol\":14721:14722  x */\n      dup7\n        /* \"abdk-libraries-solidity/ABDKMath64x64.sol\":14713:14723  int256 (x) */\n      0x0f\n      signextend\n        /* \"abdk-libraries-solidity/ABDKMath64x64.sol\":14704:14747  uint256 (int256 (x)) << uint256 (127 - msb) */\n      swap1\n      shl\n        /* \"abdk-libraries-solidity/ABDKMath64x64.sol\":14691:14747  uint256 ux = uint256 (int256 (x)) << uint256 (127 - msb) */\n      swap1\n      pop\n        /* \"abdk-libraries-solidity/ABDKMath64x64.sol\":14760:14770  int256 bit */\n      0x00\n        /* \"abdk-libraries-solidity/ABDKMath64x64.sol\":14773:14791  0x8000000000000000 */\n      0x8000000000000000\n        /* \"abdk-libraries-solidity/ABDKMath64x64.sol\":14760:14791  int256 bit = 0x8000000000000000 */\n      swap1\n      pop\n        /* \"abdk-libraries-solidity/ABDKMath64x64.sol\":14755:14931  for (int256 bit = 0x8000000000000000; bit > 0; bit >>= 1) {... */\n    tag_136:\n        /* \"abdk-libraries-solidity/ABDKMath64x64.sol\":14799:14800  0 */\n      0x00\n        /* \"abdk-libraries-solidity/ABDKMath64x64.sol\":14793:14796  bit */\n      dup2\n        /* \"abdk-libraries-solidity/ABDKMath64x64.sol\":14793:14800  bit > 0 */\n      sgt\n        /* \"abdk-libraries-solidity/ABDKMath64x64.sol\":14755:14931  for (int256 bit = 0x8000000000000000; bit > 0; bit >>= 1) {... */\n      iszero\n      tag_137\n      jumpi\n        /* \"abdk-libraries-solidity/ABDKMath64x64.sol\":14829:14831  ux */\n      dup2\n        /* \"abdk-libraries-solidity/ABDKMath64x64.sol\":14823:14831  ux *= ux */\n      dup3\n      mul\n      swap2\n      pop\n        /* \"abdk-libraries-solidity/ABDKMath64x64.sol\":14841:14850  uint256 b */\n      0x00\n        /* \"abdk-libraries-solidity/ABDKMath64x64.sol\":14859:14862  255 */\n      0xff\n        /* \"abdk-libraries-solidity/ABDKMath64x64.sol\":14853:14855  ux */\n      dup4\n        /* \"abdk-libraries-solidity/ABDKMath64x64.sol\":14853:14862  ux >> 255 */\n      swap1\n      shr\n        /* \"abdk-libraries-solidity/ABDKMath64x64.sol\":14841:14862  uint256 b = ux >> 255 */\n      swap1\n      pop\n        /* \"abdk-libraries-solidity/ABDKMath64x64.sol\":14885:14886  b */\n      dup1\n        /* \"abdk-libraries-solidity/ABDKMath64x64.sol\":14879:14882  127 */\n      0x7f\n        /* \"abdk-libraries-solidity/ABDKMath64x64.sol\":14879:14886  127 + b */\n      add\n        /* \"abdk-libraries-solidity/ABDKMath64x64.sol\":14872:14886  ux >>= 127 + b */\n      dup4\n      swap1\n      shr\n      swap3\n      pop\n        /* \"abdk-libraries-solidity/ABDKMath64x64.sol\":14920:14921  b */\n      dup1\n        /* \"abdk-libraries-solidity/ABDKMath64x64.sol\":14906:14909  bit */\n      dup3\n        /* \"abdk-libraries-solidity/ABDKMath64x64.sol\":14906:14922  bit * int256 (b) */\n      mul\n        /* \"abdk-libraries-solidity/ABDKMath64x64.sol\":14896:14922  result += bit * int256 (b) */\n      dup5\n      add\n      swap4\n      pop\n        /* \"abdk-libraries-solidity/ABDKMath64x64.sol\":14813:14931  {... */\n      pop\n        /* \"abdk-libraries-solidity/ABDKMath64x64.sol\":14810:14811  1 */\n      0x01\n        /* \"abdk-libraries-solidity/ABDKMath64x64.sol\":14802:14811  bit >>= 1 */\n      dup2\n      swap1\n      sar\n      swap1\n      pop\n        /* \"abdk-libraries-solidity/ABDKMath64x64.sol\":14755:14931  for (int256 bit = 0x8000000000000000; bit > 0; bit >>= 1) {... */\n      jump(tag_136)\n    tag_137:\n      pop\n        /* \"abdk-libraries-solidity/ABDKMath64x64.sol\":14954:14960  result */\n      dup2\n        /* \"abdk-libraries-solidity/ABDKMath64x64.sol\":14939:14961  return int128 (result) */\n      swap5\n      pop\n      pop\n      pop\n      pop\n      pop\n        /* \"abdk-libraries-solidity/ABDKMath64x64.sol\":14134:14972  function log_2 (int128 x) internal pure returns (int128) {... */\n      swap2\n      swap1\n      pop\n      jump\t// out\n        /* \"abdk-libraries-solidity/ABDKMath64x64.sol\":15549:22390  function exp_2 (int128 x) internal pure returns (int128) {... */\n    tag_123:\n        /* \"abdk-libraries-solidity/ABDKMath64x64.sol\":15598:15604  int128 */\n      0x00\n        /* \"abdk-libraries-solidity/ABDKMath64x64.sol\":15643:15663  0x400000000000000000 */\n      0x400000000000000000\n        /* \"abdk-libraries-solidity/ABDKMath64x64.sol\":15639:15640  x */\n      dup3\n        /* \"abdk-libraries-solidity/ABDKMath64x64.sol\":15639:15663  x < 0x400000000000000000 */\n      0x0f\n      signextend\n      slt\n        /* \"abdk-libraries-solidity/ABDKMath64x64.sol\":15630:15664  require (x < 0x400000000000000000) */\n      tag_140\n      jumpi\n      0x00\n      dup1\n      revert\n    tag_140:\n        /* \"abdk-libraries-solidity/ABDKMath64x64.sol\":15693:15714  -0x400000000000000000 */\n      0xffffffffffffffffffffffffffffffffffffffffffffffc00000000000000000\n        /* \"abdk-libraries-solidity/ABDKMath64x64.sol\":15689:15690  x */\n      dup3\n        /* \"abdk-libraries-solidity/ABDKMath64x64.sol\":15689:15714  x < -0x400000000000000000 */\n      0x0f\n      signextend\n      slt\n        /* \"abdk-libraries-solidity/ABDKMath64x64.sol\":15685:15724  if (x < -0x400000000000000000) return 0 */\n      iszero\n      tag_141\n      jumpi\n        /* \"abdk-libraries-solidity/ABDKMath64x64.sol\":15723:15724  0 */\n      0x00\n        /* \"abdk-libraries-solidity/ABDKMath64x64.sol\":15716:15724  return 0 */\n      swap1\n      pop\n      jump(tag_139)\n        /* \"abdk-libraries-solidity/ABDKMath64x64.sol\":15685:15724  if (x < -0x400000000000000000) return 0 */\n    tag_141:\n        /* \"abdk-libraries-solidity/ABDKMath64x64.sol\":15746:15760  uint256 result */\n      0x00\n        /* \"abdk-libraries-solidity/ABDKMath64x64.sol\":15763:15797  0x80000000000000000000000000000000 */\n      0x80000000000000000000000000000000\n        /* \"abdk-libraries-solidity/ABDKMath64x64.sol\":15746:15797  uint256 result = 0x80000000000000000000000000000000 */\n      swap1\n      pop\n        /* \"abdk-libraries-solidity/ABDKMath64x64.sol\":15835:15836  0 */\n      0x00\n        /* \"abdk-libraries-solidity/ABDKMath64x64.sol\":15814:15832  0x8000000000000000 */\n      0x8000000000000000\n        /* \"abdk-libraries-solidity/ABDKMath64x64.sol\":15810:15811  x */\n      dup5\n        /* \"abdk-libraries-solidity/ABDKMath64x64.sol\":15810:15832  x & 0x8000000000000000 */\n      and\n        /* \"abdk-libraries-solidity/ABDKMath64x64.sol\":15810:15836  x & 0x8000000000000000 > 0 */\n      0x0f\n      signextend\n      sgt\n        /* \"abdk-libraries-solidity/ABDKMath64x64.sol\":15806:15906  if (x & 0x8000000000000000 > 0)... */\n      iszero\n      tag_142\n      jumpi\n        /* \"abdk-libraries-solidity/ABDKMath64x64.sol\":15903:15906  128 */\n      0x80\n        /* \"abdk-libraries-solidity/ABDKMath64x64.sol\":15864:15899  0x16A09E667F3BCC908B2FB1366EA957D3E */\n      0x016a09e667f3bcc908b2fb1366ea957d3e\n        /* \"abdk-libraries-solidity/ABDKMath64x64.sol\":15855:15861  result */\n      dup3\n        /* \"abdk-libraries-solidity/ABDKMath64x64.sol\":15855:15899  result * 0x16A09E667F3BCC908B2FB1366EA957D3E */\n      mul\n        /* \"abdk-libraries-solidity/ABDKMath64x64.sol\":15855:15906  result * 0x16A09E667F3BCC908B2FB1366EA957D3E >> 128 */\n      swap1\n      shr\n        /* \"abdk-libraries-solidity/ABDKMath64x64.sol\":15846:15906  result = result * 0x16A09E667F3BCC908B2FB1366EA957D3E >> 128 */\n      swap1\n      pop\n        /* \"abdk-libraries-solidity/ABDKMath64x64.sol\":15806:15906  if (x & 0x8000000000000000 > 0)... */\n    tag_142:\n        /* \"abdk-libraries-solidity/ABDKMath64x64.sol\":15943:15944  0 */\n      0x00\n        /* \"abdk-libraries-solidity/ABDKMath64x64.sol\":15922:15940  0x4000000000000000 */\n      0x4000000000000000\n        /* \"abdk-libraries-solidity/ABDKMath64x64.sol\":15918:15919  x */\n      dup5\n        /* \"abdk-libraries-solidity/ABDKMath64x64.sol\":15918:15940  x & 0x4000000000000000 */\n      and\n        /* \"abdk-libraries-solidity/ABDKMath64x64.sol\":15918:15944  x & 0x4000000000000000 > 0 */\n      0x0f\n      signextend\n      sgt\n        /* \"abdk-libraries-solidity/ABDKMath64x64.sol\":15914:16014  if (x & 0x4000000000000000 > 0)... */\n      iszero\n      tag_143\n      jumpi\n        /* \"abdk-libraries-solidity/ABDKMath64x64.sol\":16011:16014  128 */\n      0x80\n        /* \"abdk-libraries-solidity/ABDKMath64x64.sol\":15972:16007  0x1306FE0A31B7152DE8D5A46305C85EDEC */\n      0x01306fe0a31b7152de8d5a46305c85edec\n        /* \"abdk-libraries-solidity/ABDKMath64x64.sol\":15963:15969  result */\n      dup3\n        /* \"abdk-libraries-solidity/ABDKMath64x64.sol\":15963:16007  result * 0x1306FE0A31B7152DE8D5A46305C85EDEC */\n      mul\n        /* \"abdk-libraries-solidity/ABDKMath64x64.sol\":15963:16014  result * 0x1306FE0A31B7152DE8D5A46305C85EDEC >> 128 */\n      swap1\n      shr\n        /* \"abdk-libraries-solidity/ABDKMath64x64.sol\":15954:16014  result = result * 0x1306FE0A31B7152DE8D5A46305C85EDEC >> 128 */\n      swap1\n      pop\n        /* \"abdk-libraries-solidity/ABDKMath64x64.sol\":15914:16014  if (x & 0x4000000000000000 > 0)... */\n    tag_143:\n        /* \"abdk-libraries-solidity/ABDKMath64x64.sol\":16051:16052  0 */\n      0x00\n        /* \"abdk-libraries-solidity/ABDKMath64x64.sol\":16030:16048  0x2000000000000000 */\n      0x2000000000000000\n        /* \"abdk-libraries-solidity/ABDKMath64x64.sol\":16026:16027  x */\n      dup5\n        /* \"abdk-libraries-solidity/ABDKMath64x64.sol\":16026:16048  x & 0x2000000000000000 */\n      and\n        /* \"abdk-libraries-solidity/ABDKMath64x64.sol\":16026:16052  x & 0x2000000000000000 > 0 */\n      0x0f\n      signextend\n      sgt\n        /* \"abdk-libraries-solidity/ABDKMath64x64.sol\":16022:16122  if (x & 0x2000000000000000 > 0)... */\n      iszero\n      tag_144\n      jumpi\n        /* \"abdk-libraries-solidity/ABDKMath64x64.sol\":16119:16122  128 */\n      0x80\n        /* \"abdk-libraries-solidity/ABDKMath64x64.sol\":16080:16115  0x1172B83C7D517ADCDF7C8C50EB14A791F */\n      0x01172b83c7d517adcdf7c8c50eb14a791f\n        /* \"abdk-libraries-solidity/ABDKMath64x64.sol\":16071:16077  result */\n      dup3\n        /* \"abdk-libraries-solidity/ABDKMath64x64.sol\":16071:16115  result * 0x1172B83C7D517ADCDF7C8C50EB14A791F */\n      mul\n        /* \"abdk-libraries-solidity/ABDKMath64x64.sol\":16071:16122  result * 0x1172B83C7D517ADCDF7C8C50EB14A791F >> 128 */\n      swap1\n      shr\n        /* \"abdk-libraries-solidity/ABDKMath64x64.sol\":16062:16122  result = result * 0x1172B83C7D517ADCDF7C8C50EB14A791F >> 128 */\n      swap1\n      pop\n        /* \"abdk-libraries-solidity/ABDKMath64x64.sol\":16022:16122  if (x & 0x2000000000000000 > 0)... */\n    tag_144:\n        /* \"abdk-libraries-solidity/ABDKMath64x64.sol\":16159:16160  0 */\n      0x00\n        /* \"abdk-libraries-solidity/ABDKMath64x64.sol\":16138:16156  0x1000000000000000 */\n      0x1000000000000000\n        /* \"abdk-libraries-solidity/ABDKMath64x64.sol\":16134:16135  x */\n      dup5\n        /* \"abdk-libraries-solidity/ABDKMath64x64.sol\":16134:16156  x & 0x1000000000000000 */\n      and\n        /* \"abdk-libraries-solidity/ABDKMath64x64.sol\":16134:16160  x & 0x1000000000000000 > 0 */\n      0x0f\n      signextend\n      sgt\n        /* \"abdk-libraries-solidity/ABDKMath64x64.sol\":16130:16230  if (x & 0x1000000000000000 > 0)... */\n      iszero\n      tag_145\n      jumpi\n        /* \"abdk-libraries-solidity/ABDKMath64x64.sol\":16227:16230  128 */\n      0x80\n        /* \"abdk-libraries-solidity/ABDKMath64x64.sol\":16188:16223  0x10B5586CF9890F6298B92B71842A98363 */\n      0x010b5586cf9890f6298b92b71842a98363\n        /* \"abdk-libraries-solidity/ABDKMath64x64.sol\":16179:16185  result */\n      dup3\n        /* \"abdk-libraries-solidity/ABDKMath64x64.sol\":16179:16223  result * 0x10B5586CF9890F6298B92B71842A98363 */\n      mul\n        /* \"abdk-libraries-solidity/ABDKMath64x64.sol\":16179:16230  result * 0x10B5586CF9890F6298B92B71842A98363 >> 128 */\n      swap1\n      shr\n        /* \"abdk-libraries-solidity/ABDKMath64x64.sol\":16170:16230  result = result * 0x10B5586CF9890F6298B92B71842A98363 >> 128 */\n      swap1\n      pop\n        /* \"abdk-libraries-solidity/ABDKMath64x64.sol\":16130:16230  if (x & 0x1000000000000000 > 0)... */\n    tag_145:\n        /* \"abdk-libraries-solidity/ABDKMath64x64.sol\":16266:16267  0 */\n      0x00\n        /* \"abdk-libraries-solidity/ABDKMath64x64.sol\":16246:16263  0x800000000000000 */\n      0x0800000000000000\n        /* \"abdk-libraries-solidity/ABDKMath64x64.sol\":16242:16243  x */\n      dup5\n        /* \"abdk-libraries-solidity/ABDKMath64x64.sol\":16242:16263  x & 0x800000000000000 */\n      and\n        /* \"abdk-libraries-solidity/ABDKMath64x64.sol\":16242:16267  x & 0x800000000000000 > 0 */\n      0x0f\n      signextend\n      sgt\n        /* \"abdk-libraries-solidity/ABDKMath64x64.sol\":16238:16337  if (x & 0x800000000000000 > 0)... */\n      iszero\n      tag_146\n      jumpi\n        /* \"abdk-libraries-solidity/ABDKMath64x64.sol\":16334:16337  128 */\n      0x80\n        /* \"abdk-libraries-solidity/ABDKMath64x64.sol\":16295:16330  0x1059B0D31585743AE7C548EB68CA417FD */\n      0x01059b0d31585743ae7c548eb68ca417fd\n        /* \"abdk-libraries-solidity/ABDKMath64x64.sol\":16286:16292  result */\n      dup3\n        /* \"abdk-libraries-solidity/ABDKMath64x64.sol\":16286:16330  result * 0x1059B0D31585743AE7C548EB68CA417FD */\n      mul\n        /* \"abdk-libraries-solidity/ABDKMath64x64.sol\":16286:16337  result * 0x1059B0D31585743AE7C548EB68CA417FD >> 128 */\n      swap1\n      shr\n        /* \"abdk-libraries-solidity/ABDKMath64x64.sol\":16277:16337  result = result * 0x1059B0D31585743AE7C548EB68CA417FD >> 128 */\n      swap1\n      pop\n        /* \"abdk-libraries-solidity/ABDKMath64x64.sol\":16238:16337  if (x & 0x800000000000000 > 0)... */\n    tag_146:\n        /* \"abdk-libraries-solidity/ABDKMath64x64.sol\":16373:16374  0 */\n      0x00\n        /* \"abdk-libraries-solidity/ABDKMath64x64.sol\":16353:16370  0x400000000000000 */\n      0x0400000000000000\n        /* \"abdk-libraries-solidity/ABDKMath64x64.sol\":16349:16350  x */\n      dup5\n        /* \"abdk-libraries-solidity/ABDKMath64x64.sol\":16349:16370  x & 0x400000000000000 */\n      and\n        /* \"abdk-libraries-solidity/ABDKMath64x64.sol\":16349:16374  x & 0x400000000000000 > 0 */\n      0x0f\n      signextend\n      sgt\n        /* \"abdk-libraries-solidity/ABDKMath64x64.sol\":16345:16444  if (x & 0x400000000000000 > 0)... */\n      iszero\n      tag_147\n      jumpi\n        /* \"abdk-libraries-solidity/ABDKMath64x64.sol\":16441:16444  128 */\n      0x80\n        /* \"abdk-libraries-solidity/ABDKMath64x64.sol\":16402:16437  0x102C9A3E778060EE6F7CACA4F7A29BDE8 */\n      0x0102c9a3e778060ee6f7caca4f7a29bde8\n        /* \"abdk-libraries-solidity/ABDKMath64x64.sol\":16393:16399  result */\n      dup3\n        /* \"abdk-libraries-solidity/ABDKMath64x64.sol\":16393:16437  result * 0x102C9A3E778060EE6F7CACA4F7A29BDE8 */\n      mul\n        /* \"abdk-libraries-solidity/ABDKMath64x64.sol\":16393:16444  result * 0x102C9A3E778060EE6F7CACA4F7A29BDE8 >> 128 */\n      swap1\n      shr\n        /* \"abdk-libraries-solidity/ABDKMath64x64.sol\":16384:16444  result = result * 0x102C9A3E778060EE6F7CACA4F7A29BDE8 >> 128 */\n      swap1\n      pop\n        /* \"abdk-libraries-solidity/ABDKMath64x64.sol\":16345:16444  if (x & 0x400000000000000 > 0)... */\n    tag_147:\n        /* \"abdk-libraries-solidity/ABDKMath64x64.sol\":16480:16481  0 */\n      0x00\n        /* \"abdk-libraries-solidity/ABDKMath64x64.sol\":16460:16477  0x200000000000000 */\n      0x0200000000000000\n        /* \"abdk-libraries-solidity/ABDKMath64x64.sol\":16456:16457  x */\n      dup5\n        /* \"abdk-libraries-solidity/ABDKMath64x64.sol\":16456:16477  x & 0x200000000000000 */\n      and\n        /* \"abdk-libraries-solidity/ABDKMath64x64.sol\":16456:16481  x & 0x200000000000000 > 0 */\n      0x0f\n      signextend\n      sgt\n        /* \"abdk-libraries-solidity/ABDKMath64x64.sol\":16452:16551  if (x & 0x200000000000000 > 0)... */\n      iszero\n      tag_148\n      jumpi\n        /* \"abdk-libraries-solidity/ABDKMath64x64.sol\":16548:16551  128 */\n      0x80\n        /* \"abdk-libraries-solidity/ABDKMath64x64.sol\":16509:16544  0x10163DA9FB33356D84A66AE336DCDFA3F */\n      0x010163da9fb33356d84a66ae336dcdfa3f\n        /* \"abdk-libraries-solidity/ABDKMath64x64.sol\":16500:16506  result */\n      dup3\n        /* \"abdk-libraries-solidity/ABDKMath64x64.sol\":16500:16544  result * 0x10163DA9FB33356D84A66AE336DCDFA3F */\n      mul\n        /* \"abdk-libraries-solidity/ABDKMath64x64.sol\":16500:16551  result * 0x10163DA9FB33356D84A66AE336DCDFA3F >> 128 */\n      swap1\n      shr\n        /* \"abdk-libraries-solidity/ABDKMath64x64.sol\":16491:16551  result = result * 0x10163DA9FB33356D84A66AE336DCDFA3F >> 128 */\n      swap1\n      pop\n        /* \"abdk-libraries-solidity/ABDKMath64x64.sol\":16452:16551  if (x & 0x200000000000000 > 0)... */\n    tag_148:\n        /* \"abdk-libraries-solidity/ABDKMath64x64.sol\":16587:16588  0 */\n      0x00\n        /* \"abdk-libraries-solidity/ABDKMath64x64.sol\":16567:16584  0x100000000000000 */\n      0x0100000000000000\n        /* \"abdk-libraries-solidity/ABDKMath64x64.sol\":16563:16564  x */\n      dup5\n        /* \"abdk-libraries-solidity/ABDKMath64x64.sol\":16563:16584  x & 0x100000000000000 */\n      and\n        /* \"abdk-libraries-solidity/ABDKMath64x64.sol\":16563:16588  x & 0x100000000000000 > 0 */\n      0x0f\n      signextend\n      sgt\n        /* \"abdk-libraries-solidity/ABDKMath64x64.sol\":16559:16658  if (x & 0x100000000000000 > 0)... */\n      iszero\n      tag_149\n      jumpi\n        /* \"abdk-libraries-solidity/ABDKMath64x64.sol\":16655:16658  128 */\n      0x80\n        /* \"abdk-libraries-solidity/ABDKMath64x64.sol\":16616:16651  0x100B1AFA5ABCBED6129AB13EC11DC9543 */\n      0x0100b1afa5abcbed6129ab13ec11dc9543\n        /* \"abdk-libraries-solidity/ABDKMath64x64.sol\":16607:16613  result */\n      dup3\n        /* \"abdk-libraries-solidity/ABDKMath64x64.sol\":16607:16651  result * 0x100B1AFA5ABCBED6129AB13EC11DC9543 */\n      mul\n        /* \"abdk-libraries-solidity/ABDKMath64x64.sol\":16607:16658  result * 0x100B1AFA5ABCBED6129AB13EC11DC9543 >> 128 */\n      swap1\n      shr\n        /* \"abdk-libraries-solidity/ABDKMath64x64.sol\":16598:16658  result = result * 0x100B1AFA5ABCBED6129AB13EC11DC9543 >> 128 */\n      swap1\n      pop\n        /* \"abdk-libraries-solidity/ABDKMath64x64.sol\":16559:16658  if (x & 0x100000000000000 > 0)... */\n    tag_149:\n        /* \"abdk-libraries-solidity/ABDKMath64x64.sol\":16693:16694  0 */\n      0x00\n        /* \"abdk-libraries-solidity/ABDKMath64x64.sol\":16674:16690  0x80000000000000 */\n      0x80000000000000\n        /* \"abdk-libraries-solidity/ABDKMath64x64.sol\":16670:16671  x */\n      dup5\n        /* \"abdk-libraries-solidity/ABDKMath64x64.sol\":16670:16690  x & 0x80000000000000 */\n      and\n        /* \"abdk-libraries-solidity/ABDKMath64x64.sol\":16670:16694  x & 0x80000000000000 > 0 */\n      0x0f\n      signextend\n      sgt\n        /* \"abdk-libraries-solidity/ABDKMath64x64.sol\":16666:16764  if (x & 0x80000000000000 > 0)... */\n      iszero\n      tag_150\n      jumpi\n        /* \"abdk-libraries-solidity/ABDKMath64x64.sol\":16761:16764  128 */\n      0x80\n        /* \"abdk-libraries-solidity/ABDKMath64x64.sol\":16722:16757  0x10058C86DA1C09EA1FF19D294CF2F679B */\n      0x010058c86da1c09ea1ff19d294cf2f679b\n        /* \"abdk-libraries-solidity/ABDKMath64x64.sol\":16713:16719  result */\n      dup3\n        /* \"abdk-libraries-solidity/ABDKMath64x64.sol\":16713:16757  result * 0x10058C86DA1C09EA1FF19D294CF2F679B */\n      mul\n        /* \"abdk-libraries-solidity/ABDKMath64x64.sol\":16713:16764  result * 0x10058C86DA1C09EA1FF19D294CF2F679B >> 128 */\n      swap1\n      shr\n        /* \"abdk-libraries-solidity/ABDKMath64x64.sol\":16704:16764  result = result * 0x10058C86DA1C09EA1FF19D294CF2F679B >> 128 */\n      swap1\n      pop\n        /* \"abdk-libraries-solidity/ABDKMath64x64.sol\":16666:16764  if (x & 0x80000000000000 > 0)... */\n    tag_150:\n        /* \"abdk-libraries-solidity/ABDKMath64x64.sol\":16799:16800  0 */\n      0x00\n        /* \"abdk-libraries-solidity/ABDKMath64x64.sol\":16780:16796  0x40000000000000 */\n      0x40000000000000\n        /* \"abdk-libraries-solidity/ABDKMath64x64.sol\":16776:16777  x */\n      dup5\n        /* \"abdk-libraries-solidity/ABDKMath64x64.sol\":16776:16796  x & 0x40000000000000 */\n      and\n        /* \"abdk-libraries-solidity/ABDKMath64x64.sol\":16776:16800  x & 0x40000000000000 > 0 */\n      0x0f\n      signextend\n      sgt\n        /* \"abdk-libraries-solidity/ABDKMath64x64.sol\":16772:16870  if (x & 0x40000000000000 > 0)... */\n      iszero\n      tag_151\n      jumpi\n        /* \"abdk-libraries-solidity/ABDKMath64x64.sol\":16867:16870  128 */\n      0x80\n        /* \"abdk-libraries-solidity/ABDKMath64x64.sol\":16828:16863  0x1002C605E2E8CEC506D21BFC89A23A00F */\n      0x01002c605e2e8cec506d21bfc89a23a00f\n        /* \"abdk-libraries-solidity/ABDKMath64x64.sol\":16819:16825  result */\n      dup3\n        /* \"abdk-libraries-solidity/ABDKMath64x64.sol\":16819:16863  result * 0x1002C605E2E8CEC506D21BFC89A23A00F */\n      mul\n        /* \"abdk-libraries-solidity/ABDKMath64x64.sol\":16819:16870  result * 0x1002C605E2E8CEC506D21BFC89A23A00F >> 128 */\n      swap1\n      shr\n        /* \"abdk-libraries-solidity/ABDKMath64x64.sol\":16810:16870  result = result * 0x1002C605E2E8CEC506D21BFC89A23A00F >> 128 */\n      swap1\n      pop\n        /* \"abdk-libraries-solidity/ABDKMath64x64.sol\":16772:16870  if (x & 0x40000000000000 > 0)... */\n    tag_151:\n        /* \"abdk-libraries-solidity/ABDKMath64x64.sol\":16905:16906  0 */\n      0x00\n        /* \"abdk-libraries-solidity/ABDKMath64x64.sol\":16886:16902  0x20000000000000 */\n      0x20000000000000\n        /* \"abdk-libraries-solidity/ABDKMath64x64.sol\":16882:16883  x */\n      dup5\n        /* \"abdk-libraries-solidity/ABDKMath64x64.sol\":16882:16902  x & 0x20000000000000 */\n      and\n        /* \"abdk-libraries-solidity/ABDKMath64x64.sol\":16882:16906  x & 0x20000000000000 > 0 */\n      0x0f\n      signextend\n      sgt\n        /* \"abdk-libraries-solidity/ABDKMath64x64.sol\":16878:16976  if (x & 0x20000000000000 > 0)... */\n      iszero\n      tag_152\n      jumpi\n        /* \"abdk-libraries-solidity/ABDKMath64x64.sol\":16973:16976  128 */\n      0x80\n        /* \"abdk-libraries-solidity/ABDKMath64x64.sol\":16934:16969  0x100162F3904051FA128BCA9C55C31E5DF */\n      0x0100162f3904051fa128bca9c55c31e5df\n        /* \"abdk-libraries-solidity/ABDKMath64x64.sol\":16925:16931  result */\n      dup3\n        /* \"abdk-libraries-solidity/ABDKMath64x64.sol\":16925:16969  result * 0x100162F3904051FA128BCA9C55C31E5DF */\n      mul\n        /* \"abdk-libraries-solidity/ABDKMath64x64.sol\":16925:16976  result * 0x100162F3904051FA128BCA9C55C31E5DF >> 128 */\n      swap1\n      shr\n        /* \"abdk-libraries-solidity/ABDKMath64x64.sol\":16916:16976  result = result * 0x100162F3904051FA128BCA9C55C31E5DF >> 128 */\n      swap1\n      pop\n        /* \"abdk-libraries-solidity/ABDKMath64x64.sol\":16878:16976  if (x & 0x20000000000000 > 0)... */\n    tag_152:\n        /* \"abdk-libraries-solidity/ABDKMath64x64.sol\":17011:17012  0 */\n      0x00\n        /* \"abdk-libraries-solidity/ABDKMath64x64.sol\":16992:17008  0x10000000000000 */\n      0x10000000000000\n        /* \"abdk-libraries-solidity/ABDKMath64x64.sol\":16988:16989  x */\n      dup5\n        /* \"abdk-libraries-solidity/ABDKMath64x64.sol\":16988:17008  x & 0x10000000000000 */\n      and\n        /* \"abdk-libraries-solidity/ABDKMath64x64.sol\":16988:17012  x & 0x10000000000000 > 0 */\n      0x0f\n      signextend\n      sgt\n        /* \"abdk-libraries-solidity/ABDKMath64x64.sol\":16984:17082  if (x & 0x10000000000000 > 0)... */\n      iszero\n      tag_153\n      jumpi\n        /* \"abdk-libraries-solidity/ABDKMath64x64.sol\":17079:17082  128 */\n      0x80\n        /* \"abdk-libraries-solidity/ABDKMath64x64.sol\":17040:17075  0x1000B175EFFDC76BA38E31671CA939725 */\n      0x01000b175effdc76ba38e31671ca939725\n        /* \"abdk-libraries-solidity/ABDKMath64x64.sol\":17031:17037  result */\n      dup3\n        /* \"abdk-libraries-solidity/ABDKMath64x64.sol\":17031:17075  result * 0x1000B175EFFDC76BA38E31671CA939725 */\n      mul\n        /* \"abdk-libraries-solidity/ABDKMath64x64.sol\":17031:17082  result * 0x1000B175EFFDC76BA38E31671CA939725 >> 128 */\n      swap1\n      shr\n        /* \"abdk-libraries-solidity/ABDKMath64x64.sol\":17022:17082  result = result * 0x1000B175EFFDC76BA38E31671CA939725 >> 128 */\n      swap1\n      pop\n        /* \"abdk-libraries-solidity/ABDKMath64x64.sol\":16984:17082  if (x & 0x10000000000000 > 0)... */\n    tag_153:\n        /* \"abdk-libraries-solidity/ABDKMath64x64.sol\":17116:17117  0 */\n      0x00\n        /* \"abdk-libraries-solidity/ABDKMath64x64.sol\":17098:17113  0x8000000000000 */\n      0x08000000000000\n        /* \"abdk-libraries-solidity/ABDKMath64x64.sol\":17094:17095  x */\n      dup5\n        /* \"abdk-libraries-solidity/ABDKMath64x64.sol\":17094:17113  x & 0x8000000000000 */\n      and\n        /* \"abdk-libraries-solidity/ABDKMath64x64.sol\":17094:17117  x & 0x8000000000000 > 0 */\n      0x0f\n      signextend\n      sgt\n        /* \"abdk-libraries-solidity/ABDKMath64x64.sol\":17090:17187  if (x & 0x8000000000000 > 0)... */\n      iszero\n      tag_154\n      jumpi\n        /* \"abdk-libraries-solidity/ABDKMath64x64.sol\":17184:17187  128 */\n      0x80\n        /* \"abdk-libraries-solidity/ABDKMath64x64.sol\":17145:17180  0x100058BA01FB9F96D6CACD4B180917C3D */\n      0x0100058ba01fb9f96d6cacd4b180917c3d\n        /* \"abdk-libraries-solidity/ABDKMath64x64.sol\":17136:17142  result */\n      dup3\n        /* \"abdk-libraries-solidity/ABDKMath64x64.sol\":17136:17180  result * 0x100058BA01FB9F96D6CACD4B180917C3D */\n      mul\n        /* \"abdk-libraries-solidity/ABDKMath64x64.sol\":17136:17187  result * 0x100058BA01FB9F96D6CACD4B180917C3D >> 128 */\n      swap1\n      shr\n        /* \"abdk-libraries-solidity/ABDKMath64x64.sol\":17127:17187  result = result * 0x100058BA01FB9F96D6CACD4B180917C3D >> 128 */\n      swap1\n      pop\n        /* \"abdk-libraries-solidity/ABDKMath64x64.sol\":17090:17187  if (x & 0x8000000000000 > 0)... */\n    tag_154:\n        /* \"abdk-libraries-solidity/ABDKMath64x64.sol\":17221:17222  0 */\n      0x00\n        /* \"abdk-libraries-solidity/ABDKMath64x64.sol\":17203:17218  0x4000000000000 */\n      0x04000000000000\n        /* \"abdk-libraries-solidity/ABDKMath64x64.sol\":17199:17200  x */\n      dup5\n        /* \"abdk-libraries-solidity/ABDKMath64x64.sol\":17199:17218  x & 0x4000000000000 */\n      and\n        /* \"abdk-libraries-solidity/ABDKMath64x64.sol\":17199:17222  x & 0x4000000000000 > 0 */\n      0x0f\n      signextend\n      sgt\n        /* \"abdk-libraries-solidity/ABDKMath64x64.sol\":17195:17292  if (x & 0x4000000000000 > 0)... */\n      iszero\n      tag_155\n      jumpi\n        /* \"abdk-libraries-solidity/ABDKMath64x64.sol\":17289:17292  128 */\n      0x80\n        /* \"abdk-libraries-solidity/ABDKMath64x64.sol\":17250:17285  0x10002C5CC37DA9491D0985C348C68E7B3 */\n      0x010002c5cc37da9491d0985c348c68e7b3\n        /* \"abdk-libraries-solidity/ABDKMath64x64.sol\":17241:17247  result */\n      dup3\n        /* \"abdk-libraries-solidity/ABDKMath64x64.sol\":17241:17285  result * 0x10002C5CC37DA9491D0985C348C68E7B3 */\n      mul\n        /* \"abdk-libraries-solidity/ABDKMath64x64.sol\":17241:17292  result * 0x10002C5CC37DA9491D0985C348C68E7B3 >> 128 */\n      swap1\n      shr\n        /* \"abdk-libraries-solidity/ABDKMath64x64.sol\":17232:17292  result = result * 0x10002C5CC37DA9491D0985C348C68E7B3 >> 128 */\n      swap1\n      pop\n        /* \"abdk-libraries-solidity/ABDKMath64x64.sol\":17195:17292  if (x & 0x4000000000000 > 0)... */\n    tag_155:\n        /* \"abdk-libraries-solidity/ABDKMath64x64.sol\":17326:17327  0 */\n      0x00\n        /* \"abdk-libraries-solidity/ABDKMath64x64.sol\":17308:17323  0x2000000000000 */\n      0x02000000000000\n        /* \"abdk-libraries-solidity/ABDKMath64x64.sol\":17304:17305  x */\n      dup5\n        /* \"abdk-libraries-solidity/ABDKMath64x64.sol\":17304:17323  x & 0x2000000000000 */\n      and\n        /* \"abdk-libraries-solidity/ABDKMath64x64.sol\":17304:17327  x & 0x2000000000000 > 0 */\n      0x0f\n      signextend\n      sgt\n        /* \"abdk-libraries-solidity/ABDKMath64x64.sol\":17300:17397  if (x & 0x2000000000000 > 0)... */\n      iszero\n      tag_156\n      jumpi\n        /* \"abdk-libraries-solidity/ABDKMath64x64.sol\":17394:17397  128 */\n      0x80\n        /* \"abdk-libraries-solidity/ABDKMath64x64.sol\":17355:17390  0x1000162E525EE054754457D5995292026 */\n      0x01000162e525ee054754457d5995292026\n        /* \"abdk-libraries-solidity/ABDKMath64x64.sol\":17346:17352  result */\n      dup3\n        /* \"abdk-libraries-solidity/ABDKMath64x64.sol\":17346:17390  result * 0x1000162E525EE054754457D5995292026 */\n      mul\n        /* \"abdk-libraries-solidity/ABDKMath64x64.sol\":17346:17397  result * 0x1000162E525EE054754457D5995292026 >> 128 */\n      swap1\n      shr\n        /* \"abdk-libraries-solidity/ABDKMath64x64.sol\":17337:17397  result = result * 0x1000162E525EE054754457D5995292026 >> 128 */\n      swap1\n      pop\n        /* \"abdk-libraries-solidity/ABDKMath64x64.sol\":17300:17397  if (x & 0x2000000000000 > 0)... */\n    tag_156:\n        /* \"abdk-libraries-solidity/ABDKMath64x64.sol\":17431:17432  0 */\n      0x00\n        /* \"abdk-libraries-solidity/ABDKMath64x64.sol\":17413:17428  0x1000000000000 */\n      0x01000000000000\n        /* \"abdk-libraries-solidity/ABDKMath64x64.sol\":17409:17410  x */\n      dup5\n        /* \"abdk-libraries-solidity/ABDKMath64x64.sol\":17409:17428  x & 0x1000000000000 */\n      and\n        /* \"abdk-libraries-solidity/ABDKMath64x64.sol\":17409:17432  x & 0x1000000000000 > 0 */\n      0x0f\n      signextend\n      sgt\n        /* \"abdk-libraries-solidity/ABDKMath64x64.sol\":17405:17502  if (x & 0x1000000000000 > 0)... */\n      iszero\n      tag_157\n      jumpi\n        /* \"abdk-libraries-solidity/ABDKMath64x64.sol\":17499:17502  128 */\n      0x80\n        /* \"abdk-libraries-solidity/ABDKMath64x64.sol\":17460:17495  0x10000B17255775C040618BF4A4ADE83FC */\n      0x010000b17255775c040618bf4a4ade83fc\n        /* \"abdk-libraries-solidity/ABDKMath64x64.sol\":17451:17457  result */\n      dup3\n        /* \"abdk-libraries-solidity/ABDKMath64x64.sol\":17451:17495  result * 0x10000B17255775C040618BF4A4ADE83FC */\n      mul\n        /* \"abdk-libraries-solidity/ABDKMath64x64.sol\":17451:17502  result * 0x10000B17255775C040618BF4A4ADE83FC >> 128 */\n      swap1\n      shr\n        /* \"abdk-libraries-solidity/ABDKMath64x64.sol\":17442:17502  result = result * 0x10000B17255775C040618BF4A4ADE83FC >> 128 */\n      swap1\n      pop\n        /* \"abdk-libraries-solidity/ABDKMath64x64.sol\":17405:17502  if (x & 0x1000000000000 > 0)... */\n    tag_157:\n        /* \"abdk-libraries-solidity/ABDKMath64x64.sol\":17535:17536  0 */\n      0x00\n        /* \"abdk-libraries-solidity/ABDKMath64x64.sol\":17518:17532  0x800000000000 */\n      0x800000000000\n        /* \"abdk-libraries-solidity/ABDKMath64x64.sol\":17514:17515  x */\n      dup5\n        /* \"abdk-libraries-solidity/ABDKMath64x64.sol\":17514:17532  x & 0x800000000000 */\n      and\n        /* \"abdk-libraries-solidity/ABDKMath64x64.sol\":17514:17536  x & 0x800000000000 > 0 */\n      0x0f\n      signextend\n      sgt\n        /* \"abdk-libraries-solidity/ABDKMath64x64.sol\":17510:17606  if (x & 0x800000000000 > 0)... */\n      iszero\n      tag_158\n      jumpi\n        /* \"abdk-libraries-solidity/ABDKMath64x64.sol\":17603:17606  128 */\n      0x80\n        /* \"abdk-libraries-solidity/ABDKMath64x64.sol\":17564:17599  0x1000058B91B5BC9AE2EED81E9B7D4CFAB */\n      0x01000058b91b5bc9ae2eed81e9b7d4cfab\n        /* \"abdk-libraries-solidity/ABDKMath64x64.sol\":17555:17561  result */\n      dup3\n        /* \"abdk-libraries-solidity/ABDKMath64x64.sol\":17555:17599  result * 0x1000058B91B5BC9AE2EED81E9B7D4CFAB */\n      mul\n        /* \"abdk-libraries-solidity/ABDKMath64x64.sol\":17555:17606  result * 0x1000058B91B5BC9AE2EED81E9B7D4CFAB >> 128 */\n      swap1\n      shr\n        /* \"abdk-libraries-solidity/ABDKMath64x64.sol\":17546:17606  result = result * 0x1000058B91B5BC9AE2EED81E9B7D4CFAB >> 128 */\n      swap1\n      pop\n        /* \"abdk-libraries-solidity/ABDKMath64x64.sol\":17510:17606  if (x & 0x800000000000 > 0)... */\n    tag_158:\n        /* \"abdk-libraries-solidity/ABDKMath64x64.sol\":17639:17640  0 */\n      0x00\n        /* \"abdk-libraries-solidity/ABDKMath64x64.sol\":17622:17636  0x400000000000 */\n      0x400000000000\n        /* \"abdk-libraries-solidity/ABDKMath64x64.sol\":17618:17619  x */\n      dup5\n        /* \"abdk-libraries-solidity/ABDKMath64x64.sol\":17618:17636  x & 0x400000000000 */\n      and\n        /* \"abdk-libraries-solidity/ABDKMath64x64.sol\":17618:17640  x & 0x400000000000 > 0 */\n      0x0f\n      signextend\n      sgt\n        /* \"abdk-libraries-solidity/ABDKMath64x64.sol\":17614:17710  if (x & 0x400000000000 > 0)... */\n      iszero\n      tag_159\n      jumpi\n        /* \"abdk-libraries-solidity/ABDKMath64x64.sol\":17707:17710  128 */\n      0x80\n        /* \"abdk-libraries-solidity/ABDKMath64x64.sol\":17668:17703  0x100002C5C89D5EC6CA4D7C8ACC017B7C9 */\n      0x0100002c5c89d5ec6ca4d7c8acc017b7c9\n        /* \"abdk-libraries-solidity/ABDKMath64x64.sol\":17659:17665  result */\n      dup3\n        /* \"abdk-libraries-solidity/ABDKMath64x64.sol\":17659:17703  result * 0x100002C5C89D5EC6CA4D7C8ACC017B7C9 */\n      mul\n        /* \"abdk-libraries-solidity/ABDKMath64x64.sol\":17659:17710  result * 0x100002C5C89D5EC6CA4D7C8ACC017B7C9 >> 128 */\n      swap1\n      shr\n        /* \"abdk-libraries-solidity/ABDKMath64x64.sol\":17650:17710  result = result * 0x100002C5C89D5EC6CA4D7C8ACC017B7C9 >> 128 */\n      swap1\n      pop\n        /* \"abdk-libraries-solidity/ABDKMath64x64.sol\":17614:17710  if (x & 0x400000000000 > 0)... */\n    tag_159:\n        /* \"abdk-libraries-solidity/ABDKMath64x64.sol\":17743:17744  0 */\n      0x00\n        /* \"abdk-libraries-solidity/ABDKMath64x64.sol\":17726:17740  0x200000000000 */\n      0x200000000000\n        /* \"abdk-libraries-solidity/ABDKMath64x64.sol\":17722:17723  x */\n      dup5\n        /* \"abdk-libraries-solidity/ABDKMath64x64.sol\":17722:17740  x & 0x200000000000 */\n      and\n        /* \"abdk-libraries-solidity/ABDKMath64x64.sol\":17722:17744  x & 0x200000000000 > 0 */\n      0x0f\n      signextend\n      sgt\n        /* \"abdk-libraries-solidity/ABDKMath64x64.sol\":17718:17814  if (x & 0x200000000000 > 0)... */\n      iszero\n      tag_160\n      jumpi\n        /* \"abdk-libraries-solidity/ABDKMath64x64.sol\":17811:17814  128 */\n      0x80\n        /* \"abdk-libraries-solidity/ABDKMath64x64.sol\":17772:17807  0x10000162E43F4F831060E02D839A9D16D */\n      0x010000162e43f4f831060e02d839a9d16d\n        /* \"abdk-libraries-solidity/ABDKMath64x64.sol\":17763:17769  result */\n      dup3\n        /* \"abdk-libraries-solidity/ABDKMath64x64.sol\":17763:17807  result * 0x10000162E43F4F831060E02D839A9D16D */\n      mul\n        /* \"abdk-libraries-solidity/ABDKMath64x64.sol\":17763:17814  result * 0x10000162E43F4F831060E02D839A9D16D >> 128 */\n      swap1\n      shr\n        /* \"abdk-libraries-solidity/ABDKMath64x64.sol\":17754:17814  result = result * 0x10000162E43F4F831060E02D839A9D16D >> 128 */\n      swap1\n      pop\n        /* \"abdk-libraries-solidity/ABDKMath64x64.sol\":17718:17814  if (x & 0x200000000000 > 0)... */\n    tag_160:\n        /* \"abdk-libraries-solidity/ABDKMath64x64.sol\":17847:17848  0 */\n      0x00\n        /* \"abdk-libraries-solidity/ABDKMath64x64.sol\":17830:17844  0x100000000000 */\n      0x100000000000\n        /* \"abdk-libraries-solidity/ABDKMath64x64.sol\":17826:17827  x */\n      dup5\n        /* \"abdk-libraries-solidity/ABDKMath64x64.sol\":17826:17844  x & 0x100000000000 */\n      and\n        /* \"abdk-libraries-solidity/ABDKMath64x64.sol\":17826:17848  x & 0x100000000000 > 0 */\n      0x0f\n      signextend\n      sgt\n        /* \"abdk-libraries-solidity/ABDKMath64x64.sol\":17822:17918  if (x & 0x100000000000 > 0)... */\n      iszero\n      tag_161\n      jumpi\n        /* \"abdk-libraries-solidity/ABDKMath64x64.sol\":17915:17918  128 */\n      0x80\n        /* \"abdk-libraries-solidity/ABDKMath64x64.sol\":17876:17911  0x100000B1721BCFC99D9F890EA06911763 */\n      0x0100000b1721bcfc99d9f890ea06911763\n        /* \"abdk-libraries-solidity/ABDKMath64x64.sol\":17867:17873  result */\n      dup3\n        /* \"abdk-libraries-solidity/ABDKMath64x64.sol\":17867:17911  result * 0x100000B1721BCFC99D9F890EA06911763 */\n      mul\n        /* \"abdk-libraries-solidity/ABDKMath64x64.sol\":17867:17918  result * 0x100000B1721BCFC99D9F890EA06911763 >> 128 */\n      swap1\n      shr\n        /* \"abdk-libraries-solidity/ABDKMath64x64.sol\":17858:17918  result = result * 0x100000B1721BCFC99D9F890EA06911763 >> 128 */\n      swap1\n      pop\n        /* \"abdk-libraries-solidity/ABDKMath64x64.sol\":17822:17918  if (x & 0x100000000000 > 0)... */\n    tag_161:\n        /* \"abdk-libraries-solidity/ABDKMath64x64.sol\":17950:17951  0 */\n      0x00\n        /* \"abdk-libraries-solidity/ABDKMath64x64.sol\":17934:17947  0x80000000000 */\n      0x080000000000\n        /* \"abdk-libraries-solidity/ABDKMath64x64.sol\":17930:17931  x */\n      dup5\n        /* \"abdk-libraries-solidity/ABDKMath64x64.sol\":17930:17947  x & 0x80000000000 */\n      and\n        /* \"abdk-libraries-solidity/ABDKMath64x64.sol\":17930:17951  x & 0x80000000000 > 0 */\n      0x0f\n      signextend\n      sgt\n        /* \"abdk-libraries-solidity/ABDKMath64x64.sol\":17926:18021  if (x & 0x80000000000 > 0)... */\n      iszero\n      tag_162\n      jumpi\n        /* \"abdk-libraries-solidity/ABDKMath64x64.sol\":18018:18021  128 */\n      0x80\n        /* \"abdk-libraries-solidity/ABDKMath64x64.sol\":17979:18014  0x10000058B90CF1E6D97F9CA14DBCC1628 */\n      0x010000058b90cf1e6d97f9ca14dbcc1628\n        /* \"abdk-libraries-solidity/ABDKMath64x64.sol\":17970:17976  result */\n      dup3\n        /* \"abdk-libraries-solidity/ABDKMath64x64.sol\":17970:18014  result * 0x10000058B90CF1E6D97F9CA14DBCC1628 */\n      mul\n        /* \"abdk-libraries-solidity/ABDKMath64x64.sol\":17970:18021  result * 0x10000058B90CF1E6D97F9CA14DBCC1628 >> 128 */\n      swap1\n      shr\n        /* \"abdk-libraries-solidity/ABDKMath64x64.sol\":17961:18021  result = result * 0x10000058B90CF1E6D97F9CA14DBCC1628 >> 128 */\n      swap1\n      pop\n        /* \"abdk-libraries-solidity/ABDKMath64x64.sol\":17926:18021  if (x & 0x80000000000 > 0)... */\n    tag_162:\n        /* \"abdk-libraries-solidity/ABDKMath64x64.sol\":18053:18054  0 */\n      0x00\n        /* \"abdk-libraries-solidity/ABDKMath64x64.sol\":18037:18050  0x40000000000 */\n      0x040000000000\n        /* \"abdk-libraries-solidity/ABDKMath64x64.sol\":18033:18034  x */\n      dup5\n        /* \"abdk-libraries-solidity/ABDKMath64x64.sol\":18033:18050  x & 0x40000000000 */\n      and\n        /* \"abdk-libraries-solidity/ABDKMath64x64.sol\":18033:18054  x & 0x40000000000 > 0 */\n      0x0f\n      signextend\n      sgt\n        /* \"abdk-libraries-solidity/ABDKMath64x64.sol\":18029:18124  if (x & 0x40000000000 > 0)... */\n      iszero\n      tag_163\n      jumpi\n        /* \"abdk-libraries-solidity/ABDKMath64x64.sol\":18121:18124  128 */\n      0x80\n        /* \"abdk-libraries-solidity/ABDKMath64x64.sol\":18082:18117  0x1000002C5C863B73F016468F6BAC5CA2B */\n      0x01000002c5c863b73f016468f6bac5ca2b\n        /* \"abdk-libraries-solidity/ABDKMath64x64.sol\":18073:18079  result */\n      dup3\n        /* \"abdk-libraries-solidity/ABDKMath64x64.sol\":18073:18117  result * 0x1000002C5C863B73F016468F6BAC5CA2B */\n      mul\n        /* \"abdk-libraries-solidity/ABDKMath64x64.sol\":18073:18124  result * 0x1000002C5C863B73F016468F6BAC5CA2B >> 128 */\n      swap1\n      shr\n        /* \"abdk-libraries-solidity/ABDKMath64x64.sol\":18064:18124  result = result * 0x1000002C5C863B73F016468F6BAC5CA2B >> 128 */\n      swap1\n      pop\n        /* \"abdk-libraries-solidity/ABDKMath64x64.sol\":18029:18124  if (x & 0x40000000000 > 0)... */\n    tag_163:\n        /* \"abdk-libraries-solidity/ABDKMath64x64.sol\":18156:18157  0 */\n      0x00\n        /* \"abdk-libraries-solidity/ABDKMath64x64.sol\":18140:18153  0x20000000000 */\n      0x020000000000\n        /* \"abdk-libraries-solidity/ABDKMath64x64.sol\":18136:18137  x */\n      dup5\n        /* \"abdk-libraries-solidity/ABDKMath64x64.sol\":18136:18153  x & 0x20000000000 */\n      and\n        /* \"abdk-libraries-solidity/ABDKMath64x64.sol\":18136:18157  x & 0x20000000000 > 0 */\n      0x0f\n      signextend\n      sgt\n        /* \"abdk-libraries-solidity/ABDKMath64x64.sol\":18132:18227  if (x & 0x20000000000 > 0)... */\n      iszero\n      tag_164\n      jumpi\n        /* \"abdk-libraries-solidity/ABDKMath64x64.sol\":18224:18227  128 */\n      0x80\n        /* \"abdk-libraries-solidity/ABDKMath64x64.sol\":18185:18220  0x100000162E430E5A18F6119E3C02282A5 */\n      0x0100000162e430e5a18f6119e3c02282a5\n        /* \"abdk-libraries-solidity/ABDKMath64x64.sol\":18176:18182  result */\n      dup3\n        /* \"abdk-libraries-solidity/ABDKMath64x64.sol\":18176:18220  result * 0x100000162E430E5A18F6119E3C02282A5 */\n      mul\n        /* \"abdk-libraries-solidity/ABDKMath64x64.sol\":18176:18227  result * 0x100000162E430E5A18F6119E3C02282A5 >> 128 */\n      swap1\n      shr\n        /* \"abdk-libraries-solidity/ABDKMath64x64.sol\":18167:18227  result = result * 0x100000162E430E5A18F6119E3C02282A5 >> 128 */\n      swap1\n      pop\n        /* \"abdk-libraries-solidity/ABDKMath64x64.sol\":18132:18227  if (x & 0x20000000000 > 0)... */\n    tag_164:\n        /* \"abdk-libraries-solidity/ABDKMath64x64.sol\":18259:18260  0 */\n      0x00\n        /* \"abdk-libraries-solidity/ABDKMath64x64.sol\":18243:18256  0x10000000000 */\n      0x010000000000\n        /* \"abdk-libraries-solidity/ABDKMath64x64.sol\":18239:18240  x */\n      dup5\n        /* \"abdk-libraries-solidity/ABDKMath64x64.sol\":18239:18256  x & 0x10000000000 */\n      and\n        /* \"abdk-libraries-solidity/ABDKMath64x64.sol\":18239:18260  x & 0x10000000000 > 0 */\n      0x0f\n      signextend\n      sgt\n        /* \"abdk-libraries-solidity/ABDKMath64x64.sol\":18235:18330  if (x & 0x10000000000 > 0)... */\n      iszero\n      tag_165\n      jumpi\n        /* \"abdk-libraries-solidity/ABDKMath64x64.sol\":18327:18330  128 */\n      0x80\n        /* \"abdk-libraries-solidity/ABDKMath64x64.sol\":18288:18323  0x1000000B1721835514B86E6D96EFD1BFE */\n      0x01000000b1721835514b86e6d96efd1bfe\n        /* \"abdk-libraries-solidity/ABDKMath64x64.sol\":18279:18285  result */\n      dup3\n        /* \"abdk-libraries-solidity/ABDKMath64x64.sol\":18279:18323  result * 0x1000000B1721835514B86E6D96EFD1BFE */\n      mul\n        /* \"abdk-libraries-solidity/ABDKMath64x64.sol\":18279:18330  result * 0x1000000B1721835514B86E6D96EFD1BFE >> 128 */\n      swap1\n      shr\n        /* \"abdk-libraries-solidity/ABDKMath64x64.sol\":18270:18330  result = result * 0x1000000B1721835514B86E6D96EFD1BFE >> 128 */\n      swap1\n      pop\n        /* \"abdk-libraries-solidity/ABDKMath64x64.sol\":18235:18330  if (x & 0x10000000000 > 0)... */\n    tag_165:\n        /* \"abdk-libraries-solidity/ABDKMath64x64.sol\":18361:18362  0 */\n      0x00\n        /* \"abdk-libraries-solidity/ABDKMath64x64.sol\":18346:18358  0x8000000000 */\n      0x8000000000\n        /* \"abdk-libraries-solidity/ABDKMath64x64.sol\":18342:18343  x */\n      dup5\n        /* \"abdk-libraries-solidity/ABDKMath64x64.sol\":18342:18358  x & 0x8000000000 */\n      and\n        /* \"abdk-libraries-solidity/ABDKMath64x64.sol\":18342:18362  x & 0x8000000000 > 0 */\n      0x0f\n      signextend\n      sgt\n        /* \"abdk-libraries-solidity/ABDKMath64x64.sol\":18338:18432  if (x & 0x8000000000 > 0)... */\n      iszero\n      tag_166\n      jumpi\n        /* \"abdk-libraries-solidity/ABDKMath64x64.sol\":18429:18432  128 */\n      0x80\n        /* \"abdk-libraries-solidity/ABDKMath64x64.sol\":18390:18425  0x100000058B90C0B48C6BE5DF846C5B2EF */\n      0x0100000058b90c0b48c6be5df846c5b2ef\n        /* \"abdk-libraries-solidity/ABDKMath64x64.sol\":18381:18387  result */\n      dup3\n        /* \"abdk-libraries-solidity/ABDKMath64x64.sol\":18381:18425  result * 0x100000058B90C0B48C6BE5DF846C5B2EF */\n      mul\n        /* \"abdk-libraries-solidity/ABDKMath64x64.sol\":18381:18432  result * 0x100000058B90C0B48C6BE5DF846C5B2EF >> 128 */\n      swap1\n      shr\n        /* \"abdk-libraries-solidity/ABDKMath64x64.sol\":18372:18432  result = result * 0x100000058B90C0B48C6BE5DF846C5B2EF >> 128 */\n      swap1\n      pop\n        /* \"abdk-libraries-solidity/ABDKMath64x64.sol\":18338:18432  if (x & 0x8000000000 > 0)... */\n    tag_166:\n        /* \"abdk-libraries-solidity/ABDKMath64x64.sol\":18463:18464  0 */\n      0x00\n        /* \"abdk-libraries-solidity/ABDKMath64x64.sol\":18448:18460  0x4000000000 */\n      0x4000000000\n        /* \"abdk-libraries-solidity/ABDKMath64x64.sol\":18444:18445  x */\n      dup5\n        /* \"abdk-libraries-solidity/ABDKMath64x64.sol\":18444:18460  x & 0x4000000000 */\n      and\n        /* \"abdk-libraries-solidity/ABDKMath64x64.sol\":18444:18464  x & 0x4000000000 > 0 */\n      0x0f\n      signextend\n      sgt\n        /* \"abdk-libraries-solidity/ABDKMath64x64.sol\":18440:18534  if (x & 0x4000000000 > 0)... */\n      iszero\n      tag_167\n      jumpi\n        /* \"abdk-libraries-solidity/ABDKMath64x64.sol\":18531:18534  128 */\n      0x80\n        /* \"abdk-libraries-solidity/ABDKMath64x64.sol\":18492:18527  0x10000002C5C8601CC6B9E94213C72737A */\n      0x010000002c5c8601cc6b9e94213c72737a\n        /* \"abdk-libraries-solidity/ABDKMath64x64.sol\":18483:18489  result */\n      dup3\n        /* \"abdk-libraries-solidity/ABDKMath64x64.sol\":18483:18527  result * 0x10000002C5C8601CC6B9E94213C72737A */\n      mul\n        /* \"abdk-libraries-solidity/ABDKMath64x64.sol\":18483:18534  result * 0x10000002C5C8601CC6B9E94213C72737A >> 128 */\n      swap1\n      shr\n        /* \"abdk-libraries-solidity/ABDKMath64x64.sol\":18474:18534  result = result * 0x10000002C5C8601CC6B9E94213C72737A >> 128 */\n      swap1\n      pop\n        /* \"abdk-libraries-solidity/ABDKMath64x64.sol\":18440:18534  if (x & 0x4000000000 > 0)... */\n    tag_167:\n        /* \"abdk-libraries-solidity/ABDKMath64x64.sol\":18565:18566  0 */\n      0x00\n        /* \"abdk-libraries-solidity/ABDKMath64x64.sol\":18550:18562  0x2000000000 */\n      0x2000000000\n        /* \"abdk-libraries-solidity/ABDKMath64x64.sol\":18546:18547  x */\n      dup5\n        /* \"abdk-libraries-solidity/ABDKMath64x64.sol\":18546:18562  x & 0x2000000000 */\n      and\n        /* \"abdk-libraries-solidity/ABDKMath64x64.sol\":18546:18566  x & 0x2000000000 > 0 */\n      0x0f\n      signextend\n      sgt\n        /* \"abdk-libraries-solidity/ABDKMath64x64.sol\":18542:18636  if (x & 0x2000000000 > 0)... */\n      iszero\n      tag_168\n      jumpi\n        /* \"abdk-libraries-solidity/ABDKMath64x64.sol\":18633:18636  128 */\n      0x80\n        /* \"abdk-libraries-solidity/ABDKMath64x64.sol\":18594:18629  0x1000000162E42FFF037DF38AA2B219F06 */\n      0x01000000162e42fff037df38aa2b219f06\n        /* \"abdk-libraries-solidity/ABDKMath64x64.sol\":18585:18591  result */\n      dup3\n        /* \"abdk-libraries-solidity/ABDKMath64x64.sol\":18585:18629  result * 0x1000000162E42FFF037DF38AA2B219F06 */\n      mul\n        /* \"abdk-libraries-solidity/ABDKMath64x64.sol\":18585:18636  result * 0x1000000162E42FFF037DF38AA2B219F06 >> 128 */\n      swap1\n      shr\n        /* \"abdk-libraries-solidity/ABDKMath64x64.sol\":18576:18636  result = result * 0x1000000162E42FFF037DF38AA2B219F06 >> 128 */\n      swap1\n      pop\n        /* \"abdk-libraries-solidity/ABDKMath64x64.sol\":18542:18636  if (x & 0x2000000000 > 0)... */\n    tag_168:\n        /* \"abdk-libraries-solidity/ABDKMath64x64.sol\":18667:18668  0 */\n      0x00\n        /* \"abdk-libraries-solidity/ABDKMath64x64.sol\":18652:18664  0x1000000000 */\n      0x1000000000\n        /* \"abdk-libraries-solidity/ABDKMath64x64.sol\":18648:18649  x */\n      dup5\n        /* \"abdk-libraries-solidity/ABDKMath64x64.sol\":18648:18664  x & 0x1000000000 */\n      and\n        /* \"abdk-libraries-solidity/ABDKMath64x64.sol\":18648:18668  x & 0x1000000000 > 0 */\n      0x0f\n      signextend\n      sgt\n        /* \"abdk-libraries-solidity/ABDKMath64x64.sol\":18644:18738  if (x & 0x1000000000 > 0)... */\n      iszero\n      tag_169\n      jumpi\n        /* \"abdk-libraries-solidity/ABDKMath64x64.sol\":18735:18738  128 */\n      0x80\n        /* \"abdk-libraries-solidity/ABDKMath64x64.sol\":18696:18731  0x10000000B17217FBA9C739AA5819F44F9 */\n      0x010000000b17217fba9c739aa5819f44f9\n        /* \"abdk-libraries-solidity/ABDKMath64x64.sol\":18687:18693  result */\n      dup3\n        /* \"abdk-libraries-solidity/ABDKMath64x64.sol\":18687:18731  result * 0x10000000B17217FBA9C739AA5819F44F9 */\n      mul\n        /* \"abdk-libraries-solidity/ABDKMath64x64.sol\":18687:18738  result * 0x10000000B17217FBA9C739AA5819F44F9 >> 128 */\n      swap1\n      shr\n        /* \"abdk-libraries-solidity/ABDKMath64x64.sol\":18678:18738  result = result * 0x10000000B17217FBA9C739AA5819F44F9 >> 128 */\n      swap1\n      pop\n        /* \"abdk-libraries-solidity/ABDKMath64x64.sol\":18644:18738  if (x & 0x1000000000 > 0)... */\n    tag_169:\n        /* \"abdk-libraries-solidity/ABDKMath64x64.sol\":18768:18769  0 */\n      0x00\n        /* \"abdk-libraries-solidity/ABDKMath64x64.sol\":18754:18765  0x800000000 */\n      0x0800000000\n        /* \"abdk-libraries-solidity/ABDKMath64x64.sol\":18750:18751  x */\n      dup5\n        /* \"abdk-libraries-solidity/ABDKMath64x64.sol\":18750:18765  x & 0x800000000 */\n      and\n        /* \"abdk-libraries-solidity/ABDKMath64x64.sol\":18750:18769  x & 0x800000000 > 0 */\n      0x0f\n      signextend\n      sgt\n        /* \"abdk-libraries-solidity/ABDKMath64x64.sol\":18746:18839  if (x & 0x800000000 > 0)... */\n      iszero\n      tag_170\n      jumpi\n        /* \"abdk-libraries-solidity/ABDKMath64x64.sol\":18836:18839  128 */\n      0x80\n        /* \"abdk-libraries-solidity/ABDKMath64x64.sol\":18797:18832  0x1000000058B90BFCDEE5ACD3C1CEDC823 */\n      0x01000000058b90bfcdee5acd3c1cedc823\n        /* \"abdk-libraries-solidity/ABDKMath64x64.sol\":18788:18794  result */\n      dup3\n        /* \"abdk-libraries-solidity/ABDKMath64x64.sol\":18788:18832  result * 0x1000000058B90BFCDEE5ACD3C1CEDC823 */\n      mul\n        /* \"abdk-libraries-solidity/ABDKMath64x64.sol\":18788:18839  result * 0x1000000058B90BFCDEE5ACD3C1CEDC823 >> 128 */\n      swap1\n      shr\n        /* \"abdk-libraries-solidity/ABDKMath64x64.sol\":18779:18839  result = result * 0x1000000058B90BFCDEE5ACD3C1CEDC823 >> 128 */\n      swap1\n      pop\n        /* \"abdk-libraries-solidity/ABDKMath64x64.sol\":18746:18839  if (x & 0x800000000 > 0)... */\n    tag_170:\n        /* \"abdk-libraries-solidity/ABDKMath64x64.sol\":18869:18870  0 */\n      0x00\n        /* \"abdk-libraries-solidity/ABDKMath64x64.sol\":18855:18866  0x400000000 */\n      0x0400000000\n        /* \"abdk-libraries-solidity/ABDKMath64x64.sol\":18851:18852  x */\n      dup5\n        /* \"abdk-libraries-solidity/ABDKMath64x64.sol\":18851:18866  x & 0x400000000 */\n      and\n        /* \"abdk-libraries-solidity/ABDKMath64x64.sol\":18851:18870  x & 0x400000000 > 0 */\n      0x0f\n      signextend\n      sgt\n        /* \"abdk-libraries-solidity/ABDKMath64x64.sol\":18847:18940  if (x & 0x400000000 > 0)... */\n      iszero\n      tag_171\n      jumpi\n        /* \"abdk-libraries-solidity/ABDKMath64x64.sol\":18937:18940  128 */\n      0x80\n        /* \"abdk-libraries-solidity/ABDKMath64x64.sol\":18898:18933  0x100000002C5C85FE31F35A6A30DA1BE50 */\n      0x0100000002c5c85fe31f35a6a30da1be50\n        /* \"abdk-libraries-solidity/ABDKMath64x64.sol\":18889:18895  result */\n      dup3\n        /* \"abdk-libraries-solidity/ABDKMath64x64.sol\":18889:18933  result * 0x100000002C5C85FE31F35A6A30DA1BE50 */\n      mul\n        /* \"abdk-libraries-solidity/ABDKMath64x64.sol\":18889:18940  result * 0x100000002C5C85FE31F35A6A30DA1BE50 >> 128 */\n      swap1\n      shr\n        /* \"abdk-libraries-solidity/ABDKMath64x64.sol\":18880:18940  result = result * 0x100000002C5C85FE31F35A6A30DA1BE50 >> 128 */\n      swap1\n      pop\n        /* \"abdk-libraries-solidity/ABDKMath64x64.sol\":18847:18940  if (x & 0x400000000 > 0)... */\n    tag_171:\n        /* \"abdk-libraries-solidity/ABDKMath64x64.sol\":18970:18971  0 */\n      0x00\n        /* \"abdk-libraries-solidity/ABDKMath64x64.sol\":18956:18967  0x200000000 */\n      0x0200000000\n        /* \"abdk-libraries-solidity/ABDKMath64x64.sol\":18952:18953  x */\n      dup5\n        /* \"abdk-libraries-solidity/ABDKMath64x64.sol\":18952:18967  x & 0x200000000 */\n      and\n        /* \"abdk-libraries-solidity/ABDKMath64x64.sol\":18952:18971  x & 0x200000000 > 0 */\n      0x0f\n      signextend\n      sgt\n        /* \"abdk-libraries-solidity/ABDKMath64x64.sol\":18948:19041  if (x & 0x200000000 > 0)... */\n      iszero\n      tag_172\n      jumpi\n        /* \"abdk-libraries-solidity/ABDKMath64x64.sol\":19038:19041  128 */\n      0x80\n        /* \"abdk-libraries-solidity/ABDKMath64x64.sol\":18999:19034  0x10000000162E42FF0999CE3541B9FFFCF */\n      0x010000000162e42ff0999ce3541b9fffcf\n        /* \"abdk-libraries-solidity/ABDKMath64x64.sol\":18990:18996  result */\n      dup3\n        /* \"abdk-libraries-solidity/ABDKMath64x64.sol\":18990:19034  result * 0x10000000162E42FF0999CE3541B9FFFCF */\n      mul\n        /* \"abdk-libraries-solidity/ABDKMath64x64.sol\":18990:19041  result * 0x10000000162E42FF0999CE3541B9FFFCF >> 128 */\n      swap1\n      shr\n        /* \"abdk-libraries-solidity/ABDKMath64x64.sol\":18981:19041  result = result * 0x10000000162E42FF0999CE3541B9FFFCF >> 128 */\n      swap1\n      pop\n        /* \"abdk-libraries-solidity/ABDKMath64x64.sol\":18948:19041  if (x & 0x200000000 > 0)... */\n    tag_172:\n        /* \"abdk-libraries-solidity/ABDKMath64x64.sol\":19071:19072  0 */\n      0x00\n        /* \"abdk-libraries-solidity/ABDKMath64x64.sol\":19057:19068  0x100000000 */\n      0x0100000000\n        /* \"abdk-libraries-solidity/ABDKMath64x64.sol\":19053:19054  x */\n      dup5\n        /* \"abdk-libraries-solidity/ABDKMath64x64.sol\":19053:19068  x & 0x100000000 */\n      and\n        /* \"abdk-libraries-solidity/ABDKMath64x64.sol\":19053:19072  x & 0x100000000 > 0 */\n      0x0f\n      signextend\n      sgt\n        /* \"abdk-libraries-solidity/ABDKMath64x64.sol\":19049:19142  if (x & 0x100000000 > 0)... */\n      iszero\n      tag_173\n      jumpi\n        /* \"abdk-libraries-solidity/ABDKMath64x64.sol\":19139:19142  128 */\n      0x80\n        /* \"abdk-libraries-solidity/ABDKMath64x64.sol\":19100:19135  0x100000000B17217F80F4EF5AADDA45554 */\n      0x0100000000b17217f80f4ef5aadda45554\n        /* \"abdk-libraries-solidity/ABDKMath64x64.sol\":19091:19097  result */\n      dup3\n        /* \"abdk-libraries-solidity/ABDKMath64x64.sol\":19091:19135  result * 0x100000000B17217F80F4EF5AADDA45554 */\n      mul\n        /* \"abdk-libraries-solidity/ABDKMath64x64.sol\":19091:19142  result * 0x100000000B17217F80F4EF5AADDA45554 >> 128 */\n      swap1\n      shr\n        /* \"abdk-libraries-solidity/ABDKMath64x64.sol\":19082:19142  result = result * 0x100000000B17217F80F4EF5AADDA45554 >> 128 */\n      swap1\n      pop\n        /* \"abdk-libraries-solidity/ABDKMath64x64.sol\":19049:19142  if (x & 0x100000000 > 0)... */\n    tag_173:\n        /* \"abdk-libraries-solidity/ABDKMath64x64.sol\":19171:19172  0 */\n      0x00\n        /* \"abdk-libraries-solidity/ABDKMath64x64.sol\":19158:19168  0x80000000 */\n      0x80000000\n        /* \"abdk-libraries-solidity/ABDKMath64x64.sol\":19154:19155  x */\n      dup5\n        /* \"abdk-libraries-solidity/ABDKMath64x64.sol\":19154:19168  x & 0x80000000 */\n      and\n        /* \"abdk-libraries-solidity/ABDKMath64x64.sol\":19154:19172  x & 0x80000000 > 0 */\n      0x0f\n      signextend\n      sgt\n        /* \"abdk-libraries-solidity/ABDKMath64x64.sol\":19150:19242  if (x & 0x80000000 > 0)... */\n      iszero\n      tag_174\n      jumpi\n        /* \"abdk-libraries-solidity/ABDKMath64x64.sol\":19239:19242  128 */\n      0x80\n        /* \"abdk-libraries-solidity/ABDKMath64x64.sol\":19200:19235  0x10000000058B90BFBF8479BD5A81B51AD */\n      0x010000000058b90bfbf8479bd5a81b51ad\n        /* \"abdk-libraries-solidity/ABDKMath64x64.sol\":19191:19197  result */\n      dup3\n        /* \"abdk-libraries-solidity/ABDKMath64x64.sol\":19191:19235  result * 0x10000000058B90BFBF8479BD5A81B51AD */\n      mul\n        /* \"abdk-libraries-solidity/ABDKMath64x64.sol\":19191:19242  result * 0x10000000058B90BFBF8479BD5A81B51AD >> 128 */\n      swap1\n      shr\n        /* \"abdk-libraries-solidity/ABDKMath64x64.sol\":19182:19242  result = result * 0x10000000058B90BFBF8479BD5A81B51AD >> 128 */\n      swap1\n      pop\n        /* \"abdk-libraries-solidity/ABDKMath64x64.sol\":19150:19242  if (x & 0x80000000 > 0)... */\n    tag_174:\n        /* \"abdk-libraries-solidity/ABDKMath64x64.sol\":19271:19272  0 */\n      0x00\n        /* \"abdk-libraries-solidity/ABDKMath64x64.sol\":19258:19268  0x40000000 */\n      0x40000000\n        /* \"abdk-libraries-solidity/ABDKMath64x64.sol\":19254:19255  x */\n      dup5\n        /* \"abdk-libraries-solidity/ABDKMath64x64.sol\":19254:19268  x & 0x40000000 */\n      and\n        /* \"abdk-libraries-solidity/ABDKMath64x64.sol\":19254:19272  x & 0x40000000 > 0 */\n      0x0f\n      signextend\n      sgt\n        /* \"abdk-libraries-solidity/ABDKMath64x64.sol\":19250:19342  if (x & 0x40000000 > 0)... */\n      iszero\n      tag_175\n      jumpi\n        /* \"abdk-libraries-solidity/ABDKMath64x64.sol\":19339:19342  128 */\n      0x80\n        /* \"abdk-libraries-solidity/ABDKMath64x64.sol\":19300:19335  0x1000000002C5C85FDF84BD62AE30A74CC */\n      0x01000000002c5c85fdf84bd62ae30a74cc\n        /* \"abdk-libraries-solidity/ABDKMath64x64.sol\":19291:19297  result */\n      dup3\n        /* \"abdk-libraries-solidity/ABDKMath64x64.sol\":19291:19335  result * 0x1000000002C5C85FDF84BD62AE30A74CC */\n      mul\n        /* \"abdk-libraries-solidity/ABDKMath64x64.sol\":19291:19342  result * 0x1000000002C5C85FDF84BD62AE30A74CC >> 128 */\n      swap1\n      shr\n        /* \"abdk-libraries-solidity/ABDKMath64x64.sol\":19282:19342  result = result * 0x1000000002C5C85FDF84BD62AE30A74CC >> 128 */\n      swap1\n      pop\n        /* \"abdk-libraries-solidity/ABDKMath64x64.sol\":19250:19342  if (x & 0x40000000 > 0)... */\n    tag_175:\n        /* \"abdk-libraries-solidity/ABDKMath64x64.sol\":19371:19372  0 */\n      0x00\n        /* \"abdk-libraries-solidity/ABDKMath64x64.sol\":19358:19368  0x20000000 */\n      0x20000000\n        /* \"abdk-libraries-solidity/ABDKMath64x64.sol\":19354:19355  x */\n      dup5\n        /* \"abdk-libraries-solidity/ABDKMath64x64.sol\":19354:19368  x & 0x20000000 */\n      and\n        /* \"abdk-libraries-solidity/ABDKMath64x64.sol\":19354:19372  x & 0x20000000 > 0 */\n      0x0f\n      signextend\n      sgt\n        /* \"abdk-libraries-solidity/ABDKMath64x64.sol\":19350:19442  if (x & 0x20000000 > 0)... */\n      iszero\n      tag_176\n      jumpi\n        /* \"abdk-libraries-solidity/ABDKMath64x64.sol\":19439:19442  128 */\n      0x80\n        /* \"abdk-libraries-solidity/ABDKMath64x64.sol\":19400:19435  0x100000000162E42FEFB2FED257559BDAA */\n      0x0100000000162e42fefb2fed257559bdaa\n        /* \"abdk-libraries-solidity/ABDKMath64x64.sol\":19391:19397  result */\n      dup3\n        /* \"abdk-libraries-solidity/ABDKMath64x64.sol\":19391:19435  result * 0x100000000162E42FEFB2FED257559BDAA */\n      mul\n        /* \"abdk-libraries-solidity/ABDKMath64x64.sol\":19391:19442  result * 0x100000000162E42FEFB2FED257559BDAA >> 128 */\n      swap1\n      shr\n        /* \"abdk-libraries-solidity/ABDKMath64x64.sol\":19382:19442  result = result * 0x100000000162E42FEFB2FED257559BDAA >> 128 */\n      swap1\n      pop\n        /* \"abdk-libraries-solidity/ABDKMath64x64.sol\":19350:19442  if (x & 0x20000000 > 0)... */\n    tag_176:\n        /* \"abdk-libraries-solidity/ABDKMath64x64.sol\":19471:19472  0 */\n      0x00\n        /* \"abdk-libraries-solidity/ABDKMath64x64.sol\":19458:19468  0x10000000 */\n      0x10000000\n        /* \"abdk-libraries-solidity/ABDKMath64x64.sol\":19454:19455  x */\n      dup5\n        /* \"abdk-libraries-solidity/ABDKMath64x64.sol\":19454:19468  x & 0x10000000 */\n      and\n        /* \"abdk-libraries-solidity/ABDKMath64x64.sol\":19454:19472  x & 0x10000000 > 0 */\n      0x0f\n      signextend\n      sgt\n        /* \"abdk-libraries-solidity/ABDKMath64x64.sol\":19450:19542  if (x & 0x10000000 > 0)... */\n      iszero\n      tag_177\n      jumpi\n        /* \"abdk-libraries-solidity/ABDKMath64x64.sol\":19539:19542  128 */\n      0x80\n        /* \"abdk-libraries-solidity/ABDKMath64x64.sol\":19500:19535  0x1000000000B17217F7D5A7716BBA4A9AE */\n      0x01000000000b17217f7d5a7716bba4a9ae\n        /* \"abdk-libraries-solidity/ABDKMath64x64.sol\":19491:19497  result */\n      dup3\n        /* \"abdk-libraries-solidity/ABDKMath64x64.sol\":19491:19535  result * 0x1000000000B17217F7D5A7716BBA4A9AE */\n      mul\n        /* \"abdk-libraries-solidity/ABDKMath64x64.sol\":19491:19542  result * 0x1000000000B17217F7D5A7716BBA4A9AE >> 128 */\n      swap1\n      shr\n        /* \"abdk-libraries-solidity/ABDKMath64x64.sol\":19482:19542  result = result * 0x1000000000B17217F7D5A7716BBA4A9AE >> 128 */\n      swap1\n      pop\n        /* \"abdk-libraries-solidity/ABDKMath64x64.sol\":19450:19542  if (x & 0x10000000 > 0)... */\n    tag_177:\n        /* \"abdk-libraries-solidity/ABDKMath64x64.sol\":19570:19571  0 */\n      0x00\n        /* \"abdk-libraries-solidity/ABDKMath64x64.sol\":19558:19567  0x8000000 */\n      0x08000000\n        /* \"abdk-libraries-solidity/ABDKMath64x64.sol\":19554:19555  x */\n      dup5\n        /* \"abdk-libraries-solidity/ABDKMath64x64.sol\":19554:19567  x & 0x8000000 */\n      and\n        /* \"abdk-libraries-solidity/ABDKMath64x64.sol\":19554:19571  x & 0x8000000 > 0 */\n      0x0f\n      signextend\n      sgt\n        /* \"abdk-libraries-solidity/ABDKMath64x64.sol\":19550:19641  if (x & 0x8000000 > 0)... */\n      iszero\n      tag_178\n      jumpi\n        /* \"abdk-libraries-solidity/ABDKMath64x64.sol\":19638:19641  128 */\n      0x80\n        /* \"abdk-libraries-solidity/ABDKMath64x64.sol\":19599:19634  0x100000000058B90BFBE9DDBAC5E109CCE */\n      0x0100000000058b90bfbe9ddbac5e109cce\n        /* \"abdk-libraries-solidity/ABDKMath64x64.sol\":19590:19596  result */\n      dup3\n        /* \"abdk-libraries-solidity/ABDKMath64x64.sol\":19590:19634  result * 0x100000000058B90BFBE9DDBAC5E109CCE */\n      mul\n        /* \"abdk-libraries-solidity/ABDKMath64x64.sol\":19590:19641  result * 0x100000000058B90BFBE9DDBAC5E109CCE >> 128 */\n      swap1\n      shr\n        /* \"abdk-libraries-solidity/ABDKMath64x64.sol\":19581:19641  result = result * 0x100000000058B90BFBE9DDBAC5E109CCE >> 128 */\n      swap1\n      pop\n        /* \"abdk-libraries-solidity/ABDKMath64x64.sol\":19550:19641  if (x & 0x8000000 > 0)... */\n    tag_178:\n        /* \"abdk-libraries-solidity/ABDKMath64x64.sol\":19669:19670  0 */\n      0x00\n        /* \"abdk-libraries-solidity/ABDKMath64x64.sol\":19657:19666  0x4000000 */\n      0x04000000\n        /* \"abdk-libraries-solidity/ABDKMath64x64.sol\":19653:19654  x */\n      dup5\n        /* \"abdk-libraries-solidity/ABDKMath64x64.sol\":19653:19666  x & 0x4000000 */\n      and\n        /* \"abdk-libraries-solidity/ABDKMath64x64.sol\":19653:19670  x & 0x4000000 > 0 */\n      0x0f\n      signextend\n      sgt\n        /* \"abdk-libraries-solidity/ABDKMath64x64.sol\":19649:19740  if (x & 0x4000000 > 0)... */\n      iszero\n      tag_179\n      jumpi\n        /* \"abdk-libraries-solidity/ABDKMath64x64.sol\":19737:19740  128 */\n      0x80\n        /* \"abdk-libraries-solidity/ABDKMath64x64.sol\":19698:19733  0x10000000002C5C85FDF4B15DE6F17EB0D */\n      0x010000000002c5c85fdf4b15de6f17eb0d\n        /* \"abdk-libraries-solidity/ABDKMath64x64.sol\":19689:19695  result */\n      dup3\n        /* \"abdk-libraries-solidity/ABDKMath64x64.sol\":19689:19733  result * 0x10000000002C5C85FDF4B15DE6F17EB0D */\n      mul\n        /* \"abdk-libraries-solidity/ABDKMath64x64.sol\":19689:19740  result * 0x10000000002C5C85FDF4B15DE6F17EB0D >> 128 */\n      swap1\n      shr\n        /* \"abdk-libraries-solidity/ABDKMath64x64.sol\":19680:19740  result = result * 0x10000000002C5C85FDF4B15DE6F17EB0D >> 128 */\n      swap1\n      pop\n        /* \"abdk-libraries-solidity/ABDKMath64x64.sol\":19649:19740  if (x & 0x4000000 > 0)... */\n    tag_179:\n        /* \"abdk-libraries-solidity/ABDKMath64x64.sol\":19768:19769  0 */\n      0x00\n        /* \"abdk-libraries-solidity/ABDKMath64x64.sol\":19756:19765  0x2000000 */\n      0x02000000\n        /* \"abdk-libraries-solidity/ABDKMath64x64.sol\":19752:19753  x */\n      dup5\n        /* \"abdk-libraries-solidity/ABDKMath64x64.sol\":19752:19765  x & 0x2000000 */\n      and\n        /* \"abdk-libraries-solidity/ABDKMath64x64.sol\":19752:19769  x & 0x2000000 > 0 */\n      0x0f\n      signextend\n      sgt\n        /* \"abdk-libraries-solidity/ABDKMath64x64.sol\":19748:19839  if (x & 0x2000000 > 0)... */\n      iszero\n      tag_180\n      jumpi\n        /* \"abdk-libraries-solidity/ABDKMath64x64.sol\":19836:19839  128 */\n      0x80\n        /* \"abdk-libraries-solidity/ABDKMath64x64.sol\":19797:19832  0x1000000000162E42FEFA494F1478FDE05 */\n      0x01000000000162e42fefa494f1478fde05\n        /* \"abdk-libraries-solidity/ABDKMath64x64.sol\":19788:19794  result */\n      dup3\n        /* \"abdk-libraries-solidity/ABDKMath64x64.sol\":19788:19832  result * 0x1000000000162E42FEFA494F1478FDE05 */\n      mul\n        /* \"abdk-libraries-solidity/ABDKMath64x64.sol\":19788:19839  result * 0x1000000000162E42FEFA494F1478FDE05 >> 128 */\n      swap1\n      shr\n        /* \"abdk-libraries-solidity/ABDKMath64x64.sol\":19779:19839  result = result * 0x1000000000162E42FEFA494F1478FDE05 >> 128 */\n      swap1\n      pop\n        /* \"abdk-libraries-solidity/ABDKMath64x64.sol\":19748:19839  if (x & 0x2000000 > 0)... */\n    tag_180:\n        /* \"abdk-libraries-solidity/ABDKMath64x64.sol\":19867:19868  0 */\n      0x00\n        /* \"abdk-libraries-solidity/ABDKMath64x64.sol\":19855:19864  0x1000000 */\n      0x01000000\n        /* \"abdk-libraries-solidity/ABDKMath64x64.sol\":19851:19852  x */\n      dup5\n        /* \"abdk-libraries-solidity/ABDKMath64x64.sol\":19851:19864  x & 0x1000000 */\n      and\n        /* \"abdk-libraries-solidity/ABDKMath64x64.sol\":19851:19868  x & 0x1000000 > 0 */\n      0x0f\n      signextend\n      sgt\n        /* \"abdk-libraries-solidity/ABDKMath64x64.sol\":19847:19938  if (x & 0x1000000 > 0)... */\n      iszero\n      tag_181\n      jumpi\n        /* \"abdk-libraries-solidity/ABDKMath64x64.sol\":19935:19938  128 */\n      0x80\n        /* \"abdk-libraries-solidity/ABDKMath64x64.sol\":19896:19931  0x10000000000B17217F7D20CF927C8E94C */\n      0x010000000000b17217f7d20cf927c8e94c\n        /* \"abdk-libraries-solidity/ABDKMath64x64.sol\":19887:19893  result */\n      dup3\n        /* \"abdk-libraries-solidity/ABDKMath64x64.sol\":19887:19931  result * 0x10000000000B17217F7D20CF927C8E94C */\n      mul\n        /* \"abdk-libraries-solidity/ABDKMath64x64.sol\":19887:19938  result * 0x10000000000B17217F7D20CF927C8E94C >> 128 */\n      swap1\n      shr\n        /* \"abdk-libraries-solidity/ABDKMath64x64.sol\":19878:19938  result = result * 0x10000000000B17217F7D20CF927C8E94C >> 128 */\n      swap1\n      pop\n        /* \"abdk-libraries-solidity/ABDKMath64x64.sol\":19847:19938  if (x & 0x1000000 > 0)... */\n    tag_181:\n        /* \"abdk-libraries-solidity/ABDKMath64x64.sol\":19965:19966  0 */\n      0x00\n        /* \"abdk-libraries-solidity/ABDKMath64x64.sol\":19954:19962  0x800000 */\n      0x800000\n        /* \"abdk-libraries-solidity/ABDKMath64x64.sol\":19950:19951  x */\n      dup5\n        /* \"abdk-libraries-solidity/ABDKMath64x64.sol\":19950:19962  x & 0x800000 */\n      and\n        /* \"abdk-libraries-solidity/ABDKMath64x64.sol\":19950:19966  x & 0x800000 > 0 */\n      0x0f\n      signextend\n      sgt\n        /* \"abdk-libraries-solidity/ABDKMath64x64.sol\":19946:20036  if (x & 0x800000 > 0)... */\n      iszero\n      tag_182\n      jumpi\n        /* \"abdk-libraries-solidity/ABDKMath64x64.sol\":20033:20036  128 */\n      0x80\n        /* \"abdk-libraries-solidity/ABDKMath64x64.sol\":19994:20029  0x1000000000058B90BFBE8F71CB4E4B33D */\n      0x01000000000058b90bfbe8f71cb4e4b33d\n        /* \"abdk-libraries-solidity/ABDKMath64x64.sol\":19985:19991  result */\n      dup3\n        /* \"abdk-libraries-solidity/ABDKMath64x64.sol\":19985:20029  result * 0x1000000000058B90BFBE8F71CB4E4B33D */\n      mul\n        /* \"abdk-libraries-solidity/ABDKMath64x64.sol\":19985:20036  result * 0x1000000000058B90BFBE8F71CB4E4B33D >> 128 */\n      swap1\n      shr\n        /* \"abdk-libraries-solidity/ABDKMath64x64.sol\":19976:20036  result = result * 0x1000000000058B90BFBE8F71CB4E4B33D >> 128 */\n      swap1\n      pop\n        /* \"abdk-libraries-solidity/ABDKMath64x64.sol\":19946:20036  if (x & 0x800000 > 0)... */\n    tag_182:\n        /* \"abdk-libraries-solidity/ABDKMath64x64.sol\":20063:20064  0 */\n      0x00\n        /* \"abdk-libraries-solidity/ABDKMath64x64.sol\":20052:20060  0x400000 */\n      0x400000\n        /* \"abdk-libraries-solidity/ABDKMath64x64.sol\":20048:20049  x */\n      dup5\n        /* \"abdk-libraries-solidity/ABDKMath64x64.sol\":20048:20060  x & 0x400000 */\n      and\n        /* \"abdk-libraries-solidity/ABDKMath64x64.sol\":20048:20064  x & 0x400000 > 0 */\n      0x0f\n      signextend\n      sgt\n        /* \"abdk-libraries-solidity/ABDKMath64x64.sol\":20044:20134  if (x & 0x400000 > 0)... */\n      iszero\n      tag_183\n      jumpi\n        /* \"abdk-libraries-solidity/ABDKMath64x64.sol\":20131:20134  128 */\n      0x80\n        /* \"abdk-libraries-solidity/ABDKMath64x64.sol\":20092:20127  0x100000000002C5C85FDF477B662B26945 */\n      0x0100000000002c5c85fdf477b662b26945\n        /* \"abdk-libraries-solidity/ABDKMath64x64.sol\":20083:20089  result */\n      dup3\n        /* \"abdk-libraries-solidity/ABDKMath64x64.sol\":20083:20127  result * 0x100000000002C5C85FDF477B662B26945 */\n      mul\n        /* \"abdk-libraries-solidity/ABDKMath64x64.sol\":20083:20134  result * 0x100000000002C5C85FDF477B662B26945 >> 128 */\n      swap1\n      shr\n        /* \"abdk-libraries-solidity/ABDKMath64x64.sol\":20074:20134  result = result * 0x100000000002C5C85FDF477B662B26945 >> 128 */\n      swap1\n      pop\n        /* \"abdk-libraries-solidity/ABDKMath64x64.sol\":20044:20134  if (x & 0x400000 > 0)... */\n    tag_183:\n        /* \"abdk-libraries-solidity/ABDKMath64x64.sol\":20161:20162  0 */\n      0x00\n        /* \"abdk-libraries-solidity/ABDKMath64x64.sol\":20150:20158  0x200000 */\n      0x200000\n        /* \"abdk-libraries-solidity/ABDKMath64x64.sol\":20146:20147  x */\n      dup5\n        /* \"abdk-libraries-solidity/ABDKMath64x64.sol\":20146:20158  x & 0x200000 */\n      and\n        /* \"abdk-libraries-solidity/ABDKMath64x64.sol\":20146:20162  x & 0x200000 > 0 */\n      0x0f\n      signextend\n      sgt\n        /* \"abdk-libraries-solidity/ABDKMath64x64.sol\":20142:20232  if (x & 0x200000 > 0)... */\n      iszero\n      tag_184\n      jumpi\n        /* \"abdk-libraries-solidity/ABDKMath64x64.sol\":20229:20232  128 */\n      0x80\n        /* \"abdk-libraries-solidity/ABDKMath64x64.sol\":20190:20225  0x10000000000162E42FEFA3AE53369388C */\n      0x010000000000162e42fefa3ae53369388c\n        /* \"abdk-libraries-solidity/ABDKMath64x64.sol\":20181:20187  result */\n      dup3\n        /* \"abdk-libraries-solidity/ABDKMath64x64.sol\":20181:20225  result * 0x10000000000162E42FEFA3AE53369388C */\n      mul\n        /* \"abdk-libraries-solidity/ABDKMath64x64.sol\":20181:20232  result * 0x10000000000162E42FEFA3AE53369388C >> 128 */\n      swap1\n      shr\n        /* \"abdk-libraries-solidity/ABDKMath64x64.sol\":20172:20232  result = result * 0x10000000000162E42FEFA3AE53369388C >> 128 */\n      swap1\n      pop\n        /* \"abdk-libraries-solidity/ABDKMath64x64.sol\":20142:20232  if (x & 0x200000 > 0)... */\n    tag_184:\n        /* \"abdk-libraries-solidity/ABDKMath64x64.sol\":20259:20260  0 */\n      0x00\n        /* \"abdk-libraries-solidity/ABDKMath64x64.sol\":20248:20256  0x100000 */\n      0x100000\n        /* \"abdk-libraries-solidity/ABDKMath64x64.sol\":20244:20245  x */\n      dup5\n        /* \"abdk-libraries-solidity/ABDKMath64x64.sol\":20244:20256  x & 0x100000 */\n      and\n        /* \"abdk-libraries-solidity/ABDKMath64x64.sol\":20244:20260  x & 0x100000 > 0 */\n      0x0f\n      signextend\n      sgt\n        /* \"abdk-libraries-solidity/ABDKMath64x64.sol\":20240:20330  if (x & 0x100000 > 0)... */\n      iszero\n      tag_185\n      jumpi\n        /* \"abdk-libraries-solidity/ABDKMath64x64.sol\":20327:20330  128 */\n      0x80\n        /* \"abdk-libraries-solidity/ABDKMath64x64.sol\":20288:20323  0x100000000000B17217F7D1D351A389D40 */\n      0x0100000000000b17217f7d1d351a389d40\n        /* \"abdk-libraries-solidity/ABDKMath64x64.sol\":20279:20285  result */\n      dup3\n        /* \"abdk-libraries-solidity/ABDKMath64x64.sol\":20279:20323  result * 0x100000000000B17217F7D1D351A389D40 */\n      mul\n        /* \"abdk-libraries-solidity/ABDKMath64x64.sol\":20279:20330  result * 0x100000000000B17217F7D1D351A389D40 >> 128 */\n      swap1\n      shr\n        /* \"abdk-libraries-solidity/ABDKMath64x64.sol\":20270:20330  result = result * 0x100000000000B17217F7D1D351A389D40 >> 128 */\n      swap1\n      pop\n        /* \"abdk-libraries-solidity/ABDKMath64x64.sol\":20240:20330  if (x & 0x100000 > 0)... */\n    tag_185:\n        /* \"abdk-libraries-solidity/ABDKMath64x64.sol\":20356:20357  0 */\n      0x00\n        /* \"abdk-libraries-solidity/ABDKMath64x64.sol\":20346:20353  0x80000 */\n      0x080000\n        /* \"abdk-libraries-solidity/ABDKMath64x64.sol\":20342:20343  x */\n      dup5\n        /* \"abdk-libraries-solidity/ABDKMath64x64.sol\":20342:20353  x & 0x80000 */\n      and\n        /* \"abdk-libraries-solidity/ABDKMath64x64.sol\":20342:20357  x & 0x80000 > 0 */\n      0x0f\n      signextend\n      sgt\n        /* \"abdk-libraries-solidity/ABDKMath64x64.sol\":20338:20427  if (x & 0x80000 > 0)... */\n      iszero\n      tag_186\n      jumpi\n        /* \"abdk-libraries-solidity/ABDKMath64x64.sol\":20424:20427  128 */\n      0x80\n        /* \"abdk-libraries-solidity/ABDKMath64x64.sol\":20385:20420  0x10000000000058B90BFBE8E8B2D3D4EDE */\n      0x010000000000058b90bfbe8e8b2d3d4ede\n        /* \"abdk-libraries-solidity/ABDKMath64x64.sol\":20376:20382  result */\n      dup3\n        /* \"abdk-libraries-solidity/ABDKMath64x64.sol\":20376:20420  result * 0x10000000000058B90BFBE8E8B2D3D4EDE */\n      mul\n        /* \"abdk-libraries-solidity/ABDKMath64x64.sol\":20376:20427  result * 0x10000000000058B90BFBE8E8B2D3D4EDE >> 128 */\n      swap1\n      shr\n        /* \"abdk-libraries-solidity/ABDKMath64x64.sol\":20367:20427  result = result * 0x10000000000058B90BFBE8E8B2D3D4EDE >> 128 */\n      swap1\n      pop\n        /* \"abdk-libraries-solidity/ABDKMath64x64.sol\":20338:20427  if (x & 0x80000 > 0)... */\n    tag_186:\n        /* \"abdk-libraries-solidity/ABDKMath64x64.sol\":20453:20454  0 */\n      0x00\n        /* \"abdk-libraries-solidity/ABDKMath64x64.sol\":20443:20450  0x40000 */\n      0x040000\n        /* \"abdk-libraries-solidity/ABDKMath64x64.sol\":20439:20440  x */\n      dup5\n        /* \"abdk-libraries-solidity/ABDKMath64x64.sol\":20439:20450  x & 0x40000 */\n      and\n        /* \"abdk-libraries-solidity/ABDKMath64x64.sol\":20439:20454  x & 0x40000 > 0 */\n      0x0f\n      signextend\n      sgt\n        /* \"abdk-libraries-solidity/ABDKMath64x64.sol\":20435:20524  if (x & 0x40000 > 0)... */\n      iszero\n      tag_187\n      jumpi\n        /* \"abdk-libraries-solidity/ABDKMath64x64.sol\":20521:20524  128 */\n      0x80\n        /* \"abdk-libraries-solidity/ABDKMath64x64.sol\":20482:20517  0x1000000000002C5C85FDF4741BEA6E77E */\n      0x01000000000002c5c85fdf4741bea6e77e\n        /* \"abdk-libraries-solidity/ABDKMath64x64.sol\":20473:20479  result */\n      dup3\n        /* \"abdk-libraries-solidity/ABDKMath64x64.sol\":20473:20517  result * 0x1000000000002C5C85FDF4741BEA6E77E */\n      mul\n        /* \"abdk-libraries-solidity/ABDKMath64x64.sol\":20473:20524  result * 0x1000000000002C5C85FDF4741BEA6E77E >> 128 */\n      swap1\n      shr\n        /* \"abdk-libraries-solidity/ABDKMath64x64.sol\":20464:20524  result = result * 0x1000000000002C5C85FDF4741BEA6E77E >> 128 */\n      swap1\n      pop\n        /* \"abdk-libraries-solidity/ABDKMath64x64.sol\":20435:20524  if (x & 0x40000 > 0)... */\n    tag_187:\n        /* \"abdk-libraries-solidity/ABDKMath64x64.sol\":20550:20551  0 */\n      0x00\n        /* \"abdk-libraries-solidity/ABDKMath64x64.sol\":20540:20547  0x20000 */\n      0x020000\n        /* \"abdk-libraries-solidity/ABDKMath64x64.sol\":20536:20537  x */\n      dup5\n        /* \"abdk-libraries-solidity/ABDKMath64x64.sol\":20536:20547  x & 0x20000 */\n      and\n        /* \"abdk-libraries-solidity/ABDKMath64x64.sol\":20536:20551  x & 0x20000 > 0 */\n      0x0f\n      signextend\n      sgt\n        /* \"abdk-libraries-solidity/ABDKMath64x64.sol\":20532:20621  if (x & 0x20000 > 0)... */\n      iszero\n      tag_188\n      jumpi\n        /* \"abdk-libraries-solidity/ABDKMath64x64.sol\":20618:20621  128 */\n      0x80\n        /* \"abdk-libraries-solidity/ABDKMath64x64.sol\":20579:20614  0x100000000000162E42FEFA39FE95583C2 */\n      0x0100000000000162e42fefa39fe95583c2\n        /* \"abdk-libraries-solidity/ABDKMath64x64.sol\":20570:20576  result */\n      dup3\n        /* \"abdk-libraries-solidity/ABDKMath64x64.sol\":20570:20614  result * 0x100000000000162E42FEFA39FE95583C2 */\n      mul\n        /* \"abdk-libraries-solidity/ABDKMath64x64.sol\":20570:20621  result * 0x100000000000162E42FEFA39FE95583C2 >> 128 */\n      swap1\n      shr\n        /* \"abdk-libraries-solidity/ABDKMath64x64.sol\":20561:20621  result = result * 0x100000000000162E42FEFA39FE95583C2 >> 128 */\n      swap1\n      pop\n        /* \"abdk-libraries-solidity/ABDKMath64x64.sol\":20532:20621  if (x & 0x20000 > 0)... */\n    tag_188:\n        /* \"abdk-libraries-solidity/ABDKMath64x64.sol\":20647:20648  0 */\n      0x00\n        /* \"abdk-libraries-solidity/ABDKMath64x64.sol\":20637:20644  0x10000 */\n      0x010000\n        /* \"abdk-libraries-solidity/ABDKMath64x64.sol\":20633:20634  x */\n      dup5\n        /* \"abdk-libraries-solidity/ABDKMath64x64.sol\":20633:20644  x & 0x10000 */\n      and\n        /* \"abdk-libraries-solidity/ABDKMath64x64.sol\":20633:20648  x & 0x10000 > 0 */\n      0x0f\n      signextend\n      sgt\n        /* \"abdk-libraries-solidity/ABDKMath64x64.sol\":20629:20718  if (x & 0x10000 > 0)... */\n      iszero\n      tag_189\n      jumpi\n        /* \"abdk-libraries-solidity/ABDKMath64x64.sol\":20715:20718  128 */\n      0x80\n        /* \"abdk-libraries-solidity/ABDKMath64x64.sol\":20676:20711  0x1000000000000B17217F7D1CFB72B45E1 */\n      0x01000000000000b17217f7d1cfb72b45e1\n        /* \"abdk-libraries-solidity/ABDKMath64x64.sol\":20667:20673  result */\n      dup3\n        /* \"abdk-libraries-solidity/ABDKMath64x64.sol\":20667:20711  result * 0x1000000000000B17217F7D1CFB72B45E1 */\n      mul\n        /* \"abdk-libraries-solidity/ABDKMath64x64.sol\":20667:20718  result * 0x1000000000000B17217F7D1CFB72B45E1 >> 128 */\n      swap1\n      shr\n        /* \"abdk-libraries-solidity/ABDKMath64x64.sol\":20658:20718  result = result * 0x1000000000000B17217F7D1CFB72B45E1 >> 128 */\n      swap1\n      pop\n        /* \"abdk-libraries-solidity/ABDKMath64x64.sol\":20629:20718  if (x & 0x10000 > 0)... */\n    tag_189:\n        /* \"abdk-libraries-solidity/ABDKMath64x64.sol\":20743:20744  0 */\n      0x00\n        /* \"abdk-libraries-solidity/ABDKMath64x64.sol\":20734:20740  0x8000 */\n      0x8000\n        /* \"abdk-libraries-solidity/ABDKMath64x64.sol\":20730:20731  x */\n      dup5\n        /* \"abdk-libraries-solidity/ABDKMath64x64.sol\":20730:20740  x & 0x8000 */\n      and\n        /* \"abdk-libraries-solidity/ABDKMath64x64.sol\":20730:20744  x & 0x8000 > 0 */\n      0x0f\n      signextend\n      sgt\n        /* \"abdk-libraries-solidity/ABDKMath64x64.sol\":20726:20814  if (x & 0x8000 > 0)... */\n      iszero\n      tag_190\n      jumpi\n        /* \"abdk-libraries-solidity/ABDKMath64x64.sol\":20811:20814  128 */\n      0x80\n        /* \"abdk-libraries-solidity/ABDKMath64x64.sol\":20772:20807  0x100000000000058B90BFBE8E7CC35C3F0 */\n      0x0100000000000058b90bfbe8e7cc35c3f0\n        /* \"abdk-libraries-solidity/ABDKMath64x64.sol\":20763:20769  result */\n      dup3\n        /* \"abdk-libraries-solidity/ABDKMath64x64.sol\":20763:20807  result * 0x100000000000058B90BFBE8E7CC35C3F0 */\n      mul\n        /* \"abdk-libraries-solidity/ABDKMath64x64.sol\":20763:20814  result * 0x100000000000058B90BFBE8E7CC35C3F0 >> 128 */\n      swap1\n      shr\n        /* \"abdk-libraries-solidity/ABDKMath64x64.sol\":20754:20814  result = result * 0x100000000000058B90BFBE8E7CC35C3F0 >> 128 */\n      swap1\n      pop\n        /* \"abdk-libraries-solidity/ABDKMath64x64.sol\":20726:20814  if (x & 0x8000 > 0)... */\n    tag_190:\n        /* \"abdk-libraries-solidity/ABDKMath64x64.sol\":20839:20840  0 */\n      0x00\n        /* \"abdk-libraries-solidity/ABDKMath64x64.sol\":20830:20836  0x4000 */\n      0x4000\n        /* \"abdk-libraries-solidity/ABDKMath64x64.sol\":20826:20827  x */\n      dup5\n        /* \"abdk-libraries-solidity/ABDKMath64x64.sol\":20826:20836  x & 0x4000 */\n      and\n        /* \"abdk-libraries-solidity/ABDKMath64x64.sol\":20826:20840  x & 0x4000 > 0 */\n      0x0f\n      signextend\n      sgt\n        /* \"abdk-libraries-solidity/ABDKMath64x64.sol\":20822:20910  if (x & 0x4000 > 0)... */\n      iszero\n      tag_191\n      jumpi\n        /* \"abdk-libraries-solidity/ABDKMath64x64.sol\":20907:20910  128 */\n      0x80\n        /* \"abdk-libraries-solidity/ABDKMath64x64.sol\":20868:20903  0x10000000000002C5C85FDF473E242EA38 */\n      0x010000000000002c5c85fdf473e242ea38\n        /* \"abdk-libraries-solidity/ABDKMath64x64.sol\":20859:20865  result */\n      dup3\n        /* \"abdk-libraries-solidity/ABDKMath64x64.sol\":20859:20903  result * 0x10000000000002C5C85FDF473E242EA38 */\n      mul\n        /* \"abdk-libraries-solidity/ABDKMath64x64.sol\":20859:20910  result * 0x10000000000002C5C85FDF473E242EA38 >> 128 */\n      swap1\n      shr\n        /* \"abdk-libraries-solidity/ABDKMath64x64.sol\":20850:20910  result = result * 0x10000000000002C5C85FDF473E242EA38 >> 128 */\n      swap1\n      pop\n        /* \"abdk-libraries-solidity/ABDKMath64x64.sol\":20822:20910  if (x & 0x4000 > 0)... */\n    tag_191:\n        /* \"abdk-libraries-solidity/ABDKMath64x64.sol\":20935:20936  0 */\n      0x00\n        /* \"abdk-libraries-solidity/ABDKMath64x64.sol\":20926:20932  0x2000 */\n      0x2000\n        /* \"abdk-libraries-solidity/ABDKMath64x64.sol\":20922:20923  x */\n      dup5\n        /* \"abdk-libraries-solidity/ABDKMath64x64.sol\":20922:20932  x & 0x2000 */\n      and\n        /* \"abdk-libraries-solidity/ABDKMath64x64.sol\":20922:20936  x & 0x2000 > 0 */\n      0x0f\n      signextend\n      sgt\n        /* \"abdk-libraries-solidity/ABDKMath64x64.sol\":20918:21006  if (x & 0x2000 > 0)... */\n      iszero\n      tag_192\n      jumpi\n        /* \"abdk-libraries-solidity/ABDKMath64x64.sol\":21003:21006  128 */\n      0x80\n        /* \"abdk-libraries-solidity/ABDKMath64x64.sol\":20964:20999  0x1000000000000162E42FEFA39F02B772C */\n      0x01000000000000162e42fefa39f02b772c\n        /* \"abdk-libraries-solidity/ABDKMath64x64.sol\":20955:20961  result */\n      dup3\n        /* \"abdk-libraries-solidity/ABDKMath64x64.sol\":20955:20999  result * 0x1000000000000162E42FEFA39F02B772C */\n      mul\n        /* \"abdk-libraries-solidity/ABDKMath64x64.sol\":20955:21006  result * 0x1000000000000162E42FEFA39F02B772C >> 128 */\n      swap1\n      shr\n        /* \"abdk-libraries-solidity/ABDKMath64x64.sol\":20946:21006  result = result * 0x1000000000000162E42FEFA39F02B772C >> 128 */\n      swap1\n      pop\n        /* \"abdk-libraries-solidity/ABDKMath64x64.sol\":20918:21006  if (x & 0x2000 > 0)... */\n    tag_192:\n        /* \"abdk-libraries-solidity/ABDKMath64x64.sol\":21031:21032  0 */\n      0x00\n        /* \"abdk-libraries-solidity/ABDKMath64x64.sol\":21022:21028  0x1000 */\n      0x1000\n        /* \"abdk-libraries-solidity/ABDKMath64x64.sol\":21018:21019  x */\n      dup5\n        /* \"abdk-libraries-solidity/ABDKMath64x64.sol\":21018:21028  x & 0x1000 */\n      and\n        /* \"abdk-libraries-solidity/ABDKMath64x64.sol\":21018:21032  x & 0x1000 > 0 */\n      0x0f\n      signextend\n      sgt\n        /* \"abdk-libraries-solidity/ABDKMath64x64.sol\":21014:21102  if (x & 0x1000 > 0)... */\n      iszero\n      tag_193\n      jumpi\n        /* \"abdk-libraries-solidity/ABDKMath64x64.sol\":21099:21102  128 */\n      0x80\n        /* \"abdk-libraries-solidity/ABDKMath64x64.sol\":21060:21095  0x10000000000000B17217F7D1CF7D83C1A */\n      0x010000000000000b17217f7d1cf7d83c1a\n        /* \"abdk-libraries-solidity/ABDKMath64x64.sol\":21051:21057  result */\n      dup3\n        /* \"abdk-libraries-solidity/ABDKMath64x64.sol\":21051:21095  result * 0x10000000000000B17217F7D1CF7D83C1A */\n      mul\n        /* \"abdk-libraries-solidity/ABDKMath64x64.sol\":21051:21102  result * 0x10000000000000B17217F7D1CF7D83C1A >> 128 */\n      swap1\n      shr\n        /* \"abdk-libraries-solidity/ABDKMath64x64.sol\":21042:21102  result = result * 0x10000000000000B17217F7D1CF7D83C1A >> 128 */\n      swap1\n      pop\n        /* \"abdk-libraries-solidity/ABDKMath64x64.sol\":21014:21102  if (x & 0x1000 > 0)... */\n    tag_193:\n        /* \"abdk-libraries-solidity/ABDKMath64x64.sol\":21126:21127  0 */\n      0x00\n        /* \"abdk-libraries-solidity/ABDKMath64x64.sol\":21118:21123  0x800 */\n      0x0800\n        /* \"abdk-libraries-solidity/ABDKMath64x64.sol\":21114:21115  x */\n      dup5\n        /* \"abdk-libraries-solidity/ABDKMath64x64.sol\":21114:21123  x & 0x800 */\n      and\n        /* \"abdk-libraries-solidity/ABDKMath64x64.sol\":21114:21127  x & 0x800 > 0 */\n      0x0f\n      signextend\n      sgt\n        /* \"abdk-libraries-solidity/ABDKMath64x64.sol\":21110:21197  if (x & 0x800 > 0)... */\n      iszero\n      tag_194\n      jumpi\n        /* \"abdk-libraries-solidity/ABDKMath64x64.sol\":21194:21197  128 */\n      0x80\n        /* \"abdk-libraries-solidity/ABDKMath64x64.sol\":21155:21190  0x1000000000000058B90BFBE8E7BDCBE2E */\n      0x01000000000000058b90bfbe8e7bdcbe2e\n        /* \"abdk-libraries-solidity/ABDKMath64x64.sol\":21146:21152  result */\n      dup3\n        /* \"abdk-libraries-solidity/ABDKMath64x64.sol\":21146:21190  result * 0x1000000000000058B90BFBE8E7BDCBE2E */\n      mul\n        /* \"abdk-libraries-solidity/ABDKMath64x64.sol\":21146:21197  result * 0x1000000000000058B90BFBE8E7BDCBE2E >> 128 */\n      swap1\n      shr\n        /* \"abdk-libraries-solidity/ABDKMath64x64.sol\":21137:21197  result = result * 0x1000000000000058B90BFBE8E7BDCBE2E >> 128 */\n      swap1\n      pop\n        /* \"abdk-libraries-solidity/ABDKMath64x64.sol\":21110:21197  if (x & 0x800 > 0)... */\n    tag_194:\n        /* \"abdk-libraries-solidity/ABDKMath64x64.sol\":21221:21222  0 */\n      0x00\n        /* \"abdk-libraries-solidity/ABDKMath64x64.sol\":21213:21218  0x400 */\n      0x0400\n        /* \"abdk-libraries-solidity/ABDKMath64x64.sol\":21209:21210  x */\n      dup5\n        /* \"abdk-libraries-solidity/ABDKMath64x64.sol\":21209:21218  x & 0x400 */\n      and\n        /* \"abdk-libraries-solidity/ABDKMath64x64.sol\":21209:21222  x & 0x400 > 0 */\n      0x0f\n      signextend\n      sgt\n        /* \"abdk-libraries-solidity/ABDKMath64x64.sol\":21205:21292  if (x & 0x400 > 0)... */\n      iszero\n      tag_195\n      jumpi\n        /* \"abdk-libraries-solidity/ABDKMath64x64.sol\":21289:21292  128 */\n      0x80\n        /* \"abdk-libraries-solidity/ABDKMath64x64.sol\":21250:21285  0x100000000000002C5C85FDF473DEA871F */\n      0x0100000000000002c5c85fdf473dea871f\n        /* \"abdk-libraries-solidity/ABDKMath64x64.sol\":21241:21247  result */\n      dup3\n        /* \"abdk-libraries-solidity/ABDKMath64x64.sol\":21241:21285  result * 0x100000000000002C5C85FDF473DEA871F */\n      mul\n        /* \"abdk-libraries-solidity/ABDKMath64x64.sol\":21241:21292  result * 0x100000000000002C5C85FDF473DEA871F >> 128 */\n      swap1\n      shr\n        /* \"abdk-libraries-solidity/ABDKMath64x64.sol\":21232:21292  result = result * 0x100000000000002C5C85FDF473DEA871F >> 128 */\n      swap1\n      pop\n        /* \"abdk-libraries-solidity/ABDKMath64x64.sol\":21205:21292  if (x & 0x400 > 0)... */\n    tag_195:\n        /* \"abdk-libraries-solidity/ABDKMath64x64.sol\":21316:21317  0 */\n      0x00\n        /* \"abdk-libraries-solidity/ABDKMath64x64.sol\":21308:21313  0x200 */\n      0x0200\n        /* \"abdk-libraries-solidity/ABDKMath64x64.sol\":21304:21305  x */\n      dup5\n        /* \"abdk-libraries-solidity/ABDKMath64x64.sol\":21304:21313  x & 0x200 */\n      and\n        /* \"abdk-libraries-solidity/ABDKMath64x64.sol\":21304:21317  x & 0x200 > 0 */\n      0x0f\n      signextend\n      sgt\n        /* \"abdk-libraries-solidity/ABDKMath64x64.sol\":21300:21387  if (x & 0x200 > 0)... */\n      iszero\n      tag_196\n      jumpi\n        /* \"abdk-libraries-solidity/ABDKMath64x64.sol\":21384:21387  128 */\n      0x80\n        /* \"abdk-libraries-solidity/ABDKMath64x64.sol\":21345:21380  0x10000000000000162E42FEFA39EF44D91 */\n      0x010000000000000162e42fefa39ef44d91\n        /* \"abdk-libraries-solidity/ABDKMath64x64.sol\":21336:21342  result */\n      dup3\n        /* \"abdk-libraries-solidity/ABDKMath64x64.sol\":21336:21380  result * 0x10000000000000162E42FEFA39EF44D91 */\n      mul\n        /* \"abdk-libraries-solidity/ABDKMath64x64.sol\":21336:21387  result * 0x10000000000000162E42FEFA39EF44D91 >> 128 */\n      swap1\n      shr\n        /* \"abdk-libraries-solidity/ABDKMath64x64.sol\":21327:21387  result = result * 0x10000000000000162E42FEFA39EF44D91 >> 128 */\n      swap1\n      pop\n        /* \"abdk-libraries-solidity/ABDKMath64x64.sol\":21300:21387  if (x & 0x200 > 0)... */\n    tag_196:\n        /* \"abdk-libraries-solidity/ABDKMath64x64.sol\":21411:21412  0 */\n      0x00\n        /* \"abdk-libraries-solidity/ABDKMath64x64.sol\":21403:21408  0x100 */\n      0x0100\n        /* \"abdk-libraries-solidity/ABDKMath64x64.sol\":21399:21400  x */\n      dup5\n        /* \"abdk-libraries-solidity/ABDKMath64x64.sol\":21399:21408  x & 0x100 */\n      and\n        /* \"abdk-libraries-solidity/ABDKMath64x64.sol\":21399:21412  x & 0x100 > 0 */\n      0x0f\n      signextend\n      sgt\n        /* \"abdk-libraries-solidity/ABDKMath64x64.sol\":21395:21482  if (x & 0x100 > 0)... */\n      iszero\n      tag_197\n      jumpi\n        /* \"abdk-libraries-solidity/ABDKMath64x64.sol\":21479:21482  128 */\n      0x80\n        /* \"abdk-libraries-solidity/ABDKMath64x64.sol\":21440:21475  0x100000000000000B17217F7D1CF79E949 */\n      0x0100000000000000b17217f7d1cf79e949\n        /* \"abdk-libraries-solidity/ABDKMath64x64.sol\":21431:21437  result */\n      dup3\n        /* \"abdk-libraries-solidity/ABDKMath64x64.sol\":21431:21475  result * 0x100000000000000B17217F7D1CF79E949 */\n      mul\n        /* \"abdk-libraries-solidity/ABDKMath64x64.sol\":21431:21482  result * 0x100000000000000B17217F7D1CF79E949 >> 128 */\n      swap1\n      shr\n        /* \"abdk-libraries-solidity/ABDKMath64x64.sol\":21422:21482  result = result * 0x100000000000000B17217F7D1CF79E949 >> 128 */\n      swap1\n      pop\n        /* \"abdk-libraries-solidity/ABDKMath64x64.sol\":21395:21482  if (x & 0x100 > 0)... */\n    tag_197:\n        /* \"abdk-libraries-solidity/ABDKMath64x64.sol\":21505:21506  0 */\n      0x00\n        /* \"abdk-libraries-solidity/ABDKMath64x64.sol\":21498:21502  0x80 */\n      0x80\n        /* \"abdk-libraries-solidity/ABDKMath64x64.sol\":21494:21495  x */\n      dup5\n        /* \"abdk-libraries-solidity/ABDKMath64x64.sol\":21494:21502  x & 0x80 */\n      and\n        /* \"abdk-libraries-solidity/ABDKMath64x64.sol\":21494:21506  x & 0x80 > 0 */\n      0x0f\n      signextend\n      sgt\n        /* \"abdk-libraries-solidity/ABDKMath64x64.sol\":21490:21576  if (x & 0x80 > 0)... */\n      iszero\n      tag_198\n      jumpi\n        /* \"abdk-libraries-solidity/ABDKMath64x64.sol\":21573:21576  128 */\n      0x80\n        /* \"abdk-libraries-solidity/ABDKMath64x64.sol\":21534:21569  0x10000000000000058B90BFBE8E7BCE544 */\n      0x010000000000000058b90bfbe8e7bce544\n        /* \"abdk-libraries-solidity/ABDKMath64x64.sol\":21525:21531  result */\n      dup3\n        /* \"abdk-libraries-solidity/ABDKMath64x64.sol\":21525:21569  result * 0x10000000000000058B90BFBE8E7BCE544 */\n      mul\n        /* \"abdk-libraries-solidity/ABDKMath64x64.sol\":21525:21576  result * 0x10000000000000058B90BFBE8E7BCE544 >> 128 */\n      swap1\n      shr\n        /* \"abdk-libraries-solidity/ABDKMath64x64.sol\":21516:21576  result = result * 0x10000000000000058B90BFBE8E7BCE544 >> 128 */\n      swap1\n      pop\n        /* \"abdk-libraries-solidity/ABDKMath64x64.sol\":21490:21576  if (x & 0x80 > 0)... */\n    tag_198:\n        /* \"abdk-libraries-solidity/ABDKMath64x64.sol\":21599:21600  0 */\n      0x00\n        /* \"abdk-libraries-solidity/ABDKMath64x64.sol\":21592:21596  0x40 */\n      0x40\n        /* \"abdk-libraries-solidity/ABDKMath64x64.sol\":21588:21589  x */\n      dup5\n        /* \"abdk-libraries-solidity/ABDKMath64x64.sol\":21588:21596  x & 0x40 */\n      and\n        /* \"abdk-libraries-solidity/ABDKMath64x64.sol\":21588:21600  x & 0x40 > 0 */\n      0x0f\n      signextend\n      sgt\n        /* \"abdk-libraries-solidity/ABDKMath64x64.sol\":21584:21670  if (x & 0x40 > 0)... */\n      iszero\n      tag_199\n      jumpi\n        /* \"abdk-libraries-solidity/ABDKMath64x64.sol\":21667:21670  128 */\n      0x80\n        /* \"abdk-libraries-solidity/ABDKMath64x64.sol\":21628:21663  0x1000000000000002C5C85FDF473DE6ECA */\n      0x01000000000000002c5c85fdf473de6eca\n        /* \"abdk-libraries-solidity/ABDKMath64x64.sol\":21619:21625  result */\n      dup3\n        /* \"abdk-libraries-solidity/ABDKMath64x64.sol\":21619:21663  result * 0x1000000000000002C5C85FDF473DE6ECA */\n      mul\n        /* \"abdk-libraries-solidity/ABDKMath64x64.sol\":21619:21670  result * 0x1000000000000002C5C85FDF473DE6ECA >> 128 */\n      swap1\n      shr\n        /* \"abdk-libraries-solidity/ABDKMath64x64.sol\":21610:21670  result = result * 0x1000000000000002C5C85FDF473DE6ECA >> 128 */\n      swap1\n      pop\n        /* \"abdk-libraries-solidity/ABDKMath64x64.sol\":21584:21670  if (x & 0x40 > 0)... */\n    tag_199:\n        /* \"abdk-libraries-solidity/ABDKMath64x64.sol\":21693:21694  0 */\n      0x00\n        /* \"abdk-libraries-solidity/ABDKMath64x64.sol\":21686:21690  0x20 */\n      0x20\n        /* \"abdk-libraries-solidity/ABDKMath64x64.sol\":21682:21683  x */\n      dup5\n        /* \"abdk-libraries-solidity/ABDKMath64x64.sol\":21682:21690  x & 0x20 */\n      and\n        /* \"abdk-libraries-solidity/ABDKMath64x64.sol\":21682:21694  x & 0x20 > 0 */\n      0x0f\n      signextend\n      sgt\n        /* \"abdk-libraries-solidity/ABDKMath64x64.sol\":21678:21764  if (x & 0x20 > 0)... */\n      iszero\n      tag_200\n      jumpi\n        /* \"abdk-libraries-solidity/ABDKMath64x64.sol\":21761:21764  128 */\n      0x80\n        /* \"abdk-libraries-solidity/ABDKMath64x64.sol\":21722:21757  0x100000000000000162E42FEFA39EF366F */\n      0x0100000000000000162e42fefa39ef366f\n        /* \"abdk-libraries-solidity/ABDKMath64x64.sol\":21713:21719  result */\n      dup3\n        /* \"abdk-libraries-solidity/ABDKMath64x64.sol\":21713:21757  result * 0x100000000000000162E42FEFA39EF366F */\n      mul\n        /* \"abdk-libraries-solidity/ABDKMath64x64.sol\":21713:21764  result * 0x100000000000000162E42FEFA39EF366F >> 128 */\n      swap1\n      shr\n        /* \"abdk-libraries-solidity/ABDKMath64x64.sol\":21704:21764  result = result * 0x100000000000000162E42FEFA39EF366F >> 128 */\n      swap1\n      pop\n        /* \"abdk-libraries-solidity/ABDKMath64x64.sol\":21678:21764  if (x & 0x20 > 0)... */\n    tag_200:\n        /* \"abdk-libraries-solidity/ABDKMath64x64.sol\":21787:21788  0 */\n      0x00\n        /* \"abdk-libraries-solidity/ABDKMath64x64.sol\":21780:21784  0x10 */\n      0x10\n        /* \"abdk-libraries-solidity/ABDKMath64x64.sol\":21776:21777  x */\n      dup5\n        /* \"abdk-libraries-solidity/ABDKMath64x64.sol\":21776:21784  x & 0x10 */\n      and\n        /* \"abdk-libraries-solidity/ABDKMath64x64.sol\":21776:21788  x & 0x10 > 0 */\n      0x0f\n      signextend\n      sgt\n        /* \"abdk-libraries-solidity/ABDKMath64x64.sol\":21772:21858  if (x & 0x10 > 0)... */\n      iszero\n      tag_201\n      jumpi\n        /* \"abdk-libraries-solidity/ABDKMath64x64.sol\":21855:21858  128 */\n      0x80\n        /* \"abdk-libraries-solidity/ABDKMath64x64.sol\":21816:21851  0x1000000000000000B17217F7D1CF79AFA */\n      0x01000000000000000b17217f7d1cf79afa\n        /* \"abdk-libraries-solidity/ABDKMath64x64.sol\":21807:21813  result */\n      dup3\n        /* \"abdk-libraries-solidity/ABDKMath64x64.sol\":21807:21851  result * 0x1000000000000000B17217F7D1CF79AFA */\n      mul\n        /* \"abdk-libraries-solidity/ABDKMath64x64.sol\":21807:21858  result * 0x1000000000000000B17217F7D1CF79AFA >> 128 */\n      swap1\n      shr\n        /* \"abdk-libraries-solidity/ABDKMath64x64.sol\":21798:21858  result = result * 0x1000000000000000B17217F7D1CF79AFA >> 128 */\n      swap1\n      pop\n        /* \"abdk-libraries-solidity/ABDKMath64x64.sol\":21772:21858  if (x & 0x10 > 0)... */\n    tag_201:\n        /* \"abdk-libraries-solidity/ABDKMath64x64.sol\":21880:21881  0 */\n      0x00\n        /* \"abdk-libraries-solidity/ABDKMath64x64.sol\":21874:21877  0x8 */\n      0x08\n        /* \"abdk-libraries-solidity/ABDKMath64x64.sol\":21870:21871  x */\n      dup5\n        /* \"abdk-libraries-solidity/ABDKMath64x64.sol\":21870:21877  x & 0x8 */\n      and\n        /* \"abdk-libraries-solidity/ABDKMath64x64.sol\":21870:21881  x & 0x8 > 0 */\n      0x0f\n      signextend\n      sgt\n        /* \"abdk-libraries-solidity/ABDKMath64x64.sol\":21866:21951  if (x & 0x8 > 0)... */\n      iszero\n      tag_202\n      jumpi\n        /* \"abdk-libraries-solidity/ABDKMath64x64.sol\":21948:21951  128 */\n      0x80\n        /* \"abdk-libraries-solidity/ABDKMath64x64.sol\":21909:21944  0x100000000000000058B90BFBE8E7BCD6D */\n      0x0100000000000000058b90bfbe8e7bcd6d\n        /* \"abdk-libraries-solidity/ABDKMath64x64.sol\":21900:21906  result */\n      dup3\n        /* \"abdk-libraries-solidity/ABDKMath64x64.sol\":21900:21944  result * 0x100000000000000058B90BFBE8E7BCD6D */\n      mul\n        /* \"abdk-libraries-solidity/ABDKMath64x64.sol\":21900:21951  result * 0x100000000000000058B90BFBE8E7BCD6D >> 128 */\n      swap1\n      shr\n        /* \"abdk-libraries-solidity/ABDKMath64x64.sol\":21891:21951  result = result * 0x100000000000000058B90BFBE8E7BCD6D >> 128 */\n      swap1\n      pop\n        /* \"abdk-libraries-solidity/ABDKMath64x64.sol\":21866:21951  if (x & 0x8 > 0)... */\n    tag_202:\n        /* \"abdk-libraries-solidity/ABDKMath64x64.sol\":21973:21974  0 */\n      0x00\n        /* \"abdk-libraries-solidity/ABDKMath64x64.sol\":21967:21970  0x4 */\n      0x04\n        /* \"abdk-libraries-solidity/ABDKMath64x64.sol\":21963:21964  x */\n      dup5\n        /* \"abdk-libraries-solidity/ABDKMath64x64.sol\":21963:21970  x & 0x4 */\n      and\n        /* \"abdk-libraries-solidity/ABDKMath64x64.sol\":21963:21974  x & 0x4 > 0 */\n      0x0f\n      signextend\n      sgt\n        /* \"abdk-libraries-solidity/ABDKMath64x64.sol\":21959:22044  if (x & 0x4 > 0)... */\n      iszero\n      tag_203\n      jumpi\n        /* \"abdk-libraries-solidity/ABDKMath64x64.sol\":22041:22044  128 */\n      0x80\n        /* \"abdk-libraries-solidity/ABDKMath64x64.sol\":22002:22037  0x10000000000000002C5C85FDF473DE6B2 */\n      0x010000000000000002c5c85fdf473de6b2\n        /* \"abdk-libraries-solidity/ABDKMath64x64.sol\":21993:21999  result */\n      dup3\n        /* \"abdk-libraries-solidity/ABDKMath64x64.sol\":21993:22037  result * 0x10000000000000002C5C85FDF473DE6B2 */\n      mul\n        /* \"abdk-libraries-solidity/ABDKMath64x64.sol\":21993:22044  result * 0x10000000000000002C5C85FDF473DE6B2 >> 128 */\n      swap1\n      shr\n        /* \"abdk-libraries-solidity/ABDKMath64x64.sol\":21984:22044  result = result * 0x10000000000000002C5C85FDF473DE6B2 >> 128 */\n      swap1\n      pop\n        /* \"abdk-libraries-solidity/ABDKMath64x64.sol\":21959:22044  if (x & 0x4 > 0)... */\n    tag_203:\n        /* \"abdk-libraries-solidity/ABDKMath64x64.sol\":22066:22067  0 */\n      0x00\n        /* \"abdk-libraries-solidity/ABDKMath64x64.sol\":22060:22063  0x2 */\n      0x02\n        /* \"abdk-libraries-solidity/ABDKMath64x64.sol\":22056:22057  x */\n      dup5\n        /* \"abdk-libraries-solidity/ABDKMath64x64.sol\":22056:22063  x & 0x2 */\n      and\n        /* \"abdk-libraries-solidity/ABDKMath64x64.sol\":22056:22067  x & 0x2 > 0 */\n      0x0f\n      signextend\n      sgt\n        /* \"abdk-libraries-solidity/ABDKMath64x64.sol\":22052:22137  if (x & 0x2 > 0)... */\n      iszero\n      tag_204\n      jumpi\n        /* \"abdk-libraries-solidity/ABDKMath64x64.sol\":22134:22137  128 */\n      0x80\n        /* \"abdk-libraries-solidity/ABDKMath64x64.sol\":22095:22130  0x1000000000000000162E42FEFA39EF358 */\n      0x01000000000000000162e42fefa39ef358\n        /* \"abdk-libraries-solidity/ABDKMath64x64.sol\":22086:22092  result */\n      dup3\n        /* \"abdk-libraries-solidity/ABDKMath64x64.sol\":22086:22130  result * 0x1000000000000000162E42FEFA39EF358 */\n      mul\n        /* \"abdk-libraries-solidity/ABDKMath64x64.sol\":22086:22137  result * 0x1000000000000000162E42FEFA39EF358 >> 128 */\n      swap1\n      shr\n        /* \"abdk-libraries-solidity/ABDKMath64x64.sol\":22077:22137  result = result * 0x1000000000000000162E42FEFA39EF358 >> 128 */\n      swap1\n      pop\n        /* \"abdk-libraries-solidity/ABDKMath64x64.sol\":22052:22137  if (x & 0x2 > 0)... */\n    tag_204:\n        /* \"abdk-libraries-solidity/ABDKMath64x64.sol\":22159:22160  0 */\n      0x00\n        /* \"abdk-libraries-solidity/ABDKMath64x64.sol\":22153:22156  0x1 */\n      0x01\n        /* \"abdk-libraries-solidity/ABDKMath64x64.sol\":22149:22150  x */\n      dup5\n        /* \"abdk-libraries-solidity/ABDKMath64x64.sol\":22149:22156  x & 0x1 */\n      and\n        /* \"abdk-libraries-solidity/ABDKMath64x64.sol\":22149:22160  x & 0x1 > 0 */\n      0x0f\n      signextend\n      sgt\n        /* \"abdk-libraries-solidity/ABDKMath64x64.sol\":22145:22230  if (x & 0x1 > 0)... */\n      iszero\n      tag_205\n      jumpi\n        /* \"abdk-libraries-solidity/ABDKMath64x64.sol\":22227:22230  128 */\n      0x80\n        /* \"abdk-libraries-solidity/ABDKMath64x64.sol\":22188:22223  0x10000000000000000B17217F7D1CF79AB */\n      0x010000000000000000b17217f7d1cf79ab\n        /* \"abdk-libraries-solidity/ABDKMath64x64.sol\":22179:22185  result */\n      dup3\n        /* \"abdk-libraries-solidity/ABDKMath64x64.sol\":22179:22223  result * 0x10000000000000000B17217F7D1CF79AB */\n      mul\n        /* \"abdk-libraries-solidity/ABDKMath64x64.sol\":22179:22230  result * 0x10000000000000000B17217F7D1CF79AB >> 128 */\n      swap1\n      shr\n        /* \"abdk-libraries-solidity/ABDKMath64x64.sol\":22170:22230  result = result * 0x10000000000000000B17217F7D1CF79AB >> 128 */\n      swap1\n      pop\n        /* \"abdk-libraries-solidity/ABDKMath64x64.sol\":22145:22230  if (x & 0x1 > 0)... */\n    tag_205:\n        /* \"abdk-libraries-solidity/ABDKMath64x64.sol\":22278:22280  64 */\n      0x40\n        /* \"abdk-libraries-solidity/ABDKMath64x64.sol\":22273:22274  x */\n      dup4\n        /* \"abdk-libraries-solidity/ABDKMath64x64.sol\":22273:22280  x >> 64 */\n      0x0f\n      signextend\n      swap1\n      sar\n        /* \"abdk-libraries-solidity/ABDKMath64x64.sol\":22267:22269  63 */\n      0x3f\n        /* \"abdk-libraries-solidity/ABDKMath64x64.sol\":22267:22281  63 - (x >> 64) */\n      sub\n        /* \"abdk-libraries-solidity/ABDKMath64x64.sol\":22259:22282  int256 (63 - (x >> 64)) */\n      0x0f\n      signextend\n        /* \"abdk-libraries-solidity/ABDKMath64x64.sol\":22239:22283  result >>= uint256 (int256 (63 - (x >> 64))) */\n      dup2\n      swap1\n      shr\n      swap1\n      pop\n        /* \"abdk-libraries-solidity/ABDKMath64x64.sol\":958:992  0x7FFFFFFFFFFFFFFFFFFFFFFFFFFFFFFF */\n      0x7fffffffffffffffffffffffffffffff\n        /* \"abdk-libraries-solidity/ABDKMath64x64.sol\":22319:22337  int256 (MAX_64x64) */\n      0x0f\n      signextend\n        /* \"abdk-libraries-solidity/ABDKMath64x64.sol\":22300:22306  result */\n      dup2\n        /* \"abdk-libraries-solidity/ABDKMath64x64.sol\":22300:22338  result <= uint256 (int256 (MAX_64x64)) */\n      gt\n      iszero\n        /* \"abdk-libraries-solidity/ABDKMath64x64.sol\":22291:22339  require (result <= uint256 (int256 (MAX_64x64))) */\n      tag_206\n      jumpi\n      0x00\n      dup1\n      revert\n    tag_206:\n        /* \"abdk-libraries-solidity/ABDKMath64x64.sol\":22371:22377  result */\n      dup1\n        /* \"abdk-libraries-solidity/ABDKMath64x64.sol\":22348:22379  return int128 (int256 (result)) */\n      swap2\n      pop\n      pop\n        /* \"abdk-libraries-solidity/ABDKMath64x64.sol\":15549:22390  function exp_2 (int128 x) internal pure returns (int128) {... */\n    tag_139:\n      swap2\n      swap1\n      pop\n      jump\t// out\n        /* \"#utility.yul\":7:82   */\n    tag_207:\n        /* \"#utility.yul\":40:46   */\n      0x00\n        /* \"#utility.yul\":73:75   */\n      0x40\n        /* \"#utility.yul\":67:76   */\n      mload\n        /* \"#utility.yul\":57:76   */\n      swap1\n      pop\n        /* \"#utility.yul\":7:82   */\n      swap1\n      jump\t// out\n        /* \"#utility.yul\":88:205   */\n    tag_208:\n        /* \"#utility.yul\":197:198   */\n      0x00\n        /* \"#utility.yul\":194:195   */\n      dup1\n        /* \"#utility.yul\":187:199   */\n      revert\n        /* \"#utility.yul\":211:328   */\n    tag_209:\n        /* \"#utility.yul\":320:321   */\n      0x00\n        /* \"#utility.yul\":317:318   */\n      dup1\n        /* \"#utility.yul\":310:322   */\n      revert\n        /* \"#utility.yul\":334:451   */\n    tag_210:\n        /* \"#utility.yul\":443:444   */\n      0x00\n        /* \"#utility.yul\":440:441   */\n      dup1\n        /* \"#utility.yul\":433:445   */\n      revert\n        /* \"#utility.yul\":457:574   */\n    tag_211:\n        /* \"#utility.yul\":566:567   */\n      0x00\n        /* \"#utility.yul\":563:564   */\n      dup1\n        /* \"#utility.yul\":556:568   */\n      revert\n        /* \"#utility.yul\":580:682   */\n    tag_212:\n        /* \"#utility.yul\":621:627   */\n      0x00\n        /* \"#utility.yul\":672:674   */\n      0x1f\n        /* \"#utility.yul\":668:675   */\n      not\n        /* \"#utility.yul\":663:665   */\n      0x1f\n        /* \"#utility.yul\":656:661   */\n      dup4\n        /* \"#utility.yul\":652:666   */\n      add\n        /* \"#utility.yul\":648:676   */\n      and\n        /* \"#utility.yul\":638:676   */\n      swap1\n      pop\n        /* \"#utility.yul\":580:682   */\n      swap2\n      swap1\n      pop\n      jump\t// out\n        /* \"#utility.yul\":688:868   */\n    tag_213:\n        /* \"#utility.yul\":736:813   */\n      0x4e487b7100000000000000000000000000000000000000000000000000000000\n        /* \"#utility.yul\":733:734   */\n      0x00\n        /* \"#utility.yul\":726:814   */\n      mstore\n        /* \"#utility.yul\":833:837   */\n      0x41\n        /* \"#utility.yul\":830:831   */\n      0x04\n        /* \"#utility.yul\":823:838   */\n      mstore\n        /* \"#utility.yul\":857:861   */\n      0x24\n        /* \"#utility.yul\":854:855   */\n      0x00\n        /* \"#utility.yul\":847:862   */\n      revert\n        /* \"#utility.yul\":874:1155   */\n    tag_214:\n        /* \"#utility.yul\":957:984   */\n      tag_246\n        /* \"#utility.yul\":979:983   */\n      dup3\n        /* \"#utility.yul\":957:984   */\n      tag_212\n      jump\t// in\n    tag_246:\n        /* \"#utility.yul\":949:955   */\n      dup2\n        /* \"#utility.yul\":945:985   */\n      add\n        /* \"#utility.yul\":1087:1093   */\n      dup2\n        /* \"#utility.yul\":1075:1085   */\n      dup2\n        /* \"#utility.yul\":1072:1094   */\n      lt\n        /* \"#utility.yul\":1051:1069   */\n      0xffffffffffffffff\n        /* \"#utility.yul\":1039:1049   */\n      dup3\n        /* \"#utility.yul\":1036:1070   */\n      gt\n        /* \"#utility.yul\":1033:1095   */\n      or\n        /* \"#utility.yul\":1030:1118   */\n      iszero\n      tag_247\n      jumpi\n        /* \"#utility.yul\":1098:1116   */\n      tag_248\n      tag_213\n      jump\t// in\n    tag_248:\n        /* \"#utility.yul\":1030:1118   */\n    tag_247:\n        /* \"#utility.yul\":1138:1148   */\n      dup1\n        /* \"#utility.yul\":1134:1136   */\n      0x40\n        /* \"#utility.yul\":1127:1149   */\n      mstore\n        /* \"#utility.yul\":917:1155   */\n      pop\n        /* \"#utility.yul\":874:1155   */\n      pop\n      pop\n      jump\t// out\n        /* \"#utility.yul\":1161:1290   */\n    tag_215:\n        /* \"#utility.yul\":1195:1201   */\n      0x00\n        /* \"#utility.yul\":1222:1242   */\n      tag_250\n      tag_207\n      jump\t// in\n    tag_250:\n        /* \"#utility.yul\":1212:1242   */\n      swap1\n      pop\n        /* \"#utility.yul\":1251:1284   */\n      tag_251\n        /* \"#utility.yul\":1279:1283   */\n      dup3\n        /* \"#utility.yul\":1271:1277   */\n      dup3\n        /* \"#utility.yul\":1251:1284   */\n      tag_214\n      jump\t// in\n    tag_251:\n        /* \"#utility.yul\":1161:1290   */\n      swap2\n      swap1\n      pop\n      jump\t// out\n        /* \"#utility.yul\":1296:1604   */\n    tag_216:\n        /* \"#utility.yul\":1358:1362   */\n      0x00\n        /* \"#utility.yul\":1448:1466   */\n      0xffffffffffffffff\n        /* \"#utility.yul\":1440:1446   */\n      dup3\n        /* \"#utility.yul\":1437:1467   */\n      gt\n        /* \"#utility.yul\":1434:1490   */\n      iszero\n      tag_253\n      jumpi\n        /* \"#utility.yul\":1470:1488   */\n      tag_254\n      tag_213\n      jump\t// in\n    tag_254:\n        /* \"#utility.yul\":1434:1490   */\n    tag_253:\n        /* \"#utility.yul\":1508:1537   */\n      tag_255\n        /* \"#utility.yul\":1530:1536   */\n      dup3\n        /* \"#utility.yul\":1508:1537   */\n      tag_212\n      jump\t// in\n    tag_255:\n        /* \"#utility.yul\":1500:1537   */\n      swap1\n      pop\n        /* \"#utility.yul\":1592:1596   */\n      0x20\n        /* \"#utility.yul\":1586:1590   */\n      dup2\n        /* \"#utility.yul\":1582:1597   */\n      add\n        /* \"#utility.yul\":1574:1597   */\n      swap1\n      pop\n        /* \"#utility.yul\":1296:1604   */\n      swap2\n      swap1\n      pop\n      jump\t// out\n        /* \"#utility.yul\":1610:1758   */\n    tag_217:\n        /* \"#utility.yul\":1708:1714   */\n      dup3\n        /* \"#utility.yul\":1703:1706   */\n      dup2\n        /* \"#utility.yul\":1698:1701   */\n      dup4\n        /* \"#utility.yul\":1685:1715   */\n      calldatacopy\n        /* \"#utility.yul\":1749:1750   */\n      0x00\n        /* \"#utility.yul\":1740:1746   */\n      dup4\n        /* \"#utility.yul\":1735:1738   */\n      dup4\n        /* \"#utility.yul\":1731:1747   */\n      add\n        /* \"#utility.yul\":1724:1751   */\n      mstore\n        /* \"#utility.yul\":1610:1758   */\n      pop\n      pop\n      pop\n      jump\t// out\n        /* \"#utility.yul\":1764:2189   */\n    tag_218:\n        /* \"#utility.yul\":1842:1847   */\n      0x00\n        /* \"#utility.yul\":1867:1933   */\n      tag_258\n        /* \"#utility.yul\":1883:1932   */\n      tag_259\n        /* \"#utility.yul\":1925:1931   */\n      dup5\n        /* \"#utility.yul\":1883:1932   */\n      tag_216\n      jump\t// in\n    tag_259:\n        /* \"#utility.yul\":1867:1933   */\n      tag_215\n      jump\t// in\n    tag_258:\n        /* \"#utility.yul\":1858:1933   */\n      swap1\n      pop\n        /* \"#utility.yul\":1956:1962   */\n      dup3\n        /* \"#utility.yul\":1949:1954   */\n      dup2\n        /* \"#utility.yul\":1942:1963   */\n      mstore\n        /* \"#utility.yul\":1994:1998   */\n      0x20\n        /* \"#utility.yul\":1987:1992   */\n      dup2\n        /* \"#utility.yul\":1983:1999   */\n      add\n        /* \"#utility.yul\":2032:2035   */\n      dup5\n        /* \"#utility.yul\":2023:2029   */\n      dup5\n        /* \"#utility.yul\":2018:2021   */\n      dup5\n        /* \"#utility.yul\":2014:2030   */\n      add\n        /* \"#utility.yul\":2011:2036   */\n      gt\n        /* \"#utility.yul\":2008:2120   */\n      iszero\n      tag_260\n      jumpi\n        /* \"#utility.yul\":2039:2118   */\n      tag_261\n      tag_211\n      jump\t// in\n    tag_261:\n        /* \"#utility.yul\":2008:2120   */\n    tag_260:\n        /* \"#utility.yul\":2129:2183   */\n      tag_262\n        /* \"#utility.yul\":2176:2182   */\n      dup5\n        /* \"#utility.yul\":2171:2174   */\n      dup3\n        /* \"#utility.yul\":2166:2169   */\n      dup6\n        /* \"#utility.yul\":2129:2183   */\n      tag_217\n      jump\t// in\n    tag_262:\n        /* \"#utility.yul\":1848:2189   */\n      pop\n        /* \"#utility.yul\":1764:2189   */\n      swap4\n      swap3\n      pop\n      pop\n      pop\n      jump\t// out\n        /* \"#utility.yul\":2209:2549   */\n    tag_219:\n        /* \"#utility.yul\":2265:2270   */\n      0x00\n        /* \"#utility.yul\":2314:2317   */\n      dup3\n        /* \"#utility.yul\":2307:2311   */\n      0x1f\n        /* \"#utility.yul\":2299:2305   */\n      dup4\n        /* \"#utility.yul\":2295:2312   */\n      add\n        /* \"#utility.yul\":2291:2318   */\n      slt\n        /* \"#utility.yul\":2281:2403   */\n      tag_264\n      jumpi\n        /* \"#utility.yul\":2322:2401   */\n      tag_265\n      tag_210\n      jump\t// in\n    tag_265:\n        /* \"#utility.yul\":2281:2403   */\n    tag_264:\n        /* \"#utility.yul\":2439:2445   */\n      dup2\n        /* \"#utility.yul\":2426:2446   */\n      calldataload\n        /* \"#utility.yul\":2464:2543   */\n      tag_266\n        /* \"#utility.yul\":2539:2542   */\n      dup5\n        /* \"#utility.yul\":2531:2537   */\n      dup3\n        /* \"#utility.yul\":2524:2528   */\n      0x20\n        /* \"#utility.yul\":2516:2522   */\n      dup7\n        /* \"#utility.yul\":2512:2529   */\n      add\n        /* \"#utility.yul\":2464:2543   */\n      tag_218\n      jump\t// in\n    tag_266:\n        /* \"#utility.yul\":2455:2543   */\n      swap2\n      pop\n        /* \"#utility.yul\":2271:2549   */\n      pop\n        /* \"#utility.yul\":2209:2549   */\n      swap3\n      swap2\n      pop\n      pop\n      jump\t// out\n        /* \"#utility.yul\":2555:2644   */\n    tag_220:\n        /* \"#utility.yul\":2591:2598   */\n      0x00\n        /* \"#utility.yul\":2631:2637   */\n      0xffff\n        /* \"#utility.yul\":2624:2629   */\n      dup3\n        /* \"#utility.yul\":2620:2638   */\n      and\n        /* \"#utility.yul\":2609:2638   */\n      swap1\n      pop\n        /* \"#utility.yul\":2555:2644   */\n      swap2\n      swap1\n      pop\n      jump\t// out\n        /* \"#utility.yul\":2650:2770   */\n    tag_221:\n        /* \"#utility.yul\":2722:2745   */\n      tag_269\n        /* \"#utility.yul\":2739:2744   */\n      dup2\n        /* \"#utility.yul\":2722:2745   */\n      tag_220\n      jump\t// in\n    tag_269:\n        /* \"#utility.yul\":2715:2720   */\n      dup2\n        /* \"#utility.yul\":2712:2746   */\n      eq\n        /* \"#utility.yul\":2702:2764   */\n      tag_270\n      jumpi\n        /* \"#utility.yul\":2760:2761   */\n      0x00\n        /* \"#utility.yul\":2757:2758   */\n      dup1\n        /* \"#utility.yul\":2750:2762   */\n      revert\n        /* \"#utility.yul\":2702:2764   */\n    tag_270:\n        /* \"#utility.yul\":2650:2770   */\n      pop\n      jump\t// out\n        /* \"#utility.yul\":2776:2913   */\n    tag_222:\n        /* \"#utility.yul\":2821:2826   */\n      0x00\n        /* \"#utility.yul\":2859:2865   */\n      dup2\n        /* \"#utility.yul\":2846:2866   */\n      calldataload\n        /* \"#utility.yul\":2837:2866   */\n      swap1\n      pop\n        /* \"#utility.yul\":2875:2907   */\n      tag_272\n        /* \"#utility.yul\":2901:2906   */\n      dup2\n        /* \"#utility.yul\":2875:2907   */\n      tag_221\n      jump\t// in\n    tag_272:\n        /* \"#utility.yul\":2776:2913   */\n      swap3\n      swap2\n      pop\n      pop\n      jump\t// out\n        /* \"#utility.yul\":2919:3571   */\n    tag_11:\n        /* \"#utility.yul\":2996:3002   */\n      0x00\n        /* \"#utility.yul\":3004:3010   */\n      dup1\n        /* \"#utility.yul\":3053:3055   */\n      0x40\n        /* \"#utility.yul\":3041:3050   */\n      dup4\n        /* \"#utility.yul\":3032:3039   */\n      dup6\n        /* \"#utility.yul\":3028:3051   */\n      sub\n        /* \"#utility.yul\":3024:3056   */\n      slt\n        /* \"#utility.yul\":3021:3140   */\n      iszero\n      tag_274\n      jumpi\n        /* \"#utility.yul\":3059:3138   */\n      tag_275\n      tag_208\n      jump\t// in\n    tag_275:\n        /* \"#utility.yul\":3021:3140   */\n    tag_274:\n        /* \"#utility.yul\":3207:3208   */\n      0x00\n        /* \"#utility.yul\":3196:3205   */\n      dup4\n        /* \"#utility.yul\":3192:3209   */\n      add\n        /* \"#utility.yul\":3179:3210   */\n      calldataload\n        /* \"#utility.yul\":3237:3255   */\n      0xffffffffffffffff\n        /* \"#utility.yul\":3229:3235   */\n      dup2\n        /* \"#utility.yul\":3226:3256   */\n      gt\n        /* \"#utility.yul\":3223:3340   */\n      iszero\n      tag_276\n      jumpi\n        /* \"#utility.yul\":3259:3338   */\n      tag_277\n      tag_209\n      jump\t// in\n    tag_277:\n        /* \"#utility.yul\":3223:3340   */\n    tag_276:\n        /* \"#utility.yul\":3364:3427   */\n      tag_278\n        /* \"#utility.yul\":3419:3426   */\n      dup6\n        /* \"#utility.yul\":3410:3416   */\n      dup3\n        /* \"#utility.yul\":3399:3408   */\n      dup7\n        /* \"#utility.yul\":3395:3417   */\n      add\n        /* \"#utility.yul\":3364:3427   */\n      tag_219\n      jump\t// in\n    tag_278:\n        /* \"#utility.yul\":3354:3427   */\n      swap3\n      pop\n        /* \"#utility.yul\":3150:3437   */\n      pop\n        /* \"#utility.yul\":3476:3478   */\n      0x20\n        /* \"#utility.yul\":3502:3554   */\n      tag_279\n        /* \"#utility.yul\":3546:3553   */\n      dup6\n        /* \"#utility.yul\":3537:3543   */\n      dup3\n        /* \"#utility.yul\":3526:3535   */\n      dup7\n        /* \"#utility.yul\":3522:3544   */\n      add\n        /* \"#utility.yul\":3502:3554   */\n      tag_222\n      jump\t// in\n    tag_279:\n        /* \"#utility.yul\":3492:3554   */\n      swap2\n      pop\n        /* \"#utility.yul\":3447:3564   */\n      pop\n        /* \"#utility.yul\":2919:3571   */\n      swap3\n      pop\n      swap3\n      swap1\n      pop\n      jump\t// out\n        /* \"#utility.yul\":3577:3904   */\n    tag_15:\n        /* \"#utility.yul\":3635:3641   */\n      0x00\n        /* \"#utility.yul\":3684:3686   */\n      0x20\n        /* \"#utility.yul\":3672:3681   */\n      dup3\n        /* \"#utility.yul\":3663:3670   */\n      dup5\n        /* \"#utility.yul\":3659:3682   */\n      sub\n        /* \"#utility.yul\":3655:3687   */\n      slt\n        /* \"#utility.yul\":3652:3771   */\n      iszero\n      tag_281\n      jumpi\n        /* \"#utility.yul\":3690:3769   */\n      tag_282\n      tag_208\n      jump\t// in\n    tag_282:\n        /* \"#utility.yul\":3652:3771   */\n    tag_281:\n        /* \"#utility.yul\":3810:3811   */\n      0x00\n        /* \"#utility.yul\":3835:3887   */\n      tag_283\n        /* \"#utility.yul\":3879:3886   */\n      dup5\n        /* \"#utility.yul\":3870:3876   */\n      dup3\n        /* \"#utility.yul\":3859:3868   */\n      dup6\n        /* \"#utility.yul\":3855:3877   */\n      add\n        /* \"#utility.yul\":3835:3887   */\n      tag_222\n      jump\t// in\n    tag_283:\n        /* \"#utility.yul\":3825:3887   */\n      swap2\n      pop\n        /* \"#utility.yul\":3781:3897   */\n      pop\n        /* \"#utility.yul\":3577:3904   */\n      swap3\n      swap2\n      pop\n      pop\n      jump\t// out\n        /* \"#utility.yul\":3910:4419   */\n    tag_19:\n        /* \"#utility.yul\":3979:3985   */\n      0x00\n        /* \"#utility.yul\":4028:4030   */\n      0x20\n        /* \"#utility.yul\":4016:4025   */\n      dup3\n        /* \"#utility.yul\":4007:4014   */\n      dup5\n        /* \"#utility.yul\":4003:4026   */\n      sub\n        /* \"#utility.yul\":3999:4031   */\n      slt\n        /* \"#utility.yul\":3996:4115   */\n      iszero\n      tag_285\n      jumpi\n        /* \"#utility.yul\":4034:4113   */\n      tag_286\n      tag_208\n      jump\t// in\n    tag_286:\n        /* \"#utility.yul\":3996:4115   */\n    tag_285:\n        /* \"#utility.yul\":4182:4183   */\n      0x00\n        /* \"#utility.yul\":4171:4180   */\n      dup3\n        /* \"#utility.yul\":4167:4184   */\n      add\n        /* \"#utility.yul\":4154:4185   */\n      calldataload\n        /* \"#utility.yul\":4212:4230   */\n      0xffffffffffffffff\n        /* \"#utility.yul\":4204:4210   */\n      dup2\n        /* \"#utility.yul\":4201:4231   */\n      gt\n        /* \"#utility.yul\":4198:4315   */\n      iszero\n      tag_287\n      jumpi\n        /* \"#utility.yul\":4234:4313   */\n      tag_288\n      tag_209\n      jump\t// in\n    tag_288:\n        /* \"#utility.yul\":4198:4315   */\n    tag_287:\n        /* \"#utility.yul\":4339:4402   */\n      tag_289\n        /* \"#utility.yul\":4394:4401   */\n      dup5\n        /* \"#utility.yul\":4385:4391   */\n      dup3\n        /* \"#utility.yul\":4374:4383   */\n      dup6\n        /* \"#utility.yul\":4370:4392   */\n      add\n        /* \"#utility.yul\":4339:4402   */\n      tag_219\n      jump\t// in\n    tag_289:\n        /* \"#utility.yul\":4329:4402   */\n      swap2\n      pop\n        /* \"#utility.yul\":4125:4412   */\n      pop\n        /* \"#utility.yul\":3910:4419   */\n      swap3\n      swap2\n      pop\n      pop\n      jump\t// out\n        /* \"#utility.yul\":4425:4540   */\n    tag_223:\n        /* \"#utility.yul\":4510:4533   */\n      tag_291\n        /* \"#utility.yul\":4527:4532   */\n      dup2\n        /* \"#utility.yul\":4510:4533   */\n      tag_220\n      jump\t// in\n    tag_291:\n        /* \"#utility.yul\":4505:4508   */\n      dup3\n        /* \"#utility.yul\":4498:4534   */\n      mstore\n        /* \"#utility.yul\":4425:4540   */\n      pop\n      pop\n      jump\t// out\n        /* \"#utility.yul\":4546:4764   */\n    tag_22:\n        /* \"#utility.yul\":4637:4641   */\n      0x00\n        /* \"#utility.yul\":4675:4677   */\n      0x20\n        /* \"#utility.yul\":4664:4673   */\n      dup3\n        /* \"#utility.yul\":4660:4678   */\n      add\n        /* \"#utility.yul\":4652:4678   */\n      swap1\n      pop\n        /* \"#utility.yul\":4688:4757   */\n      tag_293\n        /* \"#utility.yul\":4754:4755   */\n      0x00\n        /* \"#utility.yul\":4743:4752   */\n      dup4\n        /* \"#utility.yul\":4739:4756   */\n      add\n        /* \"#utility.yul\":4730:4736   */\n      dup5\n        /* \"#utility.yul\":4688:4757   */\n      tag_223\n      jump\t// in\n    tag_293:\n        /* \"#utility.yul\":4546:4764   */\n      swap3\n      swap2\n      pop\n      pop\n      jump\t// out\n        /* \"#utility.yul\":4770:4860   */\n    tag_224:\n        /* \"#utility.yul\":4804:4811   */\n      0x00\n        /* \"#utility.yul\":4847:4852   */\n      dup2\n        /* \"#utility.yul\":4840:4853   */\n      iszero\n        /* \"#utility.yul\":4833:4854   */\n      iszero\n        /* \"#utility.yul\":4822:4854   */\n      swap1\n      pop\n        /* \"#utility.yul\":4770:4860   */\n      swap2\n      swap1\n      pop\n      jump\t// out\n        /* \"#utility.yul\":4866:4982   */\n    tag_225:\n        /* \"#utility.yul\":4936:4957   */\n      tag_296\n        /* \"#utility.yul\":4951:4956   */\n      dup2\n        /* \"#utility.yul\":4936:4957   */\n      tag_224\n      jump\t// in\n    tag_296:\n        /* \"#utility.yul\":4929:4934   */\n      dup2\n        /* \"#utility.yul\":4926:4958   */\n      eq\n        /* \"#utility.yul\":4916:4976   */\n      tag_297\n      jumpi\n        /* \"#utility.yul\":4972:4973   */\n      0x00\n        /* \"#utility.yul\":4969:4970   */\n      dup1\n        /* \"#utility.yul\":4962:4974   */\n      revert\n        /* \"#utility.yul\":4916:4976   */\n    tag_297:\n        /* \"#utility.yul\":4866:4982   */\n      pop\n      jump\t// out\n        /* \"#utility.yul\":4988:5121   */\n    tag_226:\n        /* \"#utility.yul\":5031:5036   */\n      0x00\n        /* \"#utility.yul\":5069:5075   */\n      dup2\n        /* \"#utility.yul\":5056:5076   */\n      calldataload\n        /* \"#utility.yul\":5047:5076   */\n      swap1\n      pop\n        /* \"#utility.yul\":5085:5115   */\n      tag_299\n        /* \"#utility.yul\":5109:5114   */\n      dup2\n        /* \"#utility.yul\":5085:5115   */\n      tag_225\n      jump\t// in\n    tag_299:\n        /* \"#utility.yul\":4988:5121   */\n      swap3\n      swap2\n      pop\n      pop\n      jump\t// out\n        /* \"#utility.yul\":5127:5918   */\n    tag_28:\n        /* \"#utility.yul\":5210:5216   */\n      0x00\n        /* \"#utility.yul\":5218:5224   */\n      dup1\n        /* \"#utility.yul\":5226:5232   */\n      0x00\n        /* \"#utility.yul\":5275:5277   */\n      0x60\n        /* \"#utility.yul\":5263:5272   */\n      dup5\n        /* \"#utility.yul\":5254:5261   */\n      dup7\n        /* \"#utility.yul\":5250:5273   */\n      sub\n        /* \"#utility.yul\":5246:5278   */\n      slt\n        /* \"#utility.yul\":5243:5362   */\n      iszero\n      tag_301\n      jumpi\n        /* \"#utility.yul\":5281:5360   */\n      tag_302\n      tag_208\n      jump\t// in\n    tag_302:\n        /* \"#utility.yul\":5243:5362   */\n    tag_301:\n        /* \"#utility.yul\":5429:5430   */\n      0x00\n        /* \"#utility.yul\":5418:5427   */\n      dup5\n        /* \"#utility.yul\":5414:5431   */\n      add\n        /* \"#utility.yul\":5401:5432   */\n      calldataload\n        /* \"#utility.yul\":5459:5477   */\n      0xffffffffffffffff\n        /* \"#utility.yul\":5451:5457   */\n      dup2\n        /* \"#utility.yul\":5448:5478   */\n      gt\n        /* \"#utility.yul\":5445:5562   */\n      iszero\n      tag_303\n      jumpi\n        /* \"#utility.yul\":5481:5560   */\n      tag_304\n      tag_209\n      jump\t// in\n    tag_304:\n        /* \"#utility.yul\":5445:5562   */\n    tag_303:\n        /* \"#utility.yul\":5586:5649   */\n      tag_305\n        /* \"#utility.yul\":5641:5648   */\n      dup7\n        /* \"#utility.yul\":5632:5638   */\n      dup3\n        /* \"#utility.yul\":5621:5630   */\n      dup8\n        /* \"#utility.yul\":5617:5639   */\n      add\n        /* \"#utility.yul\":5586:5649   */\n      tag_219\n      jump\t// in\n    tag_305:\n        /* \"#utility.yul\":5576:5649   */\n      swap4\n      pop\n        /* \"#utility.yul\":5372:5659   */\n      pop\n        /* \"#utility.yul\":5698:5700   */\n      0x20\n        /* \"#utility.yul\":5724:5776   */\n      tag_306\n        /* \"#utility.yul\":5768:5775   */\n      dup7\n        /* \"#utility.yul\":5759:5765   */\n      dup3\n        /* \"#utility.yul\":5748:5757   */\n      dup8\n        /* \"#utility.yul\":5744:5766   */\n      add\n        /* \"#utility.yul\":5724:5776   */\n      tag_222\n      jump\t// in\n    tag_306:\n        /* \"#utility.yul\":5714:5776   */\n      swap3\n      pop\n        /* \"#utility.yul\":5669:5786   */\n      pop\n        /* \"#utility.yul\":5825:5827   */\n      0x40\n        /* \"#utility.yul\":5851:5901   */\n      tag_307\n        /* \"#utility.yul\":5893:5900   */\n      dup7\n        /* \"#utility.yul\":5884:5890   */\n      dup3\n        /* \"#utility.yul\":5873:5882   */\n      dup8\n        /* \"#utility.yul\":5869:5891   */\n      add\n        /* \"#utility.yul\":5851:5901   */\n      tag_226\n      jump\t// in\n    tag_307:\n        /* \"#utility.yul\":5841:5901   */\n      swap2\n      pop\n        /* \"#utility.yul\":5796:5911   */\n      pop\n        /* \"#utility.yul\":5127:5918   */\n      swap3\n      pop\n      swap3\n      pop\n      swap3\n      jump\t// out\n        /* \"#utility.yul\":5924:6023   */\n    tag_227:\n        /* \"#utility.yul\":5976:5982   */\n      0x00\n        /* \"#utility.yul\":6010:6015   */\n      dup2\n        /* \"#utility.yul\":6004:6016   */\n      mload\n        /* \"#utility.yul\":5994:6016   */\n      swap1\n      pop\n        /* \"#utility.yul\":5924:6023   */\n      swap2\n      swap1\n      pop\n      jump\t// out\n        /* \"#utility.yul\":6029:6177   */\n    tag_228:\n        /* \"#utility.yul\":6131:6142   */\n      0x00\n        /* \"#utility.yul\":6168:6171   */\n      dup2\n        /* \"#utility.yul\":6153:6171   */\n      swap1\n      pop\n        /* \"#utility.yul\":6029:6177   */\n      swap3\n      swap2\n      pop\n      pop\n      jump\t// out\n        /* \"#utility.yul\":6183:6322   */\n    tag_229:\n        /* \"#utility.yul\":6272:6278   */\n      dup3\n        /* \"#utility.yul\":6267:6270   */\n      dup2\n        /* \"#utility.yul\":6262:6265   */\n      dup4\n        /* \"#utility.yul\":6256:6279   */\n      mcopy\n        /* \"#utility.yul\":6313:6314   */\n      0x00\n        /* \"#utility.yul\":6304:6310   */\n      dup4\n        /* \"#utility.yul\":6299:6302   */\n      dup4\n        /* \"#utility.yul\":6295:6311   */\n      add\n        /* \"#utility.yul\":6288:6315   */\n      mstore\n        /* \"#utility.yul\":6183:6322   */\n      pop\n      pop\n      pop\n      jump\t// out\n        /* \"#utility.yul\":6328:6718   */\n    tag_230:\n        /* \"#utility.yul\":6434:6437   */\n      0x00\n        /* \"#utility.yul\":6462:6501   */\n      tag_312\n        /* \"#utility.yul\":6495:6500   */\n      dup3\n        /* \"#utility.yul\":6462:6501   */\n      tag_227\n      jump\t// in\n    tag_312:\n        /* \"#utility.yul\":6517:6606   */\n      tag_313\n        /* \"#utility.yul\":6599:6605   */\n      dup2\n        /* \"#utility.yul\":6594:6597   */\n      dup6\n        /* \"#utility.yul\":6517:6606   */\n      tag_228\n      jump\t// in\n    tag_313:\n        /* \"#utility.yul\":6510:6606   */\n      swap4\n      pop\n        /* \"#utility.yul\":6615:6680   */\n      tag_314\n        /* \"#utility.yul\":6673:6679   */\n      dup2\n        /* \"#utility.yul\":6668:6671   */\n      dup6\n        /* \"#utility.yul\":6661:6665   */\n      0x20\n        /* \"#utility.yul\":6654:6659   */\n      dup7\n        /* \"#utility.yul\":6650:6666   */\n      add\n        /* \"#utility.yul\":6615:6680   */\n      tag_229\n      jump\t// in\n    tag_314:\n        /* \"#utility.yul\":6705:6711   */\n      dup1\n        /* \"#utility.yul\":6700:6703   */\n      dup5\n        /* \"#utility.yul\":6696:6712   */\n      add\n        /* \"#utility.yul\":6689:6712   */\n      swap2\n      pop\n        /* \"#utility.yul\":6438:6718   */\n      pop\n        /* \"#utility.yul\":6328:6718   */\n      swap3\n      swap2\n      pop\n      pop\n      jump\t// out\n        /* \"#utility.yul\":6724:6999   */\n    tag_36:\n        /* \"#utility.yul\":6856:6859   */\n      0x00\n        /* \"#utility.yul\":6878:6973   */\n      tag_316\n        /* \"#utility.yul\":6969:6972   */\n      dup3\n        /* \"#utility.yul\":6960:6966   */\n      dup5\n        /* \"#utility.yul\":6878:6973   */\n      tag_230\n      jump\t// in\n    tag_316:\n        /* \"#utility.yul\":6871:6973   */\n      swap2\n      pop\n        /* \"#utility.yul\":6990:6993   */\n      dup2\n        /* \"#utility.yul\":6983:6993   */\n      swap1\n      pop\n        /* \"#utility.yul\":6724:6999   */\n      swap3\n      swap2\n      pop\n      pop\n      jump\t// out\n        /* \"#utility.yul\":7005:7174   */\n    tag_231:\n        /* \"#utility.yul\":7089:7100   */\n      0x00\n        /* \"#utility.yul\":7123:7129   */\n      dup3\n        /* \"#utility.yul\":7118:7121   */\n      dup3\n        /* \"#utility.yul\":7111:7130   */\n      mstore\n        /* \"#utility.yul\":7163:7167   */\n      0x20\n        /* \"#utility.yul\":7158:7161   */\n      dup3\n        /* \"#utility.yul\":7154:7168   */\n      add\n        /* \"#utility.yul\":7139:7168   */\n      swap1\n      pop\n        /* \"#utility.yul\":7005:7174   */\n      swap3\n      swap2\n      pop\n      pop\n      jump\t// out\n        /* \"#utility.yul\":7180:7557   */\n    tag_232:\n        /* \"#utility.yul\":7268:7271   */\n      0x00\n        /* \"#utility.yul\":7296:7335   */\n      tag_319\n        /* \"#utility.yul\":7329:7334   */\n      dup3\n        /* \"#utility.yul\":7296:7335   */\n      tag_227\n      jump\t// in\n    tag_319:\n        /* \"#utility.yul\":7351:7422   */\n      tag_320\n        /* \"#utility.yul\":7415:7421   */\n      dup2\n        /* \"#utility.yul\":7410:7413   */\n      dup6\n        /* \"#utility.yul\":7351:7422   */\n      tag_231\n      jump\t// in\n    tag_320:\n        /* \"#utility.yul\":7344:7422   */\n      swap4\n      pop\n        /* \"#utility.yul\":7431:7496   */\n      tag_321\n        /* \"#utility.yul\":7489:7495   */\n      dup2\n        /* \"#utility.yul\":7484:7487   */\n      dup6\n        /* \"#utility.yul\":7477:7481   */\n      0x20\n        /* \"#utility.yul\":7470:7475   */\n      dup7\n        /* \"#utility.yul\":7466:7482   */\n      add\n        /* \"#utility.yul\":7431:7496   */\n      tag_229\n      jump\t// in\n    tag_321:\n        /* \"#utility.yul\":7521:7550   */\n      tag_322\n        /* \"#utility.yul\":7543:7549   */\n      dup2\n        /* \"#utility.yul\":7521:7550   */\n      tag_212\n      jump\t// in\n    tag_322:\n        /* \"#utility.yul\":7516:7519   */\n      dup5\n        /* \"#utility.yul\":7512:7551   */\n      add\n        /* \"#utility.yul\":7505:7551   */\n      swap2\n      pop\n        /* \"#utility.yul\":7272:7557   */\n      pop\n        /* \"#utility.yul\":7180:7557   */\n      swap3\n      swap2\n      pop\n      pop\n      jump\t// out\n        /* \"#utility.yul\":7563:7982   */\n    tag_38:\n        /* \"#utility.yul\":7702:7706   */\n      0x00\n        /* \"#utility.yul\":7740:7742   */\n      0x40\n        /* \"#utility.yul\":7729:7738   */\n      dup3\n        /* \"#utility.yul\":7725:7743   */\n      add\n        /* \"#utility.yul\":7717:7743   */\n      swap1\n      pop\n        /* \"#utility.yul\":7789:7798   */\n      dup2\n        /* \"#utility.yul\":7783:7787   */\n      dup2\n        /* \"#utility.yul\":7779:7799   */\n      sub\n        /* \"#utility.yul\":7775:7776   */\n      0x00\n        /* \"#utility.yul\":7764:7773   */\n      dup4\n        /* \"#utility.yul\":7760:7777   */\n      add\n        /* \"#utility.yul\":7753:7800   */\n      mstore\n        /* \"#utility.yul\":7817:7895   */\n      tag_324\n        /* \"#utility.yul\":7890:7894   */\n      dup2\n        /* \"#utility.yul\":7881:7887   */\n      dup6\n        /* \"#utility.yul\":7817:7895   */\n      tag_232\n      jump\t// in\n    tag_324:\n        /* \"#utility.yul\":7809:7895   */\n      swap1\n      pop\n        /* \"#utility.yul\":7905:7975   */\n      tag_325\n        /* \"#utility.yul\":7971:7973   */\n      0x20\n        /* \"#utility.yul\":7960:7969   */\n      dup4\n        /* \"#utility.yul\":7956:7974   */\n      add\n        /* \"#utility.yul\":7947:7953   */\n      dup5\n        /* \"#utility.yul\":7905:7975   */\n      tag_223\n      jump\t// in\n    tag_325:\n        /* \"#utility.yul\":7563:7982   */\n      swap4\n      swap3\n      pop\n      pop\n      pop\n      jump\t// out\n        /* \"#utility.yul\":7988:8154   */\n    tag_233:\n        /* \"#utility.yul\":8128:8146   */\n      0x496e76616c6964207573657220456c6f00000000000000000000000000000000\n        /* \"#utility.yul\":8124:8125   */\n      0x00\n        /* \"#utility.yul\":8116:8122   */\n      dup3\n        /* \"#utility.yul\":8112:8126   */\n      add\n        /* \"#utility.yul\":8105:8147   */\n      mstore\n        /* \"#utility.yul\":7988:8154   */\n      pop\n      jump\t// out\n        /* \"#utility.yul\":8160:8526   */\n    tag_234:\n        /* \"#utility.yul\":8302:8305   */\n      0x00\n        /* \"#utility.yul\":8323:8390   */\n      tag_328\n        /* \"#utility.yul\":8387:8389   */\n      0x10\n        /* \"#utility.yul\":8382:8385   */\n      dup4\n        /* \"#utility.yul\":8323:8390   */\n      tag_231\n      jump\t// in\n    tag_328:\n        /* \"#utility.yul\":8316:8390   */\n      swap2\n      pop\n        /* \"#utility.yul\":8399:8492   */\n      tag_329\n        /* \"#utility.yul\":8488:8491   */\n      dup3\n        /* \"#utility.yul\":8399:8492   */\n      tag_233\n      jump\t// in\n    tag_329:\n        /* \"#utility.yul\":8517:8519   */\n      0x20\n        /* \"#utility.yul\":8512:8515   */\n      dup3\n        /* \"#utility.yul\":8508:8520   */\n      add\n        /* \"#utility.yul\":8501:8520   */\n      swap1\n      pop\n        /* \"#utility.yul\":8160:8526   */\n      swap2\n      swap1\n      pop\n      jump\t// out\n        /* \"#utility.yul\":8532:8951   */\n    tag_51:\n        /* \"#utility.yul\":8698:8702   */\n      0x00\n        /* \"#utility.yul\":8736:8738   */\n      0x20\n        /* \"#utility.yul\":8725:8734   */\n      dup3\n        /* \"#utility.yul\":8721:8739   */\n      add\n        /* \"#utility.yul\":8713:8739   */\n      swap1\n      pop\n        /* \"#utility.yul\":8785:8794   */\n      dup2\n        /* \"#utility.yul\":8779:8783   */\n      dup2\n        /* \"#utility.yul\":8775:8795   */\n      sub\n        /* \"#utility.yul\":8771:8772   */\n      0x00\n        /* \"#utility.yul\":8760:8769   */\n      dup4\n        /* \"#utility.yul\":8756:8773   */\n      add\n        /* \"#utility.yul\":8749:8796   */\n      mstore\n        /* \"#utility.yul\":8813:8944   */\n      tag_331\n        /* \"#utility.yul\":8939:8943   */\n      dup2\n        /* \"#utility.yul\":8813:8944   */\n      tag_234\n      jump\t// in\n    tag_331:\n        /* \"#utility.yul\":8805:8944   */\n      swap1\n      pop\n        /* \"#utility.yul\":8532:8951   */\n      swap2\n      swap1\n      pop\n      jump\t// out\n        /* \"#utility.yul\":8957:9047   */\n    tag_235:\n        /* \"#utility.yul\":8992:8999   */\n      0x00\n        /* \"#utility.yul\":9035:9040   */\n      dup2\n        /* \"#utility.yul\":9032:9033   */\n      0x01\n        /* \"#utility.yul\":9021:9041   */\n      signextend\n        /* \"#utility.yul\":9010:9041   */\n      swap1\n      pop\n        /* \"#utility.yul\":8957:9047   */\n      swap2\n      swap1\n      pop\n      jump\t// out\n        /* \"#utility.yul\":9053:9233   */\n    tag_236:\n        /* \"#utility.yul\":9101:9178   */\n      0x4e487b7100000000000000000000000000000000000000000000000000000000\n        /* \"#utility.yul\":9098:9099   */\n      0x00\n        /* \"#utility.yul\":9091:9179   */\n      mstore\n        /* \"#utility.yul\":9198:9202   */\n      0x11\n        /* \"#utility.yul\":9195:9196   */\n      0x04\n        /* \"#utility.yul\":9188:9203   */\n      mstore\n        /* \"#utility.yul\":9222:9226   */\n      0x24\n        /* \"#utility.yul\":9219:9220   */\n      0x00\n        /* \"#utility.yul\":9212:9227   */\n      revert\n        /* \"#utility.yul\":9239:9550   */\n    tag_53:\n        /* \"#utility.yul\":9277:9281   */\n      0x00\n        /* \"#utility.yul\":9297:9315   */\n      tag_335\n        /* \"#utility.yul\":9313:9314   */\n      dup3\n        /* \"#utility.yul\":9297:9315   */\n      tag_235\n      jump\t// in\n    tag_335:\n        /* \"#utility.yul\":9292:9315   */\n      swap2\n      pop\n        /* \"#utility.yul\":9329:9347   */\n      tag_336\n        /* \"#utility.yul\":9345:9346   */\n      dup4\n        /* \"#utility.yul\":9329:9347   */\n      tag_235\n      jump\t// in\n    tag_336:\n        /* \"#utility.yul\":9324:9347   */\n      swap3\n      pop\n        /* \"#utility.yul\":9371:9372   */\n      dup3\n        /* \"#utility.yul\":9368:9369   */\n      dup3\n        /* \"#utility.yul\":9364:9373   */\n      sub\n        /* \"#utility.yul\":9356:9373   */\n      swap1\n      pop\n        /* \"#utility.yul\":9503:9509   */\n      0x7fff\n        /* \"#utility.yul\":9497:9501   */\n      dup2\n        /* \"#utility.yul\":9493:9510   */\n      sgt\n        /* \"#utility.yul\":9412:9478   */\n      0xffffffffffffffffffffffffffffffffffffffffffffffffffffffffffff8000\n        /* \"#utility.yul\":9406:9410   */\n      dup3\n        /* \"#utility.yul\":9402:9479   */\n      slt\n        /* \"#utility.yul\":9386:9520   */\n      or\n        /* \"#utility.yul\":9383:9543   */\n      iszero\n      tag_337\n      jumpi\n        /* \"#utility.yul\":9523:9541   */\n      tag_338\n      tag_236\n      jump\t// in\n    tag_338:\n        /* \"#utility.yul\":9383:9543   */\n    tag_337:\n        /* \"#utility.yul\":9239:9550   */\n      swap3\n      swap2\n      pop\n      pop\n      jump\t// out\n        /* \"#utility.yul\":9556:9863   */\n    tag_70:\n        /* \"#utility.yul\":9594:9597   */\n      0x00\n        /* \"#utility.yul\":9613:9631   */\n      tag_340\n        /* \"#utility.yul\":9629:9630   */\n      dup3\n        /* \"#utility.yul\":9613:9631   */\n      tag_235\n      jump\t// in\n    tag_340:\n        /* \"#utility.yul\":9608:9631   */\n      swap2\n      pop\n        /* \"#utility.yul\":9645:9663   */\n      tag_341\n        /* \"#utility.yul\":9661:9662   */\n      dup4\n        /* \"#utility.yul\":9645:9663   */\n      tag_235\n      jump\t// in\n    tag_341:\n        /* \"#utility.yul\":9640:9663   */\n      swap3\n      pop\n        /* \"#utility.yul\":9686:9687   */\n      dup3\n        /* \"#utility.yul\":9683:9684   */\n      dup3\n        /* \"#utility.yul\":9679:9688   */\n      add\n        /* \"#utility.yul\":9672:9688   */\n      swap1\n      pop\n        /* \"#utility.yul\":9756:9822   */\n      0xffffffffffffffffffffffffffffffffffffffffffffffffffffffffffff8000\n        /* \"#utility.yul\":9751:9754   */\n      dup2\n        /* \"#utility.yul\":9747:9823   */\n      slt\n        /* \"#utility.yul\":9726:9732   */\n      0x7fff\n        /* \"#utility.yul\":9721:9724   */\n      dup3\n        /* \"#utility.yul\":9717:9733   */\n      sgt\n        /* \"#utility.yul\":9701:9833   */\n      or\n        /* \"#utility.yul\":9698:9856   */\n      iszero\n      tag_342\n      jumpi\n        /* \"#utility.yul\":9836:9854   */\n      tag_343\n      tag_236\n      jump\t// in\n    tag_343:\n        /* \"#utility.yul\":9698:9856   */\n    tag_342:\n        /* \"#utility.yul\":9556:9863   */\n      swap3\n      swap2\n      pop\n      pop\n      jump\t// out\n        /* \"#utility.yul\":9869:10049   */\n    tag_114:\n        /* \"#utility.yul\":9917:9994   */\n      0x4e487b7100000000000000000000000000000000000000000000000000000000\n        /* \"#utility.yul\":9914:9915   */\n      0x00\n        /* \"#utility.yul\":9907:9995   */\n      mstore\n        /* \"#utility.yul\":10014:10018   */\n      0x12\n        /* \"#utility.yul\":10011:10012   */\n      0x04\n        /* \"#utility.yul\":10004:10019   */\n      mstore\n        /* \"#utility.yul\":10038:10042   */\n      0x24\n        /* \"#utility.yul\":10035:10036   */\n      0x00\n        /* \"#utility.yul\":10028:10043   */\n      revert\n\n    auxdata: 0xa264697066735822122017b444da3c6e2c3d4d53099cd5e32e6445d4914eab5774b9b2a2f7d4e6287a7864736f6c634300081a0033\n}\n",
				"bytecode": {
					"linkReferences": {},
					"object": "6080604052348015600e575f80fd5b50604051611bb1380380611bb18339818101604052810190602e91906085565b8060015f6101000a81548161ffff021916908361ffff1602179055505060ab565b5f80fd5b5f61ffff82169050919050565b6067816053565b81146070575f80fd5b50565b5f81519050607f816060565b92915050565b5f602082840312156097576096604f565b5b5f60a2848285016073565b91505092915050565b611af9806100b85f395ff3fe608060405234801561000f575f80fd5b5060043610610060575f3560e01c80631f5bc0cf146100645780632a641fdb1461008057806346e7a1dc1461009c57806377519b73146100cc578063950b409b146100ea578063fdf3f74d14610106575b5f80fd5b61007e600480360381019061007991906116d0565b610136565b005b61009a6004803603810190610095919061172a565b6101aa565b005b6100b660048036038101906100b19190611755565b610200565b6040516100c391906117ab565b60405180910390f35b6100d4610233565b6040516100e191906117ab565b60405180910390f35b61010460048036038101906100ff91906117f9565b610246565b005b610120600480360381019061011b9190611755565b610492565b60405161012d91906117ab565b60405180910390f35b805f8360405161014691906118b7565b90815260200160405180910390205f6101000a81548161ffff021916908361ffff1602179055507f60823246bd9724a87f737174a65e2a1c68a909f877c4005413c10764f781b8f1828260405161019e929190611915565b60405180910390a15050565b8060015f6101000a81548161ffff021916908361ffff1602179055507f02c29147f9dbc311a4ccf9949488a20725c70e7f7ef01e2f436c86cdabc2d2d8816040516101f591906117ab565b60405180910390a150565b5f808260405161021091906118b7565b90815260200160405180910390205f9054906101000a900461ffff169050919050565b60015f9054906101000a900461ffff1681565b5f808460405161025691906118b7565b90815260200160405180910390205f9054906101000a900461ffff1661ffff16036102f5576103e85f8460405161028d91906118b7565b90815260200160405180910390205f6101000a81548161ffff021916908361ffff1602179055505f6103e890507f60823246bd9724a87f737174a65e2a1c68a909f877c4005413c10764f781b8f184826040516102eb929190611915565b60405180910390a1505b5f808460405161030591906118b7565b90815260200160405180910390205f9054906101000a900461ffff1690506103e88161ffff16111561036c576040517f08c379a00000000000000000000000000000000000000000000000000000000081526004016103639061198d565b60405180910390fd5b5f838261037991906119e4565b90505f610385826104c7565b90505f8461039c576103976001610555565b6103a6565b6103a55f610555565b5b90505f6103df6103da6103cb60015f9054906101000a900461ffff1661ffff166105a2565b6103d585876105c3565b610628565b610691565b90505f81866103ee9190611a3d565b90506103e88160010b1315610407576103e89050610417565b5f8160010b1215610416575f90505b5b805f8a60405161042791906118b7565b90815260200160405180910390205f6101000a81548161ffff021916908361ffff1602179055507f60823246bd9724a87f737174a65e2a1c68a909f877c4005413c10764f781b8f1898260405161047f929190611915565b60405180910390a1505050505050505050565b5f818051602081018201805184825260208301602085012081835280955050505050505f915054906101000a900461ffff1681565b5f806104d58360010b610555565b90505f6104ea6104e5600a6105a2565b6106a1565b90505f61051261050d6104fd8585610628565b610508610190610555565b6106d9565b61075e565b90505f61051e8261079a565b90505f61054661052e6001610555565b61054161053b6001610555565b85610810565b6106d9565b90508095505050505050919050565b5f7fffffffffffffffffffffffffffffffffffffffffffffffff8000000000000000821215801561058e5750677fffffffffffffff8213155b610596575f80fd5b604082901b9050919050565b5f677fffffffffffffff8211156105b7575f80fd5b604082901b9050919050565b5f8082600f0b84600f0b0390507fffffffffffffffffffffffffffffffff80000000000000000000000000000000600f0b811215801561061657506f7fffffffffffffffffffffffffffffff600f0b8113155b61061e575f80fd5b8091505092915050565b5f80604083600f0b85600f0b02901d90507fffffffffffffffffffffffffffffffff80000000000000000000000000000000600f0b811215801561067f57506f7fffffffffffffffffffffffffffffff600f0b8113155b610687575f80fd5b8091505092915050565b5f604082600f0b901d9050919050565b5f8082600f0b136106b0575f80fd5b60806fb17217f7d1cf79abc9e3b39803f2f6af6106cc84610875565b600f0b02901c9050919050565b5f8082600f0b036106e8575f80fd5b5f82600f0b604085600f0b901b8161070357610702611a96565b5b0590507fffffffffffffffffffffffffffffffff80000000000000000000000000000000600f0b811215801561074c57506f7fffffffffffffffffffffffffffffff600f0b8113155b610754575f80fd5b8091505092915050565b5f7fffffffffffffffffffffffffffffffff80000000000000000000000000000000600f0b82600f0b03610790575f80fd5b815f039050919050565b5f6840000000000000000082600f0b126107b2575f80fd5b7fffffffffffffffffffffffffffffffffffffffffffffffc0000000000000000082600f0b12156107e5575f905061080b565b6108086080700171547652b82fe1777d0ffda0d23a7d1284600f0b02901d610991565b90505b919050565b5f8082600f0b84600f0b0190507fffffffffffffffffffffffffffffffff80000000000000000000000000000000600f0b811215801561086357506f7fffffffffffffffffffffffffffffff600f0b8113155b61086b575f80fd5b8091505092915050565b5f8082600f0b13610884575f80fd5b5f8083600f0b90506801000000000000000081126108aa57604081901d90506040820191505b64010000000081126108c457602081901d90506020820191505b6201000081126108dc57601081901d90506010820191505b61010081126108f357600881901d90506008820191505b6010811261090957600481901d90506004820191505b6004811261091f57600281901d90506002820191505b6002811261092e576001820191505b5f6040808403901b90505f83607f0386600f0b901b90505f67800000000000000090505b5f8113156109845781820291505f60ff83901c905080607f0183901c92508082028401935050600181901d9050610952565b5081945050505050919050565b5f6840000000000000000082600f0b126109a9575f80fd5b7fffffffffffffffffffffffffffffffffffffffffffffffc0000000000000000082600f0b12156109dc575f9050611547565b5f6f8000000000000000000000000000000090505f6780000000000000008416600f0b1315610a2057608070016a09e667f3bcc908b2fb1366ea957d3e8202901c90505b5f6740000000000000008416600f0b1315610a505760807001306fe0a31b7152de8d5a46305c85edec8202901c90505b5f6720000000000000008416600f0b1315610a805760807001172b83c7d517adcdf7c8c50eb14a791f8202901c90505b5f6710000000000000008416600f0b1315610ab057608070010b5586cf9890f6298b92b71842a983638202901c90505b5f6708000000000000008416600f0b1315610ae05760807001059b0d31585743ae7c548eb68ca417fd8202901c90505b5f6704000000000000008416600f0b1315610b10576080700102c9a3e778060ee6f7caca4f7a29bde88202901c90505b5f6702000000000000008416600f0b1315610b4057608070010163da9fb33356d84a66ae336dcdfa3f8202901c90505b5f6701000000000000008416600f0b1315610b70576080700100b1afa5abcbed6129ab13ec11dc95438202901c90505b5f66800000000000008416600f0b1315610b9f57608070010058c86da1c09ea1ff19d294cf2f679b8202901c90505b5f66400000000000008416600f0b1315610bce5760807001002c605e2e8cec506d21bfc89a23a00f8202901c90505b5f66200000000000008416600f0b1315610bfd576080700100162f3904051fa128bca9c55c31e5df8202901c90505b5f66100000000000008416600f0b1315610c2c5760807001000b175effdc76ba38e31671ca9397258202901c90505b5f66080000000000008416600f0b1315610c5b576080700100058ba01fb9f96d6cacd4b180917c3d8202901c90505b5f66040000000000008416600f0b1315610c8a57608070010002c5cc37da9491d0985c348c68e7b38202901c90505b5f66020000000000008416600f0b1315610cb95760807001000162e525ee054754457d59952920268202901c90505b5f66010000000000008416600f0b1315610ce857608070010000b17255775c040618bf4a4ade83fc8202901c90505b5f658000000000008416600f0b1315610d165760807001000058b91b5bc9ae2eed81e9b7d4cfab8202901c90505b5f654000000000008416600f0b1315610d44576080700100002c5c89d5ec6ca4d7c8acc017b7c98202901c90505b5f652000000000008416600f0b1315610d7257608070010000162e43f4f831060e02d839a9d16d8202901c90505b5f651000000000008416600f0b1315610da0576080700100000b1721bcfc99d9f890ea069117638202901c90505b5f650800000000008416600f0b1315610dce57608070010000058b90cf1e6d97f9ca14dbcc16288202901c90505b5f650400000000008416600f0b1315610dfc5760807001000002c5c863b73f016468f6bac5ca2b8202901c90505b5f650200000000008416600f0b1315610e2a576080700100000162e430e5a18f6119e3c02282a58202901c90505b5f650100000000008416600f0b1315610e585760807001000000b1721835514b86e6d96efd1bfe8202901c90505b5f6480000000008416600f0b1315610e85576080700100000058b90c0b48c6be5df846c5b2ef8202901c90505b5f6440000000008416600f0b1315610eb257608070010000002c5c8601cc6b9e94213c72737a8202901c90505b5f6420000000008416600f0b1315610edf5760807001000000162e42fff037df38aa2b219f068202901c90505b5f6410000000008416600f0b1315610f0c57608070010000000b17217fba9c739aa5819f44f98202901c90505b5f6408000000008416600f0b1315610f395760807001000000058b90bfcdee5acd3c1cedc8238202901c90505b5f6404000000008416600f0b1315610f66576080700100000002c5c85fe31f35a6a30da1be508202901c90505b5f6402000000008416600f0b1315610f9357608070010000000162e42ff0999ce3541b9fffcf8202901c90505b5f6401000000008416600f0b1315610fc0576080700100000000b17217f80f4ef5aadda455548202901c90505b5f63800000008416600f0b1315610fec57608070010000000058b90bfbf8479bd5a81b51ad8202901c90505b5f63400000008416600f0b13156110185760807001000000002c5c85fdf84bd62ae30a74cc8202901c90505b5f63200000008416600f0b1315611044576080700100000000162e42fefb2fed257559bdaa8202901c90505b5f63100000008416600f0b13156110705760807001000000000b17217f7d5a7716bba4a9ae8202901c90505b5f63080000008416600f0b131561109c576080700100000000058b90bfbe9ddbac5e109cce8202901c90505b5f63040000008416600f0b13156110c857608070010000000002c5c85fdf4b15de6f17eb0d8202901c90505b5f63020000008416600f0b13156110f45760807001000000000162e42fefa494f1478fde058202901c90505b5f63010000008416600f0b131561112057608070010000000000b17217f7d20cf927c8e94c8202901c90505b5f628000008416600f0b131561114b5760807001000000000058b90bfbe8f71cb4e4b33d8202901c90505b5f624000008416600f0b1315611176576080700100000000002c5c85fdf477b662b269458202901c90505b5f622000008416600f0b13156111a157608070010000000000162e42fefa3ae53369388c8202901c90505b5f621000008416600f0b13156111cc576080700100000000000b17217f7d1d351a389d408202901c90505b5f620800008416600f0b13156111f757608070010000000000058b90bfbe8e8b2d3d4ede8202901c90505b5f620400008416600f0b13156112225760807001000000000002c5c85fdf4741bea6e77e8202901c90505b5f620200008416600f0b131561124d576080700100000000000162e42fefa39fe95583c28202901c90505b5f620100008416600f0b13156112785760807001000000000000b17217f7d1cfb72b45e18202901c90505b5f6180008416600f0b13156112a2576080700100000000000058b90bfbe8e7cc35c3f08202901c90505b5f6140008416600f0b13156112cc57608070010000000000002c5c85fdf473e242ea388202901c90505b5f6120008416600f0b13156112f65760807001000000000000162e42fefa39f02b772c8202901c90505b5f6110008416600f0b131561132057608070010000000000000b17217f7d1cf7d83c1a8202901c90505b5f6108008416600f0b131561134a5760807001000000000000058b90bfbe8e7bdcbe2e8202901c90505b5f6104008416600f0b1315611374576080700100000000000002c5c85fdf473dea871f8202901c90505b5f6102008416600f0b131561139e57608070010000000000000162e42fefa39ef44d918202901c90505b5f6101008416600f0b13156113c8576080700100000000000000b17217f7d1cf79e9498202901c90505b5f60808416600f0b13156113f157608070010000000000000058b90bfbe8e7bce5448202901c90505b5f60408416600f0b131561141a5760807001000000000000002c5c85fdf473de6eca8202901c90505b5f60208416600f0b1315611443576080700100000000000000162e42fefa39ef366f8202901c90505b5f60108416600f0b131561146c5760807001000000000000000b17217f7d1cf79afa8202901c90505b5f60088416600f0b1315611495576080700100000000000000058b90bfbe8e7bcd6d8202901c90505b5f60048416600f0b13156114be57608070010000000000000002c5c85fdf473de6b28202901c90505b5f60028416600f0b13156114e75760807001000000000000000162e42fefa39ef3588202901c90505b5f60018416600f0b131561151057608070010000000000000000b17217f7d1cf79ab8202901c90505b604083600f0b901d603f03600f0b81901c90506f7fffffffffffffffffffffffffffffff600f0b811115611542575f80fd5b809150505b919050565b5f604051905090565b5f80fd5b5f80fd5b5f80fd5b5f80fd5b5f601f19601f8301169050919050565b7f4e487b71000000000000000000000000000000000000000000000000000000005f52604160045260245ffd5b6115ab82611565565b810181811067ffffffffffffffff821117156115ca576115c9611575565b5b80604052505050565b5f6115dc61154c565b90506115e882826115a2565b919050565b5f67ffffffffffffffff82111561160757611606611575565b5b61161082611565565b9050602081019050919050565b828183375f83830152505050565b5f61163d611638846115ed565b6115d3565b90508281526020810184848401111561165957611658611561565b5b61166484828561161d565b509392505050565b5f82601f8301126116805761167f61155d565b5b813561169084826020860161162b565b91505092915050565b5f61ffff82169050919050565b6116af81611699565b81146116b9575f80fd5b50565b5f813590506116ca816116a6565b92915050565b5f80604083850312156116e6576116e5611555565b5b5f83013567ffffffffffffffff81111561170357611702611559565b5b61170f8582860161166c565b9250506020611720858286016116bc565b9150509250929050565b5f6020828403121561173f5761173e611555565b5b5f61174c848285016116bc565b91505092915050565b5f6020828403121561176a57611769611555565b5b5f82013567ffffffffffffffff81111561178757611786611559565b5b6117938482850161166c565b91505092915050565b6117a581611699565b82525050565b5f6020820190506117be5f83018461179c565b92915050565b5f8115159050919050565b6117d8816117c4565b81146117e2575f80fd5b50565b5f813590506117f3816117cf565b92915050565b5f805f606084860312156118105761180f611555565b5b5f84013567ffffffffffffffff81111561182d5761182c611559565b5b6118398682870161166c565b935050602061184a868287016116bc565b925050604061185b868287016117e5565b9150509250925092565b5f81519050919050565b5f81905092915050565b8281835e5f83830152505050565b5f61189182611865565b61189b818561186f565b93506118ab818560208601611879565b80840191505092915050565b5f6118c28284611887565b915081905092915050565b5f82825260208201905092915050565b5f6118e782611865565b6118f181856118cd565b9350611901818560208601611879565b61190a81611565565b840191505092915050565b5f6040820190508181035f83015261192d81856118dd565b905061193c602083018461179c565b9392505050565b7f496e76616c6964207573657220456c6f000000000000000000000000000000005f82015250565b5f6119776010836118cd565b915061198282611943565b602082019050919050565b5f6020820190508181035f8301526119a48161196b565b9050919050565b5f8160010b9050919050565b7f4e487b71000000000000000000000000000000000000000000000000000000005f52601160045260245ffd5b5f6119ee826119ab565b91506119f9836119ab565b92508282039050617fff81137fffffffffffffffffffffffffffffffffffffffffffffffffffffffffffff800082121715611a3757611a366119b7565b5b92915050565b5f611a47826119ab565b9150611a52836119ab565b925082820190507fffffffffffffffffffffffffffffffffffffffffffffffffffffffffffff80008112617fff82131715611a9057611a8f6119b7565b5b92915050565b7f4e487b71000000000000000000000000000000000000000000000000000000005f52601260045260245ffdfea264697066735822122017b444da3c6e2c3d4d53099cd5e32e6445d4914eab5774b9b2a2f7d4e6287a7864736f6c634300081a0033",
					"opcodes": "PUSH1 0x80 PUSH1 0x40 MSTORE CALLVALUE DUP1 ISZERO PUSH1 0xE JUMPI PUSH0 DUP1 REVERT JUMPDEST POP PUSH1 0x40 MLOAD PUSH2 0x1BB1 CODESIZE SUB DUP1 PUSH2 0x1BB1 DUP4 CODECOPY DUP2 DUP2 ADD PUSH1 0x40 MSTORE DUP2 ADD SWAP1 PUSH1 0x2E SWAP2 SWAP1 PUSH1 0x85 JUMP JUMPDEST DUP1 PUSH1 0x1 PUSH0 PUSH2 0x100 EXP DUP2 SLOAD DUP2 PUSH2 0xFFFF MUL NOT AND SWAP1 DUP4 PUSH2 0xFFFF AND MUL OR SWAP1 SSTORE POP POP PUSH1 0xAB JUMP JUMPDEST PUSH0 DUP1 REVERT JUMPDEST PUSH0 PUSH2 0xFFFF DUP3 AND SWAP1 POP SWAP2 SWAP1 POP JUMP JUMPDEST PUSH1 0x67 DUP2 PUSH1 0x53 JUMP JUMPDEST DUP2 EQ PUSH1 0x70 JUMPI PUSH0 DUP1 REVERT JUMPDEST POP JUMP JUMPDEST PUSH0 DUP2 MLOAD SWAP1 POP PUSH1 0x7F DUP2 PUSH1 0x60 JUMP JUMPDEST SWAP3 SWAP2 POP POP JUMP JUMPDEST PUSH0 PUSH1 0x20 DUP3 DUP5 SUB SLT ISZERO PUSH1 0x97 JUMPI PUSH1 0x96 PUSH1 0x4F JUMP JUMPDEST JUMPDEST PUSH0 PUSH1 0xA2 DUP5 DUP3 DUP6 ADD PUSH1 0x73 JUMP JUMPDEST SWAP2 POP POP SWAP3 SWAP2 POP POP JUMP JUMPDEST PUSH2 0x1AF9 DUP1 PUSH2 0xB8 PUSH0 CODECOPY PUSH0 RETURN INVALID PUSH1 0x80 PUSH1 0x40 MSTORE CALLVALUE DUP1 ISZERO PUSH2 0xF JUMPI PUSH0 DUP1 REVERT JUMPDEST POP PUSH1 0x4 CALLDATASIZE LT PUSH2 0x60 JUMPI PUSH0 CALLDATALOAD PUSH1 0xE0 SHR DUP1 PUSH4 0x1F5BC0CF EQ PUSH2 0x64 JUMPI DUP1 PUSH4 0x2A641FDB EQ PUSH2 0x80 JUMPI DUP1 PUSH4 0x46E7A1DC EQ PUSH2 0x9C JUMPI DUP1 PUSH4 0x77519B73 EQ PUSH2 0xCC JUMPI DUP1 PUSH4 0x950B409B EQ PUSH2 0xEA JUMPI DUP1 PUSH4 0xFDF3F74D EQ PUSH2 0x106 JUMPI JUMPDEST PUSH0 DUP1 REVERT JUMPDEST PUSH2 0x7E PUSH1 0x4 DUP1 CALLDATASIZE SUB DUP2 ADD SWAP1 PUSH2 0x79 SWAP2 SWAP1 PUSH2 0x16D0 JUMP JUMPDEST PUSH2 0x136 JUMP JUMPDEST STOP JUMPDEST PUSH2 0x9A PUSH1 0x4 DUP1 CALLDATASIZE SUB DUP2 ADD SWAP1 PUSH2 0x95 SWAP2 SWAP1 PUSH2 0x172A JUMP JUMPDEST PUSH2 0x1AA JUMP JUMPDEST STOP JUMPDEST PUSH2 0xB6 PUSH1 0x4 DUP1 CALLDATASIZE SUB DUP2 ADD SWAP1 PUSH2 0xB1 SWAP2 SWAP1 PUSH2 0x1755 JUMP JUMPDEST PUSH2 0x200 JUMP JUMPDEST PUSH1 0x40 MLOAD PUSH2 0xC3 SWAP2 SWAP1 PUSH2 0x17AB JUMP JUMPDEST PUSH1 0x40 MLOAD DUP1 SWAP2 SUB SWAP1 RETURN JUMPDEST PUSH2 0xD4 PUSH2 0x233 JUMP JUMPDEST PUSH1 0x40 MLOAD PUSH2 0xE1 SWAP2 SWAP1 PUSH2 0x17AB JUMP JUMPDEST PUSH1 0x40 MLOAD DUP1 SWAP2 SUB SWAP1 RETURN JUMPDEST PUSH2 0x104 PUSH1 0x4 DUP1 CALLDATASIZE SUB DUP2 ADD SWAP1 PUSH2 0xFF SWAP2 SWAP1 PUSH2 0x17F9 JUMP JUMPDEST PUSH2 0x246 JUMP JUMPDEST STOP JUMPDEST PUSH2 0x120 PUSH1 0x4 DUP1 CALLDATASIZE SUB DUP2 ADD SWAP1 PUSH2 0x11B SWAP2 SWAP1 PUSH2 0x1755 JUMP JUMPDEST PUSH2 0x492 JUMP JUMPDEST PUSH1 0x40 MLOAD PUSH2 0x12D SWAP2 SWAP1 PUSH2 0x17AB JUMP JUMPDEST PUSH1 0x40 MLOAD DUP1 SWAP2 SUB SWAP1 RETURN JUMPDEST DUP1 PUSH0 DUP4 PUSH1 0x40 MLOAD PUSH2 0x146 SWAP2 SWAP1 PUSH2 0x18B7 JUMP JUMPDEST SWAP1 DUP2 MSTORE PUSH1 0x20 ADD PUSH1 0x40 MLOAD DUP1 SWAP2 SUB SWAP1 KECCAK256 PUSH0 PUSH2 0x100 EXP DUP2 SLOAD DUP2 PUSH2 0xFFFF MUL NOT AND SWAP1 DUP4 PUSH2 0xFFFF AND MUL OR SWAP1 SSTORE POP PUSH32 0x60823246BD9724A87F737174A65E2A1C68A909F877C4005413C10764F781B8F1 DUP3 DUP3 PUSH1 0x40 MLOAD PUSH2 0x19E SWAP3 SWAP2 SWAP1 PUSH2 0x1915 JUMP JUMPDEST PUSH1 0x40 MLOAD DUP1 SWAP2 SUB SWAP1 LOG1 POP POP JUMP JUMPDEST DUP1 PUSH1 0x1 PUSH0 PUSH2 0x100 EXP DUP2 SLOAD DUP2 PUSH2 0xFFFF MUL NOT AND SWAP1 DUP4 PUSH2 0xFFFF AND MUL OR SWAP1 SSTORE POP PUSH32 0x2C29147F9DBC311A4CCF9949488A20725C70E7F7EF01E2F436C86CDABC2D2D8 DUP2 PUSH1 0x40 MLOAD PUSH2 0x1F5 SWAP2 SWAP1 PUSH2 0x17AB JUMP JUMPDEST PUSH1 0x40 MLOAD DUP1 SWAP2 SUB SWAP1 LOG1 POP JUMP JUMPDEST PUSH0 DUP1 DUP3 PUSH1 0x40 MLOAD PUSH2 0x210 SWAP2 SWAP1 PUSH2 0x18B7 JUMP JUMPDEST SWAP1 DUP2 MSTORE PUSH1 0x20 ADD PUSH1 0x40 MLOAD DUP1 SWAP2 SUB SWAP1 KECCAK256 PUSH0 SWAP1 SLOAD SWAP1 PUSH2 0x100 EXP SWAP1 DIV PUSH2 0xFFFF AND SWAP1 POP SWAP2 SWAP1 POP JUMP JUMPDEST PUSH1 0x1 PUSH0 SWAP1 SLOAD SWAP1 PUSH2 0x100 EXP SWAP1 DIV PUSH2 0xFFFF AND DUP2 JUMP JUMPDEST PUSH0 DUP1 DUP5 PUSH1 0x40 MLOAD PUSH2 0x256 SWAP2 SWAP1 PUSH2 0x18B7 JUMP JUMPDEST SWAP1 DUP2 MSTORE PUSH1 0x20 ADD PUSH1 0x40 MLOAD DUP1 SWAP2 SUB SWAP1 KECCAK256 PUSH0 SWAP1 SLOAD SWAP1 PUSH2 0x100 EXP SWAP1 DIV PUSH2 0xFFFF AND PUSH2 0xFFFF AND SUB PUSH2 0x2F5 JUMPI PUSH2 0x3E8 PUSH0 DUP5 PUSH1 0x40 MLOAD PUSH2 0x28D SWAP2 SWAP1 PUSH2 0x18B7 JUMP JUMPDEST SWAP1 DUP2 MSTORE PUSH1 0x20 ADD PUSH1 0x40 MLOAD DUP1 SWAP2 SUB SWAP1 KECCAK256 PUSH0 PUSH2 0x100 EXP DUP2 SLOAD DUP2 PUSH2 0xFFFF MUL NOT AND SWAP1 DUP4 PUSH2 0xFFFF AND MUL OR SWAP1 SSTORE POP PUSH0 PUSH2 0x3E8 SWAP1 POP PUSH32 0x60823246BD9724A87F737174A65E2A1C68A909F877C4005413C10764F781B8F1 DUP5 DUP3 PUSH1 0x40 MLOAD PUSH2 0x2EB SWAP3 SWAP2 SWAP1 PUSH2 0x1915 JUMP JUMPDEST PUSH1 0x40 MLOAD DUP1 SWAP2 SUB SWAP1 LOG1 POP JUMPDEST PUSH0 DUP1 DUP5 PUSH1 0x40 MLOAD PUSH2 0x305 SWAP2 SWAP1 PUSH2 0x18B7 JUMP JUMPDEST SWAP1 DUP2 MSTORE PUSH1 0x20 ADD PUSH1 0x40 MLOAD DUP1 SWAP2 SUB SWAP1 KECCAK256 PUSH0 SWAP1 SLOAD SWAP1 PUSH2 0x100 EXP SWAP1 DIV PUSH2 0xFFFF AND SWAP1 POP PUSH2 0x3E8 DUP2 PUSH2 0xFFFF AND GT ISZERO PUSH2 0x36C JUMPI PUSH1 0x40 MLOAD PUSH32 0x8C379A000000000000000000000000000000000000000000000000000000000 DUP2 MSTORE PUSH1 0x4 ADD PUSH2 0x363 SWAP1 PUSH2 0x198D JUMP JUMPDEST PUSH1 0x40 MLOAD DUP1 SWAP2 SUB SWAP1 REVERT JUMPDEST PUSH0 DUP4 DUP3 PUSH2 0x379 SWAP2 SWAP1 PUSH2 0x19E4 JUMP JUMPDEST SWAP1 POP PUSH0 PUSH2 0x385 DUP3 PUSH2 0x4C7 JUMP JUMPDEST SWAP1 POP PUSH0 DUP5 PUSH2 0x39C JUMPI PUSH2 0x397 PUSH1 0x1 PUSH2 0x555 JUMP JUMPDEST PUSH2 0x3A6 JUMP JUMPDEST PUSH2 0x3A5 PUSH0 PUSH2 0x555 JUMP JUMPDEST JUMPDEST SWAP1 POP PUSH0 PUSH2 0x3DF PUSH2 0x3DA PUSH2 0x3CB PUSH1 0x1 PUSH0 SWAP1 SLOAD SWAP1 PUSH2 0x100 EXP SWAP1 DIV PUSH2 0xFFFF AND PUSH2 0xFFFF AND PUSH2 0x5A2 JUMP JUMPDEST PUSH2 0x3D5 DUP6 DUP8 PUSH2 0x5C3 JUMP JUMPDEST PUSH2 0x628 JUMP JUMPDEST PUSH2 0x691 JUMP JUMPDEST SWAP1 POP PUSH0 DUP2 DUP7 PUSH2 0x3EE SWAP2 SWAP1 PUSH2 0x1A3D JUMP JUMPDEST SWAP1 POP PUSH2 0x3E8 DUP2 PUSH1 0x1 SIGNEXTEND SGT ISZERO PUSH2 0x407 JUMPI PUSH2 0x3E8 SWAP1 POP PUSH2 0x417 JUMP JUMPDEST PUSH0 DUP2 PUSH1 0x1 SIGNEXTEND SLT ISZERO PUSH2 0x416 JUMPI PUSH0 SWAP1 POP JUMPDEST JUMPDEST DUP1 PUSH0 DUP11 PUSH1 0x40 MLOAD PUSH2 0x427 SWAP2 SWAP1 PUSH2 0x18B7 JUMP JUMPDEST SWAP1 DUP2 MSTORE PUSH1 0x20 ADD PUSH1 0x40 MLOAD DUP1 SWAP2 SUB SWAP1 KECCAK256 PUSH0 PUSH2 0x100 EXP DUP2 SLOAD DUP2 PUSH2 0xFFFF MUL NOT AND SWAP1 DUP4 PUSH2 0xFFFF AND MUL OR SWAP1 SSTORE POP PUSH32 0x60823246BD9724A87F737174A65E2A1C68A909F877C4005413C10764F781B8F1 DUP10 DUP3 PUSH1 0x40 MLOAD PUSH2 0x47F SWAP3 SWAP2 SWAP1 PUSH2 0x1915 JUMP JUMPDEST PUSH1 0x40 MLOAD DUP1 SWAP2 SUB SWAP1 LOG1 POP POP POP POP POP POP POP POP POP JUMP JUMPDEST PUSH0 DUP2 DUP1 MLOAD PUSH1 0x20 DUP2 ADD DUP3 ADD DUP1 MLOAD DUP5 DUP3 MSTORE PUSH1 0x20 DUP4 ADD PUSH1 0x20 DUP6 ADD KECCAK256 DUP2 DUP4 MSTORE DUP1 SWAP6 POP POP POP POP POP POP PUSH0 SWAP2 POP SLOAD SWAP1 PUSH2 0x100 EXP SWAP1 DIV PUSH2 0xFFFF AND DUP2 JUMP JUMPDEST PUSH0 DUP1 PUSH2 0x4D5 DUP4 PUSH1 0x1 SIGNEXTEND PUSH2 0x555 JUMP JUMPDEST SWAP1 POP PUSH0 PUSH2 0x4EA PUSH2 0x4E5 PUSH1 0xA PUSH2 0x5A2 JUMP JUMPDEST PUSH2 0x6A1 JUMP JUMPDEST SWAP1 POP PUSH0 PUSH2 0x512 PUSH2 0x50D PUSH2 0x4FD DUP6 DUP6 PUSH2 0x628 JUMP JUMPDEST PUSH2 0x508 PUSH2 0x190 PUSH2 0x555 JUMP JUMPDEST PUSH2 0x6D9 JUMP JUMPDEST PUSH2 0x75E JUMP JUMPDEST SWAP1 POP PUSH0 PUSH2 0x51E DUP3 PUSH2 0x79A JUMP JUMPDEST SWAP1 POP PUSH0 PUSH2 0x546 PUSH2 0x52E PUSH1 0x1 PUSH2 0x555 JUMP JUMPDEST PUSH2 0x541 PUSH2 0x53B PUSH1 0x1 PUSH2 0x555 JUMP JUMPDEST DUP6 PUSH2 0x810 JUMP JUMPDEST PUSH2 0x6D9 JUMP JUMPDEST SWAP1 POP DUP1 SWAP6 POP POP POP POP POP POP SWAP2 SWAP1 POP JUMP JUMPDEST PUSH0 PUSH32 0xFFFFFFFFFFFFFFFFFFFFFFFFFFFFFFFFFFFFFFFFFFFFFFFF8000000000000000 DUP3 SLT ISZERO DUP1 ISZERO PUSH2 0x58E JUMPI POP PUSH8 0x7FFFFFFFFFFFFFFF DUP3 SGT ISZERO JUMPDEST PUSH2 0x596 JUMPI PUSH0 DUP1 REVERT JUMPDEST PUSH1 0x40 DUP3 SWAP1 SHL SWAP1 POP SWAP2 SWAP1 POP JUMP JUMPDEST PUSH0 PUSH8 0x7FFFFFFFFFFFFFFF DUP3 GT ISZERO PUSH2 0x5B7 JUMPI PUSH0 DUP1 REVERT JUMPDEST PUSH1 0x40 DUP3 SWAP1 SHL SWAP1 POP SWAP2 SWAP1 POP JUMP JUMPDEST PUSH0 DUP1 DUP3 PUSH1 0xF SIGNEXTEND DUP5 PUSH1 0xF SIGNEXTEND SUB SWAP1 POP PUSH32 0xFFFFFFFFFFFFFFFFFFFFFFFFFFFFFFFF80000000000000000000000000000000 PUSH1 0xF SIGNEXTEND DUP2 SLT ISZERO DUP1 ISZERO PUSH2 0x616 JUMPI POP PUSH16 0x7FFFFFFFFFFFFFFFFFFFFFFFFFFFFFFF PUSH1 0xF SIGNEXTEND DUP2 SGT ISZERO JUMPDEST PUSH2 0x61E JUMPI PUSH0 DUP1 REVERT JUMPDEST DUP1 SWAP2 POP POP SWAP3 SWAP2 POP POP JUMP JUMPDEST PUSH0 DUP1 PUSH1 0x40 DUP4 PUSH1 0xF SIGNEXTEND DUP6 PUSH1 0xF SIGNEXTEND MUL SWAP1 SAR SWAP1 POP PUSH32 0xFFFFFFFFFFFFFFFFFFFFFFFFFFFFFFFF80000000000000000000000000000000 PUSH1 0xF SIGNEXTEND DUP2 SLT ISZERO DUP1 ISZERO PUSH2 0x67F JUMPI POP PUSH16 0x7FFFFFFFFFFFFFFFFFFFFFFFFFFFFFFF PUSH1 0xF SIGNEXTEND DUP2 SGT ISZERO JUMPDEST PUSH2 0x687 JUMPI PUSH0 DUP1 REVERT JUMPDEST DUP1 SWAP2 POP POP SWAP3 SWAP2 POP POP JUMP JUMPDEST PUSH0 PUSH1 0x40 DUP3 PUSH1 0xF SIGNEXTEND SWAP1 SAR SWAP1 POP SWAP2 SWAP1 POP JUMP JUMPDEST PUSH0 DUP1 DUP3 PUSH1 0xF SIGNEXTEND SGT PUSH2 0x6B0 JUMPI PUSH0 DUP1 REVERT JUMPDEST PUSH1 0x80 PUSH16 0xB17217F7D1CF79ABC9E3B39803F2F6AF PUSH2 0x6CC DUP5 PUSH2 0x875 JUMP JUMPDEST PUSH1 0xF SIGNEXTEND MUL SWAP1 SHR SWAP1 POP SWAP2 SWAP1 POP JUMP JUMPDEST PUSH0 DUP1 DUP3 PUSH1 0xF SIGNEXTEND SUB PUSH2 0x6E8 JUMPI PUSH0 DUP1 REVERT JUMPDEST PUSH0 DUP3 PUSH1 0xF SIGNEXTEND PUSH1 0x40 DUP6 PUSH1 0xF SIGNEXTEND SWAP1 SHL DUP2 PUSH2 0x703 JUMPI PUSH2 0x702 PUSH2 0x1A96 JUMP JUMPDEST JUMPDEST SDIV SWAP1 POP PUSH32 0xFFFFFFFFFFFFFFFFFFFFFFFFFFFFFFFF80000000000000000000000000000000 PUSH1 0xF SIGNEXTEND DUP2 SLT ISZERO DUP1 ISZERO PUSH2 0x74C JUMPI POP PUSH16 0x7FFFFFFFFFFFFFFFFFFFFFFFFFFFFFFF PUSH1 0xF SIGNEXTEND DUP2 SGT ISZERO JUMPDEST PUSH2 0x754 JUMPI PUSH0 DUP1 REVERT JUMPDEST DUP1 SWAP2 POP POP SWAP3 SWAP2 POP POP JUMP JUMPDEST PUSH0 PUSH32 0xFFFFFFFFFFFFFFFFFFFFFFFFFFFFFFFF80000000000000000000000000000000 PUSH1 0xF SIGNEXTEND DUP3 PUSH1 0xF SIGNEXTEND SUB PUSH2 0x790 JUMPI PUSH0 DUP1 REVERT JUMPDEST DUP2 PUSH0 SUB SWAP1 POP SWAP2 SWAP1 POP JUMP JUMPDEST PUSH0 PUSH9 0x400000000000000000 DUP3 PUSH1 0xF SIGNEXTEND SLT PUSH2 0x7B2 JUMPI PUSH0 DUP1 REVERT JUMPDEST PUSH32 0xFFFFFFFFFFFFFFFFFFFFFFFFFFFFFFFFFFFFFFFFFFFFFFC00000000000000000 DUP3 PUSH1 0xF SIGNEXTEND SLT ISZERO PUSH2 0x7E5 JUMPI PUSH0 SWAP1 POP PUSH2 0x80B JUMP JUMPDEST PUSH2 0x808 PUSH1 0x80 PUSH17 0x171547652B82FE1777D0FFDA0D23A7D12 DUP5 PUSH1 0xF SIGNEXTEND MUL SWAP1 SAR PUSH2 0x991 JUMP JUMPDEST SWAP1 POP JUMPDEST SWAP2 SWAP1 POP JUMP JUMPDEST PUSH0 DUP1 DUP3 PUSH1 0xF SIGNEXTEND DUP5 PUSH1 0xF SIGNEXTEND ADD SWAP1 POP PUSH32 0xFFFFFFFFFFFFFFFFFFFFFFFFFFFFFFFF80000000000000000000000000000000 PUSH1 0xF SIGNEXTEND DUP2 SLT ISZERO DUP1 ISZERO PUSH2 0x863 JUMPI POP PUSH16 0x7FFFFFFFFFFFFFFFFFFFFFFFFFFFFFFF PUSH1 0xF SIGNEXTEND DUP2 SGT ISZERO JUMPDEST PUSH2 0x86B JUMPI PUSH0 DUP1 REVERT JUMPDEST DUP1 SWAP2 POP POP SWAP3 SWAP2 POP POP JUMP JUMPDEST PUSH0 DUP1 DUP3 PUSH1 0xF SIGNEXTEND SGT PUSH2 0x884 JUMPI PUSH0 DUP1 REVERT JUMPDEST PUSH0 DUP1 DUP4 PUSH1 0xF SIGNEXTEND SWAP1 POP PUSH9 0x10000000000000000 DUP2 SLT PUSH2 0x8AA JUMPI PUSH1 0x40 DUP2 SWAP1 SAR SWAP1 POP PUSH1 0x40 DUP3 ADD SWAP2 POP JUMPDEST PUSH5 0x100000000 DUP2 SLT PUSH2 0x8C4 JUMPI PUSH1 0x20 DUP2 SWAP1 SAR SWAP1 POP PUSH1 0x20 DUP3 ADD SWAP2 POP JUMPDEST PUSH3 0x10000 DUP2 SLT PUSH2 0x8DC JUMPI PUSH1 0x10 DUP2 SWAP1 SAR SWAP1 POP PUSH1 0x10 DUP3 ADD SWAP2 POP JUMPDEST PUSH2 0x100 DUP2 SLT PUSH2 0x8F3 JUMPI PUSH1 0x8 DUP2 SWAP1 SAR SWAP1 POP PUSH1 0x8 DUP3 ADD SWAP2 POP JUMPDEST PUSH1 0x10 DUP2 SLT PUSH2 0x909 JUMPI PUSH1 0x4 DUP2 SWAP1 SAR SWAP1 POP PUSH1 0x4 DUP3 ADD SWAP2 POP JUMPDEST PUSH1 0x4 DUP2 SLT PUSH2 0x91F JUMPI PUSH1 0x2 DUP2 SWAP1 SAR SWAP1 POP PUSH1 0x2 DUP3 ADD SWAP2 POP JUMPDEST PUSH1 0x2 DUP2 SLT PUSH2 0x92E JUMPI PUSH1 0x1 DUP3 ADD SWAP2 POP JUMPDEST PUSH0 PUSH1 0x40 DUP1 DUP5 SUB SWAP1 SHL SWAP1 POP PUSH0 DUP4 PUSH1 0x7F SUB DUP7 PUSH1 0xF SIGNEXTEND SWAP1 SHL SWAP1 POP PUSH0 PUSH8 0x8000000000000000 SWAP1 POP JUMPDEST PUSH0 DUP2 SGT ISZERO PUSH2 0x984 JUMPI DUP2 DUP3 MUL SWAP2 POP PUSH0 PUSH1 0xFF DUP4 SWAP1 SHR SWAP1 POP DUP1 PUSH1 0x7F ADD DUP4 SWAP1 SHR SWAP3 POP DUP1 DUP3 MUL DUP5 ADD SWAP4 POP POP PUSH1 0x1 DUP2 SWAP1 SAR SWAP1 POP PUSH2 0x952 JUMP JUMPDEST POP DUP2 SWAP5 POP POP POP POP POP SWAP2 SWAP1 POP JUMP JUMPDEST PUSH0 PUSH9 0x400000000000000000 DUP3 PUSH1 0xF SIGNEXTEND SLT PUSH2 0x9A9 JUMPI PUSH0 DUP1 REVERT JUMPDEST PUSH32 0xFFFFFFFFFFFFFFFFFFFFFFFFFFFFFFFFFFFFFFFFFFFFFFC00000000000000000 DUP3 PUSH1 0xF SIGNEXTEND SLT ISZERO PUSH2 0x9DC JUMPI PUSH0 SWAP1 POP PUSH2 0x1547 JUMP JUMPDEST PUSH0 PUSH16 0x80000000000000000000000000000000 SWAP1 POP PUSH0 PUSH8 0x8000000000000000 DUP5 AND PUSH1 0xF SIGNEXTEND SGT ISZERO PUSH2 0xA20 JUMPI PUSH1 0x80 PUSH17 0x16A09E667F3BCC908B2FB1366EA957D3E DUP3 MUL SWAP1 SHR SWAP1 POP JUMPDEST PUSH0 PUSH8 0x4000000000000000 DUP5 AND PUSH1 0xF SIGNEXTEND SGT ISZERO PUSH2 0xA50 JUMPI PUSH1 0x80 PUSH17 0x1306FE0A31B7152DE8D5A46305C85EDEC DUP3 MUL SWAP1 SHR SWAP1 POP JUMPDEST PUSH0 PUSH8 0x2000000000000000 DUP5 AND PUSH1 0xF SIGNEXTEND SGT ISZERO PUSH2 0xA80 JUMPI PUSH1 0x80 PUSH17 0x1172B83C7D517ADCDF7C8C50EB14A791F DUP3 MUL SWAP1 SHR SWAP1 POP JUMPDEST PUSH0 PUSH8 0x1000000000000000 DUP5 AND PUSH1 0xF SIGNEXTEND SGT ISZERO PUSH2 0xAB0 JUMPI PUSH1 0x80 PUSH17 0x10B5586CF9890F6298B92B71842A98363 DUP3 MUL SWAP1 SHR SWAP1 POP JUMPDEST PUSH0 PUSH8 0x800000000000000 DUP5 AND PUSH1 0xF SIGNEXTEND SGT ISZERO PUSH2 0xAE0 JUMPI PUSH1 0x80 PUSH17 0x1059B0D31585743AE7C548EB68CA417FD DUP3 MUL SWAP1 SHR SWAP1 POP JUMPDEST PUSH0 PUSH8 0x400000000000000 DUP5 AND PUSH1 0xF SIGNEXTEND SGT ISZERO PUSH2 0xB10 JUMPI PUSH1 0x80 PUSH17 0x102C9A3E778060EE6F7CACA4F7A29BDE8 DUP3 MUL SWAP1 SHR SWAP1 POP JUMPDEST PUSH0 PUSH8 0x200000000000000 DUP5 AND PUSH1 0xF SIGNEXTEND SGT ISZERO PUSH2 0xB40 JUMPI PUSH1 0x80 PUSH17 0x10163DA9FB33356D84A66AE336DCDFA3F DUP3 MUL SWAP1 SHR SWAP1 POP JUMPDEST PUSH0 PUSH8 0x100000000000000 DUP5 AND PUSH1 0xF SIGNEXTEND SGT ISZERO PUSH2 0xB70 JUMPI PUSH1 0x80 PUSH17 0x100B1AFA5ABCBED6129AB13EC11DC9543 DUP3 MUL SWAP1 SHR SWAP1 POP JUMPDEST PUSH0 PUSH7 0x80000000000000 DUP5 AND PUSH1 0xF SIGNEXTEND SGT ISZERO PUSH2 0xB9F JUMPI PUSH1 0x80 PUSH17 0x10058C86DA1C09EA1FF19D294CF2F679B DUP3 MUL SWAP1 SHR SWAP1 POP JUMPDEST PUSH0 PUSH7 0x40000000000000 DUP5 AND PUSH1 0xF SIGNEXTEND SGT ISZERO PUSH2 0xBCE JUMPI PUSH1 0x80 PUSH17 0x1002C605E2E8CEC506D21BFC89A23A00F DUP3 MUL SWAP1 SHR SWAP1 POP JUMPDEST PUSH0 PUSH7 0x20000000000000 DUP5 AND PUSH1 0xF SIGNEXTEND SGT ISZERO PUSH2 0xBFD JUMPI PUSH1 0x80 PUSH17 0x100162F3904051FA128BCA9C55C31E5DF DUP3 MUL SWAP1 SHR SWAP1 POP JUMPDEST PUSH0 PUSH7 0x10000000000000 DUP5 AND PUSH1 0xF SIGNEXTEND SGT ISZERO PUSH2 0xC2C JUMPI PUSH1 0x80 PUSH17 0x1000B175EFFDC76BA38E31671CA939725 DUP3 MUL SWAP1 SHR SWAP1 POP JUMPDEST PUSH0 PUSH7 0x8000000000000 DUP5 AND PUSH1 0xF SIGNEXTEND SGT ISZERO PUSH2 0xC5B JUMPI PUSH1 0x80 PUSH17 0x100058BA01FB9F96D6CACD4B180917C3D DUP3 MUL SWAP1 SHR SWAP1 POP JUMPDEST PUSH0 PUSH7 0x4000000000000 DUP5 AND PUSH1 0xF SIGNEXTEND SGT ISZERO PUSH2 0xC8A JUMPI PUSH1 0x80 PUSH17 0x10002C5CC37DA9491D0985C348C68E7B3 DUP3 MUL SWAP1 SHR SWAP1 POP JUMPDEST PUSH0 PUSH7 0x2000000000000 DUP5 AND PUSH1 0xF SIGNEXTEND SGT ISZERO PUSH2 0xCB9 JUMPI PUSH1 0x80 PUSH17 0x1000162E525EE054754457D5995292026 DUP3 MUL SWAP1 SHR SWAP1 POP JUMPDEST PUSH0 PUSH7 0x1000000000000 DUP5 AND PUSH1 0xF SIGNEXTEND SGT ISZERO PUSH2 0xCE8 JUMPI PUSH1 0x80 PUSH17 0x10000B17255775C040618BF4A4ADE83FC DUP3 MUL SWAP1 SHR SWAP1 POP JUMPDEST PUSH0 PUSH6 0x800000000000 DUP5 AND PUSH1 0xF SIGNEXTEND SGT ISZERO PUSH2 0xD16 JUMPI PUSH1 0x80 PUSH17 0x1000058B91B5BC9AE2EED81E9B7D4CFAB DUP3 MUL SWAP1 SHR SWAP1 POP JUMPDEST PUSH0 PUSH6 0x400000000000 DUP5 AND PUSH1 0xF SIGNEXTEND SGT ISZERO PUSH2 0xD44 JUMPI PUSH1 0x80 PUSH17 0x100002C5C89D5EC6CA4D7C8ACC017B7C9 DUP3 MUL SWAP1 SHR SWAP1 POP JUMPDEST PUSH0 PUSH6 0x200000000000 DUP5 AND PUSH1 0xF SIGNEXTEND SGT ISZERO PUSH2 0xD72 JUMPI PUSH1 0x80 PUSH17 0x10000162E43F4F831060E02D839A9D16D DUP3 MUL SWAP1 SHR SWAP1 POP JUMPDEST PUSH0 PUSH6 0x100000000000 DUP5 AND PUSH1 0xF SIGNEXTEND SGT ISZERO PUSH2 0xDA0 JUMPI PUSH1 0x80 PUSH17 0x100000B1721BCFC99D9F890EA06911763 DUP3 MUL SWAP1 SHR SWAP1 POP JUMPDEST PUSH0 PUSH6 0x80000000000 DUP5 AND PUSH1 0xF SIGNEXTEND SGT ISZERO PUSH2 0xDCE JUMPI PUSH1 0x80 PUSH17 0x10000058B90CF1E6D97F9CA14DBCC1628 DUP3 MUL SWAP1 SHR SWAP1 POP JUMPDEST PUSH0 PUSH6 0x40000000000 DUP5 AND PUSH1 0xF SIGNEXTEND SGT ISZERO PUSH2 0xDFC JUMPI PUSH1 0x80 PUSH17 0x1000002C5C863B73F016468F6BAC5CA2B DUP3 MUL SWAP1 SHR SWAP1 POP JUMPDEST PUSH0 PUSH6 0x20000000000 DUP5 AND PUSH1 0xF SIGNEXTEND SGT ISZERO PUSH2 0xE2A JUMPI PUSH1 0x80 PUSH17 0x100000162E430E5A18F6119E3C02282A5 DUP3 MUL SWAP1 SHR SWAP1 POP JUMPDEST PUSH0 PUSH6 0x10000000000 DUP5 AND PUSH1 0xF SIGNEXTEND SGT ISZERO PUSH2 0xE58 JUMPI PUSH1 0x80 PUSH17 0x1000000B1721835514B86E6D96EFD1BFE DUP3 MUL SWAP1 SHR SWAP1 POP JUMPDEST PUSH0 PUSH5 0x8000000000 DUP5 AND PUSH1 0xF SIGNEXTEND SGT ISZERO PUSH2 0xE85 JUMPI PUSH1 0x80 PUSH17 0x100000058B90C0B48C6BE5DF846C5B2EF DUP3 MUL SWAP1 SHR SWAP1 POP JUMPDEST PUSH0 PUSH5 0x4000000000 DUP5 AND PUSH1 0xF SIGNEXTEND SGT ISZERO PUSH2 0xEB2 JUMPI PUSH1 0x80 PUSH17 0x10000002C5C8601CC6B9E94213C72737A DUP3 MUL SWAP1 SHR SWAP1 POP JUMPDEST PUSH0 PUSH5 0x2000000000 DUP5 AND PUSH1 0xF SIGNEXTEND SGT ISZERO PUSH2 0xEDF JUMPI PUSH1 0x80 PUSH17 0x1000000162E42FFF037DF38AA2B219F06 DUP3 MUL SWAP1 SHR SWAP1 POP JUMPDEST PUSH0 PUSH5 0x1000000000 DUP5 AND PUSH1 0xF SIGNEXTEND SGT ISZERO PUSH2 0xF0C JUMPI PUSH1 0x80 PUSH17 0x10000000B17217FBA9C739AA5819F44F9 DUP3 MUL SWAP1 SHR SWAP1 POP JUMPDEST PUSH0 PUSH5 0x800000000 DUP5 AND PUSH1 0xF SIGNEXTEND SGT ISZERO PUSH2 0xF39 JUMPI PUSH1 0x80 PUSH17 0x1000000058B90BFCDEE5ACD3C1CEDC823 DUP3 MUL SWAP1 SHR SWAP1 POP JUMPDEST PUSH0 PUSH5 0x400000000 DUP5 AND PUSH1 0xF SIGNEXTEND SGT ISZERO PUSH2 0xF66 JUMPI PUSH1 0x80 PUSH17 0x100000002C5C85FE31F35A6A30DA1BE50 DUP3 MUL SWAP1 SHR SWAP1 POP JUMPDEST PUSH0 PUSH5 0x200000000 DUP5 AND PUSH1 0xF SIGNEXTEND SGT ISZERO PUSH2 0xF93 JUMPI PUSH1 0x80 PUSH17 0x10000000162E42FF0999CE3541B9FFFCF DUP3 MUL SWAP1 SHR SWAP1 POP JUMPDEST PUSH0 PUSH5 0x100000000 DUP5 AND PUSH1 0xF SIGNEXTEND SGT ISZERO PUSH2 0xFC0 JUMPI PUSH1 0x80 PUSH17 0x100000000B17217F80F4EF5AADDA45554 DUP3 MUL SWAP1 SHR SWAP1 POP JUMPDEST PUSH0 PUSH4 0x80000000 DUP5 AND PUSH1 0xF SIGNEXTEND SGT ISZERO PUSH2 0xFEC JUMPI PUSH1 0x80 PUSH17 0x10000000058B90BFBF8479BD5A81B51AD DUP3 MUL SWAP1 SHR SWAP1 POP JUMPDEST PUSH0 PUSH4 0x40000000 DUP5 AND PUSH1 0xF SIGNEXTEND SGT ISZERO PUSH2 0x1018 JUMPI PUSH1 0x80 PUSH17 0x1000000002C5C85FDF84BD62AE30A74CC DUP3 MUL SWAP1 SHR SWAP1 POP JUMPDEST PUSH0 PUSH4 0x20000000 DUP5 AND PUSH1 0xF SIGNEXTEND SGT ISZERO PUSH2 0x1044 JUMPI PUSH1 0x80 PUSH17 0x100000000162E42FEFB2FED257559BDAA DUP3 MUL SWAP1 SHR SWAP1 POP JUMPDEST PUSH0 PUSH4 0x10000000 DUP5 AND PUSH1 0xF SIGNEXTEND SGT ISZERO PUSH2 0x1070 JUMPI PUSH1 0x80 PUSH17 0x1000000000B17217F7D5A7716BBA4A9AE DUP3 MUL SWAP1 SHR SWAP1 POP JUMPDEST PUSH0 PUSH4 0x8000000 DUP5 AND PUSH1 0xF SIGNEXTEND SGT ISZERO PUSH2 0x109C JUMPI PUSH1 0x80 PUSH17 0x100000000058B90BFBE9DDBAC5E109CCE DUP3 MUL SWAP1 SHR SWAP1 POP JUMPDEST PUSH0 PUSH4 0x4000000 DUP5 AND PUSH1 0xF SIGNEXTEND SGT ISZERO PUSH2 0x10C8 JUMPI PUSH1 0x80 PUSH17 0x10000000002C5C85FDF4B15DE6F17EB0D DUP3 MUL SWAP1 SHR SWAP1 POP JUMPDEST PUSH0 PUSH4 0x2000000 DUP5 AND PUSH1 0xF SIGNEXTEND SGT ISZERO PUSH2 0x10F4 JUMPI PUSH1 0x80 PUSH17 0x1000000000162E42FEFA494F1478FDE05 DUP3 MUL SWAP1 SHR SWAP1 POP JUMPDEST PUSH0 PUSH4 0x1000000 DUP5 AND PUSH1 0xF SIGNEXTEND SGT ISZERO PUSH2 0x1120 JUMPI PUSH1 0x80 PUSH17 0x10000000000B17217F7D20CF927C8E94C DUP3 MUL SWAP1 SHR SWAP1 POP JUMPDEST PUSH0 PUSH3 0x800000 DUP5 AND PUSH1 0xF SIGNEXTEND SGT ISZERO PUSH2 0x114B JUMPI PUSH1 0x80 PUSH17 0x1000000000058B90BFBE8F71CB4E4B33D DUP3 MUL SWAP1 SHR SWAP1 POP JUMPDEST PUSH0 PUSH3 0x400000 DUP5 AND PUSH1 0xF SIGNEXTEND SGT ISZERO PUSH2 0x1176 JUMPI PUSH1 0x80 PUSH17 0x100000000002C5C85FDF477B662B26945 DUP3 MUL SWAP1 SHR SWAP1 POP JUMPDEST PUSH0 PUSH3 0x200000 DUP5 AND PUSH1 0xF SIGNEXTEND SGT ISZERO PUSH2 0x11A1 JUMPI PUSH1 0x80 PUSH17 0x10000000000162E42FEFA3AE53369388C DUP3 MUL SWAP1 SHR SWAP1 POP JUMPDEST PUSH0 PUSH3 0x100000 DUP5 AND PUSH1 0xF SIGNEXTEND SGT ISZERO PUSH2 0x11CC JUMPI PUSH1 0x80 PUSH17 0x100000000000B17217F7D1D351A389D40 DUP3 MUL SWAP1 SHR SWAP1 POP JUMPDEST PUSH0 PUSH3 0x80000 DUP5 AND PUSH1 0xF SIGNEXTEND SGT ISZERO PUSH2 0x11F7 JUMPI PUSH1 0x80 PUSH17 0x10000000000058B90BFBE8E8B2D3D4EDE DUP3 MUL SWAP1 SHR SWAP1 POP JUMPDEST PUSH0 PUSH3 0x40000 DUP5 AND PUSH1 0xF SIGNEXTEND SGT ISZERO PUSH2 0x1222 JUMPI PUSH1 0x80 PUSH17 0x1000000000002C5C85FDF4741BEA6E77E DUP3 MUL SWAP1 SHR SWAP1 POP JUMPDEST PUSH0 PUSH3 0x20000 DUP5 AND PUSH1 0xF SIGNEXTEND SGT ISZERO PUSH2 0x124D JUMPI PUSH1 0x80 PUSH17 0x100000000000162E42FEFA39FE95583C2 DUP3 MUL SWAP1 SHR SWAP1 POP JUMPDEST PUSH0 PUSH3 0x10000 DUP5 AND PUSH1 0xF SIGNEXTEND SGT ISZERO PUSH2 0x1278 JUMPI PUSH1 0x80 PUSH17 0x1000000000000B17217F7D1CFB72B45E1 DUP3 MUL SWAP1 SHR SWAP1 POP JUMPDEST PUSH0 PUSH2 0x8000 DUP5 AND PUSH1 0xF SIGNEXTEND SGT ISZERO PUSH2 0x12A2 JUMPI PUSH1 0x80 PUSH17 0x100000000000058B90BFBE8E7CC35C3F0 DUP3 MUL SWAP1 SHR SWAP1 POP JUMPDEST PUSH0 PUSH2 0x4000 DUP5 AND PUSH1 0xF SIGNEXTEND SGT ISZERO PUSH2 0x12CC JUMPI PUSH1 0x80 PUSH17 0x10000000000002C5C85FDF473E242EA38 DUP3 MUL SWAP1 SHR SWAP1 POP JUMPDEST PUSH0 PUSH2 0x2000 DUP5 AND PUSH1 0xF SIGNEXTEND SGT ISZERO PUSH2 0x12F6 JUMPI PUSH1 0x80 PUSH17 0x1000000000000162E42FEFA39F02B772C DUP3 MUL SWAP1 SHR SWAP1 POP JUMPDEST PUSH0 PUSH2 0x1000 DUP5 AND PUSH1 0xF SIGNEXTEND SGT ISZERO PUSH2 0x1320 JUMPI PUSH1 0x80 PUSH17 0x10000000000000B17217F7D1CF7D83C1A DUP3 MUL SWAP1 SHR SWAP1 POP JUMPDEST PUSH0 PUSH2 0x800 DUP5 AND PUSH1 0xF SIGNEXTEND SGT ISZERO PUSH2 0x134A JUMPI PUSH1 0x80 PUSH17 0x1000000000000058B90BFBE8E7BDCBE2E DUP3 MUL SWAP1 SHR SWAP1 POP JUMPDEST PUSH0 PUSH2 0x400 DUP5 AND PUSH1 0xF SIGNEXTEND SGT ISZERO PUSH2 0x1374 JUMPI PUSH1 0x80 PUSH17 0x100000000000002C5C85FDF473DEA871F DUP3 MUL SWAP1 SHR SWAP1 POP JUMPDEST PUSH0 PUSH2 0x200 DUP5 AND PUSH1 0xF SIGNEXTEND SGT ISZERO PUSH2 0x139E JUMPI PUSH1 0x80 PUSH17 0x10000000000000162E42FEFA39EF44D91 DUP3 MUL SWAP1 SHR SWAP1 POP JUMPDEST PUSH0 PUSH2 0x100 DUP5 AND PUSH1 0xF SIGNEXTEND SGT ISZERO PUSH2 0x13C8 JUMPI PUSH1 0x80 PUSH17 0x100000000000000B17217F7D1CF79E949 DUP3 MUL SWAP1 SHR SWAP1 POP JUMPDEST PUSH0 PUSH1 0x80 DUP5 AND PUSH1 0xF SIGNEXTEND SGT ISZERO PUSH2 0x13F1 JUMPI PUSH1 0x80 PUSH17 0x10000000000000058B90BFBE8E7BCE544 DUP3 MUL SWAP1 SHR SWAP1 POP JUMPDEST PUSH0 PUSH1 0x40 DUP5 AND PUSH1 0xF SIGNEXTEND SGT ISZERO PUSH2 0x141A JUMPI PUSH1 0x80 PUSH17 0x1000000000000002C5C85FDF473DE6ECA DUP3 MUL SWAP1 SHR SWAP1 POP JUMPDEST PUSH0 PUSH1 0x20 DUP5 AND PUSH1 0xF SIGNEXTEND SGT ISZERO PUSH2 0x1443 JUMPI PUSH1 0x80 PUSH17 0x100000000000000162E42FEFA39EF366F DUP3 MUL SWAP1 SHR SWAP1 POP JUMPDEST PUSH0 PUSH1 0x10 DUP5 AND PUSH1 0xF SIGNEXTEND SGT ISZERO PUSH2 0x146C JUMPI PUSH1 0x80 PUSH17 0x1000000000000000B17217F7D1CF79AFA DUP3 MUL SWAP1 SHR SWAP1 POP JUMPDEST PUSH0 PUSH1 0x8 DUP5 AND PUSH1 0xF SIGNEXTEND SGT ISZERO PUSH2 0x1495 JUMPI PUSH1 0x80 PUSH17 0x100000000000000058B90BFBE8E7BCD6D DUP3 MUL SWAP1 SHR SWAP1 POP JUMPDEST PUSH0 PUSH1 0x4 DUP5 AND PUSH1 0xF SIGNEXTEND SGT ISZERO PUSH2 0x14BE JUMPI PUSH1 0x80 PUSH17 0x10000000000000002C5C85FDF473DE6B2 DUP3 MUL SWAP1 SHR SWAP1 POP JUMPDEST PUSH0 PUSH1 0x2 DUP5 AND PUSH1 0xF SIGNEXTEND SGT ISZERO PUSH2 0x14E7 JUMPI PUSH1 0x80 PUSH17 0x1000000000000000162E42FEFA39EF358 DUP3 MUL SWAP1 SHR SWAP1 POP JUMPDEST PUSH0 PUSH1 0x1 DUP5 AND PUSH1 0xF SIGNEXTEND SGT ISZERO PUSH2 0x1510 JUMPI PUSH1 0x80 PUSH17 0x10000000000000000B17217F7D1CF79AB DUP3 MUL SWAP1 SHR SWAP1 POP JUMPDEST PUSH1 0x40 DUP4 PUSH1 0xF SIGNEXTEND SWAP1 SAR PUSH1 0x3F SUB PUSH1 0xF SIGNEXTEND DUP2 SWAP1 SHR SWAP1 POP PUSH16 0x7FFFFFFFFFFFFFFFFFFFFFFFFFFFFFFF PUSH1 0xF SIGNEXTEND DUP2 GT ISZERO PUSH2 0x1542 JUMPI PUSH0 DUP1 REVERT JUMPDEST DUP1 SWAP2 POP POP JUMPDEST SWAP2 SWAP1 POP JUMP JUMPDEST PUSH0 PUSH1 0x40 MLOAD SWAP1 POP SWAP1 JUMP JUMPDEST PUSH0 DUP1 REVERT JUMPDEST PUSH0 DUP1 REVERT JUMPDEST PUSH0 DUP1 REVERT JUMPDEST PUSH0 DUP1 REVERT JUMPDEST PUSH0 PUSH1 0x1F NOT PUSH1 0x1F DUP4 ADD AND SWAP1 POP SWAP2 SWAP1 POP JUMP JUMPDEST PUSH32 0x4E487B7100000000000000000000000000000000000000000000000000000000 PUSH0 MSTORE PUSH1 0x41 PUSH1 0x4 MSTORE PUSH1 0x24 PUSH0 REVERT JUMPDEST PUSH2 0x15AB DUP3 PUSH2 0x1565 JUMP JUMPDEST DUP2 ADD DUP2 DUP2 LT PUSH8 0xFFFFFFFFFFFFFFFF DUP3 GT OR ISZERO PUSH2 0x15CA JUMPI PUSH2 0x15C9 PUSH2 0x1575 JUMP JUMPDEST JUMPDEST DUP1 PUSH1 0x40 MSTORE POP POP POP JUMP JUMPDEST PUSH0 PUSH2 0x15DC PUSH2 0x154C JUMP JUMPDEST SWAP1 POP PUSH2 0x15E8 DUP3 DUP3 PUSH2 0x15A2 JUMP JUMPDEST SWAP2 SWAP1 POP JUMP JUMPDEST PUSH0 PUSH8 0xFFFFFFFFFFFFFFFF DUP3 GT ISZERO PUSH2 0x1607 JUMPI PUSH2 0x1606 PUSH2 0x1575 JUMP JUMPDEST JUMPDEST PUSH2 0x1610 DUP3 PUSH2 0x1565 JUMP JUMPDEST SWAP1 POP PUSH1 0x20 DUP2 ADD SWAP1 POP SWAP2 SWAP1 POP JUMP JUMPDEST DUP3 DUP2 DUP4 CALLDATACOPY PUSH0 DUP4 DUP4 ADD MSTORE POP POP POP JUMP JUMPDEST PUSH0 PUSH2 0x163D PUSH2 0x1638 DUP5 PUSH2 0x15ED JUMP JUMPDEST PUSH2 0x15D3 JUMP JUMPDEST SWAP1 POP DUP3 DUP2 MSTORE PUSH1 0x20 DUP2 ADD DUP5 DUP5 DUP5 ADD GT ISZERO PUSH2 0x1659 JUMPI PUSH2 0x1658 PUSH2 0x1561 JUMP JUMPDEST JUMPDEST PUSH2 0x1664 DUP5 DUP3 DUP6 PUSH2 0x161D JUMP JUMPDEST POP SWAP4 SWAP3 POP POP POP JUMP JUMPDEST PUSH0 DUP3 PUSH1 0x1F DUP4 ADD SLT PUSH2 0x1680 JUMPI PUSH2 0x167F PUSH2 0x155D JUMP JUMPDEST JUMPDEST DUP2 CALLDATALOAD PUSH2 0x1690 DUP5 DUP3 PUSH1 0x20 DUP7 ADD PUSH2 0x162B JUMP JUMPDEST SWAP2 POP POP SWAP3 SWAP2 POP POP JUMP JUMPDEST PUSH0 PUSH2 0xFFFF DUP3 AND SWAP1 POP SWAP2 SWAP1 POP JUMP JUMPDEST PUSH2 0x16AF DUP2 PUSH2 0x1699 JUMP JUMPDEST DUP2 EQ PUSH2 0x16B9 JUMPI PUSH0 DUP1 REVERT JUMPDEST POP JUMP JUMPDEST PUSH0 DUP2 CALLDATALOAD SWAP1 POP PUSH2 0x16CA DUP2 PUSH2 0x16A6 JUMP JUMPDEST SWAP3 SWAP2 POP POP JUMP JUMPDEST PUSH0 DUP1 PUSH1 0x40 DUP4 DUP6 SUB SLT ISZERO PUSH2 0x16E6 JUMPI PUSH2 0x16E5 PUSH2 0x1555 JUMP JUMPDEST JUMPDEST PUSH0 DUP4 ADD CALLDATALOAD PUSH8 0xFFFFFFFFFFFFFFFF DUP2 GT ISZERO PUSH2 0x1703 JUMPI PUSH2 0x1702 PUSH2 0x1559 JUMP JUMPDEST JUMPDEST PUSH2 0x170F DUP6 DUP3 DUP7 ADD PUSH2 0x166C JUMP JUMPDEST SWAP3 POP POP PUSH1 0x20 PUSH2 0x1720 DUP6 DUP3 DUP7 ADD PUSH2 0x16BC JUMP JUMPDEST SWAP2 POP POP SWAP3 POP SWAP3 SWAP1 POP JUMP JUMPDEST PUSH0 PUSH1 0x20 DUP3 DUP5 SUB SLT ISZERO PUSH2 0x173F JUMPI PUSH2 0x173E PUSH2 0x1555 JUMP JUMPDEST JUMPDEST PUSH0 PUSH2 0x174C DUP5 DUP3 DUP6 ADD PUSH2 0x16BC JUMP JUMPDEST SWAP2 POP POP SWAP3 SWAP2 POP POP JUMP JUMPDEST PUSH0 PUSH1 0x20 DUP3 DUP5 SUB SLT ISZERO PUSH2 0x176A JUMPI PUSH2 0x1769 PUSH2 0x1555 JUMP JUMPDEST JUMPDEST PUSH0 DUP3 ADD CALLDATALOAD PUSH8 0xFFFFFFFFFFFFFFFF DUP2 GT ISZERO PUSH2 0x1787 JUMPI PUSH2 0x1786 PUSH2 0x1559 JUMP JUMPDEST JUMPDEST PUSH2 0x1793 DUP5 DUP3 DUP6 ADD PUSH2 0x166C JUMP JUMPDEST SWAP2 POP POP SWAP3 SWAP2 POP POP JUMP JUMPDEST PUSH2 0x17A5 DUP2 PUSH2 0x1699 JUMP JUMPDEST DUP3 MSTORE POP POP JUMP JUMPDEST PUSH0 PUSH1 0x20 DUP3 ADD SWAP1 POP PUSH2 0x17BE PUSH0 DUP4 ADD DUP5 PUSH2 0x179C JUMP JUMPDEST SWAP3 SWAP2 POP POP JUMP JUMPDEST PUSH0 DUP2 ISZERO ISZERO SWAP1 POP SWAP2 SWAP1 POP JUMP JUMPDEST PUSH2 0x17D8 DUP2 PUSH2 0x17C4 JUMP JUMPDEST DUP2 EQ PUSH2 0x17E2 JUMPI PUSH0 DUP1 REVERT JUMPDEST POP JUMP JUMPDEST PUSH0 DUP2 CALLDATALOAD SWAP1 POP PUSH2 0x17F3 DUP2 PUSH2 0x17CF JUMP JUMPDEST SWAP3 SWAP2 POP POP JUMP JUMPDEST PUSH0 DUP1 PUSH0 PUSH1 0x60 DUP5 DUP7 SUB SLT ISZERO PUSH2 0x1810 JUMPI PUSH2 0x180F PUSH2 0x1555 JUMP JUMPDEST JUMPDEST PUSH0 DUP5 ADD CALLDATALOAD PUSH8 0xFFFFFFFFFFFFFFFF DUP2 GT ISZERO PUSH2 0x182D JUMPI PUSH2 0x182C PUSH2 0x1559 JUMP JUMPDEST JUMPDEST PUSH2 0x1839 DUP7 DUP3 DUP8 ADD PUSH2 0x166C JUMP JUMPDEST SWAP4 POP POP PUSH1 0x20 PUSH2 0x184A DUP7 DUP3 DUP8 ADD PUSH2 0x16BC JUMP JUMPDEST SWAP3 POP POP PUSH1 0x40 PUSH2 0x185B DUP7 DUP3 DUP8 ADD PUSH2 0x17E5 JUMP JUMPDEST SWAP2 POP POP SWAP3 POP SWAP3 POP SWAP3 JUMP JUMPDEST PUSH0 DUP2 MLOAD SWAP1 POP SWAP2 SWAP1 POP JUMP JUMPDEST PUSH0 DUP2 SWAP1 POP SWAP3 SWAP2 POP POP JUMP JUMPDEST DUP3 DUP2 DUP4 MCOPY PUSH0 DUP4 DUP4 ADD MSTORE POP POP POP JUMP JUMPDEST PUSH0 PUSH2 0x1891 DUP3 PUSH2 0x1865 JUMP JUMPDEST PUSH2 0x189B DUP2 DUP6 PUSH2 0x186F JUMP JUMPDEST SWAP4 POP PUSH2 0x18AB DUP2 DUP6 PUSH1 0x20 DUP7 ADD PUSH2 0x1879 JUMP JUMPDEST DUP1 DUP5 ADD SWAP2 POP POP SWAP3 SWAP2 POP POP JUMP JUMPDEST PUSH0 PUSH2 0x18C2 DUP3 DUP5 PUSH2 0x1887 JUMP JUMPDEST SWAP2 POP DUP2 SWAP1 POP SWAP3 SWAP2 POP POP JUMP JUMPDEST PUSH0 DUP3 DUP3 MSTORE PUSH1 0x20 DUP3 ADD SWAP1 POP SWAP3 SWAP2 POP POP JUMP JUMPDEST PUSH0 PUSH2 0x18E7 DUP3 PUSH2 0x1865 JUMP JUMPDEST PUSH2 0x18F1 DUP2 DUP6 PUSH2 0x18CD JUMP JUMPDEST SWAP4 POP PUSH2 0x1901 DUP2 DUP6 PUSH1 0x20 DUP7 ADD PUSH2 0x1879 JUMP JUMPDEST PUSH2 0x190A DUP2 PUSH2 0x1565 JUMP JUMPDEST DUP5 ADD SWAP2 POP POP SWAP3 SWAP2 POP POP JUMP JUMPDEST PUSH0 PUSH1 0x40 DUP3 ADD SWAP1 POP DUP2 DUP2 SUB PUSH0 DUP4 ADD MSTORE PUSH2 0x192D DUP2 DUP6 PUSH2 0x18DD JUMP JUMPDEST SWAP1 POP PUSH2 0x193C PUSH1 0x20 DUP4 ADD DUP5 PUSH2 0x179C JUMP JUMPDEST SWAP4 SWAP3 POP POP POP JUMP JUMPDEST PUSH32 0x496E76616C6964207573657220456C6F00000000000000000000000000000000 PUSH0 DUP3 ADD MSTORE POP JUMP JUMPDEST PUSH0 PUSH2 0x1977 PUSH1 0x10 DUP4 PUSH2 0x18CD JUMP JUMPDEST SWAP2 POP PUSH2 0x1982 DUP3 PUSH2 0x1943 JUMP JUMPDEST PUSH1 0x20 DUP3 ADD SWAP1 POP SWAP2 SWAP1 POP JUMP JUMPDEST PUSH0 PUSH1 0x20 DUP3 ADD SWAP1 POP DUP2 DUP2 SUB PUSH0 DUP4 ADD MSTORE PUSH2 0x19A4 DUP2 PUSH2 0x196B JUMP JUMPDEST SWAP1 POP SWAP2 SWAP1 POP JUMP JUMPDEST PUSH0 DUP2 PUSH1 0x1 SIGNEXTEND SWAP1 POP SWAP2 SWAP1 POP JUMP JUMPDEST PUSH32 0x4E487B7100000000000000000000000000000000000000000000000000000000 PUSH0 MSTORE PUSH1 0x11 PUSH1 0x4 MSTORE PUSH1 0x24 PUSH0 REVERT JUMPDEST PUSH0 PUSH2 0x19EE DUP3 PUSH2 0x19AB JUMP JUMPDEST SWAP2 POP PUSH2 0x19F9 DUP4 PUSH2 0x19AB JUMP JUMPDEST SWAP3 POP DUP3 DUP3 SUB SWAP1 POP PUSH2 0x7FFF DUP2 SGT PUSH32 0xFFFFFFFFFFFFFFFFFFFFFFFFFFFFFFFFFFFFFFFFFFFFFFFFFFFFFFFFFFFF8000 DUP3 SLT OR ISZERO PUSH2 0x1A37 JUMPI PUSH2 0x1A36 PUSH2 0x19B7 JUMP JUMPDEST JUMPDEST SWAP3 SWAP2 POP POP JUMP JUMPDEST PUSH0 PUSH2 0x1A47 DUP3 PUSH2 0x19AB JUMP JUMPDEST SWAP2 POP PUSH2 0x1A52 DUP4 PUSH2 0x19AB JUMP JUMPDEST SWAP3 POP DUP3 DUP3 ADD SWAP1 POP PUSH32 0xFFFFFFFFFFFFFFFFFFFFFFFFFFFFFFFFFFFFFFFFFFFFFFFFFFFFFFFFFFFF8000 DUP2 SLT PUSH2 0x7FFF DUP3 SGT OR ISZERO PUSH2 0x1A90 JUMPI PUSH2 0x1A8F PUSH2 0x19B7 JUMP JUMPDEST JUMPDEST SWAP3 SWAP2 POP POP JUMP JUMPDEST PUSH32 0x4E487B7100000000000000000000000000000000000000000000000000000000 PUSH0 MSTORE PUSH1 0x12 PUSH1 0x4 MSTORE PUSH1 0x24 PUSH0 REVERT INVALID LOG2 PUSH5 0x6970667358 0x22 SLT KECCAK256 OR 0xB4 PREVRANDAO 0xDA EXTCODECOPY PUSH15 0x2C3D4D53099CD5E32E6445D4914EAB JUMPI PUSH21 0xB9B2A2F7D4E6287A7864736F6C634300081A003300 "
				},
				"gasEstimates": {
					"creation": {
						"codeDepositCost": "1381000",
						"executionCost": "infinite",
						"totalCost": "infinite"
					},
					"external": {
						"K_FACTOR()": "2510",
						"getRanking(string)": "infinite",
						"rankings(string)": "infinite",
						"setKFactor(uint16)": "infinite",
						"setRanking(string,uint16)": "infinite",
						"updateRanking(string,uint16,bool)": "infinite"
					},
					"internal": {
						"calculateExpectedScore(int16)": "infinite"
					}
				},
				"methodIdentifiers": {
					"K_FACTOR()": "77519b73",
					"getRanking(string)": "46e7a1dc",
					"rankings(string)": "fdf3f74d",
					"setKFactor(uint16)": "2a641fdb",
					"setRanking(string,uint16)": "1f5bc0cf",
					"updateRanking(string,uint16,bool)": "950b409b"
				}
			},
			"storageLayout": {
				"storage": [
					{
						"astId": 2819,
						"contract": "contracts/userranking.sol:UserRanking",
						"label": "rankings",
						"offset": 0,
						"slot": "0",
						"type": "t_mapping(t_string_memory_ptr,t_uint16)"
					},
					{
						"astId": 2831,
						"contract": "contracts/userranking.sol:UserRanking",
						"label": "K_FACTOR",
						"offset": 0,
						"slot": "1",
						"type": "t_uint16"
					}
				],
				"types": {
					"t_mapping(t_string_memory_ptr,t_uint16)": {
						"encoding": "mapping",
						"key": "t_string_memory_ptr",
						"label": "mapping(string => uint16)",
						"numberOfBytes": "32",
						"value": "t_uint16"
					},
					"t_string_memory_ptr": {
						"encoding": "bytes",
						"label": "string",
						"numberOfBytes": "32"
					},
					"t_uint16": {
						"encoding": "inplace",
						"label": "uint16",
						"numberOfBytes": "2"
					}
				}
			},
			"userdoc": {
				"kind": "user",
				"methods": {},
				"version": 1
			}
		}
	}
}