{
	"contracts/userranking.sol": {
		"UserRanking": {
			"abi": [
				{
					"anonymous": false,
					"inputs": [
						{
							"indexed": false,
							"internalType": "string",
							"name": "userId",
							"type": "string"
						},
						{
							"indexed": false,
							"internalType": "uint8",
							"name": "rank",
							"type": "uint8"
						}
					],
					"name": "RankingUpdated",
					"type": "event"
				},
				{
					"inputs": [
						{
							"internalType": "string",
							"name": "userId",
							"type": "string"
						},
						{
							"internalType": "uint8",
							"name": "count",
							"type": "uint8"
						}
					],
					"name": "decrement",
					"outputs": [],
					"stateMutability": "nonpayable",
					"type": "function"
				},
				{
					"inputs": [
						{
							"internalType": "string",
							"name": "userId",
							"type": "string"
						}
					],
					"name": "getRanking",
					"outputs": [
						{
							"internalType": "uint8",
							"name": "",
							"type": "uint8"
						}
					],
					"stateMutability": "view",
					"type": "function"
				},
				{
					"inputs": [
						{
							"internalType": "string",
							"name": "userId",
							"type": "string"
						},
						{
							"internalType": "uint8",
							"name": "count",
							"type": "uint8"
						}
					],
					"name": "increment",
					"outputs": [],
					"stateMutability": "nonpayable",
					"type": "function"
				},
				{
					"inputs": [
						{
							"internalType": "string",
							"name": "",
							"type": "string"
						}
					],
					"name": "rankings",
					"outputs": [
						{
							"internalType": "uint8",
							"name": "",
							"type": "uint8"
						}
					],
					"stateMutability": "view",
					"type": "function"
				},
				{
					"inputs": [
						{
							"internalType": "string",
							"name": "userId",
							"type": "string"
						},
						{
							"internalType": "uint8",
							"name": "rank",
							"type": "uint8"
						}
					],
					"name": "setRanking",
					"outputs": [],
					"stateMutability": "nonpayable",
					"type": "function"
				},
				{
					"inputs": [
						{
							"internalType": "string",
							"name": "userId",
							"type": "string"
						},
						{
							"internalType": "uint8",
							"name": "networkEloRating",
							"type": "uint8"
						},
						{
							"internalType": "uint8",
							"name": "networkStrictnessRating",
							"type": "uint8"
						},
						{
							"internalType": "bool",
							"name": "isAbuser",
							"type": "bool"
						}
					],
					"name": "updateRanking",
					"outputs": [],
					"stateMutability": "nonpayable",
					"type": "function"
				}
			],
			"devdoc": {
				"kind": "dev",
				"methods": {},
				"version": 1
			},
			"evm": {
				"assembly": "    /* \"contracts/userranking.sol\":57:1373  contract UserRanking {... */\n  mstore(0x40, 0x80)\n  callvalue\n  dup1\n  iszero\n  tag_1\n  jumpi\n  0x00\n  dup1\n  revert\ntag_1:\n  pop\n  dataSize(sub_0)\n  dup1\n  dataOffset(sub_0)\n  0x00\n  codecopy\n  0x00\n  return\nstop\n\nsub_0: assembly {\n        /* \"contracts/userranking.sol\":57:1373  contract UserRanking {... */\n      mstore(0x40, 0x80)\n      callvalue\n      dup1\n      iszero\n      tag_1\n      jumpi\n      0x00\n      dup1\n      revert\n    tag_1:\n      pop\n      jumpi(tag_2, lt(calldatasize, 0x04))\n      shr(0xe0, calldataload(0x00))\n      dup1\n      0x1a711a66\n      eq\n      tag_3\n      jumpi\n      dup1\n      0x46e7a1dc\n      eq\n      tag_4\n      jumpi\n      dup1\n      0x686c705e\n      eq\n      tag_5\n      jumpi\n      dup1\n      0x99969b9a\n      eq\n      tag_6\n      jumpi\n      dup1\n      0xad71108b\n      eq\n      tag_7\n      jumpi\n      dup1\n      0xfdf3f74d\n      eq\n      tag_8\n      jumpi\n    tag_2:\n      0x00\n      dup1\n      revert\n        /* \"contracts/userranking.sol\":196:340  function setRanking(string memory userId, uint8 rank) public {... */\n    tag_3:\n      tag_9\n      0x04\n      dup1\n      calldatasize\n      sub\n      dup2\n      add\n      swap1\n      tag_10\n      swap2\n      swap1\n      tag_11\n      jump\t// in\n    tag_10:\n      tag_12\n      jump\t// in\n    tag_9:\n      stop\n        /* \"contracts/userranking.sol\":346:456  function getRanking(string memory userId) public view returns (uint8) {... */\n    tag_4:\n      tag_13\n      0x04\n      dup1\n      calldatasize\n      sub\n      dup2\n      add\n      swap1\n      tag_14\n      swap2\n      swap1\n      tag_15\n      jump\t// in\n    tag_14:\n      tag_16\n      jump\t// in\n    tag_13:\n      mload(0x40)\n      tag_17\n      swap2\n      swap1\n      tag_18\n      jump\t// in\n    tag_17:\n      mload(0x40)\n      dup1\n      swap2\n      sub\n      swap1\n      return\n        /* \"contracts/userranking.sol\":661:852  function decrement(string memory userId, uint8 count) public {... */\n    tag_5:\n      tag_19\n      0x04\n      dup1\n      calldatasize\n      sub\n      dup2\n      add\n      swap1\n      tag_20\n      swap2\n      swap1\n      tag_11\n      jump\t// in\n    tag_20:\n      tag_21\n      jump\t// in\n    tag_19:\n      stop\n        /* \"contracts/userranking.sol\":857:1362  function updateRanking(string memory userId, uint8 networkEloRating, uint8 networkStrictnessRating, bool isAbuser) public {... */\n    tag_6:\n      tag_22\n      0x04\n      dup1\n      calldatasize\n      sub\n      dup2\n      add\n      swap1\n      tag_23\n      swap2\n      swap1\n      tag_24\n      jump\t// in\n    tag_23:\n      tag_25\n      jump\t// in\n    tag_22:\n      stop\n        /* \"contracts/userranking.sol\":462:656  function increment(string memory userId, uint8 count) public {... */\n    tag_7:\n      tag_26\n      0x04\n      dup1\n      calldatasize\n      sub\n      dup2\n      add\n      swap1\n      tag_27\n      swap2\n      swap1\n      tag_11\n      jump\t// in\n    tag_27:\n      tag_28\n      jump\t// in\n    tag_26:\n      stop\n        /* \"contracts/userranking.sol\":88:128  mapping(string => uint8) public rankings */\n    tag_8:\n      tag_29\n      0x04\n      dup1\n      calldatasize\n      sub\n      dup2\n      add\n      swap1\n      tag_30\n      swap2\n      swap1\n      tag_15\n      jump\t// in\n    tag_30:\n      tag_31\n      jump\t// in\n    tag_29:\n      mload(0x40)\n      tag_32\n      swap2\n      swap1\n      tag_18\n      jump\t// in\n    tag_32:\n      mload(0x40)\n      dup1\n      swap2\n      sub\n      swap1\n      return\n        /* \"contracts/userranking.sol\":196:340  function setRanking(string memory userId, uint8 rank) public {... */\n    tag_12:\n        /* \"contracts/userranking.sol\":286:290  rank */\n      dup1\n        /* \"contracts/userranking.sol\":267:275  rankings */\n      0x00\n        /* \"contracts/userranking.sol\":276:282  userId */\n      dup4\n        /* \"contracts/userranking.sol\":267:283  rankings[userId] */\n      mload(0x40)\n      tag_34\n      swap2\n      swap1\n      tag_35\n      jump\t// in\n    tag_34:\n      swap1\n      dup2\n      mstore\n      0x20\n      add\n      mload(0x40)\n      dup1\n      swap2\n      sub\n      swap1\n      keccak256\n      0x00\n        /* \"contracts/userranking.sol\":267:290  rankings[userId] = rank */\n      0x0100\n      exp\n      dup2\n      sload\n      dup2\n      0xff\n      mul\n      not\n      and\n      swap1\n      dup4\n      0xff\n      and\n      mul\n      or\n      swap1\n      sstore\n      pop\n        /* \"contracts/userranking.sol\":305:333  RankingUpdated(userId, rank) */\n      0x93fc8f428ce2f5010e1891417f1312cf2f7be40f162dc5911a796250187881e7\n        /* \"contracts/userranking.sol\":320:326  userId */\n      dup3\n        /* \"contracts/userranking.sol\":328:332  rank */\n      dup3\n        /* \"contracts/userranking.sol\":305:333  RankingUpdated(userId, rank) */\n      mload(0x40)\n      tag_36\n      swap3\n      swap2\n      swap1\n      tag_37\n      jump\t// in\n    tag_36:\n      mload(0x40)\n      dup1\n      swap2\n      sub\n      swap1\n      log1\n        /* \"contracts/userranking.sol\":196:340  function setRanking(string memory userId, uint8 rank) public {... */\n      pop\n      pop\n      jump\t// out\n        /* \"contracts/userranking.sol\":346:456  function getRanking(string memory userId) public view returns (uint8) {... */\n    tag_16:\n        /* \"contracts/userranking.sol\":409:414  uint8 */\n      0x00\n        /* \"contracts/userranking.sol\":433:441  rankings */\n      dup1\n        /* \"contracts/userranking.sol\":442:448  userId */\n      dup3\n        /* \"contracts/userranking.sol\":433:449  rankings[userId] */\n      mload(0x40)\n      tag_39\n      swap2\n      swap1\n      tag_35\n      jump\t// in\n    tag_39:\n      swap1\n      dup2\n      mstore\n      0x20\n      add\n      mload(0x40)\n      dup1\n      swap2\n      sub\n      swap1\n      keccak256\n      0x00\n      swap1\n      sload\n      swap1\n      0x0100\n      exp\n      swap1\n      div\n      0xff\n      and\n        /* \"contracts/userranking.sol\":426:449  return rankings[userId] */\n      swap1\n      pop\n        /* \"contracts/userranking.sol\":346:456  function getRanking(string memory userId) public view returns (uint8) {... */\n      swap2\n      swap1\n      pop\n      jump\t// out\n        /* \"contracts/userranking.sol\":661:852  function decrement(string memory userId, uint8 count) public {... */\n    tag_21:\n        /* \"contracts/userranking.sol\":752:757  count */\n      dup1\n        /* \"contracts/userranking.sol\":732:740  rankings */\n      0x00\n        /* \"contracts/userranking.sol\":741:747  userId */\n      dup4\n        /* \"contracts/userranking.sol\":732:748  rankings[userId] */\n      mload(0x40)\n      tag_41\n      swap2\n      swap1\n      tag_35\n      jump\t// in\n    tag_41:\n      swap1\n      dup2\n      mstore\n      0x20\n      add\n      mload(0x40)\n      dup1\n      swap2\n      sub\n      swap1\n      keccak256\n      0x00\n        /* \"contracts/userranking.sol\":732:757  rankings[userId] -= count */\n      dup3\n      dup3\n      dup3\n      swap1\n      sload\n      swap1\n      0x0100\n      exp\n      swap1\n      div\n      0xff\n      and\n      tag_42\n      swap2\n      swap1\n      tag_43\n      jump\t// in\n    tag_42:\n      swap3\n      pop\n      0x0100\n      exp\n      dup2\n      sload\n      dup2\n      0xff\n      mul\n      not\n      and\n      swap1\n      dup4\n      0xff\n      and\n      mul\n      or\n      swap1\n      sstore\n      pop\n        /* \"contracts/userranking.sol\":767:780  uint8 newRank */\n      0x00\n        /* \"contracts/userranking.sol\":783:791  rankings */\n      dup1\n        /* \"contracts/userranking.sol\":792:798  userId */\n      dup4\n        /* \"contracts/userranking.sol\":783:799  rankings[userId] */\n      mload(0x40)\n      tag_44\n      swap2\n      swap1\n      tag_35\n      jump\t// in\n    tag_44:\n      swap1\n      dup2\n      mstore\n      0x20\n      add\n      mload(0x40)\n      dup1\n      swap2\n      sub\n      swap1\n      keccak256\n      0x00\n      swap1\n      sload\n      swap1\n      0x0100\n      exp\n      swap1\n      div\n      0xff\n      and\n        /* \"contracts/userranking.sol\":767:799  uint8 newRank = rankings[userId] */\n      swap1\n      pop\n        /* \"contracts/userranking.sol\":814:845  RankingUpdated(userId, newRank) */\n      0x93fc8f428ce2f5010e1891417f1312cf2f7be40f162dc5911a796250187881e7\n        /* \"contracts/userranking.sol\":829:835  userId */\n      dup4\n        /* \"contracts/userranking.sol\":837:844  newRank */\n      dup3\n        /* \"contracts/userranking.sol\":814:845  RankingUpdated(userId, newRank) */\n      mload(0x40)\n      tag_45\n      swap3\n      swap2\n      swap1\n      tag_37\n      jump\t// in\n    tag_45:\n      mload(0x40)\n      dup1\n      swap2\n      sub\n      swap1\n      log1\n        /* \"contracts/userranking.sol\":722:852  {... */\n      pop\n        /* \"contracts/userranking.sol\":661:852  function decrement(string memory userId, uint8 count) public {... */\n      pop\n      pop\n      jump\t// out\n        /* \"contracts/userranking.sol\":857:1362  function updateRanking(string memory userId, uint8 networkEloRating, uint8 networkStrictnessRating, bool isAbuser) public {... */\n    tag_25:\n        /* \"contracts/userranking.sol\":993:1001  isAbuser */\n      dup1\n        /* \"contracts/userranking.sol\":989:1138  if (isAbuser) {... */\n      iszero\n      tag_47\n      jumpi\n        /* \"contracts/userranking.sol\":1037:1060  networkStrictnessRating */\n      dup2\n        /* \"contracts/userranking.sol\":1017:1025  rankings */\n      0x00\n        /* \"contracts/userranking.sol\":1026:1032  userId */\n      dup6\n        /* \"contracts/userranking.sol\":1017:1033  rankings[userId] */\n      mload(0x40)\n      tag_48\n      swap2\n      swap1\n      tag_35\n      jump\t// in\n    tag_48:\n      swap1\n      dup2\n      mstore\n      0x20\n      add\n      mload(0x40)\n      dup1\n      swap2\n      sub\n      swap1\n      keccak256\n      0x00\n        /* \"contracts/userranking.sol\":1017:1060  rankings[userId] -= networkStrictnessRating */\n      dup3\n      dup3\n      dup3\n      swap1\n      sload\n      swap1\n      0x0100\n      exp\n      swap1\n      div\n      0xff\n      and\n      tag_49\n      swap2\n      swap1\n      tag_43\n      jump\t// in\n    tag_49:\n      swap3\n      pop\n      0x0100\n      exp\n      dup2\n      sload\n      dup2\n      0xff\n      mul\n      not\n      and\n      swap1\n      dup4\n      0xff\n      and\n      mul\n      or\n      swap1\n      sstore\n      pop\n        /* \"contracts/userranking.sol\":989:1138  if (isAbuser) {... */\n      jump(tag_50)\n    tag_47:\n        /* \"contracts/userranking.sol\":1111:1127  networkEloRating */\n      dup3\n        /* \"contracts/userranking.sol\":1091:1099  rankings */\n      0x00\n        /* \"contracts/userranking.sol\":1100:1106  userId */\n      dup6\n        /* \"contracts/userranking.sol\":1091:1107  rankings[userId] */\n      mload(0x40)\n      tag_51\n      swap2\n      swap1\n      tag_35\n      jump\t// in\n    tag_51:\n      swap1\n      dup2\n      mstore\n      0x20\n      add\n      mload(0x40)\n      dup1\n      swap2\n      sub\n      swap1\n      keccak256\n      0x00\n        /* \"contracts/userranking.sol\":1091:1127  rankings[userId] += networkEloRating */\n      dup3\n      dup3\n      dup3\n      swap1\n      sload\n      swap1\n      0x0100\n      exp\n      swap1\n      div\n      0xff\n      and\n      tag_52\n      swap2\n      swap1\n      tag_53\n      jump\t// in\n    tag_52:\n      swap3\n      pop\n      0x0100\n      exp\n      dup2\n      sload\n      dup2\n      0xff\n      mul\n      not\n      and\n      swap1\n      dup4\n      0xff\n      and\n      mul\n      or\n      swap1\n      sstore\n      pop\n        /* \"contracts/userranking.sol\":989:1138  if (isAbuser) {... */\n    tag_50:\n        /* \"contracts/userranking.sol\":1171:1172  0 */\n      0x00\n        /* \"contracts/userranking.sol\":1152:1160  rankings */\n      dup1\n        /* \"contracts/userranking.sol\":1161:1167  userId */\n      dup6\n        /* \"contracts/userranking.sol\":1152:1168  rankings[userId] */\n      mload(0x40)\n      tag_54\n      swap2\n      swap1\n      tag_35\n      jump\t// in\n    tag_54:\n      swap1\n      dup2\n      mstore\n      0x20\n      add\n      mload(0x40)\n      dup1\n      swap2\n      sub\n      swap1\n      keccak256\n      0x00\n      swap1\n      sload\n      swap1\n      0x0100\n      exp\n      swap1\n      div\n      0xff\n      and\n        /* \"contracts/userranking.sol\":1152:1172  rankings[userId] < 0 */\n      0xff\n      and\n      lt\n        /* \"contracts/userranking.sol\":1148:1300  if (rankings[userId] < 0) {... */\n      iszero\n      tag_55\n      jumpi\n        /* \"contracts/userranking.sol\":1207:1208  0 */\n      0x00\n        /* \"contracts/userranking.sol\":1188:1196  rankings */\n      dup1\n        /* \"contracts/userranking.sol\":1197:1203  userId */\n      dup6\n        /* \"contracts/userranking.sol\":1188:1204  rankings[userId] */\n      mload(0x40)\n      tag_56\n      swap2\n      swap1\n      tag_35\n      jump\t// in\n    tag_56:\n      swap1\n      dup2\n      mstore\n      0x20\n      add\n      mload(0x40)\n      dup1\n      swap2\n      sub\n      swap1\n      keccak256\n      0x00\n        /* \"contracts/userranking.sol\":1188:1208  rankings[userId] = 0 */\n      0x0100\n      exp\n      dup2\n      sload\n      dup2\n      0xff\n      mul\n      not\n      and\n      swap1\n      dup4\n      0xff\n      and\n      mul\n      or\n      swap1\n      sstore\n      pop\n        /* \"contracts/userranking.sol\":1148:1300  if (rankings[userId] < 0) {... */\n      jump(tag_57)\n    tag_55:\n        /* \"contracts/userranking.sol\":1248:1251  100 */\n      0x64\n        /* \"contracts/userranking.sol\":1229:1237  rankings */\n      0x00\n        /* \"contracts/userranking.sol\":1238:1244  userId */\n      dup6\n        /* \"contracts/userranking.sol\":1229:1245  rankings[userId] */\n      mload(0x40)\n      tag_58\n      swap2\n      swap1\n      tag_35\n      jump\t// in\n    tag_58:\n      swap1\n      dup2\n      mstore\n      0x20\n      add\n      mload(0x40)\n      dup1\n      swap2\n      sub\n      swap1\n      keccak256\n      0x00\n      swap1\n      sload\n      swap1\n      0x0100\n      exp\n      swap1\n      div\n      0xff\n      and\n        /* \"contracts/userranking.sol\":1229:1251  rankings[userId] > 100 */\n      0xff\n      and\n      gt\n        /* \"contracts/userranking.sol\":1225:1300  if (rankings[userId] > 100) {... */\n      iszero\n      tag_59\n      jumpi\n        /* \"contracts/userranking.sol\":1286:1289  100 */\n      0x64\n        /* \"contracts/userranking.sol\":1267:1275  rankings */\n      0x00\n        /* \"contracts/userranking.sol\":1276:1282  userId */\n      dup6\n        /* \"contracts/userranking.sol\":1267:1283  rankings[userId] */\n      mload(0x40)\n      tag_60\n      swap2\n      swap1\n      tag_35\n      jump\t// in\n    tag_60:\n      swap1\n      dup2\n      mstore\n      0x20\n      add\n      mload(0x40)\n      dup1\n      swap2\n      sub\n      swap1\n      keccak256\n      0x00\n        /* \"contracts/userranking.sol\":1267:1289  rankings[userId] = 100 */\n      0x0100\n      exp\n      dup2\n      sload\n      dup2\n      0xff\n      mul\n      not\n      and\n      swap1\n      dup4\n      0xff\n      and\n      mul\n      or\n      swap1\n      sstore\n      pop\n        /* \"contracts/userranking.sol\":1225:1300  if (rankings[userId] > 100) {... */\n    tag_59:\n        /* \"contracts/userranking.sol\":1148:1300  if (rankings[userId] < 0) {... */\n    tag_57:\n        /* \"contracts/userranking.sol\":1315:1355  RankingUpdated(userId, rankings[userId]) */\n      0x93fc8f428ce2f5010e1891417f1312cf2f7be40f162dc5911a796250187881e7\n        /* \"contracts/userranking.sol\":1330:1336  userId */\n      dup5\n        /* \"contracts/userranking.sol\":1338:1346  rankings */\n      0x00\n        /* \"contracts/userranking.sol\":1347:1353  userId */\n      dup7\n        /* \"contracts/userranking.sol\":1338:1354  rankings[userId] */\n      mload(0x40)\n      tag_61\n      swap2\n      swap1\n      tag_35\n      jump\t// in\n    tag_61:\n      swap1\n      dup2\n      mstore\n      0x20\n      add\n      mload(0x40)\n      dup1\n      swap2\n      sub\n      swap1\n      keccak256\n      0x00\n      swap1\n      sload\n      swap1\n      0x0100\n      exp\n      swap1\n      div\n      0xff\n      and\n        /* \"contracts/userranking.sol\":1315:1355  RankingUpdated(userId, rankings[userId]) */\n      mload(0x40)\n      tag_62\n      swap3\n      swap2\n      swap1\n      tag_37\n      jump\t// in\n    tag_62:\n      mload(0x40)\n      dup1\n      swap2\n      sub\n      swap1\n      log1\n        /* \"contracts/userranking.sol\":857:1362  function updateRanking(string memory userId, uint8 networkEloRating, uint8 networkStrictnessRating, bool isAbuser) public {... */\n      pop\n      pop\n      pop\n      pop\n      jump\t// out\n        /* \"contracts/userranking.sol\":462:656  function increment(string memory userId, uint8 count) public {... */\n    tag_28:\n        /* \"contracts/userranking.sol\":553:558  count */\n      dup1\n        /* \"contracts/userranking.sol\":533:541  rankings */\n      0x00\n        /* \"contracts/userranking.sol\":542:548  userId */\n      dup4\n        /* \"contracts/userranking.sol\":533:549  rankings[userId] */\n      mload(0x40)\n      tag_64\n      swap2\n      swap1\n      tag_35\n      jump\t// in\n    tag_64:\n      swap1\n      dup2\n      mstore\n      0x20\n      add\n      mload(0x40)\n      dup1\n      swap2\n      sub\n      swap1\n      keccak256\n      0x00\n        /* \"contracts/userranking.sol\":533:558  rankings[userId] += count */\n      dup3\n      dup3\n      dup3\n      swap1\n      sload\n      swap1\n      0x0100\n      exp\n      swap1\n      div\n      0xff\n      and\n      tag_65\n      swap2\n      swap1\n      tag_53\n      jump\t// in\n    tag_65:\n      swap3\n      pop\n      0x0100\n      exp\n      dup2\n      sload\n      dup2\n      0xff\n      mul\n      not\n      and\n      swap1\n      dup4\n      0xff\n      and\n      mul\n      or\n      swap1\n      sstore\n      pop\n        /* \"contracts/userranking.sol\":569:582  uint8 newRank */\n      0x00\n        /* \"contracts/userranking.sol\":585:593  rankings */\n      dup1\n        /* \"contracts/userranking.sol\":594:600  userId */\n      dup4\n        /* \"contracts/userranking.sol\":585:601  rankings[userId] */\n      mload(0x40)\n      tag_66\n      swap2\n      swap1\n      tag_35\n      jump\t// in\n    tag_66:\n      swap1\n      dup2\n      mstore\n      0x20\n      add\n      mload(0x40)\n      dup1\n      swap2\n      sub\n      swap1\n      keccak256\n      0x00\n      swap1\n      sload\n      swap1\n      0x0100\n      exp\n      swap1\n      div\n      0xff\n      and\n        /* \"contracts/userranking.sol\":569:601  uint8 newRank = rankings[userId] */\n      swap1\n      pop\n        /* \"contracts/userranking.sol\":617:648  RankingUpdated(userId, newRank) */\n      0x93fc8f428ce2f5010e1891417f1312cf2f7be40f162dc5911a796250187881e7\n        /* \"contracts/userranking.sol\":632:638  userId */\n      dup4\n        /* \"contracts/userranking.sol\":640:647  newRank */\n      dup3\n        /* \"contracts/userranking.sol\":617:648  RankingUpdated(userId, newRank) */\n      mload(0x40)\n      tag_67\n      swap3\n      swap2\n      swap1\n      tag_37\n      jump\t// in\n    tag_67:\n      mload(0x40)\n      dup1\n      swap2\n      sub\n      swap1\n      log1\n        /* \"contracts/userranking.sol\":523:656  {... */\n      pop\n        /* \"contracts/userranking.sol\":462:656  function increment(string memory userId, uint8 count) public {... */\n      pop\n      pop\n      jump\t// out\n        /* \"contracts/userranking.sol\":88:128  mapping(string => uint8) public rankings */\n    tag_31:\n      0x00\n      dup2\n      dup1\n      mload\n      0x20\n      dup2\n      add\n      dup3\n      add\n      dup1\n      mload\n      dup5\n      dup3\n      mstore\n      0x20\n      dup4\n      add\n      0x20\n      dup6\n      add\n      keccak256\n      dup2\n      dup4\n      mstore\n      dup1\n      swap6\n      pop\n      pop\n      pop\n      pop\n      pop\n      pop\n      0x00\n      swap2\n      pop\n      sload\n      swap1\n      0x0100\n      exp\n      swap1\n      div\n      0xff\n      and\n      dup2\n      jump\t// out\n        /* \"#utility.yul\":7:82   */\n    tag_68:\n        /* \"#utility.yul\":40:46   */\n      0x00\n        /* \"#utility.yul\":73:75   */\n      0x40\n        /* \"#utility.yul\":67:76   */\n      mload\n        /* \"#utility.yul\":57:76   */\n      swap1\n      pop\n        /* \"#utility.yul\":7:82   */\n      swap1\n      jump\t// out\n        /* \"#utility.yul\":88:205   */\n    tag_69:\n        /* \"#utility.yul\":197:198   */\n      0x00\n        /* \"#utility.yul\":194:195   */\n      dup1\n        /* \"#utility.yul\":187:199   */\n      revert\n        /* \"#utility.yul\":211:328   */\n    tag_70:\n        /* \"#utility.yul\":320:321   */\n      0x00\n        /* \"#utility.yul\":317:318   */\n      dup1\n        /* \"#utility.yul\":310:322   */\n      revert\n        /* \"#utility.yul\":334:451   */\n    tag_71:\n        /* \"#utility.yul\":443:444   */\n      0x00\n        /* \"#utility.yul\":440:441   */\n      dup1\n        /* \"#utility.yul\":433:445   */\n      revert\n        /* \"#utility.yul\":457:574   */\n    tag_72:\n        /* \"#utility.yul\":566:567   */\n      0x00\n        /* \"#utility.yul\":563:564   */\n      dup1\n        /* \"#utility.yul\":556:568   */\n      revert\n        /* \"#utility.yul\":580:682   */\n    tag_73:\n        /* \"#utility.yul\":621:627   */\n      0x00\n        /* \"#utility.yul\":672:674   */\n      0x1f\n        /* \"#utility.yul\":668:675   */\n      not\n        /* \"#utility.yul\":663:665   */\n      0x1f\n        /* \"#utility.yul\":656:661   */\n      dup4\n        /* \"#utility.yul\":652:666   */\n      add\n        /* \"#utility.yul\":648:676   */\n      and\n        /* \"#utility.yul\":638:676   */\n      swap1\n      pop\n        /* \"#utility.yul\":580:682   */\n      swap2\n      swap1\n      pop\n      jump\t// out\n        /* \"#utility.yul\":688:868   */\n    tag_74:\n        /* \"#utility.yul\":736:813   */\n      0x4e487b7100000000000000000000000000000000000000000000000000000000\n        /* \"#utility.yul\":733:734   */\n      0x00\n        /* \"#utility.yul\":726:814   */\n      mstore\n        /* \"#utility.yul\":833:837   */\n      0x41\n        /* \"#utility.yul\":830:831   */\n      0x04\n        /* \"#utility.yul\":823:838   */\n      mstore\n        /* \"#utility.yul\":857:861   */\n      0x24\n        /* \"#utility.yul\":854:855   */\n      0x00\n        /* \"#utility.yul\":847:862   */\n      revert\n        /* \"#utility.yul\":874:1155   */\n    tag_75:\n        /* \"#utility.yul\":957:984   */\n      tag_104\n        /* \"#utility.yul\":979:983   */\n      dup3\n        /* \"#utility.yul\":957:984   */\n      tag_73\n      jump\t// in\n    tag_104:\n        /* \"#utility.yul\":949:955   */\n      dup2\n        /* \"#utility.yul\":945:985   */\n      add\n        /* \"#utility.yul\":1087:1093   */\n      dup2\n        /* \"#utility.yul\":1075:1085   */\n      dup2\n        /* \"#utility.yul\":1072:1094   */\n      lt\n        /* \"#utility.yul\":1051:1069   */\n      0xffffffffffffffff\n        /* \"#utility.yul\":1039:1049   */\n      dup3\n        /* \"#utility.yul\":1036:1070   */\n      gt\n        /* \"#utility.yul\":1033:1095   */\n      or\n        /* \"#utility.yul\":1030:1118   */\n      iszero\n      tag_105\n      jumpi\n        /* \"#utility.yul\":1098:1116   */\n      tag_106\n      tag_74\n      jump\t// in\n    tag_106:\n        /* \"#utility.yul\":1030:1118   */\n    tag_105:\n        /* \"#utility.yul\":1138:1148   */\n      dup1\n        /* \"#utility.yul\":1134:1136   */\n      0x40\n        /* \"#utility.yul\":1127:1149   */\n      mstore\n        /* \"#utility.yul\":917:1155   */\n      pop\n        /* \"#utility.yul\":874:1155   */\n      pop\n      pop\n      jump\t// out\n        /* \"#utility.yul\":1161:1290   */\n    tag_76:\n        /* \"#utility.yul\":1195:1201   */\n      0x00\n        /* \"#utility.yul\":1222:1242   */\n      tag_108\n      tag_68\n      jump\t// in\n    tag_108:\n        /* \"#utility.yul\":1212:1242   */\n      swap1\n      pop\n        /* \"#utility.yul\":1251:1284   */\n      tag_109\n        /* \"#utility.yul\":1279:1283   */\n      dup3\n        /* \"#utility.yul\":1271:1277   */\n      dup3\n        /* \"#utility.yul\":1251:1284   */\n      tag_75\n      jump\t// in\n    tag_109:\n        /* \"#utility.yul\":1161:1290   */\n      swap2\n      swap1\n      pop\n      jump\t// out\n        /* \"#utility.yul\":1296:1604   */\n    tag_77:\n        /* \"#utility.yul\":1358:1362   */\n      0x00\n        /* \"#utility.yul\":1448:1466   */\n      0xffffffffffffffff\n        /* \"#utility.yul\":1440:1446   */\n      dup3\n        /* \"#utility.yul\":1437:1467   */\n      gt\n        /* \"#utility.yul\":1434:1490   */\n      iszero\n      tag_111\n      jumpi\n        /* \"#utility.yul\":1470:1488   */\n      tag_112\n      tag_74\n      jump\t// in\n    tag_112:\n        /* \"#utility.yul\":1434:1490   */\n    tag_111:\n        /* \"#utility.yul\":1508:1537   */\n      tag_113\n        /* \"#utility.yul\":1530:1536   */\n      dup3\n        /* \"#utility.yul\":1508:1537   */\n      tag_73\n      jump\t// in\n    tag_113:\n        /* \"#utility.yul\":1500:1537   */\n      swap1\n      pop\n        /* \"#utility.yul\":1592:1596   */\n      0x20\n        /* \"#utility.yul\":1586:1590   */\n      dup2\n        /* \"#utility.yul\":1582:1597   */\n      add\n        /* \"#utility.yul\":1574:1597   */\n      swap1\n      pop\n        /* \"#utility.yul\":1296:1604   */\n      swap2\n      swap1\n      pop\n      jump\t// out\n        /* \"#utility.yul\":1610:1758   */\n    tag_78:\n        /* \"#utility.yul\":1708:1714   */\n      dup3\n        /* \"#utility.yul\":1703:1706   */\n      dup2\n        /* \"#utility.yul\":1698:1701   */\n      dup4\n        /* \"#utility.yul\":1685:1715   */\n      calldatacopy\n        /* \"#utility.yul\":1749:1750   */\n      0x00\n        /* \"#utility.yul\":1740:1746   */\n      dup4\n        /* \"#utility.yul\":1735:1738   */\n      dup4\n        /* \"#utility.yul\":1731:1747   */\n      add\n        /* \"#utility.yul\":1724:1751   */\n      mstore\n        /* \"#utility.yul\":1610:1758   */\n      pop\n      pop\n      pop\n      jump\t// out\n        /* \"#utility.yul\":1764:2189   */\n    tag_79:\n        /* \"#utility.yul\":1842:1847   */\n      0x00\n        /* \"#utility.yul\":1867:1933   */\n      tag_116\n        /* \"#utility.yul\":1883:1932   */\n      tag_117\n        /* \"#utility.yul\":1925:1931   */\n      dup5\n        /* \"#utility.yul\":1883:1932   */\n      tag_77\n      jump\t// in\n    tag_117:\n        /* \"#utility.yul\":1867:1933   */\n      tag_76\n      jump\t// in\n    tag_116:\n        /* \"#utility.yul\":1858:1933   */\n      swap1\n      pop\n        /* \"#utility.yul\":1956:1962   */\n      dup3\n        /* \"#utility.yul\":1949:1954   */\n      dup2\n        /* \"#utility.yul\":1942:1963   */\n      mstore\n        /* \"#utility.yul\":1994:1998   */\n      0x20\n        /* \"#utility.yul\":1987:1992   */\n      dup2\n        /* \"#utility.yul\":1983:1999   */\n      add\n        /* \"#utility.yul\":2032:2035   */\n      dup5\n        /* \"#utility.yul\":2023:2029   */\n      dup5\n        /* \"#utility.yul\":2018:2021   */\n      dup5\n        /* \"#utility.yul\":2014:2030   */\n      add\n        /* \"#utility.yul\":2011:2036   */\n      gt\n        /* \"#utility.yul\":2008:2120   */\n      iszero\n      tag_118\n      jumpi\n        /* \"#utility.yul\":2039:2118   */\n      tag_119\n      tag_72\n      jump\t// in\n    tag_119:\n        /* \"#utility.yul\":2008:2120   */\n    tag_118:\n        /* \"#utility.yul\":2129:2183   */\n      tag_120\n        /* \"#utility.yul\":2176:2182   */\n      dup5\n        /* \"#utility.yul\":2171:2174   */\n      dup3\n        /* \"#utility.yul\":2166:2169   */\n      dup6\n        /* \"#utility.yul\":2129:2183   */\n      tag_78\n      jump\t// in\n    tag_120:\n        /* \"#utility.yul\":1848:2189   */\n      pop\n        /* \"#utility.yul\":1764:2189   */\n      swap4\n      swap3\n      pop\n      pop\n      pop\n      jump\t// out\n        /* \"#utility.yul\":2209:2549   */\n    tag_80:\n        /* \"#utility.yul\":2265:2270   */\n      0x00\n        /* \"#utility.yul\":2314:2317   */\n      dup3\n        /* \"#utility.yul\":2307:2311   */\n      0x1f\n        /* \"#utility.yul\":2299:2305   */\n      dup4\n        /* \"#utility.yul\":2295:2312   */\n      add\n        /* \"#utility.yul\":2291:2318   */\n      slt\n        /* \"#utility.yul\":2281:2403   */\n      tag_122\n      jumpi\n        /* \"#utility.yul\":2322:2401   */\n      tag_123\n      tag_71\n      jump\t// in\n    tag_123:\n        /* \"#utility.yul\":2281:2403   */\n    tag_122:\n        /* \"#utility.yul\":2439:2445   */\n      dup2\n        /* \"#utility.yul\":2426:2446   */\n      calldataload\n        /* \"#utility.yul\":2464:2543   */\n      tag_124\n        /* \"#utility.yul\":2539:2542   */\n      dup5\n        /* \"#utility.yul\":2531:2537   */\n      dup3\n        /* \"#utility.yul\":2524:2528   */\n      0x20\n        /* \"#utility.yul\":2516:2522   */\n      dup7\n        /* \"#utility.yul\":2512:2529   */\n      add\n        /* \"#utility.yul\":2464:2543   */\n      tag_79\n      jump\t// in\n    tag_124:\n        /* \"#utility.yul\":2455:2543   */\n      swap2\n      pop\n        /* \"#utility.yul\":2271:2549   */\n      pop\n        /* \"#utility.yul\":2209:2549   */\n      swap3\n      swap2\n      pop\n      pop\n      jump\t// out\n        /* \"#utility.yul\":2555:2641   */\n    tag_81:\n        /* \"#utility.yul\":2590:2597   */\n      0x00\n        /* \"#utility.yul\":2630:2634   */\n      0xff\n        /* \"#utility.yul\":2623:2628   */\n      dup3\n        /* \"#utility.yul\":2619:2635   */\n      and\n        /* \"#utility.yul\":2608:2635   */\n      swap1\n      pop\n        /* \"#utility.yul\":2555:2641   */\n      swap2\n      swap1\n      pop\n      jump\t// out\n        /* \"#utility.yul\":2647:2765   */\n    tag_82:\n        /* \"#utility.yul\":2718:2740   */\n      tag_127\n        /* \"#utility.yul\":2734:2739   */\n      dup2\n        /* \"#utility.yul\":2718:2740   */\n      tag_81\n      jump\t// in\n    tag_127:\n        /* \"#utility.yul\":2711:2716   */\n      dup2\n        /* \"#utility.yul\":2708:2741   */\n      eq\n        /* \"#utility.yul\":2698:2759   */\n      tag_128\n      jumpi\n        /* \"#utility.yul\":2755:2756   */\n      0x00\n        /* \"#utility.yul\":2752:2753   */\n      dup1\n        /* \"#utility.yul\":2745:2757   */\n      revert\n        /* \"#utility.yul\":2698:2759   */\n    tag_128:\n        /* \"#utility.yul\":2647:2765   */\n      pop\n      jump\t// out\n        /* \"#utility.yul\":2771:2906   */\n    tag_83:\n        /* \"#utility.yul\":2815:2820   */\n      0x00\n        /* \"#utility.yul\":2853:2859   */\n      dup2\n        /* \"#utility.yul\":2840:2860   */\n      calldataload\n        /* \"#utility.yul\":2831:2860   */\n      swap1\n      pop\n        /* \"#utility.yul\":2869:2900   */\n      tag_130\n        /* \"#utility.yul\":2894:2899   */\n      dup2\n        /* \"#utility.yul\":2869:2900   */\n      tag_82\n      jump\t// in\n    tag_130:\n        /* \"#utility.yul\":2771:2906   */\n      swap3\n      swap2\n      pop\n      pop\n      jump\t// out\n        /* \"#utility.yul\":2912:3562   */\n    tag_11:\n        /* \"#utility.yul\":2988:2994   */\n      0x00\n        /* \"#utility.yul\":2996:3002   */\n      dup1\n        /* \"#utility.yul\":3045:3047   */\n      0x40\n        /* \"#utility.yul\":3033:3042   */\n      dup4\n        /* \"#utility.yul\":3024:3031   */\n      dup6\n        /* \"#utility.yul\":3020:3043   */\n      sub\n        /* \"#utility.yul\":3016:3048   */\n      slt\n        /* \"#utility.yul\":3013:3132   */\n      iszero\n      tag_132\n      jumpi\n        /* \"#utility.yul\":3051:3130   */\n      tag_133\n      tag_69\n      jump\t// in\n    tag_133:\n        /* \"#utility.yul\":3013:3132   */\n    tag_132:\n        /* \"#utility.yul\":3199:3200   */\n      0x00\n        /* \"#utility.yul\":3188:3197   */\n      dup4\n        /* \"#utility.yul\":3184:3201   */\n      add\n        /* \"#utility.yul\":3171:3202   */\n      calldataload\n        /* \"#utility.yul\":3229:3247   */\n      0xffffffffffffffff\n        /* \"#utility.yul\":3221:3227   */\n      dup2\n        /* \"#utility.yul\":3218:3248   */\n      gt\n        /* \"#utility.yul\":3215:3332   */\n      iszero\n      tag_134\n      jumpi\n        /* \"#utility.yul\":3251:3330   */\n      tag_135\n      tag_70\n      jump\t// in\n    tag_135:\n        /* \"#utility.yul\":3215:3332   */\n    tag_134:\n        /* \"#utility.yul\":3356:3419   */\n      tag_136\n        /* \"#utility.yul\":3411:3418   */\n      dup6\n        /* \"#utility.yul\":3402:3408   */\n      dup3\n        /* \"#utility.yul\":3391:3400   */\n      dup7\n        /* \"#utility.yul\":3387:3409   */\n      add\n        /* \"#utility.yul\":3356:3419   */\n      tag_80\n      jump\t// in\n    tag_136:\n        /* \"#utility.yul\":3346:3419   */\n      swap3\n      pop\n        /* \"#utility.yul\":3142:3429   */\n      pop\n        /* \"#utility.yul\":3468:3470   */\n      0x20\n        /* \"#utility.yul\":3494:3545   */\n      tag_137\n        /* \"#utility.yul\":3537:3544   */\n      dup6\n        /* \"#utility.yul\":3528:3534   */\n      dup3\n        /* \"#utility.yul\":3517:3526   */\n      dup7\n        /* \"#utility.yul\":3513:3535   */\n      add\n        /* \"#utility.yul\":3494:3545   */\n      tag_83\n      jump\t// in\n    tag_137:\n        /* \"#utility.yul\":3484:3545   */\n      swap2\n      pop\n        /* \"#utility.yul\":3439:3555   */\n      pop\n        /* \"#utility.yul\":2912:3562   */\n      swap3\n      pop\n      swap3\n      swap1\n      pop\n      jump\t// out\n        /* \"#utility.yul\":3568:4077   */\n    tag_15:\n        /* \"#utility.yul\":3637:3643   */\n      0x00\n        /* \"#utility.yul\":3686:3688   */\n      0x20\n        /* \"#utility.yul\":3674:3683   */\n      dup3\n        /* \"#utility.yul\":3665:3672   */\n      dup5\n        /* \"#utility.yul\":3661:3684   */\n      sub\n        /* \"#utility.yul\":3657:3689   */\n      slt\n        /* \"#utility.yul\":3654:3773   */\n      iszero\n      tag_139\n      jumpi\n        /* \"#utility.yul\":3692:3771   */\n      tag_140\n      tag_69\n      jump\t// in\n    tag_140:\n        /* \"#utility.yul\":3654:3773   */\n    tag_139:\n        /* \"#utility.yul\":3840:3841   */\n      0x00\n        /* \"#utility.yul\":3829:3838   */\n      dup3\n        /* \"#utility.yul\":3825:3842   */\n      add\n        /* \"#utility.yul\":3812:3843   */\n      calldataload\n        /* \"#utility.yul\":3870:3888   */\n      0xffffffffffffffff\n        /* \"#utility.yul\":3862:3868   */\n      dup2\n        /* \"#utility.yul\":3859:3889   */\n      gt\n        /* \"#utility.yul\":3856:3973   */\n      iszero\n      tag_141\n      jumpi\n        /* \"#utility.yul\":3892:3971   */\n      tag_142\n      tag_70\n      jump\t// in\n    tag_142:\n        /* \"#utility.yul\":3856:3973   */\n    tag_141:\n        /* \"#utility.yul\":3997:4060   */\n      tag_143\n        /* \"#utility.yul\":4052:4059   */\n      dup5\n        /* \"#utility.yul\":4043:4049   */\n      dup3\n        /* \"#utility.yul\":4032:4041   */\n      dup6\n        /* \"#utility.yul\":4028:4050   */\n      add\n        /* \"#utility.yul\":3997:4060   */\n      tag_80\n      jump\t// in\n    tag_143:\n        /* \"#utility.yul\":3987:4060   */\n      swap2\n      pop\n        /* \"#utility.yul\":3783:4070   */\n      pop\n        /* \"#utility.yul\":3568:4077   */\n      swap3\n      swap2\n      pop\n      pop\n      jump\t// out\n        /* \"#utility.yul\":4083:4195   */\n    tag_84:\n        /* \"#utility.yul\":4166:4188   */\n      tag_145\n        /* \"#utility.yul\":4182:4187   */\n      dup2\n        /* \"#utility.yul\":4166:4188   */\n      tag_81\n      jump\t// in\n    tag_145:\n        /* \"#utility.yul\":4161:4164   */\n      dup3\n        /* \"#utility.yul\":4154:4189   */\n      mstore\n        /* \"#utility.yul\":4083:4195   */\n      pop\n      pop\n      jump\t// out\n        /* \"#utility.yul\":4201:4415   */\n    tag_18:\n        /* \"#utility.yul\":4290:4294   */\n      0x00\n        /* \"#utility.yul\":4328:4330   */\n      0x20\n        /* \"#utility.yul\":4317:4326   */\n      dup3\n        /* \"#utility.yul\":4313:4331   */\n      add\n        /* \"#utility.yul\":4305:4331   */\n      swap1\n      pop\n        /* \"#utility.yul\":4341:4408   */\n      tag_147\n        /* \"#utility.yul\":4405:4406   */\n      0x00\n        /* \"#utility.yul\":4394:4403   */\n      dup4\n        /* \"#utility.yul\":4390:4407   */\n      add\n        /* \"#utility.yul\":4381:4387   */\n      dup5\n        /* \"#utility.yul\":4341:4408   */\n      tag_84\n      jump\t// in\n    tag_147:\n        /* \"#utility.yul\":4201:4415   */\n      swap3\n      swap2\n      pop\n      pop\n      jump\t// out\n        /* \"#utility.yul\":4421:4511   */\n    tag_85:\n        /* \"#utility.yul\":4455:4462   */\n      0x00\n        /* \"#utility.yul\":4498:4503   */\n      dup2\n        /* \"#utility.yul\":4491:4504   */\n      iszero\n        /* \"#utility.yul\":4484:4505   */\n      iszero\n        /* \"#utility.yul\":4473:4505   */\n      swap1\n      pop\n        /* \"#utility.yul\":4421:4511   */\n      swap2\n      swap1\n      pop\n      jump\t// out\n        /* \"#utility.yul\":4517:4633   */\n    tag_86:\n        /* \"#utility.yul\":4587:4608   */\n      tag_150\n        /* \"#utility.yul\":4602:4607   */\n      dup2\n        /* \"#utility.yul\":4587:4608   */\n      tag_85\n      jump\t// in\n    tag_150:\n        /* \"#utility.yul\":4580:4585   */\n      dup2\n        /* \"#utility.yul\":4577:4609   */\n      eq\n        /* \"#utility.yul\":4567:4627   */\n      tag_151\n      jumpi\n        /* \"#utility.yul\":4623:4624   */\n      0x00\n        /* \"#utility.yul\":4620:4621   */\n      dup1\n        /* \"#utility.yul\":4613:4625   */\n      revert\n        /* \"#utility.yul\":4567:4627   */\n    tag_151:\n        /* \"#utility.yul\":4517:4633   */\n      pop\n      jump\t// out\n        /* \"#utility.yul\":4639:4772   */\n    tag_87:\n        /* \"#utility.yul\":4682:4687   */\n      0x00\n        /* \"#utility.yul\":4720:4726   */\n      dup2\n        /* \"#utility.yul\":4707:4727   */\n      calldataload\n        /* \"#utility.yul\":4698:4727   */\n      swap1\n      pop\n        /* \"#utility.yul\":4736:4766   */\n      tag_153\n        /* \"#utility.yul\":4760:4765   */\n      dup2\n        /* \"#utility.yul\":4736:4766   */\n      tag_86\n      jump\t// in\n    tag_153:\n        /* \"#utility.yul\":4639:4772   */\n      swap3\n      swap2\n      pop\n      pop\n      jump\t// out\n        /* \"#utility.yul\":4778:5709   */\n    tag_24:\n        /* \"#utility.yul\":4867:4873   */\n      0x00\n        /* \"#utility.yul\":4875:4881   */\n      dup1\n        /* \"#utility.yul\":4883:4889   */\n      0x00\n        /* \"#utility.yul\":4891:4897   */\n      dup1\n        /* \"#utility.yul\":4940:4943   */\n      0x80\n        /* \"#utility.yul\":4928:4937   */\n      dup6\n        /* \"#utility.yul\":4919:4926   */\n      dup8\n        /* \"#utility.yul\":4915:4938   */\n      sub\n        /* \"#utility.yul\":4911:4944   */\n      slt\n        /* \"#utility.yul\":4908:5028   */\n      iszero\n      tag_155\n      jumpi\n        /* \"#utility.yul\":4947:5026   */\n      tag_156\n      tag_69\n      jump\t// in\n    tag_156:\n        /* \"#utility.yul\":4908:5028   */\n    tag_155:\n        /* \"#utility.yul\":5095:5096   */\n      0x00\n        /* \"#utility.yul\":5084:5093   */\n      dup6\n        /* \"#utility.yul\":5080:5097   */\n      add\n        /* \"#utility.yul\":5067:5098   */\n      calldataload\n        /* \"#utility.yul\":5125:5143   */\n      0xffffffffffffffff\n        /* \"#utility.yul\":5117:5123   */\n      dup2\n        /* \"#utility.yul\":5114:5144   */\n      gt\n        /* \"#utility.yul\":5111:5228   */\n      iszero\n      tag_157\n      jumpi\n        /* \"#utility.yul\":5147:5226   */\n      tag_158\n      tag_70\n      jump\t// in\n    tag_158:\n        /* \"#utility.yul\":5111:5228   */\n    tag_157:\n        /* \"#utility.yul\":5252:5315   */\n      tag_159\n        /* \"#utility.yul\":5307:5314   */\n      dup8\n        /* \"#utility.yul\":5298:5304   */\n      dup3\n        /* \"#utility.yul\":5287:5296   */\n      dup9\n        /* \"#utility.yul\":5283:5305   */\n      add\n        /* \"#utility.yul\":5252:5315   */\n      tag_80\n      jump\t// in\n    tag_159:\n        /* \"#utility.yul\":5242:5315   */\n      swap5\n      pop\n        /* \"#utility.yul\":5038:5325   */\n      pop\n        /* \"#utility.yul\":5364:5366   */\n      0x20\n        /* \"#utility.yul\":5390:5441   */\n      tag_160\n        /* \"#utility.yul\":5433:5440   */\n      dup8\n        /* \"#utility.yul\":5424:5430   */\n      dup3\n        /* \"#utility.yul\":5413:5422   */\n      dup9\n        /* \"#utility.yul\":5409:5431   */\n      add\n        /* \"#utility.yul\":5390:5441   */\n      tag_83\n      jump\t// in\n    tag_160:\n        /* \"#utility.yul\":5380:5441   */\n      swap4\n      pop\n        /* \"#utility.yul\":5335:5451   */\n      pop\n        /* \"#utility.yul\":5490:5492   */\n      0x40\n        /* \"#utility.yul\":5516:5567   */\n      tag_161\n        /* \"#utility.yul\":5559:5566   */\n      dup8\n        /* \"#utility.yul\":5550:5556   */\n      dup3\n        /* \"#utility.yul\":5539:5548   */\n      dup9\n        /* \"#utility.yul\":5535:5557   */\n      add\n        /* \"#utility.yul\":5516:5567   */\n      tag_83\n      jump\t// in\n    tag_161:\n        /* \"#utility.yul\":5506:5567   */\n      swap3\n      pop\n        /* \"#utility.yul\":5461:5577   */\n      pop\n        /* \"#utility.yul\":5616:5618   */\n      0x60\n        /* \"#utility.yul\":5642:5692   */\n      tag_162\n        /* \"#utility.yul\":5684:5691   */\n      dup8\n        /* \"#utility.yul\":5675:5681   */\n      dup3\n        /* \"#utility.yul\":5664:5673   */\n      dup9\n        /* \"#utility.yul\":5660:5682   */\n      add\n        /* \"#utility.yul\":5642:5692   */\n      tag_87\n      jump\t// in\n    tag_162:\n        /* \"#utility.yul\":5632:5692   */\n      swap2\n      pop\n        /* \"#utility.yul\":5587:5702   */\n      pop\n        /* \"#utility.yul\":4778:5709   */\n      swap3\n      swap6\n      swap2\n      swap5\n      pop\n      swap3\n      pop\n      jump\t// out\n        /* \"#utility.yul\":5715:5814   */\n    tag_88:\n        /* \"#utility.yul\":5767:5773   */\n      0x00\n        /* \"#utility.yul\":5801:5806   */\n      dup2\n        /* \"#utility.yul\":5795:5807   */\n      mload\n        /* \"#utility.yul\":5785:5807   */\n      swap1\n      pop\n        /* \"#utility.yul\":5715:5814   */\n      swap2\n      swap1\n      pop\n      jump\t// out\n        /* \"#utility.yul\":5820:5968   */\n    tag_89:\n        /* \"#utility.yul\":5922:5933   */\n      0x00\n        /* \"#utility.yul\":5959:5962   */\n      dup2\n        /* \"#utility.yul\":5944:5962   */\n      swap1\n      pop\n        /* \"#utility.yul\":5820:5968   */\n      swap3\n      swap2\n      pop\n      pop\n      jump\t// out\n        /* \"#utility.yul\":5974:6222   */\n    tag_90:\n        /* \"#utility.yul\":6056:6057   */\n      0x00\n        /* \"#utility.yul\":6066:6179   */\n    tag_166:\n        /* \"#utility.yul\":6080:6086   */\n      dup4\n        /* \"#utility.yul\":6077:6078   */\n      dup2\n        /* \"#utility.yul\":6074:6087   */\n      lt\n        /* \"#utility.yul\":6066:6179   */\n      iszero\n      tag_168\n      jumpi\n        /* \"#utility.yul\":6165:6166   */\n      dup1\n        /* \"#utility.yul\":6160:6163   */\n      dup3\n        /* \"#utility.yul\":6156:6167   */\n      add\n        /* \"#utility.yul\":6150:6168   */\n      mload\n        /* \"#utility.yul\":6146:6147   */\n      dup2\n        /* \"#utility.yul\":6141:6144   */\n      dup5\n        /* \"#utility.yul\":6137:6148   */\n      add\n        /* \"#utility.yul\":6130:6169   */\n      mstore\n        /* \"#utility.yul\":6102:6104   */\n      0x20\n        /* \"#utility.yul\":6099:6100   */\n      dup2\n        /* \"#utility.yul\":6095:6105   */\n      add\n        /* \"#utility.yul\":6090:6105   */\n      swap1\n      pop\n        /* \"#utility.yul\":6066:6179   */\n      jump(tag_166)\n    tag_168:\n        /* \"#utility.yul\":6213:6214   */\n      0x00\n        /* \"#utility.yul\":6204:6210   */\n      dup5\n        /* \"#utility.yul\":6199:6202   */\n      dup5\n        /* \"#utility.yul\":6195:6211   */\n      add\n        /* \"#utility.yul\":6188:6215   */\n      mstore\n        /* \"#utility.yul\":6036:6222   */\n      pop\n        /* \"#utility.yul\":5974:6222   */\n      pop\n      pop\n      pop\n      jump\t// out\n        /* \"#utility.yul\":6228:6618   */\n    tag_91:\n        /* \"#utility.yul\":6334:6337   */\n      0x00\n        /* \"#utility.yul\":6362:6401   */\n      tag_170\n        /* \"#utility.yul\":6395:6400   */\n      dup3\n        /* \"#utility.yul\":6362:6401   */\n      tag_88\n      jump\t// in\n    tag_170:\n        /* \"#utility.yul\":6417:6506   */\n      tag_171\n        /* \"#utility.yul\":6499:6505   */\n      dup2\n        /* \"#utility.yul\":6494:6497   */\n      dup6\n        /* \"#utility.yul\":6417:6506   */\n      tag_89\n      jump\t// in\n    tag_171:\n        /* \"#utility.yul\":6410:6506   */\n      swap4\n      pop\n        /* \"#utility.yul\":6515:6580   */\n      tag_172\n        /* \"#utility.yul\":6573:6579   */\n      dup2\n        /* \"#utility.yul\":6568:6571   */\n      dup6\n        /* \"#utility.yul\":6561:6565   */\n      0x20\n        /* \"#utility.yul\":6554:6559   */\n      dup7\n        /* \"#utility.yul\":6550:6566   */\n      add\n        /* \"#utility.yul\":6515:6580   */\n      tag_90\n      jump\t// in\n    tag_172:\n        /* \"#utility.yul\":6605:6611   */\n      dup1\n        /* \"#utility.yul\":6600:6603   */\n      dup5\n        /* \"#utility.yul\":6596:6612   */\n      add\n        /* \"#utility.yul\":6589:6612   */\n      swap2\n      pop\n        /* \"#utility.yul\":6338:6618   */\n      pop\n        /* \"#utility.yul\":6228:6618   */\n      swap3\n      swap2\n      pop\n      pop\n      jump\t// out\n        /* \"#utility.yul\":6624:6899   */\n    tag_35:\n        /* \"#utility.yul\":6756:6759   */\n      0x00\n        /* \"#utility.yul\":6778:6873   */\n      tag_174\n        /* \"#utility.yul\":6869:6872   */\n      dup3\n        /* \"#utility.yul\":6860:6866   */\n      dup5\n        /* \"#utility.yul\":6778:6873   */\n      tag_91\n      jump\t// in\n    tag_174:\n        /* \"#utility.yul\":6771:6873   */\n      swap2\n      pop\n        /* \"#utility.yul\":6890:6893   */\n      dup2\n        /* \"#utility.yul\":6883:6893   */\n      swap1\n      pop\n        /* \"#utility.yul\":6624:6899   */\n      swap3\n      swap2\n      pop\n      pop\n      jump\t// out\n        /* \"#utility.yul\":6905:7074   */\n    tag_92:\n        /* \"#utility.yul\":6989:7000   */\n      0x00\n        /* \"#utility.yul\":7023:7029   */\n      dup3\n        /* \"#utility.yul\":7018:7021   */\n      dup3\n        /* \"#utility.yul\":7011:7030   */\n      mstore\n        /* \"#utility.yul\":7063:7067   */\n      0x20\n        /* \"#utility.yul\":7058:7061   */\n      dup3\n        /* \"#utility.yul\":7054:7068   */\n      add\n        /* \"#utility.yul\":7039:7068   */\n      swap1\n      pop\n        /* \"#utility.yul\":6905:7074   */\n      swap3\n      swap2\n      pop\n      pop\n      jump\t// out\n        /* \"#utility.yul\":7080:7457   */\n    tag_93:\n        /* \"#utility.yul\":7168:7171   */\n      0x00\n        /* \"#utility.yul\":7196:7235   */\n      tag_177\n        /* \"#utility.yul\":7229:7234   */\n      dup3\n        /* \"#utility.yul\":7196:7235   */\n      tag_88\n      jump\t// in\n    tag_177:\n        /* \"#utility.yul\":7251:7322   */\n      tag_178\n        /* \"#utility.yul\":7315:7321   */\n      dup2\n        /* \"#utility.yul\":7310:7313   */\n      dup6\n        /* \"#utility.yul\":7251:7322   */\n      tag_92\n      jump\t// in\n    tag_178:\n        /* \"#utility.yul\":7244:7322   */\n      swap4\n      pop\n        /* \"#utility.yul\":7331:7396   */\n      tag_179\n        /* \"#utility.yul\":7389:7395   */\n      dup2\n        /* \"#utility.yul\":7384:7387   */\n      dup6\n        /* \"#utility.yul\":7377:7381   */\n      0x20\n        /* \"#utility.yul\":7370:7375   */\n      dup7\n        /* \"#utility.yul\":7366:7382   */\n      add\n        /* \"#utility.yul\":7331:7396   */\n      tag_90\n      jump\t// in\n    tag_179:\n        /* \"#utility.yul\":7421:7450   */\n      tag_180\n        /* \"#utility.yul\":7443:7449   */\n      dup2\n        /* \"#utility.yul\":7421:7450   */\n      tag_73\n      jump\t// in\n    tag_180:\n        /* \"#utility.yul\":7416:7419   */\n      dup5\n        /* \"#utility.yul\":7412:7451   */\n      add\n        /* \"#utility.yul\":7405:7451   */\n      swap2\n      pop\n        /* \"#utility.yul\":7172:7457   */\n      pop\n        /* \"#utility.yul\":7080:7457   */\n      swap3\n      swap2\n      pop\n      pop\n      jump\t// out\n        /* \"#utility.yul\":7463:7878   */\n    tag_37:\n        /* \"#utility.yul\":7600:7604   */\n      0x00\n        /* \"#utility.yul\":7638:7640   */\n      0x40\n        /* \"#utility.yul\":7627:7636   */\n      dup3\n        /* \"#utility.yul\":7623:7641   */\n      add\n        /* \"#utility.yul\":7615:7641   */\n      swap1\n      pop\n        /* \"#utility.yul\":7687:7696   */\n      dup2\n        /* \"#utility.yul\":7681:7685   */\n      dup2\n        /* \"#utility.yul\":7677:7697   */\n      sub\n        /* \"#utility.yul\":7673:7674   */\n      0x00\n        /* \"#utility.yul\":7662:7671   */\n      dup4\n        /* \"#utility.yul\":7658:7675   */\n      add\n        /* \"#utility.yul\":7651:7698   */\n      mstore\n        /* \"#utility.yul\":7715:7793   */\n      tag_182\n        /* \"#utility.yul\":7788:7792   */\n      dup2\n        /* \"#utility.yul\":7779:7785   */\n      dup6\n        /* \"#utility.yul\":7715:7793   */\n      tag_93\n      jump\t// in\n    tag_182:\n        /* \"#utility.yul\":7707:7793   */\n      swap1\n      pop\n        /* \"#utility.yul\":7803:7871   */\n      tag_183\n        /* \"#utility.yul\":7867:7869   */\n      0x20\n        /* \"#utility.yul\":7856:7865   */\n      dup4\n        /* \"#utility.yul\":7852:7870   */\n      add\n        /* \"#utility.yul\":7843:7849   */\n      dup5\n        /* \"#utility.yul\":7803:7871   */\n      tag_84\n      jump\t// in\n    tag_183:\n        /* \"#utility.yul\":7463:7878   */\n      swap4\n      swap3\n      pop\n      pop\n      pop\n      jump\t// out\n        /* \"#utility.yul\":7884:8064   */\n    tag_94:\n        /* \"#utility.yul\":7932:8009   */\n      0x4e487b7100000000000000000000000000000000000000000000000000000000\n        /* \"#utility.yul\":7929:7930   */\n      0x00\n        /* \"#utility.yul\":7922:8010   */\n      mstore\n        /* \"#utility.yul\":8029:8033   */\n      0x11\n        /* \"#utility.yul\":8026:8027   */\n      0x04\n        /* \"#utility.yul\":8019:8034   */\n      mstore\n        /* \"#utility.yul\":8053:8057   */\n      0x24\n        /* \"#utility.yul\":8050:8051   */\n      0x00\n        /* \"#utility.yul\":8043:8058   */\n      revert\n        /* \"#utility.yul\":8070:8261   */\n    tag_43:\n        /* \"#utility.yul\":8108:8112   */\n      0x00\n        /* \"#utility.yul\":8128:8146   */\n      tag_186\n        /* \"#utility.yul\":8144:8145   */\n      dup3\n        /* \"#utility.yul\":8128:8146   */\n      tag_81\n      jump\t// in\n    tag_186:\n        /* \"#utility.yul\":8123:8146   */\n      swap2\n      pop\n        /* \"#utility.yul\":8160:8178   */\n      tag_187\n        /* \"#utility.yul\":8176:8177   */\n      dup4\n        /* \"#utility.yul\":8160:8178   */\n      tag_81\n      jump\t// in\n    tag_187:\n        /* \"#utility.yul\":8155:8178   */\n      swap3\n      pop\n        /* \"#utility.yul\":8202:8203   */\n      dup3\n        /* \"#utility.yul\":8199:8200   */\n      dup3\n        /* \"#utility.yul\":8195:8204   */\n      sub\n        /* \"#utility.yul\":8187:8204   */\n      swap1\n      pop\n        /* \"#utility.yul\":8226:8230   */\n      0xff\n        /* \"#utility.yul\":8220:8224   */\n      dup2\n        /* \"#utility.yul\":8217:8231   */\n      gt\n        /* \"#utility.yul\":8214:8254   */\n      iszero\n      tag_188\n      jumpi\n        /* \"#utility.yul\":8234:8252   */\n      tag_189\n      tag_94\n      jump\t// in\n    tag_189:\n        /* \"#utility.yul\":8214:8254   */\n    tag_188:\n        /* \"#utility.yul\":8070:8261   */\n      swap3\n      swap2\n      pop\n      pop\n      jump\t// out\n        /* \"#utility.yul\":8267:8455   */\n    tag_53:\n        /* \"#utility.yul\":8305:8308   */\n      0x00\n        /* \"#utility.yul\":8324:8342   */\n      tag_191\n        /* \"#utility.yul\":8340:8341   */\n      dup3\n        /* \"#utility.yul\":8324:8342   */\n      tag_81\n      jump\t// in\n    tag_191:\n        /* \"#utility.yul\":8319:8342   */\n      swap2\n      pop\n        /* \"#utility.yul\":8356:8374   */\n      tag_192\n        /* \"#utility.yul\":8372:8373   */\n      dup4\n        /* \"#utility.yul\":8356:8374   */\n      tag_81\n      jump\t// in\n    tag_192:\n        /* \"#utility.yul\":8351:8374   */\n      swap3\n      pop\n        /* \"#utility.yul\":8397:8398   */\n      dup3\n        /* \"#utility.yul\":8394:8395   */\n      dup3\n        /* \"#utility.yul\":8390:8399   */\n      add\n        /* \"#utility.yul\":8383:8399   */\n      swap1\n      pop\n        /* \"#utility.yul\":8420:8424   */\n      0xff\n        /* \"#utility.yul\":8415:8418   */\n      dup2\n        /* \"#utility.yul\":8412:8425   */\n      gt\n        /* \"#utility.yul\":8409:8448   */\n      iszero\n      tag_193\n      jumpi\n        /* \"#utility.yul\":8428:8446   */\n      tag_194\n      tag_94\n      jump\t// in\n    tag_194:\n        /* \"#utility.yul\":8409:8448   */\n    tag_193:\n        /* \"#utility.yul\":8267:8455   */\n      swap3\n      swap2\n      pop\n      pop\n      jump\t// out\n\n    auxdata: 0xa2646970667358221220eb663314337e5f51392bfcd5e7c97fab940dc18513e68f3872701f5a335334df64736f6c634300081a0033\n}\n",
				"bytecode": {
					"linkReferences": {},
					"object": "6080604052348015600f57600080fd5b50610a7e8061001f6000396000f3fe608060405234801561001057600080fd5b50600436106100625760003560e01c80631a711a661461006757806346e7a1dc14610083578063686c705e146100b357806399969b9a146100cf578063ad71108b146100eb578063fdf3f74d14610107575b600080fd5b610081600480360381019061007c9190610723565b610137565b005b61009d6004803603810190610098919061077f565b6101ab565b6040516100aa91906107d7565b60405180910390f35b6100cd60048036038101906100c89190610723565b6101df565b005b6100e960048036038101906100e4919061082a565b61029e565b005b61010560048036038101906101009190610723565b61049b565b005b610121600480360381019061011c919061077f565b61055a565b60405161012e91906107d7565b60405180910390f35b80600083604051610148919061091e565b908152602001604051809103902060006101000a81548160ff021916908360ff1602179055507f93fc8f428ce2f5010e1891417f1312cf2f7be40f162dc5911a796250187881e7828260405161019f92919061097f565b60405180910390a15050565b600080826040516101bc919061091e565b908152602001604051809103902060009054906101000a900460ff169050919050565b806000836040516101f0919061091e565b908152602001604051809103902060008282829054906101000a900460ff1661021991906109de565b92506101000a81548160ff021916908360ff16021790555060008083604051610242919061091e565b908152602001604051809103902060009054906101000a900460ff1690507f93fc8f428ce2f5010e1891417f1312cf2f7be40f162dc5911a796250187881e7838260405161029192919061097f565b60405180910390a1505050565b80156102fb57816000856040516102b5919061091e565b908152602001604051809103902060008282829054906101000a900460ff166102de91906109de565b92506101000a81548160ff021916908360ff16021790555061034e565b8260008560405161030c919061091e565b908152602001604051809103902060008282829054906101000a900460ff166103359190610a13565b92506101000a81548160ff021916908360ff1602179055505b6000808560405161035f919061091e565b908152602001604051809103902060009054906101000a900460ff1660ff1610156103c05760008085604051610395919061091e565b908152602001604051809103902060006101000a81548160ff021916908360ff160217905550610431565b60646000856040516103d2919061091e565b908152602001604051809103902060009054906101000a900460ff1660ff161115610430576064600085604051610409919061091e565b908152602001604051809103902060006101000a81548160ff021916908360ff1602179055505b5b7f93fc8f428ce2f5010e1891417f1312cf2f7be40f162dc5911a796250187881e784600086604051610463919061091e565b908152602001604051809103902060009054906101000a900460ff1660405161048d92919061097f565b60405180910390a150505050565b806000836040516104ac919061091e565b908152602001604051809103902060008282829054906101000a900460ff166104d59190610a13565b92506101000a81548160ff021916908360ff160217905550600080836040516104fe919061091e565b908152602001604051809103902060009054906101000a900460ff1690507f93fc8f428ce2f5010e1891417f1312cf2f7be40f162dc5911a796250187881e7838260405161054d92919061097f565b60405180910390a1505050565b6000818051602081018201805184825260208301602085012081835280955050505050506000915054906101000a900460ff1681565b6000604051905090565b600080fd5b600080fd5b600080fd5b600080fd5b6000601f19601f8301169050919050565b7f4e487b7100000000000000000000000000000000000000000000000000000000600052604160045260246000fd5b6105f7826105ae565b810181811067ffffffffffffffff82111715610616576106156105bf565b5b80604052505050565b6000610629610590565b905061063582826105ee565b919050565b600067ffffffffffffffff821115610655576106546105bf565b5b61065e826105ae565b9050602081019050919050565b82818337600083830152505050565b600061068d6106888461063a565b61061f565b9050828152602081018484840111156106a9576106a86105a9565b5b6106b484828561066b565b509392505050565b600082601f8301126106d1576106d06105a4565b5b81356106e184826020860161067a565b91505092915050565b600060ff82169050919050565b610700816106ea565b811461070b57600080fd5b50565b60008135905061071d816106f7565b92915050565b6000806040838503121561073a5761073961059a565b5b600083013567ffffffffffffffff8111156107585761075761059f565b5b610764858286016106bc565b92505060206107758582860161070e565b9150509250929050565b6000602082840312156107955761079461059a565b5b600082013567ffffffffffffffff8111156107b3576107b261059f565b5b6107bf848285016106bc565b91505092915050565b6107d1816106ea565b82525050565b60006020820190506107ec60008301846107c8565b92915050565b60008115159050919050565b610807816107f2565b811461081257600080fd5b50565b600081359050610824816107fe565b92915050565b600080600080608085870312156108445761084361059a565b5b600085013567ffffffffffffffff8111156108625761086161059f565b5b61086e878288016106bc565b945050602061087f8782880161070e565b93505060406108908782880161070e565b92505060606108a187828801610815565b91505092959194509250565b600081519050919050565b600081905092915050565b60005b838110156108e15780820151818401526020810190506108c6565b60008484015250505050565b60006108f8826108ad565b61090281856108b8565b93506109128185602086016108c3565b80840191505092915050565b600061092a82846108ed565b915081905092915050565b600082825260208201905092915050565b6000610951826108ad565b61095b8185610935565b935061096b8185602086016108c3565b610974816105ae565b840191505092915050565b600060408201905081810360008301526109998185610946565b90506109a860208301846107c8565b9392505050565b7f4e487b7100000000000000000000000000000000000000000000000000000000600052601160045260246000fd5b60006109e9826106ea565b91506109f4836106ea565b9250828203905060ff811115610a0d57610a0c6109af565b5b92915050565b6000610a1e826106ea565b9150610a29836106ea565b9250828201905060ff811115610a4257610a416109af565b5b9291505056fea2646970667358221220eb663314337e5f51392bfcd5e7c97fab940dc18513e68f3872701f5a335334df64736f6c634300081a0033",
					"opcodes": "PUSH1 0x80 PUSH1 0x40 MSTORE CALLVALUE DUP1 ISZERO PUSH1 0xF JUMPI PUSH1 0x0 DUP1 REVERT JUMPDEST POP PUSH2 0xA7E DUP1 PUSH2 0x1F PUSH1 0x0 CODECOPY PUSH1 0x0 RETURN INVALID PUSH1 0x80 PUSH1 0x40 MSTORE CALLVALUE DUP1 ISZERO PUSH2 0x10 JUMPI PUSH1 0x0 DUP1 REVERT JUMPDEST POP PUSH1 0x4 CALLDATASIZE LT PUSH2 0x62 JUMPI PUSH1 0x0 CALLDATALOAD PUSH1 0xE0 SHR DUP1 PUSH4 0x1A711A66 EQ PUSH2 0x67 JUMPI DUP1 PUSH4 0x46E7A1DC EQ PUSH2 0x83 JUMPI DUP1 PUSH4 0x686C705E EQ PUSH2 0xB3 JUMPI DUP1 PUSH4 0x99969B9A EQ PUSH2 0xCF JUMPI DUP1 PUSH4 0xAD71108B EQ PUSH2 0xEB JUMPI DUP1 PUSH4 0xFDF3F74D EQ PUSH2 0x107 JUMPI JUMPDEST PUSH1 0x0 DUP1 REVERT JUMPDEST PUSH2 0x81 PUSH1 0x4 DUP1 CALLDATASIZE SUB DUP2 ADD SWAP1 PUSH2 0x7C SWAP2 SWAP1 PUSH2 0x723 JUMP JUMPDEST PUSH2 0x137 JUMP JUMPDEST STOP JUMPDEST PUSH2 0x9D PUSH1 0x4 DUP1 CALLDATASIZE SUB DUP2 ADD SWAP1 PUSH2 0x98 SWAP2 SWAP1 PUSH2 0x77F JUMP JUMPDEST PUSH2 0x1AB JUMP JUMPDEST PUSH1 0x40 MLOAD PUSH2 0xAA SWAP2 SWAP1 PUSH2 0x7D7 JUMP JUMPDEST PUSH1 0x40 MLOAD DUP1 SWAP2 SUB SWAP1 RETURN JUMPDEST PUSH2 0xCD PUSH1 0x4 DUP1 CALLDATASIZE SUB DUP2 ADD SWAP1 PUSH2 0xC8 SWAP2 SWAP1 PUSH2 0x723 JUMP JUMPDEST PUSH2 0x1DF JUMP JUMPDEST STOP JUMPDEST PUSH2 0xE9 PUSH1 0x4 DUP1 CALLDATASIZE SUB DUP2 ADD SWAP1 PUSH2 0xE4 SWAP2 SWAP1 PUSH2 0x82A JUMP JUMPDEST PUSH2 0x29E JUMP JUMPDEST STOP JUMPDEST PUSH2 0x105 PUSH1 0x4 DUP1 CALLDATASIZE SUB DUP2 ADD SWAP1 PUSH2 0x100 SWAP2 SWAP1 PUSH2 0x723 JUMP JUMPDEST PUSH2 0x49B JUMP JUMPDEST STOP JUMPDEST PUSH2 0x121 PUSH1 0x4 DUP1 CALLDATASIZE SUB DUP2 ADD SWAP1 PUSH2 0x11C SWAP2 SWAP1 PUSH2 0x77F JUMP JUMPDEST PUSH2 0x55A JUMP JUMPDEST PUSH1 0x40 MLOAD PUSH2 0x12E SWAP2 SWAP1 PUSH2 0x7D7 JUMP JUMPDEST PUSH1 0x40 MLOAD DUP1 SWAP2 SUB SWAP1 RETURN JUMPDEST DUP1 PUSH1 0x0 DUP4 PUSH1 0x40 MLOAD PUSH2 0x148 SWAP2 SWAP1 PUSH2 0x91E JUMP JUMPDEST SWAP1 DUP2 MSTORE PUSH1 0x20 ADD PUSH1 0x40 MLOAD DUP1 SWAP2 SUB SWAP1 KECCAK256 PUSH1 0x0 PUSH2 0x100 EXP DUP2 SLOAD DUP2 PUSH1 0xFF MUL NOT AND SWAP1 DUP4 PUSH1 0xFF AND MUL OR SWAP1 SSTORE POP PUSH32 0x93FC8F428CE2F5010E1891417F1312CF2F7BE40F162DC5911A796250187881E7 DUP3 DUP3 PUSH1 0x40 MLOAD PUSH2 0x19F SWAP3 SWAP2 SWAP1 PUSH2 0x97F JUMP JUMPDEST PUSH1 0x40 MLOAD DUP1 SWAP2 SUB SWAP1 LOG1 POP POP JUMP JUMPDEST PUSH1 0x0 DUP1 DUP3 PUSH1 0x40 MLOAD PUSH2 0x1BC SWAP2 SWAP1 PUSH2 0x91E JUMP JUMPDEST SWAP1 DUP2 MSTORE PUSH1 0x20 ADD PUSH1 0x40 MLOAD DUP1 SWAP2 SUB SWAP1 KECCAK256 PUSH1 0x0 SWAP1 SLOAD SWAP1 PUSH2 0x100 EXP SWAP1 DIV PUSH1 0xFF AND SWAP1 POP SWAP2 SWAP1 POP JUMP JUMPDEST DUP1 PUSH1 0x0 DUP4 PUSH1 0x40 MLOAD PUSH2 0x1F0 SWAP2 SWAP1 PUSH2 0x91E JUMP JUMPDEST SWAP1 DUP2 MSTORE PUSH1 0x20 ADD PUSH1 0x40 MLOAD DUP1 SWAP2 SUB SWAP1 KECCAK256 PUSH1 0x0 DUP3 DUP3 DUP3 SWAP1 SLOAD SWAP1 PUSH2 0x100 EXP SWAP1 DIV PUSH1 0xFF AND PUSH2 0x219 SWAP2 SWAP1 PUSH2 0x9DE JUMP JUMPDEST SWAP3 POP PUSH2 0x100 EXP DUP2 SLOAD DUP2 PUSH1 0xFF MUL NOT AND SWAP1 DUP4 PUSH1 0xFF AND MUL OR SWAP1 SSTORE POP PUSH1 0x0 DUP1 DUP4 PUSH1 0x40 MLOAD PUSH2 0x242 SWAP2 SWAP1 PUSH2 0x91E JUMP JUMPDEST SWAP1 DUP2 MSTORE PUSH1 0x20 ADD PUSH1 0x40 MLOAD DUP1 SWAP2 SUB SWAP1 KECCAK256 PUSH1 0x0 SWAP1 SLOAD SWAP1 PUSH2 0x100 EXP SWAP1 DIV PUSH1 0xFF AND SWAP1 POP PUSH32 0x93FC8F428CE2F5010E1891417F1312CF2F7BE40F162DC5911A796250187881E7 DUP4 DUP3 PUSH1 0x40 MLOAD PUSH2 0x291 SWAP3 SWAP2 SWAP1 PUSH2 0x97F JUMP JUMPDEST PUSH1 0x40 MLOAD DUP1 SWAP2 SUB SWAP1 LOG1 POP POP POP JUMP JUMPDEST DUP1 ISZERO PUSH2 0x2FB JUMPI DUP2 PUSH1 0x0 DUP6 PUSH1 0x40 MLOAD PUSH2 0x2B5 SWAP2 SWAP1 PUSH2 0x91E JUMP JUMPDEST SWAP1 DUP2 MSTORE PUSH1 0x20 ADD PUSH1 0x40 MLOAD DUP1 SWAP2 SUB SWAP1 KECCAK256 PUSH1 0x0 DUP3 DUP3 DUP3 SWAP1 SLOAD SWAP1 PUSH2 0x100 EXP SWAP1 DIV PUSH1 0xFF AND PUSH2 0x2DE SWAP2 SWAP1 PUSH2 0x9DE JUMP JUMPDEST SWAP3 POP PUSH2 0x100 EXP DUP2 SLOAD DUP2 PUSH1 0xFF MUL NOT AND SWAP1 DUP4 PUSH1 0xFF AND MUL OR SWAP1 SSTORE POP PUSH2 0x34E JUMP JUMPDEST DUP3 PUSH1 0x0 DUP6 PUSH1 0x40 MLOAD PUSH2 0x30C SWAP2 SWAP1 PUSH2 0x91E JUMP JUMPDEST SWAP1 DUP2 MSTORE PUSH1 0x20 ADD PUSH1 0x40 MLOAD DUP1 SWAP2 SUB SWAP1 KECCAK256 PUSH1 0x0 DUP3 DUP3 DUP3 SWAP1 SLOAD SWAP1 PUSH2 0x100 EXP SWAP1 DIV PUSH1 0xFF AND PUSH2 0x335 SWAP2 SWAP1 PUSH2 0xA13 JUMP JUMPDEST SWAP3 POP PUSH2 0x100 EXP DUP2 SLOAD DUP2 PUSH1 0xFF MUL NOT AND SWAP1 DUP4 PUSH1 0xFF AND MUL OR SWAP1 SSTORE POP JUMPDEST PUSH1 0x0 DUP1 DUP6 PUSH1 0x40 MLOAD PUSH2 0x35F SWAP2 SWAP1 PUSH2 0x91E JUMP JUMPDEST SWAP1 DUP2 MSTORE PUSH1 0x20 ADD PUSH1 0x40 MLOAD DUP1 SWAP2 SUB SWAP1 KECCAK256 PUSH1 0x0 SWAP1 SLOAD SWAP1 PUSH2 0x100 EXP SWAP1 DIV PUSH1 0xFF AND PUSH1 0xFF AND LT ISZERO PUSH2 0x3C0 JUMPI PUSH1 0x0 DUP1 DUP6 PUSH1 0x40 MLOAD PUSH2 0x395 SWAP2 SWAP1 PUSH2 0x91E JUMP JUMPDEST SWAP1 DUP2 MSTORE PUSH1 0x20 ADD PUSH1 0x40 MLOAD DUP1 SWAP2 SUB SWAP1 KECCAK256 PUSH1 0x0 PUSH2 0x100 EXP DUP2 SLOAD DUP2 PUSH1 0xFF MUL NOT AND SWAP1 DUP4 PUSH1 0xFF AND MUL OR SWAP1 SSTORE POP PUSH2 0x431 JUMP JUMPDEST PUSH1 0x64 PUSH1 0x0 DUP6 PUSH1 0x40 MLOAD PUSH2 0x3D2 SWAP2 SWAP1 PUSH2 0x91E JUMP JUMPDEST SWAP1 DUP2 MSTORE PUSH1 0x20 ADD PUSH1 0x40 MLOAD DUP1 SWAP2 SUB SWAP1 KECCAK256 PUSH1 0x0 SWAP1 SLOAD SWAP1 PUSH2 0x100 EXP SWAP1 DIV PUSH1 0xFF AND PUSH1 0xFF AND GT ISZERO PUSH2 0x430 JUMPI PUSH1 0x64 PUSH1 0x0 DUP6 PUSH1 0x40 MLOAD PUSH2 0x409 SWAP2 SWAP1 PUSH2 0x91E JUMP JUMPDEST SWAP1 DUP2 MSTORE PUSH1 0x20 ADD PUSH1 0x40 MLOAD DUP1 SWAP2 SUB SWAP1 KECCAK256 PUSH1 0x0 PUSH2 0x100 EXP DUP2 SLOAD DUP2 PUSH1 0xFF MUL NOT AND SWAP1 DUP4 PUSH1 0xFF AND MUL OR SWAP1 SSTORE POP JUMPDEST JUMPDEST PUSH32 0x93FC8F428CE2F5010E1891417F1312CF2F7BE40F162DC5911A796250187881E7 DUP5 PUSH1 0x0 DUP7 PUSH1 0x40 MLOAD PUSH2 0x463 SWAP2 SWAP1 PUSH2 0x91E JUMP JUMPDEST SWAP1 DUP2 MSTORE PUSH1 0x20 ADD PUSH1 0x40 MLOAD DUP1 SWAP2 SUB SWAP1 KECCAK256 PUSH1 0x0 SWAP1 SLOAD SWAP1 PUSH2 0x100 EXP SWAP1 DIV PUSH1 0xFF AND PUSH1 0x40 MLOAD PUSH2 0x48D SWAP3 SWAP2 SWAP1 PUSH2 0x97F JUMP JUMPDEST PUSH1 0x40 MLOAD DUP1 SWAP2 SUB SWAP1 LOG1 POP POP POP POP JUMP JUMPDEST DUP1 PUSH1 0x0 DUP4 PUSH1 0x40 MLOAD PUSH2 0x4AC SWAP2 SWAP1 PUSH2 0x91E JUMP JUMPDEST SWAP1 DUP2 MSTORE PUSH1 0x20 ADD PUSH1 0x40 MLOAD DUP1 SWAP2 SUB SWAP1 KECCAK256 PUSH1 0x0 DUP3 DUP3 DUP3 SWAP1 SLOAD SWAP1 PUSH2 0x100 EXP SWAP1 DIV PUSH1 0xFF AND PUSH2 0x4D5 SWAP2 SWAP1 PUSH2 0xA13 JUMP JUMPDEST SWAP3 POP PUSH2 0x100 EXP DUP2 SLOAD DUP2 PUSH1 0xFF MUL NOT AND SWAP1 DUP4 PUSH1 0xFF AND MUL OR SWAP1 SSTORE POP PUSH1 0x0 DUP1 DUP4 PUSH1 0x40 MLOAD PUSH2 0x4FE SWAP2 SWAP1 PUSH2 0x91E JUMP JUMPDEST SWAP1 DUP2 MSTORE PUSH1 0x20 ADD PUSH1 0x40 MLOAD DUP1 SWAP2 SUB SWAP1 KECCAK256 PUSH1 0x0 SWAP1 SLOAD SWAP1 PUSH2 0x100 EXP SWAP1 DIV PUSH1 0xFF AND SWAP1 POP PUSH32 0x93FC8F428CE2F5010E1891417F1312CF2F7BE40F162DC5911A796250187881E7 DUP4 DUP3 PUSH1 0x40 MLOAD PUSH2 0x54D SWAP3 SWAP2 SWAP1 PUSH2 0x97F JUMP JUMPDEST PUSH1 0x40 MLOAD DUP1 SWAP2 SUB SWAP1 LOG1 POP POP POP JUMP JUMPDEST PUSH1 0x0 DUP2 DUP1 MLOAD PUSH1 0x20 DUP2 ADD DUP3 ADD DUP1 MLOAD DUP5 DUP3 MSTORE PUSH1 0x20 DUP4 ADD PUSH1 0x20 DUP6 ADD KECCAK256 DUP2 DUP4 MSTORE DUP1 SWAP6 POP POP POP POP POP POP PUSH1 0x0 SWAP2 POP SLOAD SWAP1 PUSH2 0x100 EXP SWAP1 DIV PUSH1 0xFF AND DUP2 JUMP JUMPDEST PUSH1 0x0 PUSH1 0x40 MLOAD SWAP1 POP SWAP1 JUMP JUMPDEST PUSH1 0x0 DUP1 REVERT JUMPDEST PUSH1 0x0 DUP1 REVERT JUMPDEST PUSH1 0x0 DUP1 REVERT JUMPDEST PUSH1 0x0 DUP1 REVERT JUMPDEST PUSH1 0x0 PUSH1 0x1F NOT PUSH1 0x1F DUP4 ADD AND SWAP1 POP SWAP2 SWAP1 POP JUMP JUMPDEST PUSH32 0x4E487B7100000000000000000000000000000000000000000000000000000000 PUSH1 0x0 MSTORE PUSH1 0x41 PUSH1 0x4 MSTORE PUSH1 0x24 PUSH1 0x0 REVERT JUMPDEST PUSH2 0x5F7 DUP3 PUSH2 0x5AE JUMP JUMPDEST DUP2 ADD DUP2 DUP2 LT PUSH8 0xFFFFFFFFFFFFFFFF DUP3 GT OR ISZERO PUSH2 0x616 JUMPI PUSH2 0x615 PUSH2 0x5BF JUMP JUMPDEST JUMPDEST DUP1 PUSH1 0x40 MSTORE POP POP POP JUMP JUMPDEST PUSH1 0x0 PUSH2 0x629 PUSH2 0x590 JUMP JUMPDEST SWAP1 POP PUSH2 0x635 DUP3 DUP3 PUSH2 0x5EE JUMP JUMPDEST SWAP2 SWAP1 POP JUMP JUMPDEST PUSH1 0x0 PUSH8 0xFFFFFFFFFFFFFFFF DUP3 GT ISZERO PUSH2 0x655 JUMPI PUSH2 0x654 PUSH2 0x5BF JUMP JUMPDEST JUMPDEST PUSH2 0x65E DUP3 PUSH2 0x5AE JUMP JUMPDEST SWAP1 POP PUSH1 0x20 DUP2 ADD SWAP1 POP SWAP2 SWAP1 POP JUMP JUMPDEST DUP3 DUP2 DUP4 CALLDATACOPY PUSH1 0x0 DUP4 DUP4 ADD MSTORE POP POP POP JUMP JUMPDEST PUSH1 0x0 PUSH2 0x68D PUSH2 0x688 DUP5 PUSH2 0x63A JUMP JUMPDEST PUSH2 0x61F JUMP JUMPDEST SWAP1 POP DUP3 DUP2 MSTORE PUSH1 0x20 DUP2 ADD DUP5 DUP5 DUP5 ADD GT ISZERO PUSH2 0x6A9 JUMPI PUSH2 0x6A8 PUSH2 0x5A9 JUMP JUMPDEST JUMPDEST PUSH2 0x6B4 DUP5 DUP3 DUP6 PUSH2 0x66B JUMP JUMPDEST POP SWAP4 SWAP3 POP POP POP JUMP JUMPDEST PUSH1 0x0 DUP3 PUSH1 0x1F DUP4 ADD SLT PUSH2 0x6D1 JUMPI PUSH2 0x6D0 PUSH2 0x5A4 JUMP JUMPDEST JUMPDEST DUP2 CALLDATALOAD PUSH2 0x6E1 DUP5 DUP3 PUSH1 0x20 DUP7 ADD PUSH2 0x67A JUMP JUMPDEST SWAP2 POP POP SWAP3 SWAP2 POP POP JUMP JUMPDEST PUSH1 0x0 PUSH1 0xFF DUP3 AND SWAP1 POP SWAP2 SWAP1 POP JUMP JUMPDEST PUSH2 0x700 DUP2 PUSH2 0x6EA JUMP JUMPDEST DUP2 EQ PUSH2 0x70B JUMPI PUSH1 0x0 DUP1 REVERT JUMPDEST POP JUMP JUMPDEST PUSH1 0x0 DUP2 CALLDATALOAD SWAP1 POP PUSH2 0x71D DUP2 PUSH2 0x6F7 JUMP JUMPDEST SWAP3 SWAP2 POP POP JUMP JUMPDEST PUSH1 0x0 DUP1 PUSH1 0x40 DUP4 DUP6 SUB SLT ISZERO PUSH2 0x73A JUMPI PUSH2 0x739 PUSH2 0x59A JUMP JUMPDEST JUMPDEST PUSH1 0x0 DUP4 ADD CALLDATALOAD PUSH8 0xFFFFFFFFFFFFFFFF DUP2 GT ISZERO PUSH2 0x758 JUMPI PUSH2 0x757 PUSH2 0x59F JUMP JUMPDEST JUMPDEST PUSH2 0x764 DUP6 DUP3 DUP7 ADD PUSH2 0x6BC JUMP JUMPDEST SWAP3 POP POP PUSH1 0x20 PUSH2 0x775 DUP6 DUP3 DUP7 ADD PUSH2 0x70E JUMP JUMPDEST SWAP2 POP POP SWAP3 POP SWAP3 SWAP1 POP JUMP JUMPDEST PUSH1 0x0 PUSH1 0x20 DUP3 DUP5 SUB SLT ISZERO PUSH2 0x795 JUMPI PUSH2 0x794 PUSH2 0x59A JUMP JUMPDEST JUMPDEST PUSH1 0x0 DUP3 ADD CALLDATALOAD PUSH8 0xFFFFFFFFFFFFFFFF DUP2 GT ISZERO PUSH2 0x7B3 JUMPI PUSH2 0x7B2 PUSH2 0x59F JUMP JUMPDEST JUMPDEST PUSH2 0x7BF DUP5 DUP3 DUP6 ADD PUSH2 0x6BC JUMP JUMPDEST SWAP2 POP POP SWAP3 SWAP2 POP POP JUMP JUMPDEST PUSH2 0x7D1 DUP2 PUSH2 0x6EA JUMP JUMPDEST DUP3 MSTORE POP POP JUMP JUMPDEST PUSH1 0x0 PUSH1 0x20 DUP3 ADD SWAP1 POP PUSH2 0x7EC PUSH1 0x0 DUP4 ADD DUP5 PUSH2 0x7C8 JUMP JUMPDEST SWAP3 SWAP2 POP POP JUMP JUMPDEST PUSH1 0x0 DUP2 ISZERO ISZERO SWAP1 POP SWAP2 SWAP1 POP JUMP JUMPDEST PUSH2 0x807 DUP2 PUSH2 0x7F2 JUMP JUMPDEST DUP2 EQ PUSH2 0x812 JUMPI PUSH1 0x0 DUP1 REVERT JUMPDEST POP JUMP JUMPDEST PUSH1 0x0 DUP2 CALLDATALOAD SWAP1 POP PUSH2 0x824 DUP2 PUSH2 0x7FE JUMP JUMPDEST SWAP3 SWAP2 POP POP JUMP JUMPDEST PUSH1 0x0 DUP1 PUSH1 0x0 DUP1 PUSH1 0x80 DUP6 DUP8 SUB SLT ISZERO PUSH2 0x844 JUMPI PUSH2 0x843 PUSH2 0x59A JUMP JUMPDEST JUMPDEST PUSH1 0x0 DUP6 ADD CALLDATALOAD PUSH8 0xFFFFFFFFFFFFFFFF DUP2 GT ISZERO PUSH2 0x862 JUMPI PUSH2 0x861 PUSH2 0x59F JUMP JUMPDEST JUMPDEST PUSH2 0x86E DUP8 DUP3 DUP9 ADD PUSH2 0x6BC JUMP JUMPDEST SWAP5 POP POP PUSH1 0x20 PUSH2 0x87F DUP8 DUP3 DUP9 ADD PUSH2 0x70E JUMP JUMPDEST SWAP4 POP POP PUSH1 0x40 PUSH2 0x890 DUP8 DUP3 DUP9 ADD PUSH2 0x70E JUMP JUMPDEST SWAP3 POP POP PUSH1 0x60 PUSH2 0x8A1 DUP8 DUP3 DUP9 ADD PUSH2 0x815 JUMP JUMPDEST SWAP2 POP POP SWAP3 SWAP6 SWAP2 SWAP5 POP SWAP3 POP JUMP JUMPDEST PUSH1 0x0 DUP2 MLOAD SWAP1 POP SWAP2 SWAP1 POP JUMP JUMPDEST PUSH1 0x0 DUP2 SWAP1 POP SWAP3 SWAP2 POP POP JUMP JUMPDEST PUSH1 0x0 JUMPDEST DUP4 DUP2 LT ISZERO PUSH2 0x8E1 JUMPI DUP1 DUP3 ADD MLOAD DUP2 DUP5 ADD MSTORE PUSH1 0x20 DUP2 ADD SWAP1 POP PUSH2 0x8C6 JUMP JUMPDEST PUSH1 0x0 DUP5 DUP5 ADD MSTORE POP POP POP POP JUMP JUMPDEST PUSH1 0x0 PUSH2 0x8F8 DUP3 PUSH2 0x8AD JUMP JUMPDEST PUSH2 0x902 DUP2 DUP6 PUSH2 0x8B8 JUMP JUMPDEST SWAP4 POP PUSH2 0x912 DUP2 DUP6 PUSH1 0x20 DUP7 ADD PUSH2 0x8C3 JUMP JUMPDEST DUP1 DUP5 ADD SWAP2 POP POP SWAP3 SWAP2 POP POP JUMP JUMPDEST PUSH1 0x0 PUSH2 0x92A DUP3 DUP5 PUSH2 0x8ED JUMP JUMPDEST SWAP2 POP DUP2 SWAP1 POP SWAP3 SWAP2 POP POP JUMP JUMPDEST PUSH1 0x0 DUP3 DUP3 MSTORE PUSH1 0x20 DUP3 ADD SWAP1 POP SWAP3 SWAP2 POP POP JUMP JUMPDEST PUSH1 0x0 PUSH2 0x951 DUP3 PUSH2 0x8AD JUMP JUMPDEST PUSH2 0x95B DUP2 DUP6 PUSH2 0x935 JUMP JUMPDEST SWAP4 POP PUSH2 0x96B DUP2 DUP6 PUSH1 0x20 DUP7 ADD PUSH2 0x8C3 JUMP JUMPDEST PUSH2 0x974 DUP2 PUSH2 0x5AE JUMP JUMPDEST DUP5 ADD SWAP2 POP POP SWAP3 SWAP2 POP POP JUMP JUMPDEST PUSH1 0x0 PUSH1 0x40 DUP3 ADD SWAP1 POP DUP2 DUP2 SUB PUSH1 0x0 DUP4 ADD MSTORE PUSH2 0x999 DUP2 DUP6 PUSH2 0x946 JUMP JUMPDEST SWAP1 POP PUSH2 0x9A8 PUSH1 0x20 DUP4 ADD DUP5 PUSH2 0x7C8 JUMP JUMPDEST SWAP4 SWAP3 POP POP POP JUMP JUMPDEST PUSH32 0x4E487B7100000000000000000000000000000000000000000000000000000000 PUSH1 0x0 MSTORE PUSH1 0x11 PUSH1 0x4 MSTORE PUSH1 0x24 PUSH1 0x0 REVERT JUMPDEST PUSH1 0x0 PUSH2 0x9E9 DUP3 PUSH2 0x6EA JUMP JUMPDEST SWAP2 POP PUSH2 0x9F4 DUP4 PUSH2 0x6EA JUMP JUMPDEST SWAP3 POP DUP3 DUP3 SUB SWAP1 POP PUSH1 0xFF DUP2 GT ISZERO PUSH2 0xA0D JUMPI PUSH2 0xA0C PUSH2 0x9AF JUMP JUMPDEST JUMPDEST SWAP3 SWAP2 POP POP JUMP JUMPDEST PUSH1 0x0 PUSH2 0xA1E DUP3 PUSH2 0x6EA JUMP JUMPDEST SWAP2 POP PUSH2 0xA29 DUP4 PUSH2 0x6EA JUMP JUMPDEST SWAP3 POP DUP3 DUP3 ADD SWAP1 POP PUSH1 0xFF DUP2 GT ISZERO PUSH2 0xA42 JUMPI PUSH2 0xA41 PUSH2 0x9AF JUMP JUMPDEST JUMPDEST SWAP3 SWAP2 POP POP JUMP INVALID LOG2 PUSH5 0x6970667358 0x22 SLT KECCAK256 0xEB PUSH7 0x3314337E5F5139 0x2B 0xFC 0xD5 0xE7 0xC9 PUSH32 0xAB940DC18513E68F3872701F5A335334DF64736F6C634300081A003300000000 "
				},
				"gasEstimates": {
					"creation": {
						"codeDepositCost": "537200",
						"executionCost": "568",
						"totalCost": "537768"
					},
					"external": {
						"decrement(string,uint8)": "infinite",
						"getRanking(string)": "infinite",
						"increment(string,uint8)": "infinite",
						"rankings(string)": "infinite",
						"setRanking(string,uint8)": "infinite",
						"updateRanking(string,uint8,uint8,bool)": "infinite"
					}
				},
				"methodIdentifiers": {
					"decrement(string,uint8)": "686c705e",
					"getRanking(string)": "46e7a1dc",
					"increment(string,uint8)": "ad71108b",
					"rankings(string)": "fdf3f74d",
					"setRanking(string,uint8)": "1a711a66",
					"updateRanking(string,uint8,uint8,bool)": "99969b9a"
				}
			},
			"storageLayout": {
				"storage": [
					{
						"astId": 5,
						"contract": "contracts/userranking.sol:UserRanking",
						"label": "rankings",
						"offset": 0,
						"slot": "0",
						"type": "t_mapping(t_string_memory_ptr,t_uint8)"
					}
				],
				"types": {
					"t_mapping(t_string_memory_ptr,t_uint8)": {
						"encoding": "mapping",
						"key": "t_string_memory_ptr",
						"label": "mapping(string => uint8)",
						"numberOfBytes": "32",
						"value": "t_uint8"
					},
					"t_string_memory_ptr": {
						"encoding": "bytes",
						"label": "string",
						"numberOfBytes": "32"
					},
					"t_uint8": {
						"encoding": "inplace",
						"label": "uint8",
						"numberOfBytes": "1"
					}
				}
			},
			"userdoc": {
				"kind": "user",
				"methods": {},
				"version": 1
			}
		}
	}
}